:10000000605F0020753D0000492C0100613D00004B
:10001000613D0000613D0000613D0000613D000068
:10002000000000000000000000000000213F000070
:10003000613D000000000000E13E0000613D000065
:10004000E1400000E1400000E1400000E14000002C
:10005000E1400000E1400000E1400000E14000001C
:10006000E1400000E1400000E1400000E14000000C
:10007000E1400000E1400000E1400000E1400000FC
:10008000E1400000E1400000E1400000E1400000EC
:10009000E1400000E1400000E1400000E1400000DC
:1000A000E1400000E1400000E1400000E1400000CC
:1000B000E1400000E1400000E1400000E1400000BC
:1000C000E1400000E1400000E1400000E1400000AC
:1000D000E1400000E1400000E1400000E14000009C
:1000E000E1400000E1400000E1400000E14000008C
:1000F000E1400000E1400000E1400000E14000007C
:10010000E1400000E1400000E1400000E14000006B
:10011000E1400000E1400000E1400000E14000005B
:10012000E1400000E1400000E1400000E14000004B
:10013000E1400000E1400000E1400000E14000003B
:10014000E1400000E1400000E1400000E14000002B
:04015000E14000008A
:1001540010F8012B11F8013B012A28BF9A42F7D06D
:10016400D01A7047034611F8012B03F8012B002A1B
:10017400F9D17047034613F8012B002AFBD1181A52
:10018400013870474FF0004130B50D480D4B0E4C0F
:10019400D3F8405503782268D9400133DBB2202DCF
:1001A4008CBF0A438A431F2B88BF0023226083BF6E
:1001B40001220370054B037088BF1A7030BD00BF65
:1001C40066230020000001507816002065230020DB
:1001D400BFB5AD4811F01BFC00220621102003F02E
:1001E400DDFE00220621112003F0D8FE00220621A4
:1001F4000D2003F0D3FEA54811F009FC00210120D5
:100204000BF078FAA24B00260393072303A9A14A13
:10021400A1488DF81230ADF8106005960CF026F95F
:100224009E4B0146984214D09D4811F0F0FB0721E3
:100234009C480BF047FE994B0446984228D09A49B3
:10024400BD239A4A9A4811F0F8FBBD21974811F052
:10025400EBFB984811F0DBFB64218F4814F02EF877
:10026400322107468C4814F029F8012504462B4610
:100274003A463146884800950CF0D8F92B46224678
:10028400294685480CF09EF983480CF07BF9CEE7AB
:1002940084480BF067FE884A8849002808BF114645
:1002A400874811F0B4FB87497E480BF065FEA042F5
:1002B400054607D07C49C2237C4A7D4811F0BDFB2A
:1002C400C221C3E70921804A76480BF0C5FC01220C
:1002D400092174480BF056FE7C4972480BF04CFE21
:1002E400A842044607D07049DA23704A704811F0D6
:1002F400A4FBDA21AAE70821754A6A48754E0BF077
:10030400ABFC0022082167480BF03CFE31466548EF
:100314000BF032FEA042054607D06349ED23634A41
:10032400634811F08AFBED2190E7337800228DF8C1
:1003340008308DF80C300223012407218DF80A209F
:100344008DF80D30644A02AB5648644E8DF809406E
:100354008DF80E400BF036FD19215F4A03AB51486E
:100364000BF030FD30460BF005F8A842074609D0E3
:100374004D494FF49A734D4A4D4811F05EFB4FF4CA
:100384009A7163E709214748357813F061FF544AAD
:100394000146284613F0D0FE3078524D04FA00F09E
:1003A4000AF080FF28460AF0E5FFB842064609D065
:1003B4003D494FF4A0733D4A3D4811F03EFB4FF4D4
:1003C400A07143E7082137482F7813F041FF464ACC
:1003D4000146384613F0B0FE2878444F04FA00F082
:1003E4000AF060FF38460AF0C5FFB04209D02E4932
:1003F4004FF4A6732D4A2E4811F01FFB4FF4A6713B
:1004040024E7072127483E7813F01AFF38490246AB
:10041400304613F091FE192122483E7813F010FF64
:1004240034490246304613F087FE287804FA00F077
:100434000AF038FF304811F0EAFA30480CF060F85E
:100444002E480CF081F82E4A2E49002808BF114688
:100454002D4811F0DCFA00214FF440400FF0A6FDC6
:100464002A4811F0D4FA2A4C2A4D2B4E23782BB16A
:100474003046296811F0CBFA002323700021422072
:100484000FF094FDF2E700BFDA60010002610100A1
:100494000024F400BB150100485801000000AD0B16
:1004A4001961010058580100666101004A610100A8
:1004B400AC60010032610100447D0100487D01000F
:1004C4007D610100642300203C5801006323002067
:1004D40030580100622300200262010069230020D9
:1004E4000C000150682300204000015067230020C5
:1004F400401101504411015096610100505801000F
:10050400D1600100C9600100B7610100DD61010033
:100514006523002078160020F26101008B1E5942E9
:100524005941014B197070476B2300204B1E5942EF
:100534005941014B197070476C23002008B5042BF6
:10054400BDF808100CD171B90A4B1B680BB9042013
:1005540008BD1068012809D800F001009847F6E7A3
:100564006FF00C00F4E76FF00600F1E76FF0120093
:10057400EEE700BF7C1600202DE9FF411F460D4B1E
:10058400054658680C46164680B1D1F80C80804761
:10059400094B324618700123CDE90183BDF8283098
:1005A4002146009328463B4613F0DEFB04B0BDE829
:1005B400F08100BF7C1600206A230020F8B50F46A6
:1005C40000293BD006680122304611F02DF801467F
:1005D4000446304610F0F0FFC3070DD4AF23184A89
:1005E4001849194811F029FA3946184811F025FA22
:1005F400AF21134811F018FA2146304610F0F2FFEB
:10060400251829460022304610F0D6FF2D1AAC4298
:100614000BD0B7230A4A0E490B4811F00EFA39469B
:100624000C4811F00AFAB721E3E72146304610F0EE
:10063400DFFF2146BDE8F84011F01BB9F8BD00BF4B
:100644007C6201009F620100AC600100B0620100A5
:10065400E86201000E6301002DE9F8430F460668C5
:100664001446B2684B1EB2F5004F34BF0421082172
:100674003B4010D0C7F1000909EA0709494503F1D5
:10068400FF3028BF494618420CD11F46DCB900256B
:100694002846BDE8F8838F4213D82146BDE8F843C5
:1006A40011F029B92E494FF4A2732E4A2E4811F0A5
:1006B400C4F92E4811F0C1F94FF4A271294811F080
:1006C400B3F99946E2E7B2EBD40FE0D9E319591A2A
:1006D400104610F0B3FF0146304611F009F8804689
:1006E4000028D4D0B36809EBC005B3F5004F34BF7C
:1006F400042308231D4435447B1E1D44B5FBF7F534
:100704007D43A5EB09052946304610F08DFF2C44A6
:10071400073424F00704A41B804507464FEAE40489
:1007240008D202464146304611F01CF84146304694
:1007340011F05DF83946304610F054FF38448442D5
:1007440008D239463046224611F00CF8214630468C
:1007540011F04DF801223946304610F049FF97E771
:100764004A6301007C620100AC6001006563010022
:10077400B2F5802F2DE9F04110D2042A28D843493C
:100784004FF4F973424A434811F057F9424811F0C3
:1007940054F94FF4F9713E4811F046F90823D21A7E
:1007A400CC1D114424F0070421F00701091B17296B
:1007B4004FEAD1060ED8394940F2FB13344A354882
:1007C40011F03BF9344811F038F940F2FB11E2E73B
:1007D4000423E4E70027046031463046A660E7605E
:1007E40010F035FF0121421D8046304610F026FFEF
:1007F4009200D51DED082844B0423AD8B8F1FF3F25
:100804003946A2F1100204F11000B8BF3A4614F0C0
:10081400D8FC2A463946204610F002FF3B463A46A9
:100824003946204610F0D3FEA6EB0508204639468B
:10083400012210F0DDFE4246294610F0F1FE2B465F
:100844003A462946204610F0C2FE3146204610F0B2
:10085400E7FE43463A463146204610F0B8FE31469C
:100864002046012210F0C4FE2946BDE8F04110F0F4
:10087400BEBF0B494FF40373054A064811F0DDF877
:10088400054811F0DAF84FF4037184E7826301003C
:100894007C620100AC600100A3630100BC63010041
:1008A400E56301002DE9F04F91B0009302F00403D9
:1008B4000293C2F3C2030133840705460E46DDF8F2
:1008C40068800392059340F0F681041D30B1072936
:1008D40009D86FF01B0011B0BDE8F08F01F00706D6
:1008E400341DC6F108064FF000094FF0040B009BBD
:1008F4004F46013B01934FF0FF324B46DA46CDF8A9
:1009040010900DB1009921600598002800F3D7805C
:1009140098480099814203D397488142C0F0CF8020
:100924000399A4EB050E89074FEA9E0040F1E2808B
:100934004FF0000CCCE07A285AD84B280CD8472822
:1009440056D829282AD8252851D051D8202877D0FC
:1009540023384342434173E04C382E2848D8DFE81B
:1009640000F06F4747474747474747474747494787
:1009740047474747474747594749495959596F498D
:100984006C476F471849184747807D49474749478F
:100994007D00002000234FF0040B39E001212A38A8
:1009A400C0B201FA00F010EA0E0F49D110F0625CF7
:1009B40030D110EA010343D06046013C5C44B4FBEF
:1009C400FBF40BFB04F4002D60D0AAEB050CA4444B
:1009D400B4453FF67EAF00286AD1BAF1040F45D181
:1009E40058F8040B20604FF0040A043428E0013A5C
:1009F400002325E0019B13F8013C6C2B33D100202C
:100A0400019B13F8023C6C2B0346C4D14FF0080B36
:100A1400DA46D2E708F1070828F00708073424F07B
:100A24000704F8E802AB35B106982044B0423FF61B
:100A340050AFC4E900AB002308344FF0080BDA468A
:100A4400019911F8010F0191002800F0BC80002BDE
:100A54007FF471AF2528F3D1012301324FF0040B49
:100A6400EDE7184696E700200346A6E7BAF1080F1B
:100A740040F09B8008F1070828F00708F8E8020115
:100A8400C4E900014FF0080A0834D9E780B9BAF183
:100A9400040F02D108F10408A5E7BAF1080F40F0E9
:100AA400848008F1070828F0070808F10808E9E736
:100AB40005990139059158F8041B009121E7039920
:100AC40088074AD54FF0010CA4EB050E4FEA9E00AF
:100AD400BEF5007F1ED329494FF41F73284A2948C5
:100AE40010F0ABFF284810F0A8FF4FF41F71244802
:100AF40010F09AFF0F2F0FD8002D49D007F14001B5
:100B04000DEB010C0CF8200C0CF8102C049801309F
:100B1400049021E00F2F0CD9184940F28123184A80
:100B2400184810F08AFF194810F087FF40F281211D
:100B3400DDE7CDB107F140010DEB010EC0B20EF8B7
:100B4400200C0EF8102CBCF1000FDFD060F07F00F9
:100B54000EF8200C09F101090137C5F108014FF61F
:100B6400DA7E043406916BE7BCF1000F10D0013635
:100B7400F2E700BF2453010018AC0100D9AB010017
:100B840010640100AC6001003E6401005F64010078
:100B9400029802360028DFD10098CDE90632FFF72B
:100BA400E9FADDE906320644D6E740F2C623434AB1
:100BB4004349444810F041FF5146434810F03DFF7B
:100BC40040F2C62193E7631BB3F5806F0CD33C4915
:100BD40040F2D223394A3B4810F02FFF3B4810F033
:100BE4002CFF40F2D22182E71DB9A6F10804E018D7
:100BF40071E6029A9B0828602B709DF81030C2B1F0
:100C0400EB7085F80290B9F1000F05D0002208A816
:100C1400C5F1010C97420ED14FF0000AC5F1010352
:100C24000DF1200801930DF1300B574512D1601BD3
:100C340051E66B70E5E710F8013B190608D504EBA3
:100C44000C0EB64503F07F033FF643AE04F8013BB8
:100C54000132DFE7B9F1000F03D098F90020002A30
:100C640017DB029BD3B11AF80B2004F8012B0022E6
:100C7400019B98182044B0423FF62BAE98F8000030
:100C8400009904F8010B2046039214F08DFA039A9C
:100C940014440AF1010A08F10108C6E798F8002093
:100CA40055F822300093029B009845F82230FFF754
:100CB40061FA421CDCE76FF00D000CE610640100E1
:100CC400D9AB0100AC600100796401008E640100BD
:100CD4002DE9F04F97B000AF89460446D7F880B0AD
:100CE400FA623B6258B9A9494FF46673A84AA94805
:100CF40010F0A3FE4FF46671A54810F095FECBF3F7
:100D0400C00390F802A0BB6141B9457800780AEBB2
:100D1400800020444D4517D8A0EB0409E378FB611B
:100D2400BAF1000F02D01BF0010F16D1FB6953BBBF
:100D3400FB6A1BB1494620463A6A98474D46284605
:100D44005C37BD46BDE8F08F461C3046FFF712FA0B
:100D54000130304409F10109DCE7626823787A62E2
:100D6400FA6A9900796104EB8301002A40F0028158
:100D74000E464FF000084D4601EB0A094E454CD192
:100D840001EB0A0610E01BF0020FD1D023789A0081
:100D94007A61626804EB83017A62FA6A002A77D185
:100DA4004D46904601EB0A061BF0050F0CBF0223CB
:100DB4000123FB62FB6906EB430A0BF00203BB62EF
:100DC4005645BCD016F8021B16F8013C54F8239083
:100DD400714B994502D3714B994536D3BB69002BAE
:100DE40040D0786A10F0EAFD00283BD0E9468AB08A
:100DF4006A466B4B53617B6AC2E906314FF4007358
:100E04001384684B42F8103F00234FF41251664894
:100E140001F0B4FE023DCD46D2E716F8013BF9627B
:100E240054F82300FFF7A6F9D7F88430F96A0130A3
:100E34004BB1D7F8883098453EBFD7F8843023F8B3
:100E4400180008F10108054498E7BB6923B1786AE2
:100E540010F0B4FD0028C9D11BF0010F05D1FB6AC5
:100E6400ED1AADE7BB6A002BAAD04846FFF782F91A
:100E7400D7F8843053B1D7F8883098453FBFD7F8B6
:100E84008420431C22F8183008F10108054497E730
:100E9400BAF1000F74D01BF0040674D0D0460026BB
:100EA40007F1480052463B61B96214F07DF9B96A12
:100EB4003B6901EB0A02BA62FA69F9695200FA6005
:100EC400BA6A02EB41023A610BF00202BA60BA6AF2
:100ED40039698A426AD162781BF0020F18BF002177
:100EE4007A6208BF4FEA5801B2181BF0010FD2B260
:100EF40040F0E5801BF0040F14BF40460020BB61A6
:100F04006270A070E17020463A6A7969FB6A98477A
:100F1400051EFFF614AFBB69414623707B6A3A6A2B
:100F24006370FB6984F802A0E37007F14800FB6A70
:100F34009847B0F10008C0F2F0807B69A9EB0A0180
:100F4400C91AFB683A6AC91AD7E90A0398470028FC
:100F5400C0F2E5804FF0000BA84408EB000507F150
:100F6400380AB345C0F0AD8000213A6A0846FB6AEE
:100F74009847E4E656464FF0000807F1380091E739
:100F84005646D04695E7B04693E700BFA5640100F6
:100F940010640100AC6001002453010018AC01008E
:100FA400C064010004000001F4560100BA6A12F89A
:100FB400021B12F8015CBA6254F82500594A9042A7
:100FC40002D3594A904218D3BA693AB1786A7B601D
:100FD40010F0F4FC7B6800287FF479AFBA68002A2B
:100FE4004CD00F2E40D9514940F24C43504A5148FD
:100FF40010F023FD40F24C417EE6BA693AB1786ABA
:101004007B6010F0DBFC7B6800287FF460AF1BF092
:10101400010F0BD00F2E27D9444940F24243444AD2
:10102400444810F00AFD40F2424165E61BF0040F0B
:101034003FF44DAFB8F10F0F09D93F4940F2454392
:101044003B4A3C4810F0F9FC40F2454154E608F1B3
:10105400280207F1300008F1010102EB000808F84A
:10106400105C5FFA81F832E706F1280207F13000DC
:10107400711C161806F8205CCEB228E7B8F10F0FE1
:1010840009D92D4940F24F43294A2A4810F0D5FC8A
:1010940040F24F4130E608F1280207F1300C08F124
:1010A4000100944407F1580208F1020852FA80F052
:1010B4000CF8101C5FFA88F800F8105C07E70020B1
:1010C4001DE71BF80A3054F8239087F83730D7F817
:1010D4008430FBB133F81B8001213A6AFB6A07F1C3
:1010E4003700984700281ADB0544B8F1000F06D1F1
:1010F4004846FFF73FF800F101081FFA88F8414617
:1011040048463A6AFB6A9847002808DB05440BF115
:10111400010B26E7D7F88480DEE745460FE605464F
:101124000DE600BF2453010018AC01006365010003
:1011340010640100AC60010082650100014B18607D
:10114400704700BFD801002080B505460E461746FB
:1011540098460EF061FF034614F0D8F80446DFF811
:101164001890424649F8003039463046A84754F8AA
:10117400090002F065FE00BF0800000038B50D4606
:1011840004462022002114F01CF80022EB68E361DD
:10119400AB68A3612B6823626B68A26263622A69ED
:1011A40023B1591E194208BF42F0010222610122F3
:1011B400002104F12C0013F060FE48B105490648F3
:1011C4002F23064A10F039FC2F21044810F02CFC80
:1011D40038BD00BFD9650100AC600100B3650100F2
:1011E4002DE9F04F002789B0CDE90123436A044675
:1011F4008B428846BA460597079755D34FF0200B84
:1012040000F11406EFF3118300938BF31288BFF3FC
:101214006F8F3046DDF800900FF0BAF858B9882384
:101224004A4A4B494B4810F008FC31464A4810F0F2
:1012340004FC882160E030460FF0CEF8079A2AB10A
:101244003946204610F0DAFC0023079306A920460D
:1012540010F000FC0699054641452ED32268236A06
:10126400204613F8221003EB820A21F0030103F84D
:1012740022102168424610F011FCE3682060984275
:1012840016D0002530460FF091F840B389F3118849
:10129400BFF36F8F059929B1A2690AB1204690471F
:1012A40000230593002DADD1504609B0BDE8F08F61
:1012B400236943F008032361E3E718B1204610F0E3
:1012C40007FCDFE7DDE90132134337D0039113F064
:1012D40049FE039990BB30460FF068F878B940F2A4
:1012E40031131A4A1D491B4810F0A7FB31461C480C
:1012F40010F0A3FB40F23111144810F095FB009B51
:1013040083F31188BFF36F8F04F12C00DDE901230F
:101314000CF0DEFE0546EFF311898BF31288BFF360
:101324006F8F30460FF034F800283FF478AFB5FAE9
:1013340085F530460FF050F86D09A3E7204607AB5A
:1013440005AA276810F0E3FB05469BE7E265010068
:101354000F660100AC600100246601003A660100DA
:10136400516601002DE9F0410446C36908460E4662
:10137400984704F114050746EFF31188202383F3FB
:101384001288BFF36F8F28460FF002F868B98823DC
:101394001A4A1B491B4810F050FB29461A4810F002
:1013A4004CFB8821154810F03FFB28460FF014F839
:1013B40033783A4643F0010333706168204610F0F5
:1013C4006DFB6060204610F034FC28460EF0EEFF02
:1013D40068B940F23113094A0C490A4810F02DFB50
:1013E40029460B4810F029FB40F23111DAE788F363
:1013F4001188BFF36F8FBDE8F08100BFE265010083
:101404000F660100AC600100246601003A66010029
:10141400516601002DE9F843044600F11407EFF387
:101424001188202383F31288BFF36F8F38460EF0A0
:10143400AFFF054668B98823344A3549354810F06A
:10144400FCFA3946344810F0F8FA88212F4810F095
:10145400EBFA38460EF0C0FF2369A26813F0080FB8
:1014640002D163689A4200D9636A9B1A002B3FD069
:10147400216A11F8223001EB820913F003003AD0FB
:10148400022803D151F82260B60805D1D8071FD429
:101494004846E36998470646A1683246204610F05C
:1014A400FDFA3146A060204610F006FB38460EF0E7
:1014B4007DFF10BB40F23113144A1849154810F04F
:1014C400BCFA3946164810F0B8FA40F23111BDE7BB
:1014D40043F0020301F82230E3694846A5689847BF
:1014E40029460246204610F0D9FA0025A060DDE71F
:1014F4001D46A946DAE70546FBE788F31188BFF3E2
:101504006F8F002D8BD14846BDE8F883E26501005A
:101514000F660100AC600100246601003A66010018
:10152400516601002DE9F0410446C36908460D46A1
:10153400984704F114060746EFF31188202383F338
:101544001288BFF36F8F30460EF022FF68B98823EC
:10155400274A2849284810F070FA3146274810F0E5
:101564006CFA8821224810F05FFA30460EF034FFFE
:101574002B786FF300032B7023699B0705D5E26872
:10158400236A03EB82039D4222D12B786FF341033C
:101594002B70D4E90231994204D13A46204610F026
:1015A4007DFAA0603946204610F086FA30460EF0E7
:1015B400FDFE90B940F231130D4A11490E4810F066
:1015C4003CFA31460F4810F038FA40F23111C9E7BD
:1015D4002B6867F39F032B60E8E788F31188BFF358
:1015E4006F8F04F12C00BDE8F0410CF02FBD00BF5B
:1015F400E26501000F660100AC6001002466010091
:101604003A6601005166010070B5044600F1140504
:10161400EFF31186202383F31288BFF36F8F2846DC
:101624000EF0B6FE68B988231A4A1B491B4810F00D
:1016340004FA29461A4810F000FA8821154810F0D7
:10164400F3F928460EF0C8FE2369A06813F0080FCA
:1016540002D16368984213D9646A241A28460EF0AA
:10166400A5FE78B940F231130A4A0E490B4810F02E
:10167400E4F929460C4810F0E0F940F23111DDE7B5
:101684001C1AEBE786F31188BFF36F8F201E18BF77
:10169400012070BDE26501000F660100AC6001002D
:1016A400246601003A660100516601002DE9F84FF5
:1016B4000446A38B08461907154612D4022803F0E2
:1016C400070165D1204610F0C1FA88B10138042819
:1016D40000F23781DFE810F05C0035018200D400AD
:1016E400040101280CBF43F0100143F02001A18341
:1016F400143420460EF05AFE002840F09D819A4989
:1017040040F23113994A9A4810F097F92146B1E012
:1017140003F00702501F01281ED80020062A27685C
:10172400C4E9000014D13A4603E0E08B0130E083C1
:101734001268002AF9D123F0070343F0020220467D
:10174400A28310F083FA90B342F02002A2832EE029
:1017540023F007039AB2F2E7042A33D123F00703F4
:101764009AB22046A28310F071FA10B142F020021E
:10177400A283A38B03F00709894540F0EC80A18B79
:10178400CA0640F1508121F01003A38301F0070140
:10179400D4F81880A38BB8F1000FB9DA00222768B7
:1017A40023F00703C4E9002243F00103A383A38BBE
:1017B40003F00709894540F0CF80002FDFD00026D1
:1017C400B24644E06B4940F21B136B4A684810F080
:1017D40034F940F21B11684810F026F949B1674901
:1017E4004FF4AB73644A624810F027F94FF4AB71BD
:1017F400F1E723684BB9624940F257135E4A5C48EB
:1018040010F01BF940F25711E5E723691E684EB941
:101814005C494FF4AD73584A554810F00EF94FF433
:10182400AD71D8E70F4688464FF00609A38B23F025
:10183400070343F006039BB2A383A268002A40F087
:101844008D80002F40F08D80002E98D0BA4643F052
:10185400080304F1140B5846A3830EF0A7FD0028D7
:1018640040F09A80404940F23113404A404810F019
:10187400E4F85946444810F0E0F840F23111ADE084
:10188400022909D0414940F25D133B4A384810F01F
:10189400D4F840F25D119EE7E78B4FB13C494FF419
:1018A400AF73354A324810F0C8F84FF4AF7192E77D
:1018B40023695E684EB9334940F261132E4A2C48BD
:1018C40010F0BBF840F2611185E7A38BB84623F012
:1018D400070343F004039BB24FF00409A383ACE76E
:1018E400012909D02B494FF4B273234A204810F040
:1018F400A4F84FF4B2716EE723684BB9204940F263
:1019040065131D4A1A4810F098F840F2651162E711
:1019140023699E684EB91B494FF4B473164A1448A0
:1019240010F08BF84FF4B47155E70027A38BB84639
:1019340023F0070343F005039BB24FF00509A3838B
:101944007BE70C4940F26B130B4A094810F075F819
:1019540040F26B113FE7002700266EE74FF0010AC3
:1019640075E7924673E700BF3A660100E26501003D
:10197400AC600100D9AB0100666601008B66010012
:1019840097660100BA66010051660100D166010044
:10199400E7660100F666010085F31188BFF36F8FD7
:1019A400BAF1000F1CD177BB16B120462549B047C8
:1019B400EFF31185202383F31288BFF36F8F58460A
:1019C4000EF0E6FC38BB88231F4A2049204810F05B
:1019D40034F859461F4810F030F888211A48FBE6BD
:1019E400A1680029DFD00D680029DCD043464A46AF
:1019F4002046D1F804A0D0471DB12B6829461D46C6
:101A0400F2E72B46FAE7394643464A4620463F6802
:101A140010F048F9C7E758460EF0DEFCA38B23F01C
:101A24000803A383ABE68B067FF562AE21F02003A7
:101A3400A38301F0070145E685F31188BFF36F8F97
:101A4400BDE8F88F5D1A0000E26501000F66010031
:101A5400AC60010024660100F8B504460D4600F1AF
:101A64001406EFF31187202383F31288BFF36F8FDB
:101A740030460EF08DFC68B988230C4A0C490D4899
:101A84000FF0DBFF31460C480FF0D7FF88210748E1
:101A94000FF0CAFF30460EF09FFCA5613A4620467F
:101AA400BDE8F8400121FFF701BE00BFE265010077
:101AB4000F660100AC600100246601002DE9F047C7
:101AC40004460F4610F0DEF8051E68DB04F1140925
:101AD400EFF3118A202383F31288BFF36F8F4846F4
:101AE4000EF056FC804660B98823384A3849394894
:101AF4000FF0A3FF494638480FF09FFF8821334871
:101B040042E048460EF068FC4FF6FF72E38BA68B6A
:101B1400934206F0070645D0022E15D1354601330F
:101B2400E38348460EF042FC002841D140F23113D1
:101B3400264A2A4927480FF080FF494628480FF0D3
:101B44007CFF40F23111DAE7062E13D8DFE806F005
:101B5400092D1212090409006FF085054FF00008E1
:101B6400DFE700233B60636883B9C4E9007786B18B
:101B74003546F3E71B4917484FF4E4731A4A0FF04C
:101B84005CFF4FF4E47118480FF04EFF1F6067606C
:101B9400EDE7524602212046FFF788FD35462846E8
:101BA400BDE8F0876FF00A05D8E76FF00405D5E7C4
:101BB4008AF31188BFF36F8FB8F1000FEFD00023C1
:101BC40032463946204610F06DF8E8E7E265010038
:101BD4000F660100AC600100246601003A66010052
:101BE40051660100F666010066660100F8B5054617
:101BF40000F11406EFF31187202383F31288BFF357
:101C04006F8F30460EF0C4FB60B98823254A2649FD
:101C140026480FF012FF314625480FF00EFF8821A9
:101C240020482BE030460EF0D7FBAC8B04F00704C1
:101C3400022C17D0012C0CBF6FF004046FF0850444
:101C440030460EF0B3FB38BB40F23113154A194944
:101C540016480FF0F2FE314617480FF0EEFE40F240
:101C64003111DDE7EB8B5BB91449104840F2EF13F7
:101C7400134A0FF0E2FE40F2EF1111480FF0D4FEC8
:101C8400013B9BB2EB83002BDAD13A46214628462E
:101C9400FFF70CFD2046F8BD87F31188BFF36F8F63
:101CA400F8E700BFE26501000F660100AC600100C7
:101CB400246601003A660100516601000C670100C8
:101CC4006666010008B54268034602F00302022A70
:101CD40081600AD0032A4FF0000103D0012A0AD1FF
:101CE400596006E01868596008BD186800225A60F7
:101CF40058B90020F8E7064906484523064A0FF07C
:101D04009CFE452104480FF08FFE0EF057FFF0E7CC
:101D1400D9AB0100AC6001001A67010010B530B9FD
:101D24000B480C490FF0FCFF6FF0150010BD8368E1
:101D340033B9074808490FF0F3FF6FF00400F5E7E3
:101D44001B6813B1BDE8104018471846EEE700BF02
:101D540004570100406701005167010010B530B914
:101D64000B480C490FF0DCFF6FF0150010BD8368C1
:101D740033B9074808490FF0D3FF6FF00400F5E7C3
:101D84005B6813B1BDE8104018471846EEE700BF82
:101D940004570100406701005167010070B508B1A4
:101DA40001B132B90B480C490FF0BAFF6FF01500BE
:101DB40070BD84680CB1E56835B9064807490FF071
:101DC400AFFF6FF00400F3E741F8040BE368BDE8EC
:101DD40070401847045701006F6701005167010004
:101DE40010B5044630B9104810490FF099FF6FF050
:101DF400150010BD006830B90B480D490FF090FF75
:101E04006FF00100F5E783680BB11B6933B906482D
:101E140008490FF085FF6FF00400EAE7616898470E
:101E24000028E6D12060E4E7045701009B67010025
:101E3400AC6701005167010070B51346044630B920
:101E4400104811490FF06CFF6FF0150070BD006869
:101E540030B90C480D490FF063FF6FF00100F5E74E
:101E640082680AB1956835B9064809490FF058FFE8
:101E74006FF00400EAE70A46AC466168BDE87040CA
:101E8400604700BF045701009B670100AC67010075
:101E940051670100034A13680BB9526813600020AC
:101EA400704700BFDC01002030B50C460E4985B0F8
:101EB4000291D0F8D4110546CDE9003100F1F001CA
:101EC4004FF0FF3320460AF005FE50B9012384F891
:101ED4006C30D5F8D03123B1204605B0BDE8304090
:101EE400184705B030BD00BF1D1E010038B50C46B3
:101EF400114605460FF092FF034638B928460449B7
:101F04000FF08CFF03460020236038BD0120FBE75F
:101F14006D7501002DE9F04F01238146056946687E
:101F240087B005F56377D7E8EF2F002A03D1C7E818
:101F3400E13F0029F7D10CBF1A46002240F0B480DB
:101F4400B368B16A05F5F8781C1F10460FF0EAFF74
:101F5400844272D8013A00F0A180B2FA82F24FF0C2
:101F64000044D44072682046073222F00302C5F8C8
:101F74008822B16A0FF0D6FFC5F88C02B36A4046D6
:101F84006343033323F0030302EB4302230103EB14
:101F94004403093323F0030303EBC403C5F880228D
:101FA4001A440832C5F87C227368C5F88442C5F81F
:101FB40078323F4BC5E9B363D9F80030C5F8243211
:101FC400316800F0DFF90446002834D1D9F810B0A4
:101FD400D9F804A0D9F800300BF53A7905900493A8
:101FE4004846DAE90734012B08BF103C0CF052FCD8
:101FF400DAF824002F4904AB01EB80214FF480620E
:102004004846009323460CF05FFC2B490BF53670D1
:102014000CF0C2FADAE9050183685C684CB15B46EE
:10202400264AA047044630B9DAE9050183681B69EA
:102034002BB96FF05704002129E0013285E7012212
:10204400984704460028F6D11D4B2846C5F8D031E0
:102054001C4BC5F8D4311C4B0393D5F8383202938A
:10206400D5F83032CDE90083D5F89032B26AD5F88C
:10207400881300F04FF904460028DCD105F1F00084
:102084000AF0CEFD0028C5F890030ADB0221384689
:102094000FF0F8FE204607B0BDE8F08F6FF00B0498
:1020A400C9E76FF01504C6E76FF07704F2E700BFE5
:1020B400731E010098230020591E01004D1E0100CB
:1020C400D1200000FF1F0100B91E010013B5044612
:1020D40040B100230122CDE90032074BD0E90912B7
:1020E4000AF0A8FC236F1B6823B1606F02B0BDE83F
:1020F4001040184702B010BD6D75010013B50446B9
:102104000846216901F56371D1E8AF1F022910D196
:1021140093B1A0B10121CDE900311346D0E90912F0
:102124000AF088FC074B984208BF6FF00B0002B01E
:1021340010BD6FF00F00FAE76FF04C00F7E76FF097
:102144000100F4E72EF8FFFF2DE9F7438846154612
:10215400066906F56373D3E8AF3F022B5FD11368BA
:1021640023B96FF0150003B0BDE8F0831B78002B92
:10217400F7D0D6F88893B9F1000F33D106F5EC7790
:102184004FF0FF324FF0FF3338460BF0F9FC304686
:102194002A6801A9FFF7AAFE019C1CB938460FF072
:1021A4006FFEDEE705F1080323676B6984F86C9022
:1021B4006367646460B138460FF062FE21463046BE
:1021C400A36E2A68FFF770FE0020C8F80040CAE733
:1021D4002022296804F1480013F01DF838460FF056
:1021E4004FFEF1E730460F490FF018FE0446002871
:1021F400B7D005F1080303676B69406443670023A4
:1022040080F86C3020222968483013F004F8224604
:102214000121304600F060F80028D5D0A1E76FF026
:102224000F00A0E76D75010010B50C46006900F5BC
:102234006373D3E8AF3F022B0FD189B10A4900F58C
:1022440036700CF099FA204612F094FB78220021A3
:10225400204612F0B6FF002010BD6FF00F00FBE720
:102264006FF00100F8E700BF841600202DE9F04F5D
:1022740005460E4690460027D0F8C4A085B0AAF5BE
:10228400BE7421463046FDF763FFE0B9114BA4F15B
:10229400480B0293DAF810303246CDE90083294620
:1022A4004FF0FF335846AAF5E2790AF013FC60B9FF
:1022B4007823012203FB079383F86C20DAF80C30AF
:1022C4000BB158469847783417B105B0BDE8F08F84
:1022D4000127D6E72D2001001FB5144690B18AB11D
:1022E400012912D10A4B00F1F0010293D0F8D43144
:1022F400483201934FF0FF33204600930AF0EAFB83
:1023040004B010BD6FF01500FAE70020F8E700BF35
:102314002D2001002DE9F04387B00E46DDE90E8142
:102324001446DDE910251F4630B329B3DFF850C049
:1023340000F1F009002D08BF65469EB9CDE90344BC
:1023440000F5E2742046059612F0C8FC03ABCDE913
:1023540000432A463B46414648460AF025FE07B05C
:10236400BDE8F083002241460E9248462A4607B053
:10237400BDE8F0430AF06EBF6FF01500EFE700BF51
:1023840071220000F0B50E46044689B0002872D0D0
:10239400436B0BB9394B436301232246E3630023A8
:1023A400D4F8981004F1400042F8301FCDE901330D
:1023B4004FF0FF330093D4F89C3011F0AFFF304A54
:1023C40006AB92E8030083E8030018460AF038FAE3
:1023D4000546D8B904F134000AF014FA0546A8B940
:1023E400616B284805AA11F07BFF054670B9059B6F
:1023F4009A6872B10C33D4F89400C4F8A0300FF08A
:1024040044FEC4F8D40030B96FF00B05284609B077
:10241400F0BD0346EFE7D4F894000FF036FEC4F89D
:10242400D8000028F0D0D4F88C30D4F8A010C4F828
:10243400A8300423C4F8AC30C4F8C4300223A36227
:10244400114BB4F89420D4F8D470C4F8B810C4F87C
:10245400D010D4F89010236204F1A403A4F8B0209F
:10246400C4F8A470C4F8C010A4F8C820C4F8BC0010
:10247400A661E362CAE76FF01505C7E7D1670100FB
:1024840080570100DB6701004059010030B500228C
:1024940089B00F490F4812F00EFE002200230024D9
:1024A400CDE906230E230C4DCDE903344FF400622D
:1024B4002846CDE90144094B094900940CF07AFD02
:1024C4000849284612F054FD204609B030BD00BF2B
:1024D40031260000980F0020100B00201D29000059
:1024E40098270020E36701002DE9F04704460746DA
:1024F4004FF00109DFF8508014B93846BDE8F08781
:1025040094FAA4F5B5FA85F509FA05F32E0108EB5A
:1025140005156FEA030A24EA03042B7B002BEBD096
:1025240058F806301B694BB94644736804222846A0
:10253400196807EA0A0700F0FBFADDE7284698471E
:102544000028D9D1F0E700BF645701002DE9F04716
:10255400DFF8B8902E4C8046A9EB04038F2B0F466E
:102564000BD92C4940F23F132B4A2C480FF065FA43
:1025740040F23F1128480FF057FA29480FF0D7FDD1
:10258400064660B300252846BDE8F087237B6BB17F
:102594002368DB680BB12046984723681B69B3B9ED
:1025A400636804222046196800F0C2FA0136103428
:1025B4004C4518D91B494FF4A673174A17480FF016
:1025C4003CFA19480FF039FA4FF4A671D2E72046C5
:1025D40098470028E4D00AFA06F31D43E6E70546C7
:1025E4004FF0010AE4E7D1D3B8F1000FCBD0002DAE
:1025F400C8D02846FFF778FF0546002FF7D0002102
:102604004FF4A4700DF0D2FCF1E700BF7457010041
:102614006457010018680100EB670100AC60010019
:10262400C0160020486801006968010001480BF0E9
:102634000DBD00BF88050020014B53F820007047F2
:102644008059010008B5034608462BB1044A1360BB
:1026540000F0ACFD002008BD6FF01500FBE700BFE3
:102664000802002010B5044C237813B903480BF07A
:10267400EDFC0123237010BD6D230020880500208C
:1026840010B5044609480FF052FD3CB1084BD3E89D
:10269400EF1F0139C3E8E21F002AF8D1054812F000
:1026A40016FDBDE8104004480BF0D0BCB81600205D
:1026B400BC160020980F0020880500200020014649
:1026C400034BD3E8EF0FC3E8E21F002AF9D17047A8
:1026D400B816002070B5FFF7F1FF05460F4C104EF9
:1026E400B44219D90F4940F2FF130F4A0F480FF0B3
:1026F400A4F90F480FF0A1F940F2FF110A480FF0B6
:1027040093F963685B792BB123685B6813B129463D
:10271400204698471034E3E7F3D370BD64570100B3
:102724007457010048680100EB670100AC600100C8
:102734006968010010B5044C04492046FEF71EFDEB
:10274400034B1C6010BD00BF780400206C590100CD
:10275400B016002008B50023074A4FF40041137057
:10276400064A07481360074A1360FFF76BFFBDE88A
:102774000840FFF7DFBF00BF6E230020B81600201B
:102784002F210100BC16002001460022002301482D
:10279400FEF726BD780400200148FEF73BBE00BFCB
:1027A40078040020024B01461868FEF7BBBE00BF48
:1027B400B01600200148FEF727BF00BF78040020B0
:1027C40070B52E4B1878002857D0FFF7E5FF054663
:1027D40040B32B4BD3E8EF1F0139C3E8E21F002AB3
:1027E400F8D1284C284EB44218D9284940F2F313A2
:1027F400274A28480FF021F927480FF01EF940F224
:10280400F31123480FF010F963685B7923B123684F
:10281400294620461B6898471034E4E7F4D3284639
:10282400FFF7C0FF1D4B1E4C1B68002B19DD12F077
:10283400FBFB4FF47A72A0FB020302FB0131C30BD2
:1028440043EA4143D4E900209B1A40F2E9324FEABB
:10285400D13161EB0001934271F1000101D3FFF723
:1028640039FFD4E9003213F57A7342F10002C4E966
:102874000032BDE87040FFF79DBF70BD6D2300209E
:10288400BC16002064570100745701004868010019
:10289400EB670100AC60010069680100B816002014
:1028A400900F002070B5154D297829BB0120FFF742
:1028B4004DFE134C134EB44217D913494FF4DC7335
:1028C400124A13480FF0B9F812480FF0B6F84FF453
:1028D400DC710E480FF0A8F863685B791BB12368BC
:1028E40020469B6898471034E5E7F5D3FFF768FF67
:1028F4000028FBD101232B7070BD00BF6E23002084
:10290400645701007457010048680100EB67010037
:10291400AC600100696801002DE9F047304B314F8C
:10292400FB1A1B090BD1304940F292332F4A30482D
:102934000FF083F840F292312C480FF075F8002123
:102944000846FFF703FE044650B340F267684FF0B1
:10295400000912F0DBFC274B274A1B58136033B1E4
:10296400264B1B68092B02DD25480BF06FFB002565
:10297400DFF88CA044B12046FFF7B6FD044618B931
:102984004FF0FF384FF0FF39FFF71AFF064628B91A
:102994005DB942464B4650460BF09AFB3546E9E793
:1029A4004FF0FF384FF0FF39D3E70D4D08E0F0D278
:1029B4002B689B691BB100222846114698471035A5
:1029C400BD42F4D90F4940F28633084A08480FF053
:1029D40034F80D480FF031F840F28631ACE700BF0F
:1029E400645701007457010088680100EB67010017
:1029F400AC60010008000000B4160020BC160020E2
:102A040088050020486801006968010013B52C4856
:102A14000FF08DFB2B4B1B78002B35D0EFF311847B
:102A2400202383F31288BFF36F8F27480DF0B0FC87
:102A340068B98823254A264926480EF0FEFF224914
:102A440025480EF0FAFF882120480EF0EDFF1E48BD
:102A54000DF0C2FCFFF7B4FE1B480DF0A7FC68B9EB
:102A640040F23113194A1D491A480EF0E6FF16497F
:102A74001B480EF0E2FF40F23111E5E784F31188C0
:102A8400BFF36F8F02B010BD164B1B68002BF9D03B
:102A940050B9002200231448CDE900234FF400422A
:102AA40000230DF0C9FFEDE70928EBD10E4812F021
:102AB4000EFB0E4802B0BDE810400BF0C7BA00BFD1
:102AC400BC1600206E230020AC160020E265010035
:102AD4000F660100AC600100246601003A66010043
:102AE40051660100B4160020980F002088050020CC
:102AF40010B5064B04461B6898472146A06004485D
:102B0400FEF730FCBDE81040FFF780BF080200204C
:102B140078040020044A054B9B1AB1EBD30F34BF51
:102B240052F83100002070478C56010064570100B0
:102B34000E4B10B5C31A1B110133DBB248B90C4953
:102B44000C48DF230C4A0EF078FFDF210A480EF010
:102B54006BFF4468237143689A71012243681960CA
:102B640043685A71BDE81040FFF77CBD645701000B
:102B740028690100AC600100F06801002DE9F04F04
:102B84008FB0C1F34A2804AF0D469146B8607B600C
:102B94000C0DB8F1000F68D000264FF0040B4FF075
:102BA4000A0A07F11403C7F80C80C7E907667E62B6
:102BB4000193CDF808B0CDF800A007F11C0332460C
:102BC4004846F968FEF784F8B0F5006F03461CD355
:102BD4006C468AB0D9F8041004AB2C481A46C3E9F1
:102BE400050140F2FF71D9614FF400711984284B3B
:102BF40042F8103F4FF4125133462648FFF7BEFF08
:102C0400A5462C37BD46BDE8F08FC0F30A0804F191
:102C14001700184420F0070080083B60FFF7B4FD5C
:102C240068F35325044640B33B6800F11001C7E93B
:102C3400083607F11403F961CDE900A3CDF808B013
:102C44004846154AF96807F11C03FEF741F80028C5
:102C540013DA124912484FF4A373124A0EF0EDFE30
:102C64004FF4A3710F480EF0DFFE04F1170020F0BB
:102C740007008008FFF788FD044668F353252A46B9
:102C840020467B68B9680FF084FABAE74869010006
:102C9400040000010C5701006B210100B46901001C
:102CA400AC600100876901002DE9F04F87B004464C
:102CB400DDE9106ADDE9127993469846039127B35A
:102CC4003B46524610210020CDF80090CDF81490D8
:102CD400FDF7E8FD051E0BDA264940F26513264A86
:102CE40026480EF0AAFE40F2651123480EF09CFE21
:102CF400B5F5006F0ADB40F2FF730221204A214838
:102D040007B0BDE8F04F0FF09DBA3D4606F117003D
:102D1400284420F007008008FFF736FD04F007047C
:102D24000BF0070BE40044EA8B1444EA452444EA1C
:102D340006540646A0B19FB13B4652462946CDF8FB
:102D440000901030FDF7AEFD002809DA094940F281
:102D54008513094A09480EF070FE40F28511C4E754
:102D6400434622463046039907B0BDE8F04F0FF0C2
:102D740010BA00BFB369010087690100AC600100AB
:102D8400BD6901000C570100406820B1034BC01A13
:102D940040F3CF0070474FF0FF3070478C5601006E
:102DA4000EB403B503AB53F8042B01460448019356
:102DB40001F036FC02B05DF804EB03B0704700BFCD
:102DC400E52D0000CA0605D48B064CBF0249034911
:102DD400FFF7E6BF704700BF6C750100CC9E010091
:102DE40038B54B6805461A68CB680C469A4202D13E
:102DF40008460FF04BFA6368D3E8EF2F511CC3E881
:102E0400E01F0028F8D1A3689D5463681A68E3683A
:102E14009A4209D9054906487B23064A0EF00DFE5D
:102E24007B2104480EF000FE002038BD246A010016
:102E3400AC600100F56901002DE9F04F89B09B46B3
:102E4400149B9DF84CA00693159B04460593169B72
:102E54000D469046179E0493BAF1000F00F0AD8022
:102E6400BAF1040F0BD9A34940F24D23A24AA34857
:102E74000EF0E3FD40F24D219F480EF0D5FD06F41F
:102E8400807307930FF06DF906F0020902460028DB
:102E94003FD020469A49FFF783FF0746B9F1000F58
:102EA40008D016F0440F36D12A4620469549FFF73C
:102EB40077FF074406F0010353B1934B204653F8C0
:102EC4002A20924B9249002A08BF1A46FFF768FF4E
:102ED40006F48073002B4AD006F00803002B64D15B
:102EE400B8F1000F67D0424620468A49FFF758FFE1
:102EF4000546069B3D44002B6ED1049B002B40F0FD
:102F04008380F30700F1F08031462046FFF75AFF33
:102F1400E4E00746C2E7804B18680028C9D07F4B1D
:102F24004FF47A791B684FF46161B5FBF3F5B5FB97
:102F3400F0F300FB135509FB05F5B3FBF1F2B5FB08
:102F4400F0FE4FF03C0C01FB123100FB1E55B1FBAF
:102F5400FCF309FB05F5B5FBF0F50CFB131120465A
:102F64000091CDE901E56E49FFF71AFFA1E706F0EC
:102F74000803EBB16B4B204653F82A206A49FFF74C
:102F84000FFF0546B8F1000F05D0424620466149BF
:102F9400FFF706FF0544BBF1000FAAD05A462046AE
:102FA4006249FFF7FDFE0544A3E74FF0000BE1E79C
:102FB40006F00805E6E745469BE7BBF1010F069BD3
:102FC40006D1DBB9049B002B00F0888000251BE0B0
:102FD400002BF7D0564812E056482246069B564925
:102FE4000EF0BBFC00280CDA544940F2A723424AF5
:102FF40042480EF022FD40F2A7213DE74D485546D8
:10300400EBE7049B002B65D0DFF83481DFF83491C3
:10301400049F3146102F204628BF10274FF0000B85
:10302400FFF7D0FE5D4542DC059B494620461A78F1
:10303400FFF7B6FE4FF0010B1BF0070F03D141461B
:103044002046FFF7ADFE5F4538D9059B494620462B
:1030540013F80B20FFF7A4FE0BF1010BBBF1100FCB
:10306400EAD14FF0000B20463749FFF799FE5A4644
:10307400059B20469A5CA2F120015F2928BF2E22DD
:103084003249FFF78DFE0BF1010BBBF1100F1AD083
:103094001BF0070F03D141462046FFF781FE5F4531
:1030A4005A46E5D841462046FFF77AFEEBE741460B
:1030B4002046FFF775FE0BF1010BB3E720462449C8
:1030C400FFF76EFEC8E7059B3B440593049BDB1B9F
:1030D40004939DD1BAF1000F7FF413AF204609B0D9
:1030E400BDE8F04F0FF0D2B82046084A0849FFF770
:1030F40057FE09E7596A0100F5690100AC60010057
:10310400656A0100696A010090590100546A01006E
:10311400067B01008E6A0100C8160020C416002038
:10312400726A0100A4590100926A0100986A0100C0
:10313400AB220100E52D0000254600009D6A010038
:10314400989E0100A66A0100AC6A0100AE6A010003
:10315400969E010042F20F7373B58B4228BF0B4653
:1031640005680446052168460D4A0DF09DFF064694
:10317400636828460B225B680A490FF079F8636894
:103184003246694628465B680FF072F863681B2272
:1031940028465B6804490FF06BF802B070BD00BFAD
:1031A400E38E0100CD6A0100B16A01000021012310
:1031B400064A904206D8064A01B901231360054B1A
:1031C40018607047012140085B00F2E740420F009D
:1031D400C4160020C8160020F8B50D460446064F54
:1031E4004618B44201D12846F8BD14F8011BBB6847
:1031F40001485B689847F4E7D853010010B5436869
:103204001C68094811F097FD48B9084908489923F2
:10321400084A0EF012FC992106480EF005FC2368BA
:103224005B685C6010BD00BFD8530100376B0100C0
:10323400AC600100F96A0100014B03600020704793
:10324400EC59010008B504480EF0E1FBBDE8084064
:1032540002480EF0DCBB00BF6B6B0100A06B0100E9
:103264000449431E0F3013F8012F8A5C83421A70FD
:10327400F9D17047CE6B0100F0B50746264E8DB0EC
:1032840001AD0C460FCE0FC50FCE0FC596E8070053
:1032940085E807003846002F39D0002C39D0381F74
:1032A4000246214610344B780D781B0443EA05632B
:1032B400CD7804312B4311F8025C8C4243EA052398
:1032C40042F8043FEFD10421144C8A07036916D154
:1032D400C3F30742A55C1A0EA25C42EA0562C3F37B
:1032E4000725655DDBB2E35C42EA054242EA03225C
:1032F40021F0030330336B4453F82C3C534050F813
:10330400042F013153402C290361DED101200DB07B
:10331400F0BD2046FBE700BF88570100CE6B0100DB
:103324002DE9F04F002703689DB002934368DFF84E
:10333400BCA103938368DDE902460493C368059343
:103344000369DDE904BE0693436907938369DDE9F4
:10335400062C0893C36998460993089B0093CD599A
:103364000CAB2DBA5AF8049BDD514FEAF223A94461
:1033740083EAB213009D83EA72634B4425EA020593
:1033840002EA0C0985EA09052B44434486EA0B0545
:103394004FEA743888EAB408254006EA0B0985EA3E
:1033A400090588EAB4580437A844402F03EB0E05F6
:1033B4004344DE46DDF8008040F088804FF0100A78
:1033C4004B490A9151460AF1010A0DF1700E0AF0B7
:1033D4000F070EEB870757F8407C01F00F094FEAFF
:1033E400B748019788EAF71801F10E0707F00F07AD
:1033F4000EEB870757F8407C09314FEAF74E8EEA07
:10340400774ECDF82CE001F00F010DF1700E0EEBAC
:1034140081010EEB890959F840EC51F8401CBAF1CE
:10342400400F7144DDF804E088EADE08DDF82CE0A2
:1034340041448EEA972E714405EA02084FEAF52EBC
:103444002CEA050787EA08078EEAB51EDDF828800E
:103454008EEA756E774458F804EF49F8401C7744B7
:103464000F4400994FEA733E394484EA0607CDF8C5
:1034740028808EEAB30E07EA030704EA06088EEAF8
:10348400B35E87EA080777440F4401EB0B0ECDF8CF
:1034940000C0B34622D1029939440160039919440A
:1034A400049B416023448360059B3344C360069BB3
:1034B40073440361079B2B444361089B134483615A
:1034C400099B6344C3611DB0BDE8F08FB346CDF8DA
:1034D40000C0264694461C462A4640E794462646A3
:1034E4002A461C4675463B466CE700BFEC59010072
:1034F400285A010010B50446C8B1702200210EF00C
:1035040055FF0B4B0B4A0C49C4E900230B4B0C48E9
:10351400C4E902130B4BC4E9040301200A4BA36161
:1035240003F17453A3F52303A3F69243E36110BD9F
:1035340085AE67BB67E6096A72F36E3C3AF54FA540
:103544007F520E518C68059BABD9831F01480DF047
:1035540069BC00BFEC5A010038B5044618B90F4BDA
:103564000F485B6898476168B1F5683F10D0B1F5C2
:10357400680F0DD00B4DA9420AD011F46861206880
:1035840007D0014608480AF055FA00232360656015
:1035940038BD142211F015FEF9E700BF0C04002019
:1035A400CE6C01002C5F5CA9F81B002008B560B349
:1035B4004368B3F5683F0ED0B3F5680F18D0144ACA
:1035C400934220D000684FF0FF324FF0FF330AF0EF
:1035D400D7FA58B115E001220368D3E8EF1F002998
:1035E40003D1C3E8E02F0028F7D10AD1002008BD99
:1035F4000368084A1B7803F5807352F82330002BC4
:10360400F4D00548F3E70548F1E76FF4E040EEE74E
:103614002C5F5CA900000350E98FFFFFEA8FFFFFD6
:1036240008B520B34368B3F5683F09D0B3F5680F14
:1036340013D0114A93421DD000680AF071FB14E0C4
:1036440000220368D3E8EF1F012903D1C3E8E02F68
:103654000028F7D109D0094808BD00210368084AA9
:103664001B7803F5807342F823100020F4E76FF40D
:10367400E040F1E70348EFE72C5F5CA9E98FFFFF27
:1036840000000350EA8FFFFF10B5044618B91D4B24
:103694001D485B6898476368B3F5683F2FD0B3F55E
:1036A400680F2CD0194A934219D1236803BB4FF0F9
:1036B400FF324FF0FF33214615480AF02FF908B9BD
:1036C40023681BB90F4B13485B68984714220021E9
:1036D400206811F076FD4FF46863636008E0B3F589
:1036E400683F0DD83A2B03D040F6BA629342DED13C
:1036F400206811F089FB636843F03A03636010BDEE
:10370400054AF3E70C040020CE6C01002C5F5CA991
:10371400F81B0020F46C01003A00003A08B5064991
:1037240040231422054811F058FBBDE80840044921
:1037340004480DF0E9BB00BFF8160020F81B002078
:10374400F45A0100085B01002DE9F04706460C46D7
:1037540000AF002936D0D1E90012E9468AB06D469F
:10376400A3684FF0050AA8461F48C5E90723C5E921
:10377400050148F810AF002342464FF421511B487D
:10378400FFF7FCF9D4E90312CD466369AD46184846
:10379400C5E90723C5E90501C5F810A00023424681
:1037A4004FF421511148FFF7E9F9CD46E3690121AE
:1037B400104A0E480EF046FDA36901210E4A0B483B
:1037C4000EF040FD012E07D1EFF305830B4A31467D
:1037D4000648103B0EF036FD2146304609F082FDC6
:1037E400BD46BDE8F08700BF216D010044570100CC
:1037F400506D01007F6D01008E6D0100BC6D0100F4
:1038040030BFFFF7FDBF00BF2DE9F04105460B4E69
:10381400DFF82C80324606EB0807CC1B204609490A
:1038240011F0C2FCA01942460021083C11F0C9FC69
:103834006C6707F10800BDE8F08100BF00000000DC
:103844000400000074570100074A936893F90E10AE
:10385400002907DB526993421FBF044A536843F0AF
:1038640080535360704700BF1421002000ED00E036
:1038740070B5344C06460D46334834490FF0E9F927
:10388400A36AD9064DD5304831490FF0E2F9112029
:10389400A36A1A0704D52C482E490FF0DAF912202E
:1038A400284CA36A9B0712D52B4927480FF0D1F95E
:1038B400636BA26A110609D50121284A22480EF039
:1038C400C1FC1EB1A36A23F08003A36213201D4C24
:1038D400A36ADA0704D51C4821490FF0BAF9142069
:1038E400A36A9B0604D518481E490FF0B2F91520A7
:1038F400144B9A6AD60602D49A6A940713D59B6A23
:10390400D90610D5184940F26313184A18480EF026
:1039140094F818480EF091F840F2631113480EF031
:1039240083F81020B4E7074B9A6A920642BF5A6A9A
:1039340022F400525A629A6A42F0FF029A62002309
:103944002B7070BD00ED00E044570100CF6D010005
:10395400E56D0100186E01002B6E0100436E01003D
:10396400596E0100786E0100D96E0100A76E010046
:10397400AC600100236F010010B5244C2449254894
:103984000FF067F9A36A99013ED5224822490FF046
:1039940060F91E20A36ADA0104D51E481F490FF0FE
:1039A40058F91F20194CA36ADB0204D519481C4995
:1039B4000FF04FF90220A36A1C0304D515481949D6
:1039C4000FF047F92120114CA36A590304D511487B
:1039D40015490FF03EF92220A36A9A0304D50D4835
:1039E40012490FF036F92320084CA36ADB0304D5EF
:1039F40008480F490FF02DF92420A36A6FEA034306
:103A04006FEA1343A36210BD1D20C3E700ED00E07D
:103A1400876F0100445701009F6F0100B26F0100DE
:103A2400CC6F0100F66F01001470010039700100C1
:103A34005370010070B5294C06460D4628482949A3
:103A44000FF007F9A36AD9043CD5254826490FF09D
:103A540000F91720A36A1A0504D5214823490FF059
:103A6400F8F818201D4CA36A9B0512D51C48204960
:103A74000FF0EFF8A36BA26A100409D501211D4AC7
:103A840017480EF0DFFB1EB1A36A23F40043A362C0
:103A94001920124CA36A590504D5114816490FF090
:103AA400D8F81A20A36ADA050ED50D4813490FF089
:103AB400D0F81B20094A936A43F47F43936200239E
:103AC4002B7070BD1620C5E7A36A9B04F2D5044889
:103AD4000B490FF0BEF81C20ECE700BF00ED00E03E
:103AE400445701007E70010094700100186E0100BB
:103AF400A5700100BE700100D3700100EE700100DA
:103B0400786E0100F0B58BB0784B044658680026F7
:103B140000AFC0F3080386F31188BFF36F8F02F080
:103B24007F45B5F17F4F07D102F00C05082D12D166
:103B34006F4970480FF08DF86F494FF48B636F4AEB
:103B44006F480DF07AFF6F480DF077FF4FF48B61EB
:103B54006A480DF069FF15074CBF0C460126002C7E
:103B6400EAD00022FA71DA1E092A00F29D80DFE809
:103B740002F0059396769B9B9B9B9B9962495D48BB
:103B84000FF067F80023594DFB71EB6A9A0705D5CE
:103B94005E4958480FF05DF8002329E0EB6A002BDA
:103BA40001DA5B49F5E7EB6A5B0068D5594951488E
:103BB4000FF04FF86B69A26943F480736B61BFF334
:103BC4004F8FBFF36F8F6B6932F8022C23F480732D
:103BD4006B61BFF34F8FBFF36F8F4DF602739A4241
:103BE40027D1236801214C4A42480EF02BFB23685D
:103BF400FA79DAB907F1080504F1200C2A4620689D
:103C04006168083403C264451546F7D17A6A002E08
:103C140066D0C2F3080121B96FEA52226FEA422248
:103C24007A62184607F10801FFF78EFD2C37BD466E
:103C3400F0BDAB6ADBB22BB10120F91DFFF718FE12
:103C44000346D5E7AB6A13F47F4F04D00120F91D76
:103C5400FFF7F0FEF4E7AB6AB3F5803F02D3FFF75A
:103C64008BFEEDE72D4940F22A33244A24480DF017
:103C7400E4FE2B480DF0E1FE40F22A3168E72749C3
:103C840040F22E331D4A1E480DF0D7FE25480DF094
:103C9400D4FE40F22E315BE70020F91DCEE7002070
:103CA400F91DD5E7204974E7204A6D4610F4F87FE2
:103CB4008AB01F4918BF11466A46103BD3614FF4BE
:103CC40000731C4813841C4BC2E9050142F8103FE1
:103CD40000234FF411510748FEF750FFAD465BE750
:103CE40022F4FF7222F001029AE700BF00ED00E027
:103CF40034710100445701005F710100A76E010097
:103D0400AC60010072710100B0710100C771010063
:103D1400E8710100F671010015720100D9AB0100D0
:103D24003172010055720100857201001B7101009E
:103D340006710100A972010004000001064B5A69D2
:103D440042F010025A615A6942F480625A615A6917
:103D540022F008025A61704700ED00E0EFF308809A
:103D6400EFF3098101B57246FFF7CCFE01BD00BF38
:103D7400002080F31488BFF36F8F002080F30A883B
:103D840080F30B8807F070F900200E490860BFF338
:103D94004F8F0D4880F3088800F02CF8202080F322
:103DA40011880A484FF40061401880F30988EFF342
:103DB40014800221084380F31488BFF36F8F00F04E
:103DC4001FF9000094ED00E0605F00202036002021
:103DD400002318460649D1F89020C2F307229342E3
:103DE40000DB7047C1F89830C1F8A0000133F6E752
:103DF40000ED00E010B572B6002484F31388FFF7D9
:103E0400E7FF23464FF0FF300C4A03F12001013352
:103E1400102B42F82100F8D100234FF0FF30074A5D
:103E240003F160010133102B42F82100F8D162B68E
:103E3400BFF34F8FBFF36F8F10BD00BF00E100E0F1
:103E4400084B9B6883420BD1EFF3058343B1064BC8
:103E54005A6842F080525A605A6A22F400425A6206
:103E64000CF0E0B81421002000ED00E06FF00A012E
:103E7400084A9368D967084998674B6843F08053A8
:103E84004B60002383F31188BFF36F8F9368D86F5F
:103E9400704700BF1421002000ED00E0EFF3118310
:103EA400202383F31288BFF36F8F4FF00061084A19
:103EB40053699360074A5160596F074A11600021A2
:103EC4009A6F996782F31188BFF36F8F704700BFB1
:103ED4001421002000ED00E0181C00200E498A681F
:103EE4004FF030001044EFF3098C80E8F01F744663
:103EF4007046FFF7D3FFA64607498A6802F13000EF
:103F040090E8F01F8CF3098802F1000004B50EF06C
:103F1400A8FEBDE804407047142100201EF0040FE1
:103F24000CBFEFF30880EFF30980816911F8021CDC
:103F34000229FFD001B50EF081FE01BD40B2002878
:103F440007DB01234109034A00F01F00834042F8C4
:103F54002130704700E100E040B200280CDB012270
:103F64000649430900F01F008240203341F8232012
:103F7400BFF34F8FBFF36F8F704700BF00E100E0C6
:103F8400054B420953F82220012300F01F0003FAD5
:103F940000F01040704700BF00E100E038B54B1C52
:103FA400072B04460D460FD95823104A10491148CF
:103FB4000DF043FD29461048072322460DF03DFD30
:103FC40058210A480DF030FD40B20028ACBF00F182
:103FD40060400A4A4FEA4313DBB2ABBF00F56140CD
:103FE40000F00F0080F80033135438BDBC72010098
:103FF400F3720100AC6001000E73010014ED00E0E7
:104004000B4A08B50B4B22F07F029A60BFF34F8F27
:10401400BFF36F8FD3F8882022F47002C3F888208E
:1040240009F088FA0CF0E0F900F04CF809F0C2FA53
:104034000000000000ED00E042F8203C009B0B492A
:1040440042F81C3C019B21F0010142F8183C029B00
:1040540042F8081C42F8143C4FF0807342F8043CC8
:104064000023203A02658367704700BF4D110000AA
:1040740000B50D4B15469860426F0C4B0E461A6006
:10408400436E83F30B882C4686F309884FF00000B7
:10409400074B984720464FF000014FF000024FF0C5
:1040A4000003044C204700BF14210020181C0020EA
:1040B4006F2C01004D1100001022014B1A61704752
:1040C40000ED00E0002320210348C2180133452BF2
:1040D40082F80013F9D1704700E100E008B5EFF36E
:1040E4000583064A103B02EBC30152F833004968CA
:1040F4008847BDE80840FFF7A7BB00BF285401006C
:104104001FB5094C094A23460121094800F012F958
:1041140000230393074B0121E41A01A8019302949D
:1041240000F02CF904B010BD0000072000000020AE
:10413400185B01007807002010B50C7A0B6804F0B6
:104144001F0223F01F031A43CB68640923F01F03E3
:10415400054943EA440343F00103C1F89800C1F858
:104164009C20C1F8A03010BD00ED00E010B50A4B52
:10417400D3F89030C3F30723013B984208D90121B7
:104184000346064A06480EF05DF86FF0150010BDB0
:10419400FFF7D2FFFBE700BF00ED00E05273010020
:1041A4002C5701002DE9F04F8946144606464FF07E
:1041B4000008514D85B0C84527DAD6F804A0BAF1F5
:1041C400000F44D0BAF11F0F17D91AF01F0F14D1E2
:1041D400D6F800B01BF01F0F0FD158460EF081FD2A
:1041E40007460AEB0B0001380EF07BFD874210D026
:1041F4006FF01507414A3B4601E04346404A01211E
:1042040040480EF01FF86FF01504204605B0BDE8D5
:10421400F08F17F1160FEDD0BC42EBDDC5F89870A6
:10422400D5F89C10C5F89870D5F8A03021F01F017E
:1042340043F01F0BD6E900321A44994202F1FF3AC7
:104244001DD1D34507D13146F8B20EF053FD08F124
:1042540001080C36AFE73146C5F89870D5F89C30A4
:1042640022F01F0203F01F031343C5F89C30E0B291
:104274000EF040FD10F1160FC5D0441CE7E7C5F859
:104284009870D5F8A020013B23F01F0302F01F0211
:104294001343D3453146E0B2C5F8A030E8D00EF060
:1042A40029FD10F1160FAED0C5F89870D5F89C20F2
:1042B4009DF808300BF1FF3B62F304038DF80830DE
:1042C400D5F8A0309DF808205B0863F347128DF8F9
:1042D4000820D6E900321344009323F01F035B4403
:1042E400A3EB0A03013023F01F036946C0B2039312
:1042F400FFF73CFFBEE700BF00ED00E09B73010049
:10430400787301002C5701000522044BC3F8942054
:10431400BFF34F8FBFF36F8F704700BF00ED00E016
:10432400BFF35F8F0022024BC3F89420704700BF95
:1043340000ED00E038B50C4D0C462A78FFF732FF4B
:10434400287016300FD14FF4B473084A084909484D
:104354000DF073FB214608480DF06FFB4FF4B47168
:1043640002480DF061FB38BD70230020BE730100CC
:10437400D9AB0100AC600100ED7301002DE9F74FEA
:10438400314E894605464FF00008B3462F4FC845C5
:1043940002DB03B0BDE8F08FD5F804A0BAF1000F3A
:1043A4004CD02968084601910EF09BFC0199044603
:1043B4000AEB010001380EF094FC84424FF0140221
:1043C400234B15D002FB08F36FF015024BF80320C2
:1043D4004FF4BC731F4A204920480DF02EFB494678
:1043E4001F480DF02AFB4FF4BC711A480DF01CFB5A
:1043F40014F1160F3460EBD01978A142E8DD02FB0A
:1044040008B0C7F89840C7F89840D7F89C4000F126
:104414000801007B64F304000871D7F8A0000C794C
:10442400400860F347140C71D7F89C1021F01F0169
:104434007160D7F8A01021F01F01316108F1010863
:1044440014360C35A3E700BF1C1C002000ED00E06F
:1044540070230020BE730100D9AB0100AC600100E1
:10446400197401002DE9F041574C584ED4F890309E
:104474003568C3F307239D4286B013D940F29F13D6
:10448400534A544954480DF0D8FAD4F89020294698
:104494005248C2F307220DF0D0FA40F29F114C4863
:1044A4000DF0C2FA0020FFF73BFF4D4BC4F8C030BB
:1044B40085421AD14B4C01A82570FEF7BDFE00259C
:1044C40006464FF04108484FAE4215D100202378EC
:1044D4003D49D1F89020C2F3072293426DDB0020BE
:1044E400FFF712FF06B0BDE8F081716801EB00111F
:1044F400FFF722FE0130DBE7019A290102EB0513E5
:10450400D3F80CC00CEA0700B0F5001F27D0B0F5B3
:10451400800F40D0B0F5801F4DD1586852589B6829
:10452400CDE902022122013B20F01F010B4423F0BC
:104534001F038DF810200593207802A9FFF716FEBB
:10454400002835DA234940F2C913214A22480DF0E4
:1045540074FA26480DF071FA40F2C9119FE75868C1
:104564009B685258013B20F01F010B4423F01F03AA
:104574001CF0010FCDE902028DF810800593DBD009
:104584001B496D23124A14480DF057FA19480DF0CF
:1045940054FA6D2183E758689B685258013B20F018
:1045A4001F010B44CDE9020223F01F030622C0E7DA
:1045B400237801332370013586E7C1F89830C1F8B8
:1045C400A000013385E700BF00ED00E0245B01009B
:1045D400BE730100D9AB0100AC6001004874010056
:1045E400AAFF4400702300200000F0FFD1740100F2
:1045F4007C740100A274010008B5024B1B68984743
:10460400002008BD301C0020034B044A1860937836
:1046140043F0020393707047301C002034020020E2
:10462400F0B587B007460E461446002110226846AE
:104634001D4610F0C6FD02238DF80230054B2A46B4
:1046440021466846CDE9047601930CF059FD07B084
:10465400F0BD00BF2B2D010008B50649064821F026
:104664000701C1F1005202F5E022FCF781F80020B5
:1046740008BD00BF3F810020341C002070B5416993
:104684000446867A0A4D59B1437ADB0706D43423AB
:1046940003FB0653DB6A1B689B689847002363612E
:1046A4003420214606FB0050BDE8704010F0D7BB13
:1046B400D40500203422024B02FB0030704700BFB7
:1046C400D40500203421827A064B01FB02331A6B95
:1046D40093F82430801A1B3323F00303B0FBF3F068
:1046E400704700BFD405002038B53424827A064BC5
:1046F40004FB0233DB6AD3E901240C601568FFF77D
:10470400E1FF04FB005038BDD405002008B5437A0E
:104714004BB10C495A230C4A0C480DF08EF95A211E
:1047240009480DF081F943683BB109495B23064A06
:1047340006480DF082F95B21F2E703824369C36006
:1047440008BD00BF2F7501000A750100AC600100AF
:10475400407501002DE9F04F054685B068461446C2
:104764009946039110F062FCDDE9006745B965499B
:10477400EE23654A65480DF060F9EE21624818E0C1
:1047840005F11C08EFF3118A202383F31288BFF389
:104794006F8F40460BF0FCFD68B988235C4A5D4985
:1047A4005A480DF04AF941465B480DF046F9882114
:1047B40057480DF039F940460BF00EFEB5F822B01B
:1047C400BBF1000F5CD02B8C5B4539D90022002350
:1047D400284609F0CFFB0446002831D040460BF0B0
:1047E400E5FD68B940F23113494A4C4947480DF098
:1047F40024F941464A480DF020F940F23111D7E737
:104804008AF31188BFF36F8F039D002D6AD032465F
:104814003B46684610F02EFC3421A27A414B2046D8
:1048240001FB0233DB6A03A91B681E68DDE9002370
:10483400B0476061002845D12046FFF71FFF3CE0E8
:104844006C8C4046631E6B840BF0B0FD0028C9D00D
:104854008AF31188BFF36F8F95F824302A8C1B33A9
:10486400121B2C6B23F0030302FB03442D4B2E4A33
:10487400EB1A9B105343A37295F82430E372C3E7F9
:1048840040460BF093FD0028ACD08AF31188BFF3A7
:104894006F8F54EA090308D010F038FD234A244BE3
:1048A40012589A4204BF5C46A14622464B4628460B
:1048B40009F060FB04460028A6D10024204605B078
:1048C400BDE8F08F039B9D420DD91A4940F24B136A
:1048D4000D4A0E480DF0B1F817480DF0AEF840F24D
:1048E4004B114BE76561012300212381039BE27A8D
:1048F4006160638204F1180010F063FC2046FFF746
:1049040005FFDBE7348801000A750100AC60010093
:10491400E26501000F660100246601003A660100A9
:1049240051660100D4050020C54EECC40800000007
:10493400381500205A7501006B75010070B50446E6
:1049440098B13426104D2046037A6468013BDBB2EB
:1049540003724BB9C3604360837A06FB03539B6ABB
:104964007BB19847002CEED170BD084908484FF43C
:10497400E673084A0DF061F84FF4E67105480DF04E
:1049840053F8FFF77BFEEDE7D4050020637A0100BE
:10499400AC6001000A75010008B558B90749084818
:1049A4004FF4FB73074A0DF048F84FF4FB710548C8
:1049B4000DF03AF8027A0132027208BD637A0100FE
:1049C400AC6001000A75010008B5034658B90849EE
:1049D400084840F24123084A0DF02FF840F24121E3
:1049E40005480DF021F818465B68002BFBD108BD83
:1049F400637A0100AC6001000A75010070B50D46D0
:104A0400044658B90F494FF413730F4A0F480DF079
:104A140014F84FF413710C480DF006F849B90C4919
:104A240040F24D23084A09480DF007F840F24D21A1
:104A3400F1E746681EB10846FFF7C6FF46606560A9
:104A440070BD00BF807801000A750100AC600100F0
:104A54006E75010038B505460C4659B90C490D4828
:104A64004FF416730C4A0CF0E8FF4FF416710A4821
:104A74000CF0DAFF20B9BDE838400846FFF78CBFD8
:104A8400FFF7A2FF2146FFF7B9FF284638BD00BF54
:104A94006E750100AC6001000A75010008B548B9E3
:104AA4000B492B230B4A0C480CF0C7FF2B21094858
:104AB4000CF0BAFF83883BB108492C23054A064809
:104AC4000CF0BBFF2C21F2E783680B44036008BDA4
:104AD400637A01007B750100AC600100A7750100D9
:104AE40008B5034600689A68821A91420BD90949AD
:104AF400094840F25513094A0CF09FFF40F2551142
:104B040006480CF091FF9A88401A11441860998065
:104B140008BD00BFC6750100AC6001007B750100D3
:104B240008B5828803468A420BD20949094840F2F3
:104B3400C313094A0CF081FF40F2C31106480CF07C
:104B440073FF521A828000680844186008BD00BFD1
:104B5400B6750100AC6001007B75010008B5034621
:104B64009A8800688A420BD20849094840F2CF1358
:104B7400084A0CF062FF40F2CF1106480CF054FFD3
:104B8400521A01449A80196008BD00BFB67501002D
:104B9400AC6001007B750100F8B5858803680E469A
:104BA40004465F190EF0E9F8B04209D206490748F5
:104BB4003E23074A0CF041FF3E2105480CF034FF28
:104BC4003544A5803846F8BDEA750100AC600100A3
:104BD4007B75010008B543090DD0012B1CD0134986
:104BE40013484FF46C73134A0CF027FF4FF46C71A5
:104BF40010480CF019FF4FF0FF33C340DA07EED52D
:104C04000D4B03EB8003D3F8002222F0E04242EA8A
:104C14000171C3F8001208BD4FF6FF7300F01F00C6
:104C2400C340DB07DBD5054BEBE700BF5076010043
:104C3400AC6001001D7601000025845000288450DA
:104C440038B50124134B144DC3F800450223032146
:104C5400C5F8D0360020FFF7BDFF20460321FFF73B
:104C6400B9FFC5F804472146C5F804492120C5F811
:104C7400004BFFF7AFFF21462020FFF7ABFF214693
:104C84000B20FFF7A7FF21460A20FFF7A3FF002010
:104C940038BD00BF001000500040005007B50DF1B2
:104CA400070006F067FB114B98421CD14FF4806259
:104CB4000F4B1049C3F8B8254FF40062C3F83C25E4
:104CC4009DF8070006F012FB0B499DF8070006F05B
:104CD400F5FA01209DF80730984006F0E3FA002029
:104CE40003B05DF804FB6FF00B00F9E70000AD0BB7
:104CF40000A002502CA0025028A10250052370B538
:104D0400144D154E2C780134B4FBF3F303EB8303F9
:104D1400E41A0FF0FFF9114A137823B156F824303E
:104D2400C01A072814D94FF05023D3F8141141B1F5
:104D34000021C3F81411D3F814312C700CB90123D9
:104D440013702C780FF0E6F946F82400012070BDAA
:104D54000020FCE772230020401C00207123002067
:104D640048B1054B054A1B68B3FBF2F35843044BA7
:104D740043F00103184770473803002040420F00F6
:104D840010580100014902480CF0A2BF585B010011
:104D9400541C00204FF47F032DE9F041D3F8302157
:104DA4000646072A0D46D3F8343120D1023B032BA3
:104DB40002D8124AD35CD3B14FF050244FF001080B
:104DC40000270520C4F81886C4F814760FF0B2F949
:104DD4004046C4F814860FF0ADF9C4F81476C4F84C
:104DE400187630462B46BDE8F041002118474FF0B5
:104DF40050230022C3F81426F3E700BFB87601005D
:104E04001FB518B300230193039301236946124885
:104E14000293FCF753FE002809DA10493C23104A98
:104E240010480CF00AFE3C210D480CF0FDFD029BDD
:104E34009B0707D009494423094A0A480CF0FDFDA1
:104E44004421F1E7039B05B05DF804FB0248FCF73D
:104E5400CDFE0028F7DAEDE7541C0020AF76010000
:104E640077760100AC6001000F2AF8B504461546B8
:104E740008461F460BD90F490F4840F2F3130F4A57
:104E84000CF0DBFD40F2F3110C480CF0CDFD05F005
:104E940075FE0B4EAD0001462E4420462FB144F062
:104EA400004406F023FA3460F8BD06F04DFA37608A
:104EB400FAE700BFEE760100AC600100BC760100A9
:104EC40080A102507FB5284B01A90293002302A8B8
:104ED4008DF80C3006F0E2FC244B984241D106F0E8
:104EE40029F8041E0BDA9DF8041002A806F0DEFC73
:104EF400012123461E4A1F480DF0A4F92EE040F676
:104F040007031D4D8DF80540AE68ADF80630746892
:104F1400019B14B96FF05704EAE708212846174AA1
:104F2400A047041EE4DB3369002BF3D001220821DF
:104F340028469847041EDBDB01259DF8040005FA8A
:104F440000F006F0AFF92B469DF807209DF80510F8
:104F54009DF80400FFF788FF002CC9D1204604B057
:104F640070BD6FF01204C3E7007001500000AD0B78
:104F7400F976010054570100EC5301002150000060
:104F840073B5069EC6F30744F5B2C6F3072630464A
:104F940005F0DAFD0F2C01460BD91849184840F2E8
:104FA400ED13184A0CF049FD40F2ED1115480CF0D0
:104FB4003BFD284606F0B2F900220120124BA40062
:104FC400E4B21A51114BA84000938DF8042006F066
:104FD4006FF9304605F0CCFF2946684606F066FCBA
:104FE4000B4B984208D00B49054876230A4A0CF02B
:104FF40024FD76210848DAE702B070BDEE760100A0
:10500400AC600100BC76010080A002500070015029
:105014000000AD0B50770100217701002DE9F74323
:10502400144683681B694BB922492348CA23234A7F
:105034000CF003FDCA2121480CF0F6FC002298472D
:1050440006460028F0D1C4F30728404605F0B0FD19
:105054005FFA84F941463346220E07464846FFF775
:1050640003FF404605F070FDC4F307450F2D0146CC
:105074000AD91349104840F2ED13124A0CF0DDFC32
:1050840040F2ED110F48D7E70F4BAD0049F0004255
:10509400EDB25A51484606F011F90C4B07F13202B1
:1050A4000093404633460194520005F051FE03B08C
:1050B400BDE8F083D9650100AC60010021770100EF
:1050C400EE760100BC76010080A00250854F0000FE
:1050D40030B503788BB0044607AD032B21D8DFE845
:1050E40003F0021A1C1E12492846FBF73BF80595EB
:1050F40063781E210493A3780E4A0393E3780E4841
:1051040002932379019363790093A3790BF0CCFF85
:1051140009480BB030BD0949E6E70949E4E7094904
:10512400E2E70A212846084A0BF0BEFFDFE700BF8A
:1051340087770100A9770100732300208E7701008F
:10514400957701009F7701003A89010030B500246A
:10515400094D0A4B85B028460293039409F09AFB43
:1051640002AB284600934FF4A3620A23044909F0D2
:10517400ABFB204605B030BDD00F0020CC7701003A
:10518400982F00200146014809F0C6BCD00F00202A
:10519400037830B5012B13D0022B27D07BB90A46F4
:1051A400184B03F1100453F8045BA34242F8045B68
:1051B400F9D11B78137043884B731B0A8B7330BD72
:1051C4000A46104B03F1100453F8045BA34242F85F
:1051D400045BF9D11B7813704368C3F307224B7344
:1051E4001B0CCB731B0A8A730B74E8E700F11003E2
:1051F40050F8042B984241F8042BF9D103780B7032
:10520400DDE700BFD577010038B50546012D10460E
:10521400194610D0032D1AD0052D18D00E493C2361
:105224000E4A0F480CF009FC0E480CF006FC3C2119
:105234000A480CF0F9FB0C480DF081FD044620B13E
:1052440001210C30FFF72AFC2576204638BD0246A2
:105254000B460648F0E700BF15780100E677010029
:10526400AC6001005A780100A4060020D405002097
:105274000F2810B50ED80D280ED90B480DF05FFD80
:10528400044628B101210C30FFF708FC01232376E2
:10529400204610BD1328F0D009B10448EEE70120E0
:1052A400BDE81040FFF7B0BF4007002070060020A3
:1052B40038B50B6804460D464BB916491648BC234D
:1052C400164A0CF0BAFBBC2114480CF0ADFB4A683A
:1052D400DA600B684A895A820868FFF72FFB0021BD
:1052E400102228460FF06DFFA07AFFF7E3F96169F9
:1052F400054649B1637ADB0704D4C36A20461B68B8
:105304009B6898470023636121462846BDE83840DE
:105314000FF0A5BD7A780100AC600100E6770100CA
:105324002DE9F84305460C461F4616464AB9264958
:105334009823264A26480CF080FB982123480CF039
:1053440073FB38B923499923204A21480CF075FB93
:105354009921F3E701F10C0948460DF00AFD38B92B
:105364001D499D23194A1A480CF067FB9D21E5E766
:1053740020460DF081FD804638B118499F23134A19
:1053840013480CF05AFB9F21D8E705F10C0148465D
:105394000DF0D9FC48460DF0ECFC012310FA86F020
:1053A40068826B72314648462E82FFF7B9FBE36888
:1053B40028467B60638AC4F80C807B81A4F8128041
:1053C4003C60BDE8F88300BF779F0100E6770100E9
:1053D400AC600100877801008C780100A978010095
:1053E4002DE9F3470023074688461646DFF8209147
:1053F400D9E8EF4FC9E8E23F002AF9D144B93B4666
:105404000121444A444802B0BDE8F0470DF03FBDD5
:105414002046FFF757F94FF00C0A404D0AFB0050A5
:105424004388BB4220D02046FFF74CF90AFB0050CA
:105434004388012100933A4A3B4637480CF00CFF5D
:10544400D9E8EF3FC9E8E24F002AF9D1002B5CD03C
:105454003449354840F66D13344A0CF0EEFA40F600
:105464006D1132480CF0E0FAA6420ED02046FFF748
:105474004DF9012104F10C0738462176FFF70EFBA4
:105484003846328AF1680DF080FC2046FFF71AF99D
:105494000C2606FB00504368ABB1B8F1000F12D1E3
:1054A4002046FFF70FF9012106FB00504268D2E9BC
:1054B4000003127A03F01F06B1405B09FAB100EB56
:1054C40083000DF0E6FC2046FFF7FCF80C2606FBF3
:1054D400005083686BB12046FFF7F4F8704305F879
:1054E40000802046FFF7EEF806FB0055A86808F098
:1054F400ADFD204602B0BDE8F047FFF71FBAC9432F
:1055040000EB83000DF0D3FCDDE702B0BDE8F087CB
:1055140048010020077A0100BC560100741C0020D9
:105524002F7A0100627A0100AC60010091790100D8
:1055340010B5C1E900239DF808300C460B72FFF743
:10554400C1F80C22024B02FB00335C6010BD00BFAB
:10555400741C00202DE9F0474FF0FF3206464FF04F
:10556400FF33184888460DF0EAFB044638B34FF081
:10557400000900F10C0701213846FFF78FFA204695
:1055840084F81890FFF79EF84FF00C0A0E4D0AFBB2
:10559400005046802046FFF795F80AFB0050C0F8FB
:1055A40008902046FFF78EF80AFB00550321384681
:1055B400C5F80490FFF7F0FA068080F802802046D0
:1055C400BDE8F0870C070020741C002070B5064667
:1055D40090B00B4D01AC0FCD0FC40FCD0FC40FCD48
:1055E4000FC495E8070084E807000E2E9DBF10AB9A
:1055F40003EB860656F83C0C024810B070BD00BFA1
:10560400B4570100DD7A0100034B0146D3F8700161
:1056140082689268104700BF000000202DE9F84F0F
:105624003D4C00AF04213D480DF033FC3C4DE27984
:105634003C4B2046012A88BF1D466E46FFF748FDB5
:105644008AB06A46384BA346C2E905350125374B73
:10565400D0611362364B4FF42351364842F8103F61
:105664000DF022FCDFF8D080B546DFF8C890334E49
:10567400E3790BF1070B9D4238DB94F870506E46CA
:105684002846FFF7A3FF8CB06A46B4F87210B4F84A
:105694007630C2E907514FF400755362DFF8A0C0B9
:1056A400284BC2E905C015854FF4535142F8103F09
:1056B40020480DF0F9FBB54694F871603046FFF7C9
:1056C40085FF8AB06A46B4F874301F49C2E907639B
:1056D4001E4BC2E9051095844FF43351154842F826
:1056E400103F0DF0E1FBBD46BDE8F88F5846FFF7CB
:1056F400EFFCEA468AB06A4640F20133C2E9056526
:10570400D06113844FF41351484642F8108F0DF0C2
:10571400CBFB0135D546ABE700000020D4000020C8
:105724006D750100E57A0100E97A010000020103C8
:1057340004000002BC56010004000001F87A0100D4
:10574400097B010006000001477B01000500000100
:10575400004870476E7B0100014809F007B800BF9C
:105764004402002038B505460C4619B9FFF7F2FE8D
:105774000446D8B140F635439D420FD12046FFF789
:1057840043FF054640B1034601210A480A4A0DF089
:105794007EFB2046FFF7D2F8284638BD214607484D
:1057A4000FF052FB0025FFF7D7FFF5E76FF0680510
:1057B400F2E700BFBC5601007F7B010054010020CA
:1057C400F8B50521054640F63540FFF7C3FE04460B
:1057D40078B9FD231C4A1D491D480CF02EF91D48BB
:1057E4000CF02BF984F31188BFF36F8F0323184651
:1057F40002DF04F10C0701213846FFF7CDF9012639
:10580400042106703846FFF7C7F9058000252146B4
:105814008670C57040F63540FFF7A4FF044688B192
:1058240040F20713084A0C4909480CF006F92146CE
:105834000A480CF002F985F31188BFF36F8F032334
:10584400184602DFF8BD00BF91790100637A0100B8
:10585400AC600100A17B0100D9650100C07B01009F
:105864002DE9F0410446868B477E807AFEF722FFBD
:105874006169054649B1637ADA0704D4C36A2046EC
:105884001B689B68984700236361214628460FF0F4
:10589400E6FAA37E33BB144B93F88A309B0621D5DA
:1058A400384601F0BBFE044638B93B46BDE8F0413A
:1058B40002210E4A0E480DF0EABA837A073B012B07
:1058C40009D90B4802210B4A0DF0DFFA2046BDE846
:1058D400F04101F0CBB901F0C9F93046BDE8F0411F
:1058E400FFF76EBFBDE8F08100000020E37B0100FC
:1058F400BC5601000C7C010038B502460B462B4D0A
:10590400D5F8541109B9002038BD05F5987008F090
:10591400DFFB0028F7D10022002305F5AA7008F068
:1059240029FB044668B940F6B733214A2149224885
:105934000CF083F884F31188BFF36F8F03231846A8
:1059440002DFD5F848315BB101211C4A1C480DF037
:105954009CFAD5F84801FEF7F1FF0023C5F8483159
:105964002046FFF719F8C5F848012046FFF74CFE1A
:105974000346C8B10121134A11480DF088FA1248B0
:1059840008F064FB2046FEF79DFE0C220F4B02FB41
:105994000033588818B122461F21FFF721FD204605
:1059A400FEF7CCFFFFF7D8FE0120ADE70000002092
:1059B40091790100637A0100AC600100387C010038
:1059C400BC5601007F7B010030010020741C0020C4
:1059D4002DE9F04F87B0054616460C4600AF31B9A5
:1059E400FFF7B8FD0446A0B96FF0680099E0887A23
:1059F400FEF760FE524B83420BD0524952484FF49B
:105A0400BF73524A0CF019F84FF4BF714F480CF0B1
:105A14000BF80122002138460FF02FFA2046FEF73A
:105A240051FE0C23DFF828A103FB00A08760204669
:105A3400FEF7B2FF014647480FF006FAFFF78CFE67
:105A44000FF064FC444B1A58444B9A4220D1DFF8BF
:105A540010B140480FF00DFA002181464FF4A02008
:105A6400FFF74AFF804688B94FF4D4735946374A42
:105A740035480BF0E2FF29463A480BF0DEFF88F385
:105A84001188BFF36F8F0323184602DF4C45E0D122
:105A94004FF4A0220023384608F01AFB804698B140
:105AA4004FF4D773294A304927480BF0C6FF4246C2
:105AB40029462E480BF0C1FF002383F31188BFF35E
:105AC4006F8F0323184602DF2046FEF7FBFD0C23ED
:105AD40058431AF80080B8F1000F26D06E468AB0F9
