:020000040000FA
:1000000020580020C136000079170100AD360000ED
:10001000AD360000AD360000AD360000AD36000054
:100020000000000000000000000000006D3800002B
:10003000AD360000000000002D380000AD36000095
:10004000F5390000F5390000F5390000F5390000F8
:10005000F5390000F5390000F5390000F5390000E8
:10006000F5390000F5390000F5390000F5390000D8
:10007000F5390000F5390000F5390000F5390000C8
:10008000F5390000F5390000F5390000F5390000B8
:10009000F5390000F5390000F5390000F5390000A8
:1000A000F5390000F5390000F5390000F539000098
:1000B000F5390000F5390000F5390000F539000088
:1000C000F5390000F5390000F5390000F539000078
:1000D000F5390000F5390000F5390000F539000068
:1000E000F5390000F5390000F5390000F539000058
:1000F000F5390000F5390000F5390000F539000048
:10010000F5390000F5390000F5390000F539000037
:10011000F5390000F5390000F5390000F539000027
:10012000F5390000F5390000F5390000F539000017
:10013000F5390000F5390000F5390000F539000007
:10014000F5390000F5390000F5390000F5390000F7
:10015000F539000081F0004102E000BF83F0004368
:1001600030B54FEA41044FEA430594EA050F08BF52
:1001700090EA020F1FBF54EA000C55EA020C7FEA16
:10018000645C7FEA655C00F0E2804FEA5454D4EB93
:100190005555B8BF6D420CDD2C4480EA020281EA5D
:1001A000030382EA000083EA010180EA020281EA95
:1001B0000303362D88BF30BD11F0004F4FEA0131E7
:1001C0004FF4801C4CEA113102D0404261EB4101F6
:1001D00013F0004F4FEA03334CEA133302D052427C
:1001E00063EB430394EA050F00F0A780A4F1010438
:1001F000D5F1200E0DDB02FA0EFC22FA05F2801872
:1002000041F1000103FA0EF2801843FA05F3594157
:100210000EE0A5F120050EF1200E012A03FA0EFCD6
:1002200028BF4CF0020C43FA05F3C01851EBE37100
:1002300001F0004507D54FF0000EDCF1000C7EEB1D
:1002400000006EEB0101B1F5801F1BD3B1F5001F5B
:100250000CD349085FEA30004FEA3C0C04F101047A
:100260004FEA445212F5800F80F09A80BCF1004FA3
:1002700008BF5FEA500C50F1000041EB045141EA25
:10028000050130BD5FEA4C0C404141EB0101013CEE
:1002900028BFB1F5801FE9D291F0000F04BF0146DD
:1002A0000020B1FA81F308BF2033A3F10B03B3F1AF
:1002B00020020CDA0C3208DD02F1140CC2F10C023F
:1002C00001FA0CF021FA02F10CE002F11402D8BF9D
:1002D000C2F1200C01FA02F120FA0CFCDCBF41EA69
:1002E0000C019040E41AA2BF01EB0451294330BD38
:1002F0006FEA04041F3C1CDA0C340EDC04F1140415
:10030000C4F1200220FA04F001FA02F340EA0300EB
:1003100021FA04F345EA030130BDC4F10C04C4F131
:10032000200220FA02F001FA04F340EA0300294611
:1003300030BD21FA04F0294630BD94F0000F83F45B
:10034000801306BF81F480110134013D4EE77FEA3E
:10035000645C18BF7FEA655C29D094EA050F08BF8A
:1003600090EA020F05D054EA000C04BF194610466B
:1003700030BD91EA030F1EBF0021002030BD5FEAAF
:10038000545C05D14000494128BF41F0004130BDD7
:1003900014F580043CBF01F5801130BD01F000452B
:1003A00045F0FE4141F470014FF0000030BD7FEA9E
:1003B000645C1ABF194610467FEA655C1CBF0B4699
:1003C000024650EA013406BF52EA033591EA030FB0
:1003D00041F4002130BD00BF90F0000F04BF0021A8
:1003E000704730B54FF4806404F132044FF00005DB
:1003F0004FF0000150E700BF90F0000F04BF002154
:10040000704730B54FF4806404F1320410F00045B9
:1004100048BF40424FF000013EE700BF42004FEAB4
:10042000E2014FEA31014FEA02701FBF12F07F4331
:1004300093F07F4F81F06051704732F07F4208BFE8
:10044000704793F07F4F04BF41F40021704730B5EF
:100450004FF4607401F0004521F000411CE700BF3B
:1004600050EA010208BF704730B54FF000050AE0BE
:1004700050EA010208BF704730B511F0004502D5BF
:10048000404261EB41014FF4806404F132045FEAC1
:10049000915C3FF4D8AE4FF003025FEADC0C18BF6A
:1004A00003325FEADC0C18BF033202EBDC02C2F15C
:1004B000200300FA03FC20FA02F001FA03FE40EAEE
:1004C0000E0021FA02F11444BDE600BF70B54FF0F2
:1004D000FF0C4CF4E06C1CEA11541DBF1CEA1355D0
:1004E00094EA0C0F95EA0C0F00F0DEF82C4481EA38
:1004F000030621EA4C5123EA4C5350EA013518BF58
:1005000052EA033541F4801143F4801338D0A0FB44
:1005100002CE4FF00005E1FB02E506F00042E0FBF1
:1005200003E54FF00006E1FB03569CF0000F18BFF7
:100530004EF0010EA4F1FF04B6F5007F64F540749F
:1005400004D25FEA4E0E6D4146EB060642EAC62132
:1005500041EA55514FEAC52040EA5E504FEACE2E9F
:10056000B4F1FD0C88BFBCF5E06F1ED8BEF1004FA2
:1005700008BF5FEA500E50F1000041EB045170BD1E
:1005800006F0004646EA010140EA020081EA030162
:10059000B4EB5C04C2BFD4EB0C0541EA045170BD5E
:1005A00041F480114FF0000E013C00F3AB8014F1D8
:1005B000360FDEBF002001F0004170BDC4F1000421
:1005C000203C35DA0C341BDC04F11404C4F12005A2
:1005D00000FA05F320FA04F001FA05F240EA0200FD
:1005E00001F0004221F0004110EBD37021FA04F633
:1005F00042EB06015EEA430E08BF20EAD37070BDED
:10060000C4F10C04C4F1200500FA04F320FA05F04B
:1006100001FA04F240EA020001F0004110EBD3704D
:1006200041F100015EEA430E08BF20EAD37070BDBD
:10063000C4F1200500FA05F24EEA020E20FA04F396
:1006400001FA05F243EA020321FA04F001F0004145
:1006500021FA04F220EA020000EBD3705EEA430EB6
:1006600008BF20EAD37070BD94F0000F0FD101F0E5
:100670000046400041EB010111F4801F08BF013C1E
:10068000F7D041EA060195F0000F18BF704703F05C
:100690000046520043EB030313F4801F08BF013DE3
:1006A000F7D043EA0603704794EA0C0F0CEA13559F
:1006B00018BF95EA0C0F0CD050EA410618BF52EA59
:1006C0004306D1D181EA030101F000414FF000005F
:1006D00070BD50EA410606BF1046194652EA43066D
:1006E00019D094EA0C0F02D150EA013613D195EAE1
:1006F0000C0F05D152EA03361CBF104619460AD129
:1007000081EA030101F0004141F0FE4141F4700132
:100710004FF0000070BD41F0FE4141F4780170BD22
:1007200070B54FF0FF0C4CF4E06C1CEA11541DBF87
:100730001CEA135594EA0C0F95EA0C0F00F0A7F889
:10074000A4EB050481EA030E52EA03354FEA0131B6
:1007500000F088804FEA03334FF0805545EA1313C9
:1007600043EA12634FEA022245EA111545EA106591
:100770004FEA00260EF000419D4208BF964244F128
:10078000FD0404F5407402D25B084FEA3202B61A47
:1007900065EB03055B084FEA32024FF480104FF41B
:1007A000002CB6EB020E75EB030E22BFB61A75468F
:1007B00040EA0C005B084FEA3202B6EB020E75EB22
:1007C000030E22BFB61A754640EA5C005B084FEA8A
:1007D0003202B6EB020E75EB030E22BFB61A754657
:1007E00040EA9C005B084FEA3202B6EB020E75EB62
:1007F000030E22BFB61A754640EADC0055EA060E23
:1008000018D04FEA051545EA16754FEA06164FEA65
:10081000C30343EA52734FEAC2025FEA1C1CC0D111
:1008200011F4801F0BD141EA00014FF000004FF09E
:10083000004CB6E711F4801F04BF01430020B4F15F
:10084000FD0C88BFBCF5E06F3FF6AFAEB5EB030C17
:1008500004BFB6EB020C5FEA500C50F1000041EB14
:10086000045170BD0EF0004E4EEA113114EB5C04E1
:10087000C2BFD4EB0C0541EA045170BD41F48011B4
:100880004FF0000E013C90E645EA060E8DE60CEABC
:10089000135594EA0C0F08BF95EA0C0F3FF43BAFD9
:1008A00094EA0C0F0AD150EA01347FF434AF95EA90
:1008B0000C0F7FF425AF104619462CE795EA0C0F74
:1008C00006D152EA03353FF4FDAE1046194622E741
:1008D00050EA410618BF52EA43067FF4C5AE50EA1B
:1008E00041047FF40DAF52EA43057FF4EBAE12E70B
:1008F00053B94AB9002908BF00281CBF4FF0FF3187
:100900004FF0FF3000F00CB8ADF1080C6DE904CEEB
:1009100000F022F8DDF804E0DDE9022304B07047BE
:10092000704700BF10F8012B11F8013B012A28BFC6
:100930009A42F7D0D01A7047034611F8012B03F8FA
:10094000012B002AF9D17047034613F8012B002A26
:10095000FBD1181A013870472DE9F04786468C46BE
:100960000846089E154674461946002B40F0C18083
:100970008542B2FA82F245D94AB1C2F1200300FAA7
:1009800002FC954094402EFA03F343EA0C0C4FEA24
:10099000154EA8B2230CBCFBFEF80EFB18CC08FBCE
:1009A00000F943EA0C43994528D9EB1808F1FF37C1
:1009B00004D2994502D9A8F102072B44A3EB0903FD
:1009C000A4B2B3FBFEFC0EFB1C330CFB00F044EAAC
:1009D0000344A04214D92C190CF1FF3304D2A042D5
:1009E00002D9ACF102032C44241A43EA07401EB199
:1009F000D440002334607360BDE8F0874746DDE7EC
:100A00006346F1E792BB431B01214FEA154EAFB29B
:100A1000200CB3FBFEFC0EFB1C330CFB07F840EA7A
:100A20000343984561D9EB180CF1FF3004D2984587
:100A300002D9ACF102002B44A3EB0803A4B2B3FB30
:100A4000FEFC0EFB1C330CFB07F744EA0344A742F1
:100A50004DD92C190CF1FF3304D2A74202D9ACF1C5
:100A600002032C44E41B43EA0040C0E7C2F1200328
:100A70009540944020FA03F12EFA03F34FEA154E05
:100A80009040AFB20343B1FBFEFC0EFB1C10190CEF
:100A90000CFB07F841EA0041884522D969180CF19E
:100AA000FF3004D2884502D9ACF102002944A1EB01
:100AB00008019BB2B1FBFEFC0EFB1C110CFB07F7FF
:100AC00043EA01439F420ED9EB180CF1FF3104D2E7
:100AD0009F4202D9ACF102012B44DB1B41EA0041E9
:100AE00093E76046E3E76146F7E76046A4E76346BD
:100AF000B8E7834206D916B9002108467CE7C6E963
:100B000000E0F9E7B3FA83F78FB9834201D3724566
:100B100008D8BEEB020460EB030301209C461EB91B
:100B2000002169E73846FAE7C6E9004CF8E7C7F163
:100B3000200CBB400EFA07F522FA0CF42EFA0CF149
:100B4000BA401C4320FA0CF3B8404FEA1449014361
:100B50001FFA84FEB3FBF9F809FB18300B0C08FBF5
:100B60000EFA43EA00439A4540D9E31808F1FF30F2
:100B700004D29A4502D9A8F102002344A3EB0A0348
:100B800089B2B3FBF9F809FB183308FB0EFE41EA02
:100B900003418E452CD9611808F1FF3304D28E45EC
:100BA00002D9A8F10203214443EA0040A1EB0E015F
:100BB000A0FB02984145CE46434602D306D14D459F
:100BC00004D20138B9EB020E68EB0403002EA7D063
:100BD000B5EB0E0261EB030101FA0CFC22FA07F3FC
:100BE000F9404CEA0303C6E9003199E74046C5E7FE
:100BF0004346D9E7014B1878704700BF982800207A
:100C000008B505480FF084FA0022044B01201A7041
:100C1000BDE8084012F092BFBC6A0100992800208C
:100C20000321024A024810F081B800BFD66A0100D1
:100C30004C5C010013B5064C4FF0FF324FF0FF3310
:100C4000204601A90CF0C0FA019800F0DFF9F3E7A3
:100C5000C805002010B504468CB029B11D480CB061
:100C6000BDE810400FF054BA03A906F071FD034629
:100C700030B10121184A194810F061F80CB010BDCC
:100C8000BDF82000FFF7B8FB0022154BFFF71EFC54
:100C9000BDF82430024603EB83035B009BB2019353
:100CA000BDF822300F4800930B460FF031FA0E4B7F
:100CB000204602A9029311F01DFA034620B101213A
:100CC0000A4A064810F03BF80120094B187012F050
:100CD00032FFD3E7F76A0100136B01004C5C01009F
:100CE0000000F43F326B0100000002027D6B010046
:100CF00099280020B0B500F00105044600AF284651
:100D000000F062F9034640B10121104A104810F08A
:100D100016F8104B1D70BD46B0BD0F4A0F49002C90
:100D200018BF11466C4688B06A460D48C2E90501F5
:100D30004FF4007191830B4942F8101F4FF4E651B4
:100D4000034801F0B3FCA546E3E700BFB26B010026
:100D50004C5C010098280020A16B0100A96B0100E8
:100D6000DD6B0100030000010B4610B41B784968DD
:100D7000022B03D0052B0BD010BC7047084B1B78FF
:100D8000002BF9D000220023064810BC0CF0C6B995
:100D900083680422DC680449A446642310BC6047CD
:100DA00099280020C8050020942800200B78012BEA
:100DB00004D1074A032107480FF0B8BF022B01D125
:100DC000054AF7E7032B01D1FFF72ABF704700BFA1
:100DD000F76B01004C5C0100106C010073B50AF068
:100DE000A9FB034628B1354A012135480FF0A7FF7A
:100DF00012E034480AF0CEFB044628B904F094FE11
:100E0000034670B1304AEFE7014630480FF080F9F1
:100E100021462F480FF07CF94FF0FF34204602B0F6
:100E200070BD2C4806F0DEFB2B4800F0C3F80146ED
:100E300008B12A48EEE701250321294A20480FF08E
:100E400075FF0222274B28492848009505F0C0FC71
:100E5000044610B1264A0346C6E7264E0321264A19
:100E600017480FF063FF306813F0DDFD28B9234AFF
:100E7000294613480FF05AFFCEE7306883681B6895
:100E800033B122461E499847034620B11D4AABE7BD
:100E90006FF05703FAE7306883680422DC681A4968
:100EA0006423A047044610B1184A03469CE7032177
:100EB000174A03480FF03AFFB0E700BF296C010062
:100EC0004C5C0100F7FA0000806C0100446C0100EA
:100ED000636C0100700100208C010020A06C0100F7
:100EE000BD6C01007860010080600100906001002D
:100EF000D46C010094010020FA6C01001C6D01000B
:100F0000690D0000346D0100942800205B6D010024
:100F10007B6D01008B1E59425941014B197070477E
:100F20009B2800204B1E59425941014B19707047B4
:100F30009C28002008B5042BBDF808100CD171B90D
:100F40000A4B1B680BB9042008BD1068012809D89A
:100F500000F001009847F6E76FF00C00F4E76FF03F
:100F60000600F1E76FF01200EEE700BFB81C0020AA
:100F70002DE9FF411F460D4B054658680C461646A5
:100F800080B1D1F80C808047094B3246187001239C
:100F9000CDE90183BDF828302146009328463B4621
:100FA00011F054FF04B0BDE8F08100BFB81C002070
:100FB0009A28002020B1034B02681A6042685A60E8
:100FC00000207047B81C002007B50C4B8DF80700B7
:100FD0001B7883B10A490B4B00204B600A4BC86059
:100FE0008B600DF107030B6101238B8208F000FB7E
:100FF00003B05DF804FB6FF00C00F9E79B280020BC
:10100000A01C0020CC60010001FB000000B50D4BCE
:1010100089B01B78019093B10021182202A814F026
:1010200016FA094B0020039301AB0493042302A991
:10103000ADF8143008F054FC09B05DF804FB6FF013
:101040000C00F9E79C280020306101002DE9F04FE9
:1010500091B0009302F004030293C2F3C203013380
:10106000840705460E46DDF868900392059340F02C
:10107000BB81041D30B1072909D86FF01B0011B0E6
:10108000BDE8F08F01F00706341DC6F10806009B8D
:101090004FF000084FF0040A591E4FF0FF33474647
:1010A0000193C3465346CDF810800DB1009A2260DB
:1010B0000598002800F3E8809848009A824203D3FC
:1010C00097488242C0F0E080039AA4EB050E920795
:1010D0004FEA9E0000F103810F2F00F2B180002D36
:1010E00000F0058107F140020DEB020C019A0CF8AB
:1010F000200C0CF8102C049801300490E7E07A28BA
:101100005DD84B280ED8472859D829282DD825280E
:1011100052D054D820287AD02338D0F1000B4BEB92
:10112000000B74E04C382E2849D8DFE800F07048F6
:10113000484848484848484848484B48484848482C
:1011400048484859484B4B595959704B6D4870485D
:10115000184B184848827F4B48484B487F00002076
:101160004FF0000B4FF0040A38E001222A38C0B2D9
:1011700002FA00F010EA0E0F49D110F0625C2FD194
:1011800010EA020B43D06046013C5444B4FBFAF42D
:101190000AFB04F4002D61D0A3EB050CA444B44574
:1011A0003FF66BAF002868D1042B47D159F8043BB8
:1011B0002360042304342AE0019A013A01924FF09B
:1011C000000B24E011F8010C6C2834D1002011F838
:1011D000023C83466C2BC5D14FF0080A5346D3E737
:1011E00009F1070929F00709073424F00704F9E891
:1011F00002AB35B106982044B0423FF63EAFC4E999
:1012000000AB4FF0000B08344FF0080A534611F8BA
:10121000010F002878D0BBF1000F7FF470AF2528B4
:10122000F5D14FF0010B019B013301934FF0040AFC
:10123000ECE7584694E700208346A5E7082B02D048
:101240006FF015001BE709F1070929F00709F9E814
:101250000223C4E9002308230834D8E768B9042B23
:1012600002D109F10409A4E7082BE9D109F1070922
:1012700029F0070909F10809EDE7059A013A0592F5
:1012800059F8042B009210E7039A900720D54FF0ED
:10129000010CA4EB050E4FEA9E00BEF5007FCFD2F5
:1012A0000F2FCDD8F5B107F140020DEB020E019AD8
:1012B000C0B20EF8200C0EF8102CBCF1000F3FF459
:1012C0001AAF60F07F000EF8200C08F1010801371A
:1012D000C5F108024FF6DA7E0434069297E74FF024
:1012E000000CDAE7BCF1000F01D00136EFE70298FD
:1012F00002360028EBD10098CDE90631FFF724FB38
:10130000DDE906310644E2E7631BB3F5806F97D24F
:1013100045B9A6F10804E018B1E600BF6058010025
:1013200040920100029A9B0828602B709DF81030B3
:10133000C2B1EB7085F80280B8F1000F05D0002231
:1013400008A8C5F1010C97420ED14FF0000AC5F173
:1013500001030DF1200901930DF1300B574512D116
:10136000601B8CE66B70E5E710F8013B190608D5A9
:1013700004EB0C0EB64503F07F033FF67EAE04F897
:10138000013B0132DFE7B8F1000F03D099F90020EB
:10139000002A17DB029BD3B11AF80B2004F8012BAB
:1013A0000022019B98182044B0423FF666AE99F89F
:1013B0000000009904F8010B2046039214F020F875
:1013C000039A14440AF1010A09F10109C6E799F8E0
:1013D000002055F822300093029B009845F82230F7
:1013E000FFF7B2FA421CDCE76FF00D0047E600BFE2
:1013F0002DE9F04F97B000AFD7F880B03B62CBF348
:10140000C0030446894690F802A0FA62BB6141B964
:10141000457800780AEB800020444D4517D8A0EBB2
:101420000409E378FB61BAF1000F02D01BF0010F51
:1014300016D1FB6953BBFB6A1BB1494620463A6A89
:1014400098474D4628465C37BD46BDE8F08F461CA0
:101450003046FFF779FA0130304409F10109DCE741
:10146000626823787A62FA6A9900796104EB8301F1
:10147000002A40F001810E464FF000084D4601EB76
:101480000A094E454CD101EB0A0610E01BF0020F91
:10149000D1D023789A007A61626804EB83017A6282
:1014A000FA6A002A77D14D46904601EB0A061BF0F6
:1014B000050F0CBF02230123FB62FB6906EB430A05
:1014C0000BF00203BB625645BCD016F8021B16F89F
:1014D000013C54F82390AF4B994502D3AE4B99454C
:1014E00036D3BB69002B40D0786A0EF0E8FD0028A7
:1014F0003BD0E9468AB06A46A84B53617B6AC2E991
:1015000006314FF400731384A54B42F8103F0023BB
:101510004FF41251A34801F0C9F8023DCD46D2E77D
:1015200016F8013BF96254F82300FFF70DFAD7F8DB
:101530008430F96A01304BB1D7F8883098453EBF06
:10154000D7F8843023F8180008F10108054498E71B
:10155000BB6923B1786A0EF0B2FD0028C9D11BF037
:10156000010F05D1FB6AED1AADE7BB6A002BAAD0CB
:101570004846FFF7E9F9D7F8843053B1D7F88830F7
:1015800098453FBFD7F88420431C22F8183008F153
:101590000108054497E7BAF1000F73D01BF0040669
:1015A00073D0D046002607F1480052463B61B9622D
:1015B00013F026FFB96A3B6901EB0A02BA62FA69C5
:1015C000F9695200FA60BA6A02EB41023A610BF023
:1015D0000202BA603A69B96A8A4258D162781BF04D
:1015E000020F18BF00217A6208BF4FEA5801B218F3
:1015F0001BF0010FD2B240F09F801BF0040F14BF0C
:1016000040460020BB616270A070E17020463A6ADB
:101610007969FB6A9847051EFFF614AFBB6941461E
:1016200023707B6A3A6A6370FB6984F802A0E370F6
:1016300007F14800FB6A9847B0F10008C0F2B48097
:101640007B69A9EB0A01C91AFB683A6AC91AD7E98A
:101650000A0398470028C0F2A9804FF0000BA84465
:1016600008EB000507F1380AB34567D300213A6A51
:101670000846FB6A9847E5E656464FF0000807F132
:10168000380092E75646D04696E7B04694E7BA6AE5
:1016900012F8021B12F8015CBA6254F825003D4AA8
:1016A000904202D33C4A90421ED3BA6932B1786A62
:1016B0007B600EF004FD7B6800288BD1BA6802BB0A
:1016C00008F1280207F1300C08F10100944407F1F9
:1016D000580208F1020852FA80F00CF8101C5FFA68
:1016E00088F800F8105C75E7BA693AB1786A7B60EF
:1016F0000EF0E5FC7B6800287FF46CAF1BF0010F57
:1017000009D006F1280207F13000711C161806F8FE
:10171000205CCEB25EE71BF0040F3FF45BAF08F134
:10172000280207F1300008F1010102EB000808F877
:10173000105C5FFA81F84DE7002063E71BF80A3080
:1017400054F8239087F83730D7F88430FBB133F85A
:101750001B8001213A6AFB6A07F13700984700288D
:1017600024DB0544B8F1000F06D14846FFF7ECF83A
:1017700000F101081FFA88F8414648463A6AFB6AB8
:101780009847002812DB05440BF1010B6CE7D7F8F2
:101790008480DEE760580100409201004B6E01003A
:1017A00004000001BC5C010045464BE6054649E6E5
:1017B000014B1860704700BFE001002080B505466E
:1017C0000E46174698460CF0F3FB034614F03EF81D
:1017D0000446DFF81890424649F800303946304652
:1017E000A84754F8090001F0D3FF00BF080000002B
:1017F0002DE9F047058B04462807904611D40229AD
:1018000005F0070540F0CC8020460EF0FBFE78B1D5
:101810000138218B042811D8DFE800F0C2106D8553
:10182000950001290CBF45F0100545F020052583E2
:1018300088F31188BFF36F8FBDE8F08701F0070AC6
:10184000AA4500F0A5800027B9463E46A368002BB4
:1018500000F0BC8041F00801218388F31188BFF3B8
:101860006F8FA168002900F0BA800D68002900F090
:10187000B680334652462046D1F80480C047002D3A
:1018800076D02B6829461D46F0E701F007035A1F62
:10189000012A1BD8002221F00701062B276889B2F4
:1018A000C4E9002209D13B4603E0628B0132628326
:1018B0001B68002BF9D141F00201204621830EF074
:1018C000A1FE00287AD041F0200176E0042B0AD155
:1018D00021F0070189B2204621830EF093FE10B15A
:1018E00041F020012183218B01F0070AAA454FD046
:1018F0000027B946AAE7236921F0070141F0060154
:10190000062DD3F8009021832DD1B9F1000F3FD0DF
:1019100041F00801218388F31188BFF36F8F2046BF
:101920003949C84729E021F00701236941F0040142
:1019300089B2042DD3F804902183E6D000274FF01C
:10194000040A3E4682E721F00701236941F00501C0
:1019500089B2052DD3F808902183D6D000274FF007
:10196000050A3E4672E700274FF0060A3E466DE73D
:101970002B4687E7B9F1000FD1D1EFF3118820236F
:1019800083F31288BFF36F8F238B23F00803238325
:10199000258BEA062ED525F01003238305F00705D5
:1019A0006669218B002EBFF670AF00232768C4E95B
:1019B000003321F0070141F001012183218B4FF019
:1019C000000901F0070AAA457FF440AF002F9CD020
:1019D00041F00801218388F31188BFF36F8F002F36
:1019E000C8D03D6839463346524620460EF036FE92
:1019F0002F46F4E7AB067FF51BAF25F020032383CA
:101A000005F0070500E700BF8906010010B530B9F1
:101A10000B480C490EF001FF6FF0150010BD8368F4
:101A200033B9074808490EF0F8FE6FF00400F5E7F7
:101A30001B6813B1BDE8104018471846EEE700BF19
:101A4000D45C0100FF6E0100106F010010B530B9C9
:101A50000B480C490EF0E1FE6FF0150010BD8368D5
:101A600033B9074808490EF0D8FE6FF00400F5E7D7
:101A70005B6813B1BDE8104018471846EEE700BF99
:101A8000D45C0100FF6E0100106F010070B508B159
:101A900001B132B90B480C490EF0BFFE6FF01500D2
:101AA00070BD84680CB1E56835B9064807490EF089
:101AB000B4FE6FF00400F3E741F8040BE368BDE8FF
:101AC00070401847D45C01002E6F0100106F0100B8
:101AD00010B5044630B9104810490EF09EFE6FF064
:101AE000150010BD006830B90B480D490EF095FE89
:101AF0006FF00100F5E783680BB11B6933B9064845
:101B000008490EF08AFE6FF00400EAE76168984722
:101B10000028E6D12060E4E7D45C01005A6F0100A0
:101B20006B6F0100106F010070B51346044630B9A9
:101B3000104811490EF071FE6FF0150070BD00687D
:101B400030B90C480D490EF068FE6FF00100F5E762
:101B500082680AB1956835B9064809490EF05DFEFC
:101B60006FF00400EAE70A46AC466168BDE87040E1
:101B7000604700BFD45C01005A6F01006B6F010029
:101B8000106F0100034A13680BB9526813600020FC
:101B9000704700BFE401002030B50C460E4985B007
:101BA0000291D0F8D4110546CDE9003100F1F001E1
:101BB0004FF0FF3320460AF025FE50B9012384F888
:101BC0006C30D5F8D03123B1204605B0BDE83040A7
:101BD000184705B030BD00BF1309010038B50C46E9
:101BE000114605460EF097FE034638B928460449CB
:101BF0000EF091FE03460020236038BD0120FBE774
:101C00002A9101002DE9F04F0123814605694668BC
:101C100087B005F56377D7E8EF2F002A03D1C7E82F
:101C2000E13F0029F7D10CBF1A46002240F0B480F2
:101C3000B368B16A05F5F8781C1F10460EF0EFFE88
:101C4000844272D8013A00F0A180B2FA82F24FF0D9
:101C50000044D44072682046073222F00302C5F8DF
:101C60008822B16A0EF0DBFEC5F88C02B36A4046EA
:101C70006343033323F0030302EB4302230103EB2B
:101C80004403093323F0030303EBC403C5F88022A4
:101C90001A440832C5F87C227368C5F88442C5F836
:101CA00078323F4BC5E9B363D9F80030C5F8243228
:101CB000316800F0DFF90446002834D1D9F810B0BB
:101CC000D9F804A0D9F800300BF53A7905900493BF
:101CD0004846DAE90734012B08BF103C13F0FFF83F
:101CE000DAF824002F4904AB01EB80214FF4806225
:101CF0004846009323460BF06FFD2B490BF53670D9
:101D000013F0A6F8DAE9050183685C684CB15B461C
:101D1000264AA047044630B9DAE9050183681B6901
:101D20002BB96FF05704002129E0013285E7012229
:101D3000984704460028F6D11D4B2846C5F8D031F7
:101D40001C4BC5F8D4311C4B0393D5F838320293A1
:101D5000D5F83032CDE90083D5F89032B26AD5F8A3
:101D6000881300F04FF904460028DCD105F1F0009B
:101D70000AF0EEFD0028C5F890030ADB0221384680
:101D80000EF0FDFD204607B0BDE8F08F6FF00B04AC
:101D9000C9E76FF01504C6E76FF07704F2E700BFFC
:101DA00069090100683900204F0901004309010059
:101DB000BD1D0000F50A0100AF09010013B504467E
:101DC00040B100230122CDE90032074BD0E90912CE
:101DD0000AF0C8FC236F1B6823B1606F02B0BDE836
:101DE0001040184702B010BD2A91010013B50446F7
:101DF0000846216901F56371D1E8AF1F022910D1AE
:101E000093B1A0B10121CDE900311346D0E9091207
:101E10000AF0A8FC074B984208BF6FF00B0002B015
:101E200010BD6FF00F00FAE76FF04C00F7E76FF0AE
:101E30000100F4E72EF8FFFF2DE9F7438846154629
:101E4000066906F56373D3E8AF3F022B5FD11368D1
:101E500023B96FF0150003B0BDE8F0831B78002BA9
:101E6000F7D0D6F88893B9F1000F33D106F5EC77A7
:101E70004FF0FF324FF0FF3338460BF0FDF930469C
:101E80002A6801A9FFF7AAFE019C1CB938460EF08A
:101E900074FDDEE705F1080323676B6984F86C9035
:101EA0006367646460B138460EF067FD21463046D2
:101EB000A36E2A68FFF770FE0020C8F80040CAE74A
:101EC0002022296804F1480013F0EBFA38460EF09E
:101ED00054FDF1E730460F490EF01DFD0446002881
:101EE000B7D005F1080303676B69406443670023BB
:101EF00080F86C3020222968483013F0D2FA22464C
:101F00000121304600F060F80028D5D0A1E76FF03D
:101F10000F00A0E72A91010010B50C46006900F5FA
:101F20006373D3E8AF3F022B0FD189B10A4900F5A3
:101F3000367012F0B9FF204612F0ADFA7822002177
:101F4000204613F084FA002010BD6FF00F00FBE76D
:101F50006FF00100F8E700BFC01C00202DE9F04F32
:101F600005460E4690460027D0F8C4A085B0AAF5D5
:101F7000BE7421463046FEF7D5FCE0B9114BA4F102
:101F8000480B0293DAF810303246CDE90083294637
:101F90004FF0FF335846AAF5E2790AF033FC60B9F6
:101FA0007823012203FB079383F86C20DAF80C30C6
:101FB0000BB158469847783417B105B0BDE8F08F9B
:101FC0000127D6E7230B01001FB5144690B18AB153
:101FD000012912D10A4B00F1F0010293D0F8D4315B
:101FE000483201934FF0FF33204600930AF00AFC79
:101FF00004B010BD6FF01500FAE70020F8E700BF4D
:10200000230B01002DE9F04387B00E46DDE90E8178
:102010001446DDE910251F4630B329B3DFF850C060
:1020200000F1F009002D08BF65469EB9CDE90344D3
:1020300000F5E2742046059612F0C7FC03ABCDE92B
:1020400000432A463B46414648460AF0FBFC07B09F
:10205000BDE8F083002241460E9248462A4607B06A
:10206000BDE8F0430AF044BE6FF01500EFE700BF93
:102070005D1F0000F0B50E46044689B0002872D0FE
:10208000436B0BB9394B436301232246E3630023BF
:10209000D4F8981004F1400042F8301FCDE9013324
:1020A0004FF0FF330093D4F89C3011F0C8FE304A53
:1020B00006AB92E8030083E8030018460AF058FADA
:1020C0000546D8B904F134000AF034FA0546A8B937
:1020D000616B284805AA11F08EFE054670B9059B74
:1020E0009A6872B10C33D4F89400C4F8A0300EF0A2
:1020F00049FDC4F8D40030B96FF00B05284609B08B
:10210000F0BD0346EFE7D4F894000EF03BFDC4F8B1
:10211000D8000028F0D0D4F88C30D4F8A010C4F83F
:10212000A8300423C4F8AC30C4F8C4300223A3623E
:10213000114BB4F89420D4F8D470C4F8B810C4F893
:10214000D010D4F89010236204F1A403A4F8B020B6
:10215000C4F8A470C4F8C010A4F8C820C4F8BC0027
:10216000A661E362CAE76FF01505C7E7906F01004B
:10217000505D01009A6F0100846101002DE9F04774
:10218000044607464FF00109DFF8508014B938467D
:10219000BDE8F08794FAA4F5B5FA85F509FA05F3D8
:1021A0002E0108EB05156FEA030A24EA03042B7BD2
:1021B000002BEBD058F806301B694BB946447368C6
:1021C00004222846196807EA0A0700F05BFADDE7EF
:1021D000284698470028D9D1F0E700BF345D0100B8
:1021E00030B5002289B00F490F4813F063F8002280
:1021F00000230024CDE906230E230C4DCDE9033442
:102200004FF440722846CDE90144094B0949009436
:102210000BF0FEFB0849284612F0BCFE204609B030
:1022200030BD00BF3D22000040140020B80B00204C
:1022300029250000683D0020A26F010001480BF035
:1022400001B900BFF80500202DE9F04780461F487E
:102250000F460EF0E9FC0646002830D0002528463F
:10226000BDE8F087237B6BB12368DB680BB12046A8
:10227000984723681B69D3B963680422204619680C
:1022800000F000FA013610344C45EBD3B8F1000FE2
:10229000E5D0002DE2D02846FFF770FF0546002F5D
:1022A000F7D000214FF4A4700BF064FEF1E7204654
:1022B00098470028E0D00AFA06F31D43E2E70546F6
:1022C0004FF0010A024CDFF80C90DDE7F81C00200B
:1022D000345D0100445D0100014B53F8200070475C
:1022E000C461010008B5034608462BB1044A1360D7
:1022F00000F072FC002008BD6FF01500FBE700BF86
:102300001002002010B5044C237813B903480BF0D9
:1023100099F80123237010BD9D280020F8050020A6
:1023200010B5044609480EF07FFC3CB1084BD3E8D9
:10233000EF1F0139C3E8E21F002AF8D1054812F067
:10234000C5FFBDE8104004480BF07CB8F01C00202D
:10235000F41C002040140020F80500200020014655
:10236000034BD3E8EF0FC3E8E21F002AF9D170470F
:10237000F01C002070B5FFF7F1FF0546074C084E32
:10238000B44200D370BD63685B792BB123685B688E
:1023900013B12946204698471034F1E7345D010017
:1023A000445D010010B5044C044920460DF0C6FF01
:1023B000034B1C6010BD00BFCC040020B0610100C5
:1023C000E81C002008B50023074A4FF400411370B1
:1023D000064A07481360074A1360FFF783FFBDE80A
:1023E0000840FFF7DFBF00BF9E280020F01C002040
:1023F000250C0100F41C00200146002200230148A6
:102400000DF0BDBFCC04002001480EF053B800BF52
:10241000CC040020024B014618680EF09FB800BFA4
:10242000E81C002001480EF0D4B800BFCC04002006
:1024300070B5264B1878002847D0FFF7E5FF054612
:1024400070B1234BD3E8EF1F0139C3E8E21F002A24
:10245000F8D1204C204EB4422DD32846FFF7DAFFA6
:102460001E4B1F4C1B68002B19DD12F0DCFE4FF4D5
:102470007A72A0FB020302FB0131C30B43EA414322
:10248000D4E900209B1A40F2E9324FEAD13161EBE6
:102490000001934271F1000101D3FFF76BFFD4E912
:1024A000003213F57A7342F10002C4E90032BDE84C
:1024B0007040FFF7B7BF63685B7923B12368294693
:1024C00020461B6898471034C5E770BD9D28002042
:1024D000F41C0020345D0100445D0100F01C00206C
:1024E0003814002070B50D4D297861B90120FFF72F
:1024F000ABFE0B4C0B4EB44206D3FFF799FF0028FE
:10250000FBD101232B7070BD63685B791BB123681D
:1025100020469B6898471034EDE700BF9E280020B6
:10252000345D0100445D010000212DE9F0470846BB
:10253000FFF78AFE044658B340F267684FF000097F
:1025400013F084F91B4B1C4A1B58136033B11B4B0F
:102550001B68092B02DD1A480AF074FF0025194F89
:10256000DFF85CA044B12046FFF708FE044618B926
:102570004FF0FF384FF0FF39FFF75AFF064628B9F2
:10258000B5B942464B4650460AF080FF3546E9E76A
:102590004FF0FF384FF0FF39D2E72B689B691BB132
:1025A00000222846114698471035BD42F5D3E8E78A
:1025B000054DFAE708000000EC1C0020F41C002088
:1025C000F8050020445D0100345D010013B5184892
:1025D0000EF02AFB174B1B7873B1EFF31184202305
:1025E00083F31288BFF36F8FFFF722FF84F3118804
:1025F000BFF36F8F02B010BD0F4B1B68002BF9D0DB
:1026000050B9002200230D48CDE900234FF40042C9
:1026100000230BF035FFEDE70928EBD1074812F056
:1026200055FE074802B0BDE810400AF00BBF00BFDE
:10263000F41C00209E280020EC1C002040140020E8
:10264000F805002010B5064B04461B689847214644
:10265000A06004480DF00FFFBDE81040FFF7B6BFC3
:1026600010020020CC040020044A054B9B1AB1EB59
:10267000D30F34BF52F83100002070474C5C01008A
:10268000345D0100084B10B4C31A44681B110133B8
:10269000237143689A7101224368196043685A7133
:1026A00010BCFFF72FBE00BF345D01002DE9F04FD5
:1026B0008FB0C1F34A2804AF0D469146B8607B60E5
:1026C0000C0DB8F1000F63D000264FF0040B4FF053
:1026D0000A0A07F11403C7F80C80C7E907667E628F
:1026E0000193CDF808B0CDF800A007F11C033246E5
:1026F0004846F968FEF77CFEB0F5006F03461CD330
:102700006C468AB0D9F8041004AB26481A46C3E9CF
:10271000050140F2FF71D9614FF400711984224B19
:1027200042F8103F4FF4125133462048FFF7BEFFE6
:10273000A5462C37BD46BDE8F08FC0F30A0804F16A
:102740001700184420F0070080083B60FFF754FE94
:1027500068F35325044690B13B6800F11001C7E9C6
:10276000083607F11403F961CDE900A3CDF808B0EC
:1027700048460F4AF96807F11C03FEF739FE68F373
:1027800053252A4620467B68B9680EF07FFAD0E7C9
:1027900004F1170020F007008008FFF72DFE044623
:1027A000EDE700BFB76F010004000001DC5C010031
:1027B000610C01002DE9F04F87B00446DDE9105AA5
:1027C000DDE91279934698460391BFB13B465246E4
:1027D00010210020CDF80090CDF81490FEF736FCC3
:1027E000B0F5006F06460AD340F2FF730221174A84
:1027F000174807B0BDE8F04F0EF0A1BA3E4605F10C
:102800001700304420F007008008FFF7F5FD04F0C2
:1028100007040BF0070BE40044EA8B1444EA462457
:1028200044EA0554054640B13FB13B465246314665
:10283000CDF800901030FEF709FC434622462846AA
:10284000039907B0BDE8F04F0EF020BAF66F010013
:10285000DC5C0100406820B1034BC01A40F3CF009C
:1028600070474FF0FF3070474C5C01000EB403B569
:1028700003AB53F8042B01460448019301F0EEFA30
:1028800002B05DF804EB03B0704700BFA10D01007A
:10289000CA0605D48B064CBF02490349FFF7E6BFC1
:1028A000704700BF29910100289101002DE9F04FE8
:1028B00089B09B46149B9DF84CA00693159B04463B
:1028C0000593169B0D469046179E0493BAF1000F90
:1028D00000F09D8006F4807307930EF0BFF906F0B8
:1028E0000209024600283ED020469149FFF7BEFF6C
:1028F0000746B9F1000F08D016F0440F35D12A462B
:1029000020468C49FFF7B2FF074406F0010353B19C
:10291000894B204653F82A20884B8949002A08BF52
:102920001A46FFF7A3FF06F48073002B49D006F088
:102930000803002B63D1B8F1000F66D04246204651
:102940008049FFF793FF0546069B3D44002B6DD160
:10295000049B002B73D1F30700F1E480314620463D
:10296000FFF796FFD8E00746C3E7774B18680028C3
:10297000CAD0764B4FF47A791B684FF46161B5FB8E
:10298000F3F5B5FBF0F300FB135509FB05F5B3FBBD
:10299000F1F2B5FBF0FE4FF03C0C01FB123100FBF5
:1029A0001E55B1FBFCF309FB05F5B5FBF0F50CFB7F
:1029B000131120460091CDE901E56549FFF756FF67
:1029C000A2E706F00803EBB1624B204653F82A2039
:1029D0006149FFF74BFF0546B8F1000F05D04246AD
:1029E00020465849FFF742FF0544BBF1000FABD02A
:1029F0005A4620465949FFF739FF0544A4E74FF0EE
:102A0000000BE1E706F00805E6E745469CE7BBF169
:102A1000010F069B06D1002B64D1049B002B7BD0B9
:102A200000250CE0002BF8D04D485CE04D48069B9B
:102A300022464D490DF012FB049B002B68D0DFF8B5
:102A40002C81DFF82C91049F3146102F204628BF9F
:102A500010274FF0000BFFF71BFF5D4545DC059B82
:102A6000494620461A78FFF701FF4FF0010B1BF093
:102A7000070F03D141462046FFF7F8FE5F453BD9DB
:102A8000059B4946204613F80B20FFF7EFFE0BF19C
:102A9000010BBBF1100FEAD14FF0000B2046354976
:102AA000FFF7E4FE5A46059B20469A5CA2F12001FE
:102AB0005F2928BF2E223049FFF7D8FE0BF1010B0A
:102AC000BBF1100F1DD01BF0070F03D1414620466C
:102AD000FFF7CCFE5F455A46E5D841462046FFF752
:102AE000C5FEEBE71F485546A1E741462046FFF7E4
:102AF000BDFE0BF1010BB0E720462049FFF7B6FE03
:102B0000C5E7059B3B440593049BDB1B04939AD1CB
:102B1000BAF1000F7FF41FAF204609B0BDE8F04FB7
:102B20000EF031B92046054A0549FFF79FFE15E72B
:102B30003370010037700100D46101002E70010074
:102B4000AE7B01005C700100001D0020FC1C002019
:102B500040700100E86101006070010066700100D2
:102B6000CF0D0100A10D01005D3E0000F4900100B9
:102B70006B7001007170010073700100F290010030
:102B800042F20F7373B58B4228BF0B4605680446AB
:102B9000052168460D4A0BF08DFE064663682846FF
:102BA0000B225B680A490EF0E0F86368324669461A
:102BB00028465B680EF0D9F863681B2228465B68DC
:102BC00004490EF0D2F802B070BD00BF7978010060
:102BD000927001007670010000210123064A9042A4
:102BE00006D8064A01B901231360054B18607047E7
:102BF000012140085B00F2E740420F00FC1C00206E
:102C0000001D0020F8B50D460446064F4618B44294
:102C100001D12846F8BD14F8011BBB680148DB69E7
:102C20009847F4E768590100014B036000207047A2
:102C30003062010008B504480DF06AFABDE80840AA
:102C400002480DF065BA00BFD87001000D71010097
:102C50000449431E0F3013F8012F8A5C83421A7017
:102C6000F9D170473B710100F0B50746264E8DB093
:102C700001AD0C460FCE0FC50FCE0FC596E807006D
:102C800085E807003846002F39D0002C39D0381F8E
:102C90000246214610344B780D781B0443EA056345
:102CA000CD7804312B4311F8025C8C4243EA0523B2
:102CB00042F8043FEFD10421144C8A07036916D16E
:102CC000C3F30742A55C1A0EA25C42EA0562C3F395
:102CD0000725655DDBB2E35C42EA054242EA032276
:102CE00021F0030330336B4453F82C3C534050F82D
:102CF000042F013153402C290361DED101200DB096
:102D0000F0BD2046FBE700BF585D01003B710100AC
:102D10002DE9F04F002703689DB002934368DFF868
:102D2000BCA103938368DDE902460493C36805935D
:102D30000369DDE904BE0693436907938369DDE90E
:102D4000062C0893C36998460993089B0093CD59B4
:102D50000CAB2DBA5AF8049BDD514FEAF223A9447B
:102D600083EAB213009D83EA72634B4425EA0205AD
:102D700002EA0C0985EA09052B44434486EA0B055F
:102D80004FEA743888EAB408254006EA0B0985EA58
:102D9000090588EAB4580437A844402F03EB0E0510
:102DA0004344DE46DDF8008040F088804FF0100A92
:102DB0004B490A9151460AF1010A0DF1700E0AF0D1
:102DC0000F070EEB870757F8407C01F00F094FEA19
:102DD000B748019788EAF71801F10E0707F00F07C7
:102DE0000EEB870757F8407C09314FEAF74E8EEA21
:102DF000774ECDF82CE001F00F010DF1700E0EEBC7
:102E000081010EEB890959F840EC51F8401CBAF1E8
:102E1000400F7144DDF804E088EADE08DDF82CE0BC
:102E200041448EEA972E714405EA02084FEAF52ED6
:102E30002CEA050787EA08078EEAB51EDDF8288028
:102E40008EEA756E774458F804EF49F8401C7744D1
:102E50000F4400994FEA733E394484EA0607CDF8DF
:102E600028808EEAB30E07EA030704EA06088EEA12
:102E7000B35E87EA080777440F4401EB0B0ECDF8E9
:102E800000C0B34622D10299394401600399194424
:102E9000049B416023448360059B3344C360069BCD
:102EA00073440361079B2B444361089B1344836174
:102EB000099B6344C3611DB0BDE8F08FB346CDF8F4
:102EC00000C0264694461C462A4640E794462646BD
:102ED0002A461C4675463B466CE700BF306201003F
:102EE0006C62010010B50446C8B1702200210DF0DB
:102EF000F7FF0B4B0B4A0C49C4E900230B4B0C4862
:102F0000C4E902130B4BC4E9040301200A4BA3617B
:102F100003F17453A3F52303A3F69243E36110BDB9
:102F200085AE67BB67E6096A72F36E3C3AF54FA55A
:102F30007F520E518C68059BABD9831F01480BF063
:102F400077BB00BF3063010038B5044618B90F4B9A
:102F50000F485B6898476168B1F5683F10D0B1F5DC
:102F6000680F0DD00B4DA9420AD011F4686120689A
:102F700007D00146084811F013FE00232360656066
:102F800038BD142212F063FAF9E700BF48040020AC
:102F90003B7201002C5F5CA93022002008B560B3B1
:102FA0004368B3F5683F0ED0B3F5680F18D0144AE4
:102FB000934220D000684FF0FF324FF0FF330AF009
:102FC0005BF958B115E001220368D3E8EF1F00292F
:102FD00003D1C3E8E02F0028F7D10AD1002008BDB3
:102FE0000368084A1B7803F5807352F82330002BDE
:102FF000F4D00548F3E70548F1E76FF4E040EEE769
:103000002C5F5CA900000350E98FFFFFEA8FFFFFF0
:1030100008B520B34368B3F5683F09D0B3F5680F2E
:1030200013D0114A93421DD000680AF09DF914E0B4
:1030300000220368D3E8EF1F012903D1C3E8E02F82
:103040000028F7D109D0094808BD00210368084AC3
:103050001B7803F5807342F823100020F4E76FF427
:10306000E040F1E70348EFE72C5F5CA9E98FFFFF41
:1030700000000350EA8FFFFF10B5044618B91D4B3E
:103080001D485B6898476368B3F5683F2FD0B3F578
:10309000680F2CD0194A934219D1236803BB4FF013
:1030A000FF324FF0FF33214615480AF009F808B9FE
:1030B00023681BB90F4B13485B6898471422002103
:1030C000206812F0C4F94FF46863636008E0B3F558
:1030D000683F0DD83A2B03D040F6BA629342DED156
:1030E000206811F095FD636843F03A03636010BDFA
:1030F000054AF3E7480400203B7201002C5F5CA9FD
:1031000030220020617201003A00003A08B50649F9
:1031100040231422054811F035FDBDE8084004495C
:1031200004480BF0F7BA00BF301D00203022002009
:10313000386301004C6301002DE9F04706460C4658
:1031400000AF002936D0D1E90012E9468AB06D46B9
:10315000A3684FF0050AA8461F48C5E90723C5E93B
:10316000050148F810AF002342464FF421511B4897
:10317000FFF79CFAD4E90312CD466369AD461848BF
:10318000C5E90723C5E90501C5F810A0002342469B
:103190004FF421511148FFF789FACD46E369012127
:1031A000104A0E480DF0CBFDA36901210E4A0B48D1
:1031B0000DF0C5FD012E07D1EFF305830B4A314613
:1031C0000648103B0DF0BBFD2146304609F0B6FD28
:1031D000BD46BDE8F08700BF8E720100145D01009E
:1031E000BD720100EC720100FB7201002973010045
:1031F00030BFFFF7FDBF00BF2DE9F04105460B4E84
:10320000DFF82C80324606EB0807CC1B2046094924
:1032100012F0F6F8A01942460021083C12F017F906
:103220006C6707F10800BDE8F08100BF00000000F6
:1032300004000000445D0100074A936893F90E10F2
:10324000002907DB526993421FBF044A536843F0C9
:1032500080535360704700BF7026002000ED00E0EF
:1032600070B52A4C06460D4629482A490EF08BFABD
:10327000A36ADB0647D5264827490EF084FA1120B9
:10328000A36A1C0704D5224824490EF07CFA1220B8
:103290001E4CA36A990712D521491D480EF073FAF6
:1032A000636BA26A120609D501211E4A18480DF067
:1032B00046FD1EB1A36A23F08003A3621320134CC2
:1032C000A36ADE0704D5124817490EF05CFA1420F1
:1032D000A36A9C0604D50E4814490EF054FA152032
:1032E0000A4B9A6AD10658BF9A6A9A6A920642BFF6
:1032F0005A6A22F400525A629A6A42F0FF029A62B3
:1033000000232B7070BD1020BAE700BF00ED00E075
:10331000145D01003C7301005273010085730100CC
:1033200098730100B0730100C6730100E5730100DA
:1033300010B5244C244925480EF025FAA36A9901BA
:103340003ED5224822490EF01EFA1E20A36ADA0159
:1033500004D51E481F490EF016FA1F20194CA36A07
:10336000DB0204D519481C490EF00DFA0220A36AAD
:103370001C0304D5154819490EF005FA2120114CFB
:10338000A36A590304D5114815490EF0FCF922200F
:10339000A36A9A0304D50D4812490EF0F4F92320CC
:1033A000084CA36ADB0304D508480F490EF0EBF97B
:1033B0002420A36A6FEA03436FEA1343A36210BD9C
:1033C0001D20C3E700ED00E014740100145D01004E
:1033D0002C7401003F7401005974010083740100D2
:1033E000A1740100C6740100E074010070B5294C9D
:1033F00006460D46284829490EF0C5F9A36AD904A6
:103400003CD5254826490EF0BEF91720A36A1A05B7
:1034100004D5214823490EF0B6F918201D4CA36AA3
:103420009B0512D51C4820490EF0ADF9A36BA26A8A
:10343000100409D501211D4A17480DF080FC1EB16A
:10344000A36A23F40043A3621920124CA36A59050E
:1034500004D5114816490EF096F91A20A36ADA0528
:103460000ED50D4813490EF08EF91B20094A936AB8
:1034700043F47F43936200232B7070BD1620C5E791
:10348000A36A9B04F2D504480B490EF07CF91C207A
:10349000ECE700BF00ED00E0145D01000B750100DA
:1034A0002175010085730100327501004B75010023
:1034B000607501007B750100E57301002DE9F041A5
:1034C0008AB0654B0446D3F80480002600AFC8F3E9
:1034D000080586F31188BFF36F8F02F07F43B3F1C5
:1034E0007F4F07D102F00C03082B12D15B495C48D7
:1034F0000EF049F9002634460023FB71EB1E092B20
:1035000000F28980DFE803F00A7F827C8787878763
:10351000878510074CBF0C460126EDE751495048FE
:103520000EF031F900234C4DFB71EB6A9A0705D57B
:103530004D494B480EF027F9002332E0EB6A002B8F
:1035400001DA4A49F5E7EB6A5B00F5D5484944489A
:103550000EF019F96B69A26943F480736B61BFF3D4
:103560004F8FBFF36F8F6B6932F8022C23F4807397
:103570006B61BFF34F8FBFF36F8F4DF602739A42AB
:1035800008D0AB6ADBB273B30120F91DFFF768FE08
:10359000034606E023680121364A31480DF0CFFB8F
:1035A0002368FA79DAB907F1080504F1200C2A46F4
:1035B00020686168083403C264451546F7D17A6A09
:1035C000002E44D0C2F3080121B96FEA52226FEAFB
:1035D00042227A62184607F10801FFF7ADFD28374D
:1035E000BD46BDE8F081AB6A13F47F4F04D00120E3
:1035F000F91DFFF7FBFECBE7AB6AB3F5803F9BD32A
:10360000FFF796FEC4E70020F91DBFE70020F91D73
:10361000EFE719498DE7194A18F4F87FE8468AB0B0
:10362000174B18BF13466A461649103DC2E90513E9
:103630004FF400731384144BD56142F8103F0023FC
:103640004FF411510648FFF731F8C54674E722F4EC
:10365000FF7222F00102BCE700ED00E0C17501003D
:10366000145D0100EC750100037601002476010071
:1036700032760100517601006D760100A8750100D7
:10368000937501009176010004000001064B5A6910
:1036900042F010025A615A6942F480625A615A69D2
:1036A00022F008025A61704700ED00E0EFF3088055
:1036B000EFF3098101B57246FFF700FF01BD00BFBE
:1036C000002080F31488BFF36F8F002080F30A88F6
:1036D00080F30B8808F01CF800200E490860BFF347
:1036E0004F8F0D4880F3088800F02CF8202080F3DD
:1036F00011880A484FF40061401880F30988EFF3FD
:1037000014800221084380F31488BFF36F8F00F008
:1037100003F9000094ED00E020580020E04A00206A
:10372000002318460649D1F89020C2F3072293429D
:1037300000DB7047C1F89830C1F8A0000133F6E70C
:1037400000ED00E010B572B6002484F31388FFF793
:10375000E7FF23464FF0FF300C4A03F1200101330D
:10376000102B42F82100F8D100234FF0FF30074A18
:1037700003F160010133102B42F82100F8D162B649
:10378000BFF34F8FBFF36F8F10BD00BF00E100E0AC
:10379000084B9B6883420BD1EFF3058343B1064B83
:1037A0005A6842F080525A605A6A22F400425A62C1
:1037B00011F0DCBC7026002000ED00E06FF00A0183
:1037C000084A9368D967084998674B6843F0805363
:1037D0004B60002383F31188BFF36F8F9368D86F1A
:1037E000704700BF7026002000ED00E0EFF311836A
:1037F000202383F31288BFF36F8F4FF00061084AD4
:1038000053699360074A5160596F074A116000215C
:103810009A6F996782F31188BFF36F8F704700BF6B
:103820007026002000ED00E04C2200200E498A683E
:103830004FF030001044EFF3098C80E8F01F74461D
:103840007046FFF7D3FFA64607498A6802F13000A9
:1038500090E8F01F8CF3098802F1000004B50DF028
:103860009AFFBDE804407047702600201EF0040F48
:103870000CBFEFF30880EFF30980816911F8021C97
:103880000229FFD001B50DF073FF01BD40B2002841
:1038900007DB01234109034A00F01F00834042F87F
:1038A0002130704700E100E040B200280CDB01222B
:1038B0000649430900F01F008240203341F82320CD
:1038C000BFF34F8FBFF36F8F704700BF00E100E081
:1038D000054B420953F82220012300F01F0003FA90
:1038E00000F01040704700BF00E100E040B2002847
:1038F00001F10101ACBF00F16040064B4FEA4111FC
:10390000C9B2ABBF00F5614000F00F0080F80013B2
:103910001954704714ED00E00B4A08B50B4B22F028
:103920007F029A60BFF34F8FBFF36F8FD3F8882069
:1039300022F47002C3F8882009F0ECFA0AF0D6FBF2
:1039400000F04CF809F026FB0000000000ED00E05C
:1039500042F8203C009B0B4942F81C3C019B21F0A3
:10396000010142F8183C029B42F8081C42F8143C42
:103970004FF0807342F8043C0023203A02658367CD
:10398000704700BFBD17000000B50D4B154698608D
:10399000426F0C4B0E461A60436E83F30B882C4625
:1039A00086F309884FF00000074B984720464FF0F8
:1039B00000014FF000024FF00003044C204700BF0D
:1039C000702600204C2200209F170100BD17000028
:1039D0001022014B1A61704700ED00E00023202106
:1039E0000348C2180133452B82F80013F9D1704700
:1039F00000E100E008B5EFF30583064A103B02EB57
:103A0000C30152F8330049688847BDE80840FFF712
:103A100013BC00BFB85901001FB5094C094A234621
:103A20000121094800F012F900230393074B0121FB
:103A3000E41A01A80193029400F012F904B010BD39
:103A400000000720000000205C630100A0070020A8
:103A500010B50C7A0B6804F01F0223F01F031A4301
:103A6000CB68640923F01F03054943EA440343F08C
:103A70000103C1F89800C1F89C20C1F8A03010BD26
:103A800000ED00E010B50A4BD3F89030C3F30723E4
:103A9000013B984208D901210346064A06480DF029
:103AA0004EF96FF0150010BDFFF7D2FFFBE700BF26
:103AB00000ED00E0A8760100FC5C01002DE9F04F6C
:103AC0008946144606464FF00008514D85B0C8455A
:103AD00027DAD6F804A0BAF1000F44D0BAF11F0FCC
:103AE00017D91AF01F0F14D1D6F800B01BF01F0F12
:103AF0000FD158460DF08FFE07460AEB0B00013838
:103B00000DF089FE874210D06FF01507414A3B4601
:103B100001E04346404A012140480DF010F96FF0A2
:103B20001504204605B0BDE8F08F17F1160FEDD053
:103B3000BC42EBDDC5F89870D5F89C10C5F89870BC
:103B4000D5F8A03021F01F0143F01F0BD6E9003259
:103B50001A44994202F1FF3A1DD1D34507D13146AB
:103B6000F8B20DF061FE08F101080C36AFE73146FE
:103B7000C5F89870D5F89C3022F01F0203F01F039F
:103B80001343C5F89C30E0B20DF04EFE10F1160F55
:103B9000C5D0441CE7E7C5F89870D5F8A020013BD4
:103BA00023F01F0302F01F021343D3453146E0B256
:103BB000C5F8A030E8D00DF037FE10F1160FAED0EA
:103BC000C5F89870D5F89C209DF808300BF1FF3BA4
:103BD00062F304038DF80830D5F8A0309DF8082072
:103BE0005B0863F347128DF80820D6E900321344CE
:103BF000009323F01F035B44A3EB0A03013023F07F
:103C00001F036946C0B20393FFF73CFFBEE700BF46
:103C100000ED00E0F1760100CE760100FC5C0100D1
:103C20000522044BC3F89420BFF34F8FBFF36F8F6F
:103C3000704700BF00ED00E0BFF35F8F0022024B32
:103C4000C3F89420704700BF00ED00E010B5034CAE
:103C50002278FFF733FF207010BD00BFA02800209E
:103C60002DE9F74F294D8A4606464FF00008AB462E
:103C7000274FD0451BDAD6F80490B9F1000F3FD09A
:103C80003168084601910DF0C6FD0199044609EB23
:103C9000010001380DF0BFFD84424FF014021D4BAE
:103CA00008D002FB08F36FF015024BF8032003B0B5
:103CB000BDE8F08F14F1160F2C60F8D01978A142EE
:103CC000F5DD02FB08B0C7F89840C7F89840D7F870
:103CD0009C4000F10801007B64F304000871D7F8F0
:103CE000A0000C79400860F347140C71D7F89C10C1
:103CF00021F01F016960D7F8A01021F01F01296190
:103D000008F1010814350C36B3E700BF502200203B
:103D100000ED00E0A0280020F0B54149414CD1F869
:103D200090302568C3F307239D4287B075D80020E3
:103D3000FFF782FF3C4BC1F8C030854216D13B4CA7
:103D400001A82570FEF770FF00250646384FAE42E9
:103D500013D1002023783249D1F89020C2F30722F2
:103D6000934254DBFFF75CFF00202FE0616801EB1A
:103D70000011FFF76DFE0130DFE70199280101EB2B
:103D80000513DA683A40B2F5001F21D0B2F5800F72
:103D90002BD0B2F5801F38D15A689B680958013B77
:103DA00022F01F0003440120844623F01F0340EA51
:103DB0004C10CDE902218DF8100002A9207805935E
:103DC000FFF760FE00281DDA6FF0150007B0F0BDA8
:103DD0005A689B680958013B22F01F0003444FF0CA
:103DE000020C012023F01F03E1E75A689B68095881
:103DF000013B22F01F0003444FF0000C062023F08B
:103E00001F03D4E723780133237001359FE7C1F8FE
:103E10009830C1F8A00001339EE74FF0FF30D5E79E
:103E200000ED00E068630100AAFF4400A028002024
:103E30000000F0FF08B5024B1B689847002008BD42
:103E400064220020034B044A1860937843F0020375
:103E500093707047642200203C020020F0B587B0C8
:103E600007460E4614460021102268461D4611F0F2
:103E7000EEFA02238DF80230054B2A4621466846A9
:103E8000CDE9047601930AF0DBFD07B0F0BD00BF79
:103E90005B18010008B50649064821F00701C1F189
:103EA000005202F5E0220CF081F8002008BD00BFAE
:103EB000A77900206822002070B541690446867AFF
:103EC0000A4D59B1437ADB0706D42C2303FB065372
:103ED0005B6A1B689B689847002363612C2021461E
:103EE00006FB0050BDE8704010F021BF40060020E6
:103EF0002C22024B02FB0030704700BF400600201E
:103F00002C21827A054B01FB02339A6A1B7F801AAF
:103F10001B3323F00303B0FBF3F07047400600208F
:103F200038B52C24827A064B04FB02335B6AD3E952
:103F300001240C601568FFF7E3FF04FB005038BD57
:103F4000400600202DE9F04F85B0054668469146B1
:103F50001C4690469A46039111F067F9DDE9006727
:103F6000EFF3118B202383F31288BFF36F8F698BDC
:103F7000002942D02B8B8B4226D9002200232846D1
:103F800009F02EFA0446F8B18BF31188BFF36F8F56
:103F9000039B002B4FD032463B46684611F069F92F
:103FA0002C21A27A2C4B204601FB02335B6A03A929
:103FB0001B681D68DDE90023A847606100283BD12C
:103FC0002046FFF779FF31E0698B4B1E6B838BF343
:103FD0001188BFF36F8F2B7F2A8BAC6A1B3323F0C2
:103FE0000303521A02FB03441B4B1C4AEB1A9B109F
:103FF0005343A3722B7FE372CAE78BF31188BFF39D
:104000006F8F54EA090409D011F020FC144A154BB3
:1040100012589A420ABF8846C846C246424653468C
:10402000284609F0DDF904460028B1D100242046D5
:1040300005B0BDE8F08F6361012300252381039B58
:1040400029466382E27A656004F1180011F0FFF9F5
:1040500063692582E360EAE740060020A38B2EBA5D
:1040600008000000601B002070B52C250B4C00B927
:1040700070BD037A4668013BDBB20372002BF7D1B7
:10408000C3604360837A05FB03431B6A13B19847FF
:104090003046ECE7FFF710FFFAE700BF40060020CC
:1040A00000F01F0240090DD001280DD1094B03EB90
:1040B0008203D3F8002222F0E04242EA0171C3F801
:1040C00000127047044BF2E70023803253F822308D
:1040D000FFDE00BF002884500025845038B501243D
:1040E000134B144DC3F8004502230321C5F8D03605
:1040F0000020FFF7D5FF20460321FFF7D1FFC5F8C9
:1041000004472146C5F804492120C5F8004BFFF7B4
:10411000C7FF21462020FFF7C3FF21460B20FFF7F2
:10412000BFFF21460A20FFF7BBFF002038BD00BFBC
:10413000001000500040005007B50DF1070007F0D7
:1041400011FC114B98421CD14FF480620F4B104967
:10415000C3F8B8254FF40062C3F83C259DF807006A
:104160000FF002FD0B499DF807000FF0F8FC01204D
:104170009DF80730984007F0E9FB002003B05DF898
:1041800004FB6FF00B00F9E70000AD0B00A002503C
:104190002CA0025028A10250052370B5144D154ED5
:1041A0002C780134B4FBF3F303EB8303E41A0FF030
:1041B00095FC114A137823B156F82430C01A072809
:1041C00014D94FF05023D3F8141141B10021C3F892
:1041D0001411D3F814312C700CB9012313702C78FE
:1041E0000FF07CFC46F82400012070BD0020FCE7A5
:1041F000A228002074220020A128002048B1054BED
:10420000054A1B68B3FBF2F35843044B43F0010328
:10421000184770477403002040420F00E05D010022
:10422000014902480CF03DBA9C630100882200203D
:104230004FF47F032DE9F041D3F830210646072AD9
:104240000D46D3F8343120D1023B032B02D8124A59
:10425000D35CD3B14FF050244FF001080027052064
:10426000C4F81886C4F814760FF077FC4046C4F8FA
:1042700014860FF072FCC4F81476C4F81876304631
:104280002B46BDE8F041002118474FF05023002293
:10429000C3F81426F3E700BF3E7701001FB578B1DD
:1042A00000230193039301236946084802930CF00D
:1042B0000BFA029B9B0700D1039B05B05DF804FB42
:1042C000024805B05DF804EB0CF055BA88220020D6
:1042D00073B5069CC4F30726304606F0B5FDE5B27B
:1042E000014628460FF04CFC002201200A4BA40B8B
:1042F00004F0FC041A51094BA84000938DF80420E7
:1043000007F02AFB304606F053FF2946684607F0BF
:104310001FFC02B070BD00BF80A0025000700150B1
:104320007FB52C4B01A90293002302A88DF80C3015
:1043300007F006FC284B984248D106F01BFF041EEC
:104340000BDA9DF8041002A807F002FC01212346B5
:10435000224A23480CF0F3FC35E040F60703214DD8
:104360008DF80540AE68ADF806307468019B14B94D
:104370006FF05704EAE7082128461B4AA047041EAD
:10438000E4DB3369002BF3D001220821284698474B
:10439000041EDBDB01209DF80430984007F0D6FABC
:1043A0009DF805009DF804509DF807600FF080FB14
:1043B000014628460FF0D8FB0C4BB60045F00045EF
:1043C0009D51002CC2D1204604B070BD6FF0120484
:1043D000BCE700BF007001500000AD0B4277010048
:1043E000245D01007C590100F143000080A10250CE
:1043F0002DE9F341144683681B690BB100229847ED
:10440000C4F30726304606F027FD054630460FF078
:104410004FFB4FF00008E7B2014638460FF0B4FBFF
:10442000104B220E920043F80280304606F00CFD3D
:104430000D4A4FEA943C0CF0FC0C47F0004342F864
:104440000C30014638460FF08AFB084B05F132026A
:10445000009330464346019452000FF033FB02B004
:10446000BDE8F08180A1025080A00250D14200003E
:104470000E4B402928BF402170B51D460C4C4618F4
:10448000B04203F1020304D1002305F811300748BC
:1044900070BD02781209A25C03F8022C10F8012BFF
:1044A00002F00F02A25C03F8012CE9E7C12800200A
:1044B000D277010030B503788BB0044607AD032BEB
:1044C00021D8DFE803F0021A1C1E12492846FCF727
:1044D00033FA059563781E210493A3780E4A03935B
:1044E000E3780E4802932379019363790093A379CB
:1044F0000AF0E0F909480BB030BD0949E6E709497F
:10450000E4E70949E2E70A212846084A0AF0D2F915
:10451000DFE700BF8D770100AF770100A3280020FF
:10452000947701009B770100A57701000E880100B8
:1045300030B50024094D0A4B85B0284602930394F8
:1045400010F0CDFC02AB284600934FF4A3620A237F
:10455000044909F041F9204605B030BD7814002027
:10456000E3770100684000200146014809F0AEB938
:1045700078140020037830B5012B13D0022B27D0FC
:104580007BB90A46184B03F1100453F8045BA342AD
:1045900042F8045BF9D11B78137043884B731B0AF4
:1045A0008B7330BD0A46104B03F1100453F8045BC3
:1045B000A34242F8045BF9D11B7813704368C3F33C
:1045C00007224B731B0CCB731B0A8A730B74E8E72F
:1045D00000F1100350F8042B984241F8042BF9D154
:1045E00003780B70DDE700BFEC770100012838B5D8
:1045F00005460CBF064807480DF040F9044620B1B7
:1046000001210C300DF08FF92576204638BD00BF12
:10461000F0060020400600200F2810B50ED80D2807
:104620000ED90B480DF02AF9044628B101210C30AF
:104630000DF079F901232376204610BD1328F0D020
:1046400009B10448EEE70120BDE81040FFF7CEBFF6
:1046500074070020C4060020C36802211B78024AA8
:1046600002480DF093BA00BF0C780100845C010091
:1046700070B5C6683378B6F8014083B90F2120467B
:1046800002F064FDF378054650B90A4A118831B941
:104690006FEA04506FEA10501080074A137070BD23
:1046A0004372012102F070FC2846BDE8704002F020
:1046B00045BC00BF802800204229002070B5C36897
:1046C0001D78BDB9B3F801600F21304602F03EFD00
:1046D000044638B93346BDE870400121064A074810
:1046E0000DF054BA294602F04FFC2046BDE8704058
:1046F00002F024BC70BD00BF34780100845C01006E
:10470000012110B50C300DF049F9BDE810400378D7
:104710000121024A02480DF039BA00BF5A7801005F
:10472000845C0100014610B508480DF0ABF808495B
:10473000084810F0A9FB031E06DABDE8104001216D
:10474000054A06480DF022BA10BD00BF4C010020FA
:104750005C020020181500207C780100845C0100B8
:1047600010B5084C0146062294F86F0002F0CEFF07
:1047700038B994F86F000522BDE81040024902F0F4
:10478000C5BF10BD00000020737701000121024A5F
:1047900002480DF0F9B900BF99780100845C01006E
:1047A0000B46B0B50D8A00AF04462946D868FFF71E
:1047B0005FFE8AB06A46094BC2E90750C2E9053478
:1047C00040F202439384064B4FF43251054842F8BD
:1047D000103F0DF0E8F9BD46B0BD00BFB378010051
:1047E00005000001845C010070B5C5680121B5F8C1
:1047F0000160304602F0AAFC044638B93346BDE8F1
:10480000704001210B4A0C480DF0C0B92B783BB920
:10481000D5F80330C0F89530D5F80730C0F8993096
:10482000201D4FF480410DF0B3F92046BDE87040E3
:1048300002F084BBD5780100845C0100B0B53C284F
:10484000044600AF1AD101F083FE6FF080011030F2
:104850000DF0ACF90020FFF783FF054630B90121C8
:10486000114A12480DF090F9BD46B0BD44720021C6
:1048700002F08AFB284602F061FBF5E76D468AB03C
:104880006A460B4B4FF41251C2E90530094B0748F9
:10489000D36140F201331384074B42F8103F0DF00F
:1048A00082F9AD46E0E700BFF9780100845C0100C1
:1048B0001A7901002A9101000400000137B504466D
:1048C000084602EBC3039A4202D16FF05E0010E08B
:1048D000114611F8085BA54211D1038A517899421B
:1048E00009D908480121084A00940CF032FA6FF007
:1048F000150003B030BD536898470020F9E70A4619
:10490000E1E700BF845C01003679010073B53E48E1
:104910000CF0CDFF0446002873D0017E012945D05C
:1049200003296BD1038A032B02D8384A012141E0C5
:1049300004210C300DF032F8FF234288068863769C
:10494000238AC6F30B009A42A08309D0012100926A
:104950002F48304A0CF0FDF92046FFF785FB12E0A6
:104960000F2102F0F3FB054610B9A38B2A4ADDE7BD
:1049700002F02CFC21466076320B284602F0D2F978
:10498000284602F0DBFA254BD3F84C31002B38D007
:104990002349244810F078FA031E32DA0121224A12
:1049A0001B4802B0BDE870400DF0F0B8038A012B3F
:1049B00004D81E4A16480DF0E9F8CDE702210C3064
:1049C0000CF0ECFF054600780DF0CCF810F0020674
:1049D0000DD140F6A833164A164917480BF0A5FB2F
:1049E00086F31188BFF36F8F0323184602DF042379
:1049F0002146124A28780DF0E1F8ADE70B46104A3F
:104A000094E702B070BD00BF4C010020587901004E
:104A1000845C0100797901009D790100000000208B
:104A20005C020020181500207C780100BF7901008D
:104A3000DB7901000F7A01003D7A01004864010032
:104A40005A7A010010B5012104460C300CF0A6FF83
:104A50002146BDE810400623014A00780DF0AEB8AB
:104A600068640100F8B50121044600AF0C300CF079
:104A700095FF0678002321463046104AFFF71EFFB7
:104A80005F3018D1258AE0682946FFF7F1FC6C46B3
:104A90008AB06A460A4BC2E90750C2E9053640F2BD
:104AA00002439384074B4FF43251074842F8103FBA
:104AB0000DF079F8A546BD46F8BD00BF9864010029
:104AC0006E7A010005000001845C01002DE9F74FBA
:104AD0000023804689461746DFF810A1DAE8EF4F39
:104AE000CAE8E23F002AF9D1264644B943460121EB
:104AF0003F4A404803B0BDE8F04F0DF047B82046AC
:104B0000FFF7FEF94FF00C0B3B4D0BFB00504388B9
:104B100043451BD02046FFF7F3F90BFB00504388B9
:104B200001210093354A434632480CF012F9DAE885
:104B3000EF3FCAE8E26F002AF9D1002B53D01E469E
:104B4000304603B0BDE8F04FFFF78EBAA7420ED053
:104B500020460CF08EFE012104F10C08404621761F
:104B60000CF0E1FE40463A8AF9680CF0EDFE204672
:104B7000FFF7C6F90C2707FB00504368ABB1B9F14A
:104B8000000F12D12046FFF7BBF9012107FB0050AF
:104B90004268D2E90003127A03F01F07B9405B09AB
:104BA000DAB100EB83000CF0F3FF2046FFF7A8F921
:104BB0000C2707FB00508368002BC1D02046FFF76D
:104BC0009FF9784305F800902046FFF799F907FB15
:104BD0000055A86808F036FCB2E7C94300EB830033
:104BE0000CF0E4FFE1E703B0BDE8F08F48010020DE
:104BF000A07A0100845C0100A4220020C87A010090
:104C00002DE9F84F0123D0F80C80018A98F8004074
:104C100000AF03EB84038B425BD96D468AB06A46D2
:104C2000C2E9073105232D484FF42151C2E905049B
:104C30002B4842F8103F0CF0B6FFAD46BD46BDE82C
:104C4000F88F4B460121274A25480CF09FFF01357C
:104C500098F800309D42F1DA08EB8503B3F8019033
:104C60000F214846B3F8036002F070FA04460028AA
:104C7000E7D000F1C4095EB1204601F0F7FF08F06B
:104C8000E1FB636943B95A46012115480CF07CFFEA
:104C9000204602F053F9DAE7A1691A688B42626193
:104CA00008BFA261C3F800A0226A7AB9C4E9073339
:104CB000D9E8EF3F013BC9E8E23F002AF8D10021E3
:104CC0002046013E01F0DEFFB6B2D4E71360236256
:104CD000EEE70025DFF810B0AA46B9E7FB7A01003D
:104CE000845C0100257B0100417B010073B5C56830
:104CF0000121B5F80160304602F028FA044640B9B7
:104D000033460121284A294802B0BDE870400CF022
:104D10003DBF2B78061D1A2B19D1C378012B2AD140
:104D20004FF4805130460CF033FFC2040FD4D4F856
:104D3000883069460093D4F890302046019302F001
:104D4000F5FF204602B0BDE8704002F0F7B82B78BE
:104D50008BB9B5F80330A4F88630B5F80530A4F85F
:104D60008C30B5F80730A4F88E306FF4806130468F
:104D70000CF01CFF14E0D6E8AF3F5B05F5D52B78AF
:104D8000202BF2D194F89430002BEED0013B84F824
:104D900094304FF42032002304F1400008F0C0FDAD
:104DA000204602F077FBCCE7D5780100845C010057
:104DB00010B5C1E900239DF808300C460B72FFF7CF
:104DC0009FF80C22024B02FB00335C6010BD00BF59
:104DD000A42200202DE9F0474FF0FF3206464FF0A5
:104DE000FF33184888460CF049FD044638B34FF0AD
:104DF000000900F10C07012138460CF094FD204613
:104E000084F81890FFF77CF84FF00C0A0E4D0AFB5F
:104E1000005046802046FFF773F80AFB0050C0F8A8
:104E200008902046FFF76CF80AFB0055032138462E
:104E3000C5F804900CF082FD068080F802802046C0
:104E4000BDE8F08748070020A42200200138C0B246
:104E500002289ABF014B185C00207047597F01005F
:104E600070B5C5680121B5F80160304602F06EF9F1
:104E7000044638B93346BDE8704001210A4A0B4860
:104E80000CF084BEE878FFF7E1FF84F8A4002879ED
:104E9000FFF7DCFF84F8A500204602F041FB204626
:104EA000BDE8704002F04AB8D5780100845C01008A
:104EB00070B5064690B00B4D01AC0FCD0FC40FCDB1
:104EC0000FC40FCD0FC495E8070084E807000E2E2D
:104ED0009DBF10AB03EB860656F83C0C024810B0A1
:104EE00070BD00BF845D0100587B0100034B01468B
:104EF000D3F86C0182689268104700BF0000002060
:104F00002DE9F843044600F10C0630460CF056FD3E
:104F1000B4F810800546B8F1010F0AD843460121C4
:104F2000194A1A480CF032FE2046BDE8F843FFF754
:104F30009BB8304602210CF031FD074600780CF09A
:104F400011FE10F0010906460DD140F6E473104A37
:104F5000104911480BF0E9F889F31188BFF36F8FFE
:104F60000323184602DF052321460C4A38780CF04B
:104F700025FEB307D8D56369A4F8108013FA85F528
:104F8000E560BDE8F88300BFBF790100845C0100E3
:104F9000DB790100607B01003D7A010020640100A3
:104FA00038B50C4608F028FF237E012B05D0032BD3
:104FB00014D12046FFF7B6FB0BE0E36818780CF03D
:104FC000D1FDC207054602D52046FFF799FFAB0782
:104FD000EFD4002408F024FF204638BD0121054A03
:104FE00005480CF0D3FD2046FFF73EF86FF015049E
:104FF000F0E700BF797B0100845C01002DE9F84FE8
:105000003D4C00AF04213D480CF0C2FD3C4DE2791F
:105010003C4B2046012A88BF1D466E46FFF74AFAE0
:105020008AB06A46384BA346C2E905350125374B9D
:10503000D0611362364B4FF42351364842F8103F8B
:105040000CF0B1FDDFF8D080B546DFF8C890334EE4
:10505000E3790BF1070B9D4238DB94F870506E46F4
:105060002846FFF725FF8CB06A46B4F87210B4F8F2
:105070007630C2E907514FF400755362DFF8A0C0E3
:10508000284BC2E905C015854FF4535142F8103F33
:1050900020480CF088FDB54694F871603046FFF763
:1050A00007FF8AB06A46B4F874301F49C2E9076343
:1050B0001E4BC2E9051095844FF43351154842F850
:1050C000103F0CF070FDBD46BDE8F88F5846FFF765
:1050D000F1F9EA468AB06A4640F20133C2E9056551
:1050E000D06113844FF41351484642F8108F0CF0EE
:1050F0005AFD0135D546ABE700000020D400002062
:105100002A9101008D7B0100917B010000020103C7
:1051100004000002845C010004000001A07B010087
:10512000B17B010006000001EF7B010005000001DA
:1051300000487047AA6D0100014808F047BB00BF56
:105140004C02002038B505460C4619B9FFF742FE5F
:105150000446D8B140F635439D420FD12046FFF7B3
:10516000C5FE054640B1034601210A480A4A0CF033
:105170000DFD2046FEF778FF284638BD214607483A
:105180000FF0CAFD0025FFF7D7FFF5E76FF06805C0
:10519000F2E700BF845C0100167C0100540100208E
:1051A000F8B50521054640F63540FFF713FE0446E5
:1051B00078B9FD231C4A1D491D480AF0B6FF1D4859
:1051C0000AF0B3FF84F31188BFF36F8F03231846EF
:1051D00002DF04F10C07012138460CF0AFFB012679
:1051E0000421067038460CF0A9FB058000252146F5
:1051F0008670C57040F63540FFF7A4FF044688B1BD
:1052000040F20713084A0C4909480AF08EFF21466C
:105210000A480AF08AFF85F31188BFF36F8F0323D2
:10522000184602DFF8BD00BFDB79010000780100FD
:105230003D7A0100387C0100577C0100607C010050
:105240002DE9F0410446868B477E807AFEF750FEBA
:105250006169054649B1637ADA0704D4436A204696
:105260001B689B68984700236361214628460FF01E
:105270005EFDA37E33BB144B93F88A309B0621D589
:10528000384602F071FB044638B93B46BDE8F041B0
:1052900002210E4A0E480CF079BC837A073B012BA1
:1052A00009D90B4802210B4A0CF06EFC2046BDE8E0
:1052B000F04101F043BE01F041FE3046BDE8F0414F
:1052C000FFF76EBFBDE8F08100000020837C010085
:1052D000845C0100AC7C010073B5C368D9789A780E
:1052E0001E8842EA0122ADF8002059791A79B4B239
:1052F00042EA0122ADF80220D9799A79204642EAA1
:105300000122ADF804201A7A5B7A012142EA0323D4
:10531000ADF8063001F01AFF054658B901211C48C6
:1053200023461C4A0CF032FC022120460CF07BFC88
:1053300002B070BD694602F019F938B91E21204645
:105340000CF071FC284601F0F9FDF1E70E2142F264
:105350002000FFF73FFD04460028F3D00E210C305B
:105360000CF0ECFA00230680C0F80A30BDF80030DB
:1053700021464380BDF802308380BDF80430C380ED
:10538000BDF80630038142F22000FFF7DBFED9E7CB
:10539000845C0100D578010038B502460B462B4DE0
:1053A000D5F8541109B9002038BD05F5987008F0FA
:1053B0006DF80028F7D10022002305F5AA7008F047
:1053C0000FF8044668B940F6B733214A214922480C
:1053D0000AF0ABFE84F31188BFF36F8F03231846E6
:1053E00002DFD5F848315BB101211C4A1C480CF0A2
:1053F000CBFBD5F84801FEF737FE0023C5F848314E
:1054000020460CF06AFAC5F848012046FFF76EFD09
:105410000346C8B10121134A11480CF0B7FB1248EA
:1054200008F010F82046FEF76BFD0C220F4B02FB34
:105430000033588818B122461F21FFF747FB20464A
:10544000FEF712FEFFF778FE0120ADE70000002016
:10545000DB790100007801003D7A0100D87C010071
:10546000845C0100167C010030010020A422002091
:105470002DE9F04F87B0054616460C4600AF31B90E
:10548000FFF7A8FC044648B96FF0680092E0887AFC
:10549000FEF72EFD534B834240F09E8001220021F7
:1054A00038460FF052FC2046FEF72AFD0C23DFF8A9
:1054B00038A103FB00A0876020460CF00EFA0146DD
:1054C0004A480FF029FCFFF737FE10F0BFF9484BB0
:1054D0001A58484B9A4220D1DFF81CB143480FF0CC
:1054E00030FC002181464FF4A020FFF755FF804695
:1054F00088B94FF4D4735946404A41480AF015FE22
:10550000294640480AF011FE88F31188BFF36F8FD7
:105510000323184602DF4C45E0D14FF4A0220023BC
:10552000384607F0B3FF804698B14FF4D773334A3B
:10553000354933480AF0F9FD4246294633480AF016
:10554000F4FD002383F31188BFF36F8F0323184604
:1055500002DF2046FEF7D4FC0C2358431AF80080E3
:10556000B8F1000F30D06E468AB06A46284BC2F8B8
:105570001C80C2E90535274B4FF43251136240F2CB
:1055800002439384244B254842F8103F0CF00BFB58
:105590002046B546A8F10908FEF766FDB8F1090FE7
:1055A0000FD8DFE808F01C0E0E0B050E0E0E0E19BC
:1055B0006FF00B001C37BD46BDE8F08F6FF00C009C
:1055C000F8E76FF00400F5E716B134600020F1E76A
:1055D0002046FEF749FDF9E76FF01500EAE76FF0A6
:1055E0006E00E7E748070020A422002054010020B5
:1055F00008000000601B0020F37C0100DB79010043
:105600003D7A0100FB7C0100577C01001B7D0100FD
:10561000607D01002A91010005000001845C010009
:10562000F0B583B000AF002140F603403A1DFFF70C
:105630001FFF0446002840F0B0807868C3681B78DC
:1056400053B9BD4BD3E8AF2F02F00902D3E8EF1FE7
:10565000C3E8E42F002CF9D1FEF706FD002141F24A
:1056600003003A1DFFF704FF0446002840F0958030
:105670007A68B24DD16805F17803D1F80100D1F80C
:10568000051003C31046FEF7EFFC214641F201006E
:105690003A1DFFF7EDFE044600287ED17868C36806
:1056A0005A7885F870205A88A5F872201A7985F8FA
:1056B0007120B3F80720A5F87420B3F80530A5F8D9
:1056C0007630FEF7D1FC214641F202003A1DFFF789
:1056D000CFFE0446002860D1D7F804C005F180064B
:1056E000DCF80C20531C41323446186859680833E2
:1056F00003C493422646F7D16046FEF7B5FC01F09D
:1057000087F90446002848D195F88A309E0610D4BF
:1057100002218B4A8B480CF037FA95F87C305806FA
:105720003FD40121884A87480CF02EFA6FF012040A
:1057300033E0072140F63340FFF74CFB06460028D4
:1057400000F0EC8007210C300CF0F8F81B230370FC
:105750000623C0F802408471447004712246C3706D
:10576000314640F63340FFF783FE0446A8B90121D5
:1057700040F63140FFF72EFB0646002800F0CE80B1
:1057800001210C300CF0E9F82246314640F6314058
:10579000FFF76EFE04460028BFD020460C37BD46FA
:1057A000F0BD002142F203003A1DFFF761FE0446FE
:1057B0000028F2D17B68654EDA68D2F80100D2F891
:1057C000051003C61846FEF74FFC214642F20200C0
:1057D0003A1DFFF74DFE04460028DED17C68E368E1
:1057E000B3F8012091B249B1D97839B1A5F80421B3
:1057F000DA78114606F128000FF0A7FA2046FEF7E6
:1058000033FC1F2395F87C60A5F8203116F02006A4
:1058100017D1022140F66D40FFF7DCFA044600285C
:105820007CD002210C300CF089F801232146037052
:105830004670324640F66D40FFF71AFE04460028D7
:10584000ABD195F89C30190712D5002142F21C000B
:105850003A1DFFF70DFE044600289ED17868C36804
:10586000D3F80120D3F80530C5E93823FEF7FCFB57
:10587000082142F20100FFF7ADFA044600284DD09E
:1058800008210C300CF05AF895F8D83095F8D9204A
:1058900013F0020F14BF2F230F2312F0090F4FF044
:1058A000000218BF43F4006303701B0A21464370D3
:1058B0008270C270027142718271C27142F2010043
:1058C000FFF7D6FD044600287FF467AF95F87C30DB
:1058D000B5F804119A0624D4C9B941F205003A1D5D
:1058E000FFF7C6FD044600287FF457AFB5F8043132
:1058F0007C684BB9E368B3F80120A5F804219A88C5
:10590000134811460FF021FA2046FEF7ADFB08219F
:1059100040F60140FFF75EFA0446E8B96FF068040C
:105920003BE70029F3D101210A4A06480CF02CF983
:105930006FF0040431E700BFD40000200000002015
:105940007F7D0100845C0100AD7D0100D800002056
:1059500008010020D17D010008210C300BF0EEFF82
:10596000102303708823002243700226202321463F
:105970008270C670027142718271C37140F601403B
:10598000FFF776FD044600287FF407AF01463A1D75
:105990004FF60140FFF76CFD98B1504A0221504884
:1059A0000CF0F2F800F0C4FC044600287FF4F5AED9
:1059B00001F0E2FF044600287FF4EFAEFFF71EFB84
:1059C000EBE67B686E46DC688AB0B4F80130032BE6
:1059D00096BF444A444952F823106A46D3614FF4B3
:1059E000007342481384424BC2E9050142F8103F5C
:1059F0004FF413513A480CF0D6F8B4F80120B546EC
:105A0000022AB4F8033049D1052B47D8394A52F855
:105A100023106E468AB06A46D3614FF4007336484D
:105A20001384334BC2E9050142F8103F4FF4135180
:105A30002B480CF0B8F8B546637994F806C0032BF0
:105A400098BF2E4AB4F80760D4F809006C468CB0B1
:105A500094BF52F8231024496A46C2E9073C4FF428
:105A60000073DFF89CE09385264BC2E905E1C2E9AB
:105A700009604FF4735142F8103F19480CF093F845
:105A8000A5467868FEF7F0FA00214FF602403A1D6D
:105A9000FFF7EEFC044618B11B4A7FE71249B8E74E
:105AA0007868C368B3F80130A5F8C130FEF7DCFAB6
:105AB00095F8C1305B077FF575AF21464FF603407F
:105AC0003A1DFFF7D5FC08B1104A67E77868C3684C
:105AD0005B7885F8C030FEF7C7FA63E7F47D010014
