:020000040000FA
:1000000088650020D548000095500100C1480000D7
:10001000C1480000C1480000C1480000C1480000BC
:10002000000000000000000000000000814A000005
:10003000C148000000000000414A0000C148000023
:10004000414C0000414C0000414C0000414C00007C
:10005000414C0000414C0000414C0000414C00006C
:10006000414C0000414C0000414C0000414C00005C
:10007000414C0000414C0000414C0000414C00004C
:10008000414C0000414C0000414C0000414C00003C
:10009000414C0000414C0000414C0000414C00002C
:1000A000414C0000414C0000414C0000414C00001C
:1000B000414C0000414C0000414C0000414C00000C
:1000C000414C0000414C0000414C0000414C0000FC
:1000D000414C0000414C0000414C0000414C0000EC
:1000E000414C0000414C0000414C0000414C0000DC
:1000F000414C0000414C0000414C0000414C0000CC
:10010000414C0000414C0000414C0000414C0000BB
:10011000414C0000414C0000414C0000414C0000AB
:10012000414C0000414C0000414C0000414C00009B
:10013000414C0000414C0000414C0000414C00008B
:10014000414C0000414C0000414C0000414C00007B
:10015000414C000081F0004102E000BF83F0004309
:1001600030B54FEA41044FEA430594EA050F08BF52
:1001700090EA020F1FBF54EA000C55EA020C7FEA16
:10018000645C7FEA655C00F0E2804FEA5454D4EB93
:100190005555B8BF6D420CDD2C4480EA020281EA5D
:1001A000030382EA000083EA010180EA020281EA95
:1001B0000303362D88BF30BD11F0004F4FEA0131E7
:1001C0004FF4801C4CEA113102D0404261EB4101F6
:1001D00013F0004F4FEA03334CEA133302D052427C
:1001E00063EB430394EA050F00F0A780A4F1010438
:1001F000D5F1200E0DDB02FA0EFC22FA05F2801872
:1002000041F1000103FA0EF2801843FA05F3594157
:100210000EE0A5F120050EF1200E012A03FA0EFCD6
:1002200028BF4CF0020C43FA05F3C01851EBE37100
:1002300001F0004507D54FF0000EDCF1000C7EEB1D
:1002400000006EEB0101B1F5801F1BD3B1F5001F5B
:100250000CD349085FEA30004FEA3C0C04F101047A
:100260004FEA445212F5800F80F09A80BCF1004FA3
:1002700008BF5FEA500C50F1000041EB045141EA25
:10028000050130BD5FEA4C0C404141EB0101013CEE
:1002900028BFB1F5801FE9D291F0000F04BF0146DD
:1002A0000020B1FA81F308BF2033A3F10B03B3F1AF
:1002B00020020CDA0C3208DD02F1140CC2F10C023F
:1002C00001FA0CF021FA02F10CE002F11402D8BF9D
:1002D000C2F1200C01FA02F120FA0CFCDCBF41EA69
:1002E0000C019040E41AA2BF01EB0451294330BD38
:1002F0006FEA04041F3C1CDA0C340EDC04F1140415
:10030000C4F1200220FA04F001FA02F340EA0300EB
:1003100021FA04F345EA030130BDC4F10C04C4F131
:10032000200220FA02F001FA04F340EA0300294611
:1003300030BD21FA04F0294630BD94F0000F83F45B
:10034000801306BF81F480110134013D4EE77FEA3E
:10035000645C18BF7FEA655C29D094EA050F08BF8A
:1003600090EA020F05D054EA000C04BF194610466B
:1003700030BD91EA030F1EBF0021002030BD5FEAAF
:10038000545C05D14000494128BF41F0004130BDD7
:1003900014F580043CBF01F5801130BD01F000452B
:1003A00045F0FE4141F470014FF0000030BD7FEA9E
:1003B000645C1ABF194610467FEA655C1CBF0B4699
:1003C000024650EA013406BF52EA033591EA030FB0
:1003D00041F4002130BD00BF90F0000F04BF0021A8
:1003E000704730B54FF4806404F132044FF00005DB
:1003F0004FF0000150E700BF90F0000F04BF002154
:10040000704730B54FF4806404F1320410F00045B9
:1004100048BF40424FF000013EE700BF42004FEAB4
:10042000E2014FEA31014FEA02701FBF12F07F4331
:1004300093F07F4F81F06051704732F07F4208BFE8
:10044000704793F07F4F04BF41F40021704730B5EF
:100450004FF4607401F0004521F000411CE700BF3B
:1004600050EA010208BF704730B54FF000050AE0BE
:1004700050EA010208BF704730B511F0004502D5BF
:10048000404261EB41014FF4806404F132045FEAC1
:10049000915C3FF4D8AE4FF003025FEADC0C18BF6A
:1004A00003325FEADC0C18BF033202EBDC02C2F15C
:1004B000200300FA03FC20FA02F001FA03FE40EAEE
:1004C0000E0021FA02F11444BDE600BF70B54FF0F2
:1004D000FF0C4CF4E06C1CEA11541DBF1CEA1355D0
:1004E00094EA0C0F95EA0C0F00F0DEF82C4481EA38
:1004F000030621EA4C5123EA4C5350EA013518BF58
:1005000052EA033541F4801143F4801338D0A0FB44
:1005100002CE4FF00005E1FB02E506F00042E0FBF1
:1005200003E54FF00006E1FB03569CF0000F18BFF7
:100530004EF0010EA4F1FF04B6F5007F64F540749F
:1005400004D25FEA4E0E6D4146EB060642EAC62132
:1005500041EA55514FEAC52040EA5E504FEACE2E9F
:10056000B4F1FD0C88BFBCF5E06F1ED8BEF1004FA2
:1005700008BF5FEA500E50F1000041EB045170BD1E
:1005800006F0004646EA010140EA020081EA030162
:10059000B4EB5C04C2BFD4EB0C0541EA045170BD5E
:1005A00041F480114FF0000E013C00F3AB8014F1D8
:1005B000360FDEBF002001F0004170BDC4F1000421
:1005C000203C35DA0C341BDC04F11404C4F12005A2
:1005D00000FA05F320FA04F001FA05F240EA0200FD
:1005E00001F0004221F0004110EBD37021FA04F633
:1005F00042EB06015EEA430E08BF20EAD37070BDED
:10060000C4F10C04C4F1200500FA04F320FA05F04B
:1006100001FA04F240EA020001F0004110EBD3704D
:1006200041F100015EEA430E08BF20EAD37070BDBD
:10063000C4F1200500FA05F24EEA020E20FA04F396
:1006400001FA05F243EA020321FA04F001F0004145
:1006500021FA04F220EA020000EBD3705EEA430EB6
:1006600008BF20EAD37070BD94F0000F0FD101F0E5
:100670000046400041EB010111F4801F08BF013C1E
:10068000F7D041EA060195F0000F18BF704703F05C
:100690000046520043EB030313F4801F08BF013DE3
:1006A000F7D043EA0603704794EA0C0F0CEA13559F
:1006B00018BF95EA0C0F0CD050EA410618BF52EA59
:1006C0004306D1D181EA030101F000414FF000005F
:1006D00070BD50EA410606BF1046194652EA43066D
:1006E00019D094EA0C0F02D150EA013613D195EAE1
:1006F0000C0F05D152EA03361CBF104619460AD129
:1007000081EA030101F0004141F0FE4141F4700132
:100710004FF0000070BD41F0FE4141F4780170BD22
:1007200070B54FF0FF0C4CF4E06C1CEA11541DBF87
:100730001CEA135594EA0C0F95EA0C0F00F0A7F889
:10074000A4EB050481EA030E52EA03354FEA0131B6
:1007500000F088804FEA03334FF0805545EA1313C9
:1007600043EA12634FEA022245EA111545EA106591
:100770004FEA00260EF000419D4208BF964244F128
:10078000FD0404F5407402D25B084FEA3202B61A47
:1007900065EB03055B084FEA32024FF480104FF41B
:1007A000002CB6EB020E75EB030E22BFB61A75468F
:1007B00040EA0C005B084FEA3202B6EB020E75EB22
:1007C000030E22BFB61A754640EA5C005B084FEA8A
:1007D0003202B6EB020E75EB030E22BFB61A754657
:1007E00040EA9C005B084FEA3202B6EB020E75EB62
:1007F000030E22BFB61A754640EADC0055EA060E23
:1008000018D04FEA051545EA16754FEA06164FEA65
:10081000C30343EA52734FEAC2025FEA1C1CC0D111
:1008200011F4801F0BD141EA00014FF000004FF09E
:10083000004CB6E711F4801F04BF01430020B4F15F
:10084000FD0C88BFBCF5E06F3FF6AFAEB5EB030C17
:1008500004BFB6EB020C5FEA500C50F1000041EB14
:10086000045170BD0EF0004E4EEA113114EB5C04E1
:10087000C2BFD4EB0C0541EA045170BD41F48011B4
:100880004FF0000E013C90E645EA060E8DE60CEABC
:10089000135594EA0C0F08BF95EA0C0F3FF43BAFD9
:1008A00094EA0C0F0AD150EA01347FF434AF95EA90
:1008B0000C0F7FF425AF104619462CE795EA0C0F74
:1008C00006D152EA03353FF4FDAE1046194622E741
:1008D00050EA410618BF52EA43067FF4C5AE50EA1B
:1008E00041047FF40DAF52EA43057FF4EBAE12E70B
:1008F00053B94AB9002908BF00281CBF4FF0FF3187
:100900004FF0FF3000F00CB8ADF1080C6DE904CEEB
:1009100000F022F8DDF804E0DDE9022304B07047BE
:10092000704700BF10F8012B11F8013B012A28BFC6
:100930009A42F7D0D01A7047034611F8012B03F8FA
:10094000012B002AF9D17047034613F8012B002A26
:10095000FBD1181A013870472DE9F04786468C46BE
:100960000846089E154674461946002B40F0C18083
:100970008542B2FA82F245D94AB1C2F1200300FAA7
:1009800002FC954094402EFA03F343EA0C0C4FEA24
:10099000154EA8B2230CBCFBFEF80EFB18CC08FBCE
:1009A00000F943EA0C43994528D9EB1808F1FF37C1
:1009B00004D2994502D9A8F102072B44A3EB0903FD
:1009C000A4B2B3FBFEFC0EFB1C330CFB00F044EAAC
:1009D0000344A04214D92C190CF1FF3304D2A042D5
:1009E00002D9ACF102032C44241A43EA07401EB199
:1009F000D440002334607360BDE8F0874746DDE7EC
:100A00006346F1E792BB431B01214FEA154EAFB29B
:100A1000200CB3FBFEFC0EFB1C330CFB07F840EA7A
:100A20000343984561D9EB180CF1FF3004D2984587
:100A300002D9ACF102002B44A3EB0803A4B2B3FB30
:100A4000FEFC0EFB1C330CFB07F744EA0344A742F1
:100A50004DD92C190CF1FF3304D2A74202D9ACF1C5
:100A600002032C44E41B43EA0040C0E7C2F1200328
:100A70009540944020FA03F12EFA03F34FEA154E05
:100A80009040AFB20343B1FBFEFC0EFB1C10190CEF
:100A90000CFB07F841EA0041884522D969180CF19E
:100AA000FF3004D2884502D9ACF102002944A1EB01
:100AB00008019BB2B1FBFEFC0EFB1C110CFB07F7FF
:100AC00043EA01439F420ED9EB180CF1FF3104D2E7
:100AD0009F4202D9ACF102012B44DB1B41EA0041E9
:100AE00093E76046E3E76146F7E76046A4E76346BD
:100AF000B8E7834206D916B9002108467CE7C6E963
:100B000000E0F9E7B3FA83F78FB9834201D3724566
:100B100008D8BEEB020460EB030301209C461EB91B
:100B2000002169E73846FAE7C6E9004CF8E7C7F163
:100B3000200CBB400EFA07F522FA0CF42EFA0CF149
:100B4000BA401C4320FA0CF3B8404FEA1449014361
:100B50001FFA84FEB3FBF9F809FB18300B0C08FBF5
:100B60000EFA43EA00439A4540D9E31808F1FF30F2
:100B700004D29A4502D9A8F102002344A3EB0A0348
:100B800089B2B3FBF9F809FB183308FB0EFE41EA02
:100B900003418E452CD9611808F1FF3304D28E45EC
:100BA00002D9A8F10203214443EA0040A1EB0E015F
:100BB000A0FB02984145CE46434602D306D14D459F
:100BC00004D20138B9EB020E68EB0403002EA7D063
:100BD000B5EB0E0261EB030101FA0CFC22FA07F3FC
:100BE000F9404CEA0303C6E9003199E74046C5E7FE
:100BF0004346D9E708B5034813F031F90022024B08
:100C00001A7008BD988701005C24002010B50446C6
:100C10008CB029B11B480CB0BDE8104013F01FB9CF
:100C200003A908F0B5FD014620B1174813F017F9E4
:100C30000CB010BDBDF82000FFF7DEFB0022134B07
:100C4000FFF744FCBDF82430024603EB83035B004E
:100C50009BB20193BDF822300D4800930B4613F070
:100C6000FEF80C4B02A918680290204614F0CAFD49
:100C7000014610B1084813F0F2F80122074B1A7030
:100C8000D6E700BFB2870100CE8701000000F43F25
:100C9000ED870100C47E0100388801005C2400203B
:100CA0004FF0004130B50D4B0D481B680D4CD3F88B
:100CB000405503782268D9400133DBB2202D8CBF28
:100CC0000A438A431F2B88BF0023226083BF01226F
:100CD0000370054B037088BF1A7030BD9C01002063
:100CE0005724002070170020562400200B78012B79
:100CF00002D1064813F0B3B8022B01D10448F9E73A
:100D0000032B01D10348F5E7704700BF5C88010061
:100D1000758801008E880100F0B5984887B013F0FF
:100D20009EF8002206210F2003F0EAFE0022062191
:100D30000D2003F0E5FE924813F091F80021012008
:100D40000CF0FAFF8F4B03A903934FF44073ADF8F7
:100D5000103007238DF812308B4B00228B480593FF
:100D60000DF0DEFD8A4B01469842884C18D0894828
:100D700013F075F84FF47A7012F036FE07218648AA
:100D80000DF0FAFA824B0546984210D08349AE2303
:100D9000834A844813F079F8AE21814813F06CF847
:100DA000814813F05CF820460DF046FEE6E77A48ED
:100DB0000DF032FB7D4A7E49002808BF11467D4870
:100DC00013F04DF87C4974480DF030FBA8420646FC
:100DD00007D07249B323724A724813F056F8B32110
:100DE000DBE70921754A6C480DF010FA0122092150
:100DF00069480DF021FB724967480DF017FBB042BE
:100E0000054607D06549CB23654A664813F03DF88F
:100E1000CB21C2E708216B4A5F486B4F0DF0F6F912
:100E2000002208215C480DF007FB38460CF0C4FD99
:100E3000A842064607D05949FC23594A594813F09D
:100E400024F8FC21A9E7092153483D7815F0A4FDB9
:100E500001462846012522680C3215F019FD387824
:100E60005A4F05FA00F00CF03FFD38460CF0A4FD97
:100E7000B04209D049494FF48473494A494813F0B4
:100E800004F84FF4847188E7082143483E7815F050
:100E900083FD6379014653B94D4942484FF4BE730F
:100EA0004C4A12F0F2FF4FF4BE714A4876E72268CE
:100EB0003046403215F0ECFC387805FA00F00CF0C2
:100EC00013FD454812F0CBFF30480DF073FD2F485D
:100ED0000DF094FD414A4249002808BF114641489F
:100EE00012F0BDFF002006F0B5FB014630B13E48D0
:100EF00012F0B5FF4FF0FF3007B0F0BD3B4808F0EF
:100F000079FB014608B13A48F2E73A4800F0DEF8CA
:100F1000014608B13848EBE7384812F0A0FF3849DD
:100F20000222384B3848009507F004FA014608B110
:100F30003648DDE7364812F092FF40F2DC5012F0FE
:100F400053FD344812F08BFF334C344D237883B17A
:100F50002968334812F083FF324B1B783BB1286875
:100F600000F0BEF8014610B12F4812F078FF0023C0
:100F70002370022012F038FDE8E700BFC0880100AE
:100F8000E88801000024F400FF8801009C01002093
:100F90000000AD0B0C890100347F01005489010071
:100FA000388901006B890100258901000DA8010025
:100FB00011A80100888901005B240020FC7E01004B
:100FC0005A240020F07E01005924002058240020DB
:100FD000DC8901009B890100038A0100B7880100B8
:100FE000AF880100248A0100368A010080010020B8
:100FF000568A010078010020888A0100A88A010031
:10100000247F01001C7F0100087F0100BF8A0100CE
:10101000E58A0100FE8A0100562400207017002096
:10102000138B01005C240020238B01008B1E59428E
:101030005941014B197070475E2400204B1E5942E4
:101040005941014B197070475F24002008B5042BEB
:10105000BDF808100CD171B90A4B1B680BB90420FC
:1010600008BD1068012809D800F001009847F6E78C
:101070006FF00C00F4E76FF00600F1E76FF012007C
:10108000EEE700BF741700202DE9FF411F460D4B0E
:10109000054658680C46164680B1D1F80C8080474A
:1010A000094B324618700123CDE90183BDF8283081
:1010B0002146009328463B4615F002FA04B0BDE8ED
:1010C000F08100BF741700205D24002020B1034B85
:1010D00002681A6042685A60002070477417002046
:1010E00000B50D4B89B01B78019093B100211822F7
:1010F00002A816F0CAFB094B0020039301AB04932E
:10110000042302A9ADF814300AF04AFF09B05DF8D3
:1011100004FB6FF00C00F9E75F240020C87F01009A
:10112000F8B50F4600293BD006680122304612F080
:10113000A3FC01460446304612F066FCC3070DD4FA
:10114000AF23184A1849194812F09FFE394618482B
:1011500012F09BFEAF21134812F08EFE214630465E
:1011600012F068FC251829460022304612F04CFC8B
:101170002D1AAC420BD0B7230A4A0E490B4812F085
:1011800084FE39460C4812F080FEB721E3E7214681
:10119000304612F055FC2146BDE8F84012F091BDF2
:1011A000F8BD00BFD78B0100FA8B01006B890100ED
:1011B0000B8C0100438C0100698C01002DE9F84380
:1011C0000F4606681446B2684B1EB2F5004F34BF96
:1011D000042108213B4010D0C7F1000909EA0709A2
:1011E000494503F1FF3028BF494618420CD11F463C
:1011F000DCB900252846BDE8F8838F4213D8214684
:10120000BDE8F84312F09FBD2E494FF4A2732E4A59
:101210002E4812F03AFE2E4812F037FE4FF4A2711B
:10122000294812F029FE9946E2E7B2EBD40FE0D943
:10123000E319591A104612F029FC0146304612F003
:101240007FFC80460028D4D0B36809EBC005B3F515
:10125000004F34BF042308231D4435447B1E1D4426
:10126000B5FBF7F57D43A5EB09052946304612F09D
:1012700003FC2C44073424F00704A41B80450746D4
:101280004FEAE40408D202464146304612F092FC8E
:101290004146304612F0D3FC3946304612F0CAFBC4
:1012A0003844844208D239463046224612F082FC45
:1012B0002146304612F0C3FC01223946304612F076
:1012C000BFFB97E7A58C0100D78B01006B8901005C
:1012D000C08C0100B2F5802F2DE9F04110D2042A14
:1012E00028D843494FF4F973424A434812F0CDFDE0
:1012F000424812F0CAFD4FF4F9713E4812F0BCFDAD
:101300000823D21ACC1D114424F0070421F0070150
:10131000091B17294FEAD1060ED8394940F2FB13B1
:10132000344A354812F0B1FD344812F0AEFD40F2B7
:10133000FB11E2E70423E4E700270460314630466E
:10134000A660E76012F0ABFB0121421D80463046EB
:1013500012F09CFB9200D51DED082844B0423AD80B
:10136000B8F1FF3F3946A2F1100204F11000B8BFF6
:101370003A4616F08AFA2A463946204612F078FB99
:101380003B463A463946204612F049FBA6EB050893
:1013900020463946012212F053FB4246294612F0FC
:1013A00067FB2B463A462946204612F038FB314669
:1013B000204612F05DFB43463A463146204612F085
:1013C0002EFB31462046012212F03AFB2946BDE8A9
:1013D000F04112F034BC0B494FF40373054A064840
:1013E00012F053FD054812F050FD4FF4037184E7ED
:1013F000DD8C0100D78B01006B890100FE8C0100A0
:10140000178D0100408D01002DE9F04F91B0009340
:1014100002F004030293C2F3C203013384070546BA
:101420000E46DDF868800392059340F0F681041DB6
:1014300030B1072909D86FF01B0011B0BDE8F08F5B
:1014400001F00706341DC6F108064FF000094FF001
:10145000040B009B4F46013B01934FF0FF324B467C
:10146000DA46CDF810900DB100992160059800285A
:1014700000F3D78098480099814203D3974881426E
:10148000C0F0CF800399A4EB050E89074FEA9E00B8
:1014900040F1E2804FF0000CCCE07A285AD84B287B
:1014A0000CD8472856D829282AD8252851D051D8D1
:1014B000202877D023384342434173E04C382E280C
:1014C00048D8DFE800F06F47474747474747474757
:1014D0004747494747474747474747594749495972
:1014E00059596F496C476F471849184747807D49DC
:1014F000474749477D00002000234FF0040B39E0A7
:1015000001212A38C0B201FA00F010EA0E0F49D1C9
:1015100010F0625C30D110EA010343D06046013C18
:101520005C44B4FBFBF40BFB04F4002D60D0AAEB8D
:10153000050CA444B4453FF67EAF00286AD1BAF149
:10154000040F45D158F8040B20604FF0040A04340E
:1015500028E0013A002325E0019B13F8013C6C2BA5
:1015600033D10020019B13F8023C6C2B0346C4D1FD
:101570004FF0080BDA46D2E708F1070828F0070811
:10158000073424F00704F8E802AB35B1069820448C
:10159000B0423FF650AFC4E900AB002308344FF02F
:1015A000080BDA46019911F8010F0191002800F0AB
:1015B000BC80002B7FF471AF2528F3D101230132C9
:1015C0004FF0040BEDE7184696E700200346A6E728
:1015D000BAF1080F40F09B8008F1070828F00708CF
:1015E000F8E80201C4E900014FF0080A0834D9E71D
:1015F00080B9BAF1040F02D108F10408A5E7BAF1E5
:10160000080F40F0848008F1070828F0070808F167
:101610000808E9E705990139059158F8041B00917C
:1016200021E7039988074AD54FF0010CA4EB050E7A
:101630004FEA9E00BEF5007F1ED329494FF41F7369
:10164000284A294812F021FC284812F01EFC4FF4C9
:101650001F71244812F010FC0F2F0FD8002D49D015
:1016600007F140010DEB010C0CF8200C0CF8102CCC
:1016700004980130049021E00F2F0CD9184940F252
:101680008123184A184812F000FC194812F0FDFB9B
:1016900040F28121DDE7CDB107F140010DEB010EF4
:1016A000C0B20EF8200C0EF8102CBCF1000FDFD0E9
:1016B00060F07F000EF8200C09F101090137C5F137
:1016C00008014FF6DA7E043406916BE7BCF1000F97
:1016D00010D00136F2E700BFE879010038D90100E7
:1016E000F9D801006B8D01006B890100998D010013
:1016F000BA8D0100029802360028DFD10098CDE9AA
:101700000632FFF721F9DDE906320644D6E740F25A
:10171000C623434A4349444812F0B7FB5146434865
:1017200012F0B3FB40F2C62193E7631BB3F5806F61
:101730000CD33C4940F2D223394A3B4812F0A5FB76
:101740003B4812F0A2FB40F2D22182E71DB9A6F17C
:101750000804E01871E6029A9B0828602B709DF837
:101760001030C2B1EB7085F80290B9F1000F05D0CE
:10177000002208A8C5F1010C97420ED14FF0000AD3
:10178000C5F101030DF1200801930DF1300B574510
:1017900012D1601B51E66B70E5E710F8013B1906AA
:1017A00008D504EB0C0EB64503F07F033FF643AEBD
:1017B00004F8013B0132DFE7B9F1000F03D098F9DB
:1017C0000020002A17DB029BD3B11AF80B2004F883
:1017D000012B0022019B98182044B0423FF62BAE0B
:1017E00098F80000009904F8010B2046039216F0C7
:1017F0003FF8039A14440AF1010A08F10108C6E708
:1018000098F8002055F822300093029B009845F884
:101810002230FFF799F8421CDCE76FF00D000CE670
:101820006B8D0100F9D801006B890100D48D010096
:10183000E98D01002DE9F04F97B000AF89460446CD
:10184000D7F880B0FA623B6258B9A9494FF4667381
:10185000A84AA94812F019FB4FF46671A54812F086
:101860000BFBCBF3C00390F802A0BB6141B94578F4
:1018700000780AEB800020444D4517D8A0EB0409FE
:10188000E378FB61BAF1000F02D01BF0010F16D113
:10189000FB6953BBFB6A1BB1494620463A6A98472D
:1018A0004D4628465C37BD46BDE8F08F461C3046A5
:1018B000FFF74AF80130304409F10109DCE76268BA
:1018C00023787A62FA6A9900796104EB8301002A2D
:1018D00040F002810E464FF000084D4601EB0A0928
:1018E0004E454CD101EB0A0610E01BF0020FD1D09F
:1018F00023789A007A61626804EB83017A62FA6A5B
:10190000002A77D14D46904601EB0A061BF0050FE1
:101910000CBF02230123FB62FB6906EB430A0BF0B9
:101920000203BB625645BCD016F8021B16F8013CF8
:1019300054F82390714B994502D3714B994536D396
:10194000BB69002B40D0786A12F060FA00283BD0C7
:10195000E9468AB06A466B4B53617B6AC2E906313D
:101960004FF400731384684B42F8103F00234FF488
:101970001251664801F0B4FE023DCD46D2E716F89A
:10198000013BF96254F82300FEF7DEFFD7F88430FC
:10199000F96A01304BB1D7F8883098453EBFD7F887
:1019A000843023F8180008F10108054498E7BB6962
:1019B00023B1786A12F02AFA0028C9D11BF0010F6E
:1019C00005D1FB6AED1AADE7BB6A002BAAD04846E9
:1019D000FEF7BAFFD7F8843053B1D7F8883098456E
:1019E0003FBFD7F88420431C22F8183008F10108C3
:1019F000054497E7BAF1000F74D01BF0040674D0C9
:101A0000D046002607F1480052463B61B96215F006
:101A10002FFFB96A3B6901EB0A02BA62FA69F969F8
:101A20005200FA60BA6A02EB41023A610BF002021C
:101A3000BA60BA6A39698A426AD162781BF0020FC9
:101A400018BF00217A6208BF4FEA5801B2181BF094
:101A5000010FD2B240F0E5801BF0040F14BF4046E6
:101A60000020BB616270A070E17020463A6A79691B
:101A7000FB6A9847051EFFF614AFBB694146237009
:101A80007B6A3A6A6370FB6984F802A0E37007F12D
:101A90004800FB6A9847B0F10008C0F2F0807B690B
:101AA000A9EB0A01C91AFB683A6AC91AD7E90A03FD
:101AB00098470028C0F2E5804FF0000BA84408EBDF
:101AC000000507F1380AB345C0F0AD8000213A6A3D
:101AD0000846FB6A9847E4E656464FF0000807F1CF
:101AE000380091E75646D04695E7B04693E700BFE9
:101AF000008E01006B8D01006B890100E879010007
:101B000038D901001B8E010004000001B87D0100DE
:101B1000BA6A12F8021B12F8015CBA6254F8250086
:101B2000594A904202D3594A904218D3BA693AB1FD
:101B3000786A7B6012F06AF97B6800287FF479AFDD
:101B4000BA68002A4CD00F2E40D9514940F24C437C
:101B5000504A514812F099F940F24C417EE6BA6978
:101B60003AB1786A7B6012F051F97B6800287FF403
:101B700060AF1BF0010F0BD00F2E27D9444940F264
:101B80004243444A444812F080F940F2424165E63B
:101B90001BF0040F3FF44DAFB8F10F0F09D93F49C7
:101BA00040F245433B4A3C4812F06FF940F2454150
:101BB00054E608F1280207F1300008F1010102EBB8
:101BC000000808F8105C5FFA81F832E706F1280295
:101BD00007F13000711C161806F8205CCEB228E719
:101BE000B8F10F0F09D92D4940F24F43294A2A482D
:101BF00012F04BF940F24F4130E608F1280207F1AC
:101C0000300C08F10100944407F1580208F1020871
:101C100052FA80F00CF8101C5FFA88F800F8105C9B
:101C200007E700201DE71BF80A3054F8239087F8D7
:101C30003730D7F88430FBB133F81B8001213A6A82
:101C4000FB6A07F13700984700281ADB0544B8F112
:101C5000000F06D14846FEF777FE00F101081FFA93
:101C600088F8414648463A6AFB6A9847002808DBEC
:101C700005440BF1010B26E7D7F88480DEE74546E3
:101C80000FE605460DE600BFE879010038D90100EE
:101C9000BE8E01006B8D01006B890100DD8E01009D
:101CA000014B1860704700BF0402002080B5054654
:101CB0000E461746984610F0C5FB034615F08AFEFF
:101CC0000446DFF81890424649F80030394630465D
:101CD000A84754F8090002F065FE00BF08000000A4
:101CE00038B50D4604462022002115F0CEFD002215
:101CF000EB68E361AB68A3612B6823626B68A26247
:101D000063622A6923B1591E194208BF42F00102D9
:101D100022610122002104F12C0015F012FC48B1CF
:101D2000054906482F23064A12F0AFF82F21044830
:101D300012F0A2F838BD00BF348F01006B8901009A
:101D40000E8F01002DE9F04F002789B0CDE9012366
:101D5000436A04468B428846BA460597079755D38F
:101D60004FF0200B00F11406EFF3118300938BF377
:101D70001288BFF36F8F3046DDF8009010F01EFD23
:101D800058B988234A4A4B494B4812F07EF83146ED
:101D90004A4812F07AF8882160E0304610F032FDAF
:101DA000079A2AB13946204612F050F900230793CA
:101DB00006A9204612F076F80699054641452ED32D
:101DC0002268236A204613F8221003EB820A21F0CE
:101DD000030103F822102168424612F087F8E368F5
:101DE0002060984216D00025304610F0F5FC40B334
:101DF00089F31188BFF36F8F059929B1A2690AB1E0
:101E00002046904700230593002DADD1504609B0E0
:101E1000BDE8F08F236943F008032361E3E718B1BD
:101E2000204612F07DF8DFE7DDE90132134337D0B9
:101E3000039115F0FBFB039990BB304610F0CCFCEE
:101E400078B940F231131A4A1D491B4812F01DF8A7
:101E500031461C4812F019F840F23111144812F0C2
:101E60000BF8009B83F31188BFF36F8F04F12C00F4
:101E7000DDE901230EF042FB0546EFF311898BF3F8
:101E80001288BFF36F8F304610F098FC00283FF4A3
:101E900078AFB5FA85F5304610F0B4FC6D09A3E7CC
:101EA000204607AB05AA276812F059F805469BE7BC
:101EB0003D8F01006A8F01006B8901007F8F010057
:101EC000958F0100AC8F01002DE9F0410446C369F4
:101ED00008460E46984704F114050746EFF31188AB
:101EE000202383F31288BFF36F8F284610F066FC1F
:101EF00068B988231A4A1B491B4811F0C6FF2946B6
:101F00001A4811F0C2FF8821154811F0B5FF284684
:101F100010F078FC33783A4643F00103337061687F
:101F2000204611F0E3FF6060204612F0AAF8284630
:101F300010F052FC68B940F23113094A0C490A48C2
:101F400011F0A3FF29460B4811F09FFF40F2311119
:101F5000DAE788F31188BFF36F8FBDE8F08100BF27
:101F60003D8F01006A8F01006B8901007F8F0100A6
:101F7000958F0100AC8F01002DE9F843044600F174
:101F80001407EFF31188202383F31288BFF36F8FB8
:101F9000384610F013FC054668B98823344A3549A1
:101FA000354811F072FF3946344811F06EFF882130
:101FB0002F4811F061FF384610F024FC2369A26815
:101FC00013F0080F02D163689A4200D9636A9B1A22
:101FD000002B3FD0216A11F8223001EB820913F067
:101FE00003003AD0022803D151F82260B60805D187
:101FF000D8071FD44846E36998470646A168324689
:10200000204611F073FF3146A060204611F07CFF9E
:10201000384610F0E1FB10BB40F23113144A184966
:10202000154811F032FF3946164811F02EFF40F2E4
:102030003111BDE743F0020301F82230E36948465D
:10204000A568984729460246204611F04FFF002513
:10205000A060DDE71D46A946DAE70546FBE788F301
:102060001188BFF36F8F002D8BD14846BDE8F883F0
:102070003D8F01006A8F01006B8901007F8F010095
:10208000958F0100AC8F01002DE9F0410446C36932
:1020900008460D46984704F114060746EFF31188E9
:1020A000202383F31288BFF36F8F304610F086FB36
:1020B00068B98823274A2849284811F0E6FE3146A6
:1020C000274811F0E2FE8821224811F0D5FE304663
:1020D00010F098FB2B786FF300032B7023699B079C
:1020E00005D5E268236A03EB82039D4222D12B7857
:1020F0006FF341032B70D4E90231994204D13A467F
:10210000204611F0F3FEA0603946204611F0FCFE97
:10211000304610F061FB90B940F231130D4A11497D
:102120000E4811F0B2FE31460F4811F0AEFE40F2FB
:102130003111C9E72B6867F39F032B60E8E788F349
:102140001188BFF36F8F04F12C00BDE8F0410EF051
:1021500093B900BF3D8F01006A8F01006B890100B8
:102160007F8F0100958F0100AC8F010070B5044690
:1021700000F11405EFF31186202383F31288BFF3D7
:102180006F8F284610F01AFB68B988231A4A1B493A
:102190001B4811F07AFE29461A4811F076FE882174
:1021A000154811F069FE284610F02CFB2369A06841
:1021B00013F0080F02D16368984213D9646A241A95
:1021C000284610F009FB78B940F231130A4A0E494B
:1021D0000B4811F05AFE29460C4811F056FE40F209
:1021E0003111DDE71C1AEBE786F31188BFF36F8F1F
:1021F000201E18BF012070BD3D8F01006A8F0100B5
:102200006B8901007F8F0100958F0100AC8F010069
:102210002DE9F84F0446A38B08461907154612D43A
:10222000022803F0070165D1204611F037FF88B17D
:102230000138042800F23781DFE810F05C00350136
:102240008200D400040101280CBF43F0100143F0C8
:102250002001A1831434204610F0BEFA002840F07B
:102260009D819A4940F23113994A9A4811F00DFE26
:102270002146B1E003F00702501F01281ED80020BC
:10228000062A2768C4E9000014D13A4603E0E08B2F
:102290000130E0831268002AF9D123F0070343F0EC
:1022A00002022046A28311F0F9FE90B342F0200210
:1022B000A2832EE023F007039AB2F2E7042A33D177
:1022C00023F007039AB22046A28311F0E7FE10B173
:1022D00042F02002A283A38B03F00709894540F056
:1022E000EC80A18BCA0640F1508121F01003A3833A
:1022F00001F00701D4F81880A38BB8F1000FB9DA08
:102300000022276823F00703C4E9002243F00103F9
:10231000A383A38B03F00709894540F0CF80002FEA
:10232000DFD00026B24644E06B4940F21B136B4AF3
:10233000684811F0AAFD40F21B11684811F09CFD9D
:1023400049B167494FF4AB73644A624811F09DFD8F
:102350004FF4AB71F1E723684BB9624940F2571370
:102360005E4A5C4811F091FD40F25711E5E72369A0
:102370001E684EB95C494FF4AD73584A554811F088
:1023800084FD4FF4AD71D8E70F4688464FF006093B
:10239000A38B23F0070343F006039BB2A383A26839
:1023A000002A40F08D80002F40F08D80002E98D0C4
:1023B000BA4643F0080304F1140B5846A38310F007
:1023C0000BFA002840F09A80404940F23113404A0D
:1023D000404811F05AFD5946444811F056FD40F26C
:1023E0003111ADE0022909D0414940F25D133B4A69
:1023F000384811F04AFD40F25D119EE7E78B4FB17E
:102400003C494FF4AF73354A324811F03EFD4FF46A
:10241000AF7192E723695E684EB9334940F26113A8
:102420002E4A2C4811F031FD40F2611185E7A38B53
:10243000B84623F0070343F004039BB24FF00409AE
:10244000A383ACE7012909D02B494FF4B273234A87
:10245000204811F01AFD4FF4B2716EE723684BB9B2
:10246000204940F265131D4A1A4811F00EFD40F252
:10247000651162E723699E684EB91B494FF4B47336
:10248000164A144811F001FD4FF4B47155E70027C6
:10249000A38BB84623F0070343F005039BB24FF02C
:1024A0000509A3837BE70C4940F26B130B4A0948EB
:1024B00011F0EBFC40F26B113FE7002700266EE7BE
:1024C0004FF0010A75E7924673E700BF958F010050
:1024D0003D8F01006B890100F9D80100C18F010017
:1024E000E68F0100F28F010015900100AC8F010012
:1024F0002C900100429001005190010085F3118859
:10250000BFF36F8FBAF1000F1CD177BB16B1204615
:102510002549B047EFF31185202383F31288BFF3D9
:102520006F8F584610F04AF938BB88231F4A20495C
:10253000204811F0AAFC59461F4811F0A6FC88213A
:102540001A48FBE6A1680029DFD00D680029DCD01D
:1025500043464A462046D1F804A0D0471DB12B6817
:1025600029461D46F2E72B46FAE7394643464A46D6
:1025700020463F6811F0BEFDC7E7584610F042F90B
:10258000A38B23F00803A383ABE68B067FF562AE33
:1025900021F02003A38301F0070145E685F31188AC
:1025A000BFF36F8FBDE8F88FBD2500003D8F0100A0
:1025B0006A8F01006B8901007F8F0100F8B5044626
:1025C0000D4600F11406EFF31187202383F31288E0
:1025D000BFF36F8F304610F0F1F868B988230C4ACA
:1025E0000C490D4811F051FC31460C4811F04DFCDE
:1025F0008821074811F040FC304610F003F9A5612E
:102600003A462046BDE8F8400121FFF701BE00BF71
:102610003D8F01006A8F01006B8901007F8F0100EF
:102620002DE9F04704460F4611F054FD051E68DB06
:1026300004F11409EFF3118A202383F31288BFF306
:102640006F8F484610F0BAF8804660B98823384A40
:102650003849394811F019FC4946384811F015FC41
:102660008821334842E0484610F0CCF84FF6FF721C
:10267000E38BA68B934206F0070645D0022E15D1B8
:1026800035460133E383484610F0A6F8002841D1CF
:1026900040F23113264A2A49274811F0F6FB4946F1
:1026A000284811F0F2FB40F23111DAE7062E13D878
:1026B000DFE806F0092D1212090409006FF0850504
:1026C0004FF00008DFE700233B60636883B9C4E98B
:1026D000007786B13546F3E71B4917484FF4E4739A
:1026E0001A4A11F0D2FB4FF4E471184811F0C4FB00
:1026F0001F606760EDE7524602212046FFF788FD24
:1027000035462846BDE8F0876FF00A05D8E76FF038
:102710000405D5E78AF31188BFF36F8FB8F1000F76
:10272000EFD0002332463946204611F0E3FCE8E7BB
:102730003D8F01006A8F01006B8901007F8F0100CE
:10274000958F0100AC8F010051900100C18F0100F5
:10275000F8B5054600F11406EFF31187202383F343
:102760001288BFF36F8F304610F028F860B98823C5
:10277000254A2649264811F088FB3146254811F0A4
:1027800084FB882120482BE0304610F03BF8AC8BCE
:1027900004F00704022C17D0012C0CBF6FF00404C6
:1027A0006FF08504304610F017F838BB40F2311353
:1027B000154A1949164811F068FB3146174811F0BF
:1027C00064FB40F23111DDE7EB8B5BB91449104833
:1027D00040F2EF13134A11F058FB40F2EF11114889
:1027E00011F04AFB013B9BB2EB83002BDAD13A4656
:1027F00021462846FFF70CFD2046F8BD87F31188D7
:10280000BFF36F8FF8E700BF3D8F01006A8F0100B3
:102810006B8901007F8F0100958F0100AC8F010053
:1028200067900100C18F010008B54268034602F0BD
:102830000302022A81600AD0032A4FF0000103D06C
:10284000012A0AD1596006E01868596008BD186865
:1028500000225A6058B90020F8E706490648452387
:10286000064A11F012FB4521044811F005FB10F057
:10287000BBFBF0E7F9D801006B89010075900100FE
:1028800010B530B90B480C4911F072FC6FF015000F
:1028900010BD836833B90748084911F069FC6FF02F
:1028A0000400F5E71B6813B1BDE81040184718464F
:1028B000EEE700BFC87D01009B900100AC900100D5
:1028C00010B530B90B480C4911F052FC6FF01500EF
:1028D00010BD836833B90748084911F049FC6FF00F
:1028E0000400F5E75B6813B1BDE8104018471846CF
:1028F000EEE700BFC87D01009B900100AC90010095
:1029000070B508B101B132B90B480C4911F030FC77
:102910006FF0150070BD84680CB1E56835B90648E4
:10292000074911F025FC6FF00400F3E741F8040BB0
:10293000E368BDE870401847C87D0100CA900100F7
:10294000AC90010010B5044630B91048104911F0A0
:102950000FFC6FF0150010BD006830B90B480D4931
:1029600011F006FC6FF00100F5E783680BB11B69FD
:1029700033B90648084911F0FBFB6FF00400EAE7A1
:10298000616898470028E6D12060E4E7C87D01002F
:10299000F690010007910100AC90010070B513465C
:1029A000044630B91048114911F0E2FB6FF01500F0
:1029B00070BD006830B90C480D4911F0D9FB6FF0BB
:1029C0000100F5E782680AB1956835B906480949FA
:1029D00011F0CEFB6FF00400EAE70A46AC466168EE
:1029E000BDE87040604700BFC87D0100F69001005F
:1029F00007910100AC900100034A13680BB95268BB
:102A000013600020704700BF0802002030B50C465C
:102A10000E4985B00291D0F8D4110546CDE90031B8
:102A200000F1F0014FF0FF3320460CF069FA50B985
:102A3000012384F86C30D5F8D03123B1204605B09D
:102A4000BDE83040184705B030BD00BF6942010005
:102A500038B50C461146054611F008FC034638B956
:102A60002846044911F002FC03460020236038BDCB
:102A70000120FBE7C89E01002DE9F04F01238146AC
:102A80000569466887B005F56377D7E8EF2F002A18
:102A900003D1C7E8E13F0029F7D10CBF1A46002255
:102AA00040F0B480B368B16A05F5F8781C1F104691
:102AB00011F060FC844272D8013A00F0A180B2FAB1
:102AC00082F24FF00044D44072682046073222F070
:102AD0000302C5F88822B16A11F04CFCC5F88C02DB
:102AE000B36A40466343033323F0030302EB43021C
:102AF000230103EB4403093323F0030303EBC40373
:102B0000C5F880221A440832C5F87C227368C5F8DB
:102B10008442C5F878323F4BC5E9B363D9F8003039
:102B2000C5F82432316800F0DFF90446002834D1BA
:102B3000D9F810B0D9F804A0D9F800300BF53A79DB
:102B4000059004934846DAE90734012B08BF103C8E
:102B50000EF0B6F8DAF824002F4904AB01EB80211F
:102B60004FF480624846009323460EF0C3F82B4989
:102B70000BF536700DF026FFDAE9050183685C6815
:102B80004CB15B46264AA047044630B9DAE9050154
:102B900083681B692BB96FF05704002129E00132CB
:102BA00085E70122984704460028F6D11D4B2846A8
:102BB000C5F8D0311C4BC5F8D4311C4B0393D5F864
:102BC00038320293D5F83032CDE90083D5F890320F
:102BD000B26AD5F8881300F04FF904460028DCD11A
:102BE00005F1F0000CF032FA0028C5F890030ADB7A
:102BF0000221384611F06EFB204607B0BDE8F08F89
:102C00006FF00B04C9E76FF01504C6E76FF07704A7
:102C1000F2E700BFBF42010010250020A5420100DD
:102C200099420100312C00004B4401000543010092
:102C300013B5044640B100230122CDE90032074B11
:102C4000D0E909120CF00CF9236F1B6823B1606FF7
:102C500002B0BDE81040184702B010BDC89E010088
:102C600013B504460846216901F56371D1E8AF1F29
:102C7000022910D193B1A0B10121CDE90031134651
:102C8000D0E909120CF0ECF8074B984208BF6FF03E
:102C90000B0002B010BD6FF00F00FAE76FF04C00B0
:102CA000F7E76FF00100F4E72EF8FFFF2DE9F74397
:102CB00088461546066906F56373D3E8AF3F022BD5
:102CC0005FD1136823B96FF0150003B0BDE8F0833E
:102CD0001B78002BF7D0D6F88893B9F1000F33D1C9
:102CE00006F5EC774FF0FF324FF0FF3338460DF02A
:102CF0005DF930462A6801A9FFF7AAFE019C1CB9BC
:102D0000384611F0E5FADEE705F1080323676B6941
:102D100084F86C906367646460B1384611F0D8FA47
:102D200021463046A36E2A68FFF770FE0020C8F8DF
:102D30000040CAE72022296804F1480014F0CFFDC2
:102D4000384611F0C5FAF1E730460F4911F08EFA16
:102D500004460028B7D005F1080303676B69406497
:102D60004367002380F86C3020222968483014F033
:102D7000B6FD22460121304600F060F80028D5D08B
:102D8000A1E76FF00F00A0E7C89E010010B50C4648
:102D9000006900F56373D3E8AF3F022B0FD189B10F
:102DA0000A4900F536700DF0FDFE204614F046F994
:102DB00078220021204614F068FD002010BD6FF03D
:102DC0000F00FBE76FF00100F8E700BF7C17002061
:102DD0002DE9F04F05460E4690460027D0F8C4A0D6
:102DE00085B0AAF5BE7421463046FDF79BFDE0B9DB
:102DF000114BA4F1480B0293DAF810303246CDE9BA
:102E0000008329464FF0FF335846AAF5E2790CF0CB
:102E100077F860B97823012203FB079383F86C20CD
:102E2000DAF80C300BB158469847783417B105B032
:102E3000BDE8F08F0127D6E7794401001FB514469D
:102E400090B18AB1012912D10A4B00F1F00102932D
:102E5000D0F8D431483201934FF0FF33204600932D
:102E60000CF04EF804B010BD6FF01500FAE700202A
:102E7000F8E700BF794401002DE9F04387B00E4622
:102E8000DDE90E811446DDE910251F4630B329B374
:102E9000DFF850C000F1F009002D08BF65469EB96B
:102EA000CDE9034400F5E2742046059614F07AFA61
:102EB00003ABCDE900432A463B46414648460CF069
:102EC00089FA07B0BDE8F083002241460E924846D9
:102ED0002A4607B0BDE8F0430CF0D2BB6FF01500F6
:102EE000EFE700BFD12D0000F0B50E46044689B0D3
:102EF000002872D0436B0BB9394B43630123224640
:102F0000E3630023D4F8981004F1400042F8301F26
:102F1000CDE901334FF0FF330093D4F89C3013F028
:102F200061FD304A06AB92E8030083E803001846CF
:102F30000BF09CFE0546D8B904F134000BF078FE86
:102F40000546A8B9616B284805AA13F02DFD054672
:102F500070B9059B9A6872B10C33D4F89400C4F828
:102F6000A03011F0BAFAC4F8D40030B96FF00B05F4
:102F7000284609B0F0BD0346EFE7D4F8940011F0FD
:102F8000ACFAC4F8D8000028F0D0D4F88C30D4F8CB
:102F9000A010C4F8A8300423C4F8AC30C4F8C4307E
:102FA0000223A362114BB4F89420D4F8D470C4F86F
:102FB000B810C4F8D010D4F89010236204F1A40320
:102FC000A4F8B020C4F8A470C4F8C010A4F8C820B5
:102FD000C4F8BC00A661E362CAE76FF01505C7E755
:102FE0002C910100407E0100369101001C800100FF
:102FF00030B5002289B00F490F4814F0C0FB002201
:1030000000230024CDE906230E230C4DCDE9033423
:103010004FF400622846CDE90144094B0949009468
:103020000EF0DEF90849284614F006FB204609B0E8
:1030300030BD00BF91310000F00F0020680B002070
:103040007D340000102900203E9101002DE9F04759
:10305000044607464FF00109DFF8508014B938469E
:10306000BDE8F08794FAA4F5B5FA85F509FA05F3F9
:103070002E0108EB05156FEA030A24EA03042B7BF3
:10308000002BEBD058F806301B694BB946447368E7
:1030900004222846196807EA0A0700F0FBFADDE770
:1030A000284698470028D9D1F0E700BF287E0100C4
:1030B0002DE9F047DFF8B8902E4C8046A9EB0403C9
:1030C0008F2B0F460BD92C4940F23F132B4A2C482B
:1030D00010F0DBFE40F23F11284810F0CDFE2948E9
:1030E00011F04DFA064660B300252846BDE8F0878A
:1030F000237B6BB12368DB680BB1204698472368BC
:103100001B69B3B9636804222046196800F0C2FA4B
:10311000013610344C4518D91B494FF4A673174A91
:10312000174810F0B2FE194810F0AFFE4FF4A67128
:10313000D2E7204698470028E4D00AFA06F31D4358
:10314000E6E705464FF0010AE4E7D1D3B8F1000FF6
:10315000CBD0002DC8D02846FFF778FF0546002FBA
:10316000F7D000214FF4A4700FF036F9F1E700BF5B
:10317000387E0100287E0100739101004691010014
:103180006B890100B8170020A3910100C4910100D0
:1031900001480DF071B900BFE4050020014B53F860
:1031A000200070475C80010008B5034608462BB13B
:1031B000044A136000F0ACFD002008BD6FF015005C
:1031C000FBE700BF3402002010B5044C237813B98C
:1031D00003480DF051F90123237010BD6024002035
:1031E000E405002010B50446094811F0C8F93CB1C7
:1031F000084BD3E8EF1F0139C3E8E21F002AF8D1DA
:10320000054814F0C8FABDE8104004480DF034B980
:10321000B0170020B4170020F00F0020E4050020B4
:1032200000200146034BD3E8EF0FC3E8E21F002A5A
:10323000F9D17047B017002070B5FFF7F1FF0546D0
:103240000F4C104EB44219D90F4940F2FF130F4AE8
:103250000F4810F01AFE0F4810F017FE40F2FF1151
:103260000A4810F009FE63685B792BB123685B683C
:1032700013B12946204698471034E3E7F3D370BDD5
:10328000287E0100387E0100A391010046910100D3
:103290006B890100C491010010B5044C044920461B
:1032A000FEF71EFD034B1C6010BD00BFD4040020C0
:1032B00048800100A817002008B50023074A4FF4F2
:1032C00000411370064A07481360074A1360FFF76E
:1032D0006BFFBDE80840FFF7DFBF00BF612400209F
:1032E000B01700207B450100B417002001460022E2
:1032F00000230148FEF726BDD40400200148FEF754
:103300003BBE00BFD4040020024B01461868FEF704
:10331000BBBE00BFA81700200148FEF727BF00BFB3
:10332000D404002070B52E4B1878002857D0FFF732
:10333000E5FF054640B32B4BD3E8EF1F0139C3E847
:10334000E21F002AF8D1284C284EB44218D9284947
:1033500040F2F313274A284810F097FD274810F051
:1033600094FD40F2F311234810F086FD63685B7909
:1033700023B12368294620461B6898471034E4E7A8
:10338000F4D32846FFF7C0FF1D4B1E4C1B68002BD3
:1033900019DD14F0ADF94FF47A72A0FB020302FBC1
:1033A0000131C30B43EA4143D4E900209B1A40F2A8
:1033B000E9324FEAD13161EB0001934271F1000132
:1033C00001D3FFF739FFD4E9003213F57A7342F1E4
:1033D0000002C4E90032BDE87040FFF79DBF70BD38
:1033E00060240020B4170020287E0100387E0100F0
:1033F000A3910100469101006B890100C491010075
:10340000B0170020E80F002070B5154D297829BBB2
:103410000120FFF74DFE134C134EB44217D9134948
:103420004FF4DC73124A134810F02FFD124810F0CD
:103430002CFD4FF4DC710E4810F01EFD63685B79C3
:103440001BB1236820469B6898471034E5E7F5D305
:10345000FFF768FF0028FBD101232B7070BD00BF70
:1034600061240020287E0100387E0100A391010024
:10347000469101006B890100C49101002DE9F047DC
:10348000304B314FFB1A1B090BD1304940F29233BC
:103490002F4A304810F0F9FC40F292312C4810F0DD
:1034A000EBFC00210846FFF703FE044650B340F250
:1034B00067684FF0000914F08DFA274B274A1B5814
:1034C000136033B1264B1B68092B02DD25480CF035
:1034D000D3FF0025DFF88CA044B12046FFF7B6FDEE
:1034E000044618B94FF0FF384FF0FF39FFF71AFFC5
:1034F000064628B95DB942464B4650460CF0FEFFE1
:103500003546E9E74FF0FF384FF0FF39D3E70D4D6F
:1035100008E0F0D22B689B691BB1002228461146B7
:1035200098471035BD42F4D90F4940F28633084A16
:10353000084810F0AAFC0D4810F0A7FC40F28631B4
:10354000ACE700BF287E0100387E0100E391010056
:10355000469101006B89010008000000AC170020B3
:10356000B4170020E4050020A3910100C4910100DC
:1035700013B52C4811F003F82B4B1B78002B35D0DA
:10358000EFF31184202383F31288BFF36F8F274852
:103590000FF014F968B98823254A2649264810F007
:1035A00074FC2249254810F070FC8821204810F056
:1035B00063FC1E480FF026F9FFF7B4FE1B480FF01E
:1035C0000BF968B940F23113194A1D491A4810F035
:1035D0005CFC16491B4810F058FC40F23111E5E73D
:1035E00084F31188BFF36F8F02B010BD164B1B68B8
:1035F000002BF9D050B9002200231448CDE9002354
:103600004FF4004200230FF02DFCEDE70928EBD129
:103610000E4814F0C0F80E4802B0BDE810400CF09F
:103620002BBF00BFB417002061240020A417002086
:103630003D8F01006A8F01006B8901007F8F0100BF
:10364000958F0100AC8F0100AC170020F00F002017
:10365000E405002010B5064B04461B689847214638
:10366000A0600448FEF730FCBDE81040FFF780BFC3
:1036700034020020D4040020044A054B9B1AB1EB0D
:10368000D30F34BF52F8310000207047507D010045
:10369000287E01000E4B10B5C31A1B110133DBB29B
:1036A00048B90C490C48DF230C4A10F0EEFBDF212F
:1036B0000A4810F0E1FB4468237143689A710122C3
:1036C0004368196043685A71BDE81040FFF77CBD3C
:1036D000287E0100839201006B8901004B9201005A
:1036E0002DE9F04F8FB0C1F34A2804AF0D46914643
:1036F000B8607B600C0DB8F1000F68D000264FF069
:10370000040B4FF00A0A07F11403C7F80C80C7E94D
:1037100007667E620193CDF808B0CDF800A007F1EE
:103720001C0332464846F968FEF784F8B0F5006F8E
:1037300003461CD36C468AB0D9F8041004AB2C485D
:103740001A46C3E9050140F2FF71D9614FF40071D7
:103750001984284B42F8103F4FF412513346264843
:10376000FFF7BEFFA5462C37BD46BDE8F08FC0F37E
:103770000A0804F11700184420F0070080083B6095
:10378000FFF7B4FD68F35325044640B33B6800F1EE
:103790001001C7E9083607F11403F961CDE900A368
:1037A000CDF808B04846154AF96807F11C03FEF742
:1037B00041F8002813DA124912484FF4A373124A51
:1037C00010F063FB4FF4A3710F4810F055FB04F1A8
:1037D000170020F007008008FFF788FD044668F313
:1037E00053252A4620467B68B96810F0FAFEBAE7EE
:1037F000A392010004000001D07D0100B745010043
:103800000F9301006B890100E29201002DE9F04F56
:1038100087B00446DDE9106ADDE9127993469846DF
:10382000039127B33B46524610210020CDF800906B
:10383000CDF81490FDF7E8FD051E0BDA264940F29D
:103840006513264A264810F020FB40F265112348F4
:1038500010F012FBB5F5006F0ADB40F2FF73022196
:10386000204A214807B0BDE8F04F10F013BF3D4695
:1038700006F11700284420F007008008FFF736FD06
:1038800004F007040BF0070BE40044EA8B1444EA4D
:10389000452444EA06540646A0B19FB13B46524631
:1038A0002946CDF800901030FDF7AEFD002809DA6A
:1038B000094940F28513094A094810F0E6FA40F236
:1038C0008511C4E7434622463046039907B0BDE858
:1038D000F04F10F086BE00BF0E930100E29201008F
:1038E0006B89010018930100D07D0100406820B170
:1038F000034BC01A40F3CF0070474FF0FF307047C2
:10390000507D01000EB403B503AB53F8042B014600
:103910000448019301F036FC02B05DF804EB03B0FB
:10392000704700BF45390000CA0605D48B064CBF5E
:1039300002490349FFF7E6BF704700BFC79E010079
:10394000ECCB010038B54B6805461A68CB680C46CD
:103950009A4202D1084610F0C1FE6368D3E8EF2F07
:10396000511CC3E8E01F0028F8D1A3689D54636888
:103970001A68E3689A4209D9054906487B23064A32
:1039800010F083FA7B21044810F076FA002038BD4D
:103990007F9301006B890100509301002DE9F04FE6
:1039A00089B09B46149B9DF84CA00693159B04463A
:1039B0000593169B0D469046179E0493BAF1000F8F
:1039C00000F0AD80BAF1040F0BD9A34940F24D23AA
:1039D000A24AA34810F059FA40F24D219F4810F036
:1039E0004BFA06F48073079310F0E3FD06F002092A
:1039F000024600283FD020469A49FFF783FF07463A
:103A0000B9F1000F08D016F0440F36D12A462046EF
:103A10009549FFF777FF074406F0010353B1934B35
:103A2000204653F82A20924B9249002A08BF1A4692
:103A3000FFF768FF06F48073002B4AD006F00803F6
:103A4000002B64D1B8F1000F67D0424620468A4966
:103A5000FFF758FF0546069B3D44002B6ED1049BA3
:103A6000002B40F08380F30700F1F08031462046C0
:103A7000FFF75AFFE4E00746C2E7804B18680028CA
:103A8000C9D07F4B4FF47A791B684FF46161B5FB65
:103A9000F3F5B5FBF0F300FB135509FB05F5B3FB9C
:103AA000F1F2B5FBF0FE4FF03C0C01FB123100FBD4
:103AB0001E55B1FBFCF309FB05F5B5FBF0F50CFB5E
:103AC000131120460091CDE901E56E49FFF71AFF79
:103AD000A1E706F00803EBB16B4B204653F82A2010
:103AE0006A49FFF70FFF0546B8F1000F05D04246BF
:103AF00020466149FFF706FF0544BBF1000FAAD03D
:103B00005A4620466249FFF7FDFE0544A3E74FF001
:103B1000000BE1E706F00805E6E745469BE7BBF149
:103B2000010F069B06D1DBB9049B002B00F08880B7
:103B300000251BE0002BF7D0564812E056482246DD
:103B4000069B564910F031F900280CDA544940F22E
:103B5000A723424A424810F098F940F2A7213DE7D6
:103B60004D485546EBE7049B002B65D0DFF83481C8
:103B7000DFF83491049F3146102F204628BF1027CC
:103B80004FF0000BFFF7D0FE5D4542DC059B494638
:103B900020461A78FFF7B6FE4FF0010B1BF0070F17
:103BA00003D141462046FFF7ADFE5F4538D9059B5E
:103BB0004946204613F80B20FFF7A4FE0BF1010B3A
:103BC000BBF1100FEAD14FF0000B20463749FFF749
:103BD00099FE5A46059B20469A5CA2F120015F2976
:103BE00028BF2E223249FFF78DFE0BF1010BBBF1EE
:103BF000100F1AD01BF0070F03D141462046FFF7E4
:103C000081FE5F455A46E5D841462046FFF77AFED9
:103C1000EBE741462046FFF775FE0BF1010BB3E7DA
:103C200020462449FFF76EFEC8E7059B3B440593F9
:103C3000049BDB1B04939DD1BAF1000F7FF413AFFB
:103C4000204609B0BDE8F04F10F048BD2046084AB4
:103C50000849FFF757FE09E7B493010050930100AC
:103C60006B890100C0930100C49301006C800100C6
:103C7000AF930100E0A50100E9930100C017002007
:103C8000BC170020CD93010080800100ED9301005E
:103C9000F3930100F746010045390000855100000B
:103CA000F8930100B8CB01000194010007940100D2
:103CB00009940100B6CB010042F20F7373B58B4239
:103CC00028BF0B4605680446052168460D4A0FF0DB
:103CD00001FC0646636828460B225B680A4910F01F
:103CE000EFFC63683246694628465B6810F0E8FCE2
:103CF00063681B2228465B68044910F0E1FC02B0AF
:103D000070BD00BFAAA20100289401000C9401001C
:103D100000210123064A904206D8064A01B9012330
:103D20001360054B18607047012140085B00F2E703
:103D300040420F00BC170020C0170020F8B50D4608
:103D40000446064F4618B44201D12846F8BD14F87F
:103D5000011BBB6801485B689847F4E79C7A010047
:103D600010B543681C68094813F049FB48B9084975
:103D700008489923084A10F088F89921064810F05D
:103D80007BF823685B685C6010BD00BF9C7A010013
:103D9000929401006B89010054940100014B03606F
:103DA00000207047C880010008B5044810F057F89B
:103DB000BDE80840024810F052B800BFC6940100A8
:103DC000FB9401000449431E0F3013F8012F8A5C55
:103DD00083421A70F9D1704729950100F0B5074662
:103DE000264E8DB001AD0C460FCE0FC50FCE0FC5C0
:103DF00096E8070085E807003846002F39D0002CE8
:103E000039D0381F0246214610344B780D781B04F8
:103E100043EA0563CD7804312B4311F8025C8C42F0
:103E200043EA052342F8043FEFD10421144C8A07EA
:103E3000036916D1C3F30742A55C1A0EA25C42EADD
:103E40000562C3F30725655DDBB2E35C42EA054228
:103E500042EA032221F0030330336B4453F82C3C35
:103E6000534050F8042F013153402C290361DED117
:103E700001200DB0F0BD2046FBE700BF487E0100E9
:103E8000299501002DE9F04F002703689DB00293AA
:103E90004368DFF8BCA103938368DDE9024604931D
:103EA000C36805930369DDE904BE0693436907937C
:103EB0008369DDE9062C0893C36998460993089B3A
:103EC0000093CD590CAB2DBA5AF8049BDD514FEA43
:103ED000F223A94483EAB213009D83EA72634B4440
:103EE00025EA020502EA0C0985EA09052B44434448
:103EF00086EA0B054FEA743888EAB408254006EADA
:103F00000B0985EA090588EAB4580437A844402F0C
:103F100003EB0E054344DE46DDF8008040F0888068
:103F20004FF0100A4B490A9151460AF1010A0DF16E
:103F3000700E0AF00F070EEB870757F8407C01F070
:103F40000F094FEAB748019788EAF71801F10E0701
:103F500007F00F070EEB870757F8407C09314FEA4F
:103F6000F74E8EEA774ECDF82CE001F00F010DF1FF
:103F7000700E0EEB81010EEB890959F840EC51F8F7
:103F8000401CBAF1400F7144DDF804E088EADE0815
:103F9000DDF82CE041448EEA972E714405EA0208D0
:103FA0004FEAF52E2CEA050787EA08078EEAB51EC8
:103FB000DDF828808EEA756E774458F804EF49F8EA
:103FC000401C77440F4400994FEA733E394484EA19
:103FD0000607CDF828808EEAB30E07EA030704EA45
:103FE00006088EEAB35E87EA080777440F4401EBC0
:103FF0000B0ECDF800C0B34622D1029939440160BE
:1040000003991944049B416023448360059B334416
:10401000C360069B73440361079B2B444361089B69
:1040200013448361099B6344C3611DB0BDE8F08FF5
:10403000B346CDF800C0264694461C462A4640E7C3
:10404000944626462A461C4675463B466CE700BF0A
:10405000C88001000481010010B50446C8B1702277
:10406000002110F0CBFB0B4B0B4A0C49C4E9002399
:104070000B4B0C48C4E902130B4BC4E904030120A9
:104080000A4BA36103F17453A3F52303A3F69243F0
:10409000E36110BD85AE67BB67E6096A72F36E3CEB
:1040A0003AF54FA57F520E518C68059BABD9831F03
:1040B00001480FF0CDB800BFC881010038B50446F3
:1040C00018B90F4B0F485B6898476168B1F5683FB6
:1040D00010D0B1F5680F0DD00B4DA9420AD011F4E4
:1040E0006861206807D0014608480BF0B9FE00233C
:1040F0002360656038BD142213F0C7FBF9E700BFE9
:1041000058040020299601002C5F5CA9F01C0020B7
:1041100008B560B34368B3F5683F0ED0B3F5680FD8
:1041200018D0144A934220D000684FF0FF324FF06D
:10413000FF330BF03BFF58B115E001220368D3E8D1
:10414000EF1F002903D1C3E8E02F0028F7D10AD1DF
:10415000002008BD0368084A1B7803F5807352F8F5
:104160002330002BF4D00548F3E70548F1E76FF45E
:10417000E040EEE72C5F5CA900000350E98FFFFFF1
:10418000EA8FFFFF08B520B34368B3F5683F09D055
:10419000B3F5680F13D0114A93421DD000680BF09D
:1041A000D5FF14E000220368D3E8EF1F012903D1F3
:1041B000C3E8E02F0028F7D109D0094808BD002145
:1041C0000368084A1B7803F5807342F82310002027
:1041D000F4E76FF4E040F1E70348EFE72C5F5CA9F8
:1041E000E98FFFFF00000350EA8FFFFF10B5044680
:1041F00018B91D4B1D485B6898476368B3F5683F65
:104200002FD0B3F5680F2CD0194A934219D12368E7
:1042100003BB4FF0FF324FF0FF33214615480BF040
:1042200093FD08B923681BB90F4B13485B68984787
:1042300014220021206813F028FB4FF468636360A8
:1042400008E0B3F5683F0DD83A2B03D040F6BA62C8
:104250009342DED1206813F03BF9636843F03A03E0
:10426000636010BD054AF3E7580400202996010059
:104270002C5F5CA9F01C00204F9601003A00003A28
:1042800008B5064940231422054813F00AF9BDE891
:104290000840044904480FF04DB800BFF017002053
:1042A000F01C0020D0810100E48101002DE9F047DD
:1042B00006460C4600AF002936D0D1E90012E94687
:1042C0008AB06D46A3684FF0050AA8461F48C5E9A5
:1042D0000723C5E9050148F810AF002342464FF413
:1042E00021511B48FFF7FCF9D4E90312CD4663695D
:1042F000AD461848C5E90723C5E90501C5F810A072
:10430000002342464FF421511148FFF7E9F9CD4609
:10431000E3690121104A0E4810F0BCF9A36901219C
:104320000E4A0B4810F0B6F9012E07D1EFF30583C2
:104330000B4A31460648103B10F0ACF92146304696
:104340000BF0E6F9BD46BDE8F08700BF7C960100A2
:10435000087E0100AB960100DA960100E9960100A3
:104360001797010030BFFFF7FDBF00BF2DE9F041F7
:1043700005460B4EDFF82C80324606EB0807CC1BB7
:104380002046094913F074FAA01942460021083C5E
:1043900013F07BFA6C6707F10800BDE8F08100BFFD
:1043A0000000000004000000387E0100074A936806
:1043B00093F90E10002907DB526993421FBF044A8C
:1043C000536843F080535360704700BF04220020BD
:1043D00000ED00E070B5344C06460D4633483449D4
:1043E00010F05FFEA36AD9064DD53048314910F070
:1043F00058FE1120A36A1A0704D52C482E4910F044
:1044000050FE1220284CA36A9B0712D52B4927483F
:1044100010F047FE636BA26A110609D50121284AF4
:10442000224810F037F91EB1A36A23F08003A3627B
:1044300013201D4CA36ADA0704D51C48214910F04B
:1044400030FE1420A36A9B0604D518481E4910F0BC
:1044500028FE1520144B9A6AD60602D49A6A94074D
:1044600013D59B6AD90610D5184940F26313184A30
:1044700018480FF00AFD18480FF007FD40F26311CD
:1044800013480FF0F9FC1020B4E7074B9A6A920624
:1044900042BF5A6A22F400525A629A6A42F0FF02FC
:1044A0009A6200232B7070BD00ED00E0087E0100D1
:1044B0002A97010040970100739701008697010039
:1044C0009E970100B4970100D39701003498010032
:1044D000029801006B8901007E98010010B5244C00
:1044E0002449254810F0DDFDA36A99013ED52248F4
:1044F000224910F0D6FD1E20A36ADA0104D51E4819
:104500001F4910F0CEFD1F20194CA36ADB0204D511
:1045100019481C4910F0C5FD0220A36A1C0304D5EC
:104520001548194910F0BDFD2120114CA36A59030B
:1045300004D51148154910F0B4FD2220A36A9A034E
:1045400004D50D48124910F0ACFD2320084CA36A95
:10455000DB0304D508480F4910F0A3FD2420A36A0B
:104560006FEA03436FEA1343A36210BD1D20C3E744
:1045700000ED00E0E2980100087E0100FA980100D9
:104580000D99010027990100519901006F990100CF
:1045900094990100AE99010070B5294C06460D466C
:1045A0002848294910F07DFDA36AD9043CD5254847
:1045B000264910F076FD1720A36A1A0504D5214874
:1045C000234910F06EFD18201D4CA36A9B0512D5DF
:1045D0001C48204910F065FDA36BA26A100409D5A0
:1045E00001211D4A174810F055F81EB1A36A23F4A3
:1045F0000043A3621920124CA36A590504D511483F
:10460000164910F04EFD1A20A36ADA050ED50D48A2
:10461000134910F046FD1B20094A936A43F47F4377
:10462000936200232B7070BD1620C5E7A36A9B041C
:10463000F2D504480B4910F034FD1C20ECE700BF14
:1046400000ED00E0087E0100D9990100EF9901001A
:1046500073970100009A0100199A01002E9A010037
:10466000499A0100D3970100F0B58BB0784B04460E
:104670005868002600AFC0F3080386F31188BFF323
:104680006F8F02F07F45B5F17F4F07D102F00C0527
:10469000082D12D16F49704810F003FD6F494FF497
:1046A0008B636F4A6F480FF0F0FB6F480FF0EDFB24
:1046B0004FF48B616A480FF0DFFB15074CBF0C46C7
:1046C0000126002CEAD00022FA71DA1E092A00F233
:1046D0009D80DFE802F0059396769B9B9B9B9B99C0
:1046E00062495D4810F0DDFC0023594DFB71EB6A17
:1046F0009A0705D55E49584810F0D3FC002329E0FD
:10470000EB6A002B01DA5B49F5E7EB6A5B0068D5E1
:104710005949514810F0C5FC6B69A26943F4807394
:104720006B61BFF34F8FBFF36F8F6B6932F8022C51
:1047300023F480736B61BFF34F8FBFF36F8F4DF620
:1047400002739A4227D1236801214C4A42480FF054
:10475000A1FF2368FA79DAB907F1080504F1200C02
:104760002A4620686168083403C264451546F7D1BB
:104770007A6A002E66D0C2F3080121B96FEA52228C
:104780006FEA42227A62184607F10801FFF78EFDB0
:104790002C37BD46F0BDAB6ADBB22BB10120F91D51
:1047A000FFF718FE0346D5E7AB6A13F47F4F04D03A
:1047B0000120F91DFFF7F0FEF4E7AB6AB3F5803F87
:1047C00002D3FFF78BFEEDE72D4940F22A33244A4E
:1047D00024480FF05AFB2B480FF057FB40F22A31C8
:1047E00068E7274940F22E331D4A1E480FF04DFB63
:1047F00025480FF04AFB40F22E315BE70020F91DFF
:10480000CEE70020F91DD5E7204974E7204A6D4620
:1048100010F4F87F8AB01F4918BF11466A46103B52
:10482000D3614FF400731C4813841C4BC2E905018B
:1048300042F8103F00234FF411510748FEF750FF94
:10484000AD465BE722F4FF7222F001029AE700BF57
:1048500000ED00E08F9A0100087E0100BA9A010085
:10486000029801006B890100CD9A01000B9B0100A9
:10487000229B0100439B0100519B0100709B0100A2
:10488000F9D801008C9B0100B09B0100E09B010066
:10489000769A0100619A0100049C01000400000165
:1048A000064B5A6942F010025A615A6942F480621A
:1048B0005A615A6922F008025A61704700ED00E01F
:1048C000EFF30880EFF3098101B57246FFF7CCFEE4
:1048D00001BD00BF002080F31488BFF36F8F00205C
:1048E00080F30A8880F30B8808F0E0FE00200E4970
:1048F0000860BFF34F8F0D4880F3088800F02CF854
:10490000202080F311880A484FF40061401880F39A
:104910000988EFF314800221084380F31488BFF361
:104920006F8F00F01FF9000094ED00E08865002013
:10493000483C0020002318460649D1F89020C2F3D5
:104940000722934200DB7047C1F89830C1F8A000FD
:104950000133F6E700ED00E010B572B6002484F3F1
:104960001388FFF7E7FF23464FF0FF300C4A03F1AF
:1049700020010133102B42F82100F8D100234FF021
:10498000FF30074A03F160010133102B42F8210088
:10499000F8D162B6BFF34F8FBFF36F8F10BD00BF6A
:1049A00000E100E0084B9B6883420BD1EFF30583E5
:1049B00043B1064B5A6842F080525A605A6A22F458
:1049C00000425A620DF044BD0422002000ED00E0D8
:1049D0006FF00A01084A9368D967084998674B68DD
:1049E00043F080534B60002383F31188BFF36F8F34
:1049F0009368D86F704700BF0422002000ED00E0EC
:104A0000EFF31183202383F31288BFF36F8F4FF0EE
:104A10000061084A53699360074A5160596F074A19
:104A2000116000219A6F996782F31188BFF36F8F2D
:104A3000704700BF0422002000ED00E0101D0020A0
:104A40000E498A684FF030001044EFF3098C80E87B
:104A5000F01F74467046FFF7D3FFA64607498A68E1
:104A600002F1300090E8F01F8CF3098802F1000099
:104A700004B510F01EFBBDE804407047042200207E
:104A80001EF0040F0CBFEFF30880EFF3098081697B
:104A900011F8021C0229FFD001B510F0F7FA01BD90
:104AA00040B2002807DB01234109034A00F01F0040
:104AB000834042F82130704700E100E040B2002816
:104AC0000CDB01220649430900F01F00824020331D
:104AD00041F82320BFF34F8FBFF36F8F704700BFA4
:104AE00000E100E0054B420953F82220012300F0C9
:104AF0001F0003FA00F01040704700BF00E100E023
:104B000038B54B1C072B04460D460FD95823104AC5
:104B1000104911480FF0B9F92946104807232246D9
:104B20000FF0B3F958210A480FF0A6F940B2002857
:104B3000ACBF00F160400A4A4FEA4313DBB2ABBF9F
:104B400000F5614000F00F0080F80033135438BDC9
:104B5000179C01004E9C01006B890100699C0100BB
:104B600014ED00E00B4A08B50B4B22F07F029A606F
:104B7000BFF34F8FBFF36F8FD3F8882022F47002FA
:104B8000C3F888200AF0ECFE0DF044FE00F04CF86B
:104B90000AF026FF0000000000ED00E042F8203C93
:104BA000009B0B4942F81C3C019B21F0010142F89B
:104BB000183C029B42F8081C42F8143C4FF08073EA
:104BC00042F8043C0023203A02658367704700BF27
:104BD000AD1C000000B50D4B15469860426F0C4BA4
:104BE0000E461A60436E83F30B882C4686F30988C1
:104BF0004FF00000074B984720464FF000014FF060
:104C000000024FF00003044C204700BF04220020A4
:104C1000101D0020BB500100AD1C00001022014BF4
:104C20001A61704700ED00E0002320210348C218FC
:104C30000133452B82F80013F9D1704700E100E001
:104C400008B5EFF30583064A103B02EBC30152F8A7
:104C5000330049688847BDE80840FFF7A7BB00BF9D
:104C6000EC7A01001FB5094C094A23460121094885
:104C700000F012F900230393074B0121E41A01A865
:104C80000193029400F02CF904B010BD000007203D
:104C900000000020F4810100D007002010B50C7A3C
:104CA0000B6804F01F0223F01F031A43CB6864094A
:104CB00023F01F03054943EA440343F00103C1F80D
:104CC0009800C1F89C20C1F8A03010BD00ED00E0B4
:104CD00010B50A4BD3F89030C3F30723013B984239
:104CE00008D901210346064A06480FF0D3FC6FF0AD
:104CF000150010BDFFF7D2FFFBE700BF00ED00E09D
:104D0000AD9C0100F07D01002DE9F04F894614466D
:104D100006464FF00008514D85B0C84527DAD6F851
:104D200004A0BAF1000F44D0BAF11F0F17D91AF03E
:104D30001F0F14D1D6F800B01BF01F0F0FD158462B
:104D400010F0F7F907460AEB0B00013810F0F1F903
:104D5000874210D06FF01507414A3B4601E04346B9
:104D6000404A012140480FF095FC6FF015042046A1
:104D700005B0BDE8F08F17F1160FEDD0BC42EBDDAA
:104D8000C5F89870D5F89C10C5F89870D5F8A03083
:104D900021F01F0143F01F0BD6E900321A4499425B
:104DA00002F1FF3A1DD1D34507D13146F8B210F0D8
:104DB000C9F908F101080C36AFE73146C5F898701B
:104DC000D5F89C3022F01F0203F01F031343C5F8EF
:104DD0009C30E0B210F0B6F910F1160FC5D0441CAB
:104DE000E7E7C5F89870D5F8A020013B23F01F0332
:104DF00002F01F021343D3453146E0B2C5F8A0309C
:104E0000E8D010F09FF910F1160FAED0C5F89870E9
:104E1000D5F89C209DF808300BF1FF3B62F30403AA
:104E20008DF80830D5F8A0309DF808205B0863F3B2
:104E300047128DF80820D6E900321344009323F07E
:104E40001F035B44A3EB0A03013023F01F036946F1
:104E5000C0B20393FFF73CFFBEE700BF00ED00E0E8
:104E6000F69C0100D39C0100F07D01000522044B5B
:104E7000C3F89420BFF34F8FBFF36F8F704700BF0D
:104E800000ED00E0BFF35F8F0022024BC3F89420D7
:104E9000704700BF00ED00E038B50C4D0C462A7895
:104EA000FFF732FF287016300FD14FF4B473084A61
:104EB000084909480EF0E9FF214608480EF0E5FFD1
:104EC0004FF4B47102480EF0D7FF38BD63240020C0
:104ED000199D0100F9D801006B890100489D01006E
:104EE0002DE9F74F314E894605464FF00008B3468D
:104EF0002F4FC84502DB03B0BDE8F08FD5F804A002
:104F0000BAF1000F4CD029680846019110F011F950
:104F1000019904460AEB0100013810F00AF98442B5
:104F20004FF01402234B15D002FB08F36FF015026B
:104F30004BF803204FF4BC731F4A204920480EF061
:104F4000A4FF49461F480EF0A0FF4FF4BC711A4859
:104F50000EF092FF14F1160F3460EBD01978A142D5
:104F6000E8DD02FB08B0C7F89840C7F89840D7F8CA
:104F70009C4000F10801007B64F304000871D7F83D
:104F8000A0000C79400860F347140C71D7F89C100E
:104F900021F01F017160D7F8A01021F01F013161CD
:104FA00008F1010814360C35A3E700BF141D0020DA
:104FB00000ED00E063240020199D0100F9D80100F4
:104FC0006B890100749D01002DE9F041574C584E4A
:104FD000D4F890303568C3F307239D4286B013D9C7
:104FE00040F29F13534A544954480EF04EFFD4F8F0
:104FF000902029465248C2F307220EF046FF40F2A5
:105000009F114C480EF038FF0020FFF73BFF4D4B3F
:10501000C4F8C03085421AD14B4C01A82570FEF768
:10502000BDFE002506464FF04108484FAE4215D15F
:10503000002023783D49D1F89020C2F30722934203
:105040006DDB0020FFF712FF06B0BDE8F08171684C
:1050500001EB0011FFF722FE0130DBE7019A290185
:1050600002EB0513D3F80CC00CEA0700B0F5001FE3
:1050700027D0B0F5800F40D0B0F5801F4DD15868D3
:1050800052589B68CDE902022122013B20F01F010A
:105090000B4423F01F038DF810200593207802A9FC
:1050A000FFF716FE002835DA234940F2C913214ADA
:1050B00022480EF0EAFE26480EF0E7FE40F2C91143
:1050C0009FE758689B685258013B20F01F010B4432
:1050D00023F01F031CF0010FCDE902028DF81080B0
:1050E0000593DBD01B496D23124A14480EF0CDFE08
:1050F00019480EF0CAFE6D2183E758689B68525824
:10510000013B20F01F010B44CDE9020223F01F03F5
:105110000622C0E7237801332370013586E7C1F802
:105120009830C1F8A000013385E700BF00ED00E032
:1051300000820100199D0100F9D801006B8901006E
:10514000A39D0100AAFF4400632400200000F0FF9B
:105150002C9E0100D79D0100FD9D010008B5024B6A
:105160001B689847002008BD281D0020034B044AF7
:105170001860937843F0020393707047281D002055
:1051800060020020F0B587B007460E4614460021A5
:10519000102268461D4612F078FB02238DF802307B
:1051A000054B2A4621466846CDE9047601930EF068
:1051B000BDF907B0F0BD00BF7751010008B5064941
:1051C000064821F00701C1F1005202F5E022FCF788
:1051D00081F8002008BD00BF67A300202C1D00201F
:1051E00070B541690446867A0A4D59B1437ADB07A6
:1051F00006D4342303FB0653DB6A1B689B6898477D
:10520000002363613420214606FB0050BDE8704056
:1052100012F089B9300600203422024B02FB003024
:10522000704700BF300600203421827A064B01FB14
:1052300002331A6B93F82430801A1B3323F00303D4
:10524000B0FBF3F0704700BF3006002038B53424BF
:10525000827A064B04FB0233DB6AD3E901240C603B
:105260001568FFF7E1FF04FB005038BD3006002051
:1052700008B5437A4BB10C495A230C4A0C480EF03E
:1052800004FE5A2109480EF0F7FD43683BB1094975
:105290005B23064A06480EF0F8FD5B21F2E7038225
:1052A0004369C36008BD00BF8A9E0100659E01007E
:1052B0006B8901009B9E01002DE9F04F054685B0EA
:1052C000684614469946039112F014FADDE9006726
:1052D00045B96549EE23654A65480EF0D6FDEE21D5
:1052E000624818E005F11C08EFF3118A202383F3CC
:1052F0001288BFF36F8F40460DF060FA68B98823BB
:105300005C4A5D495A480EF0C0FD41465B480EF0CC
:10531000BCFD882157480EF0AFFD40460DF072FAF3
:10532000B5F822B0BBF1000F5CD02B8C5B4539D9AE
:105330000022002328460BF033F80446002831D021
:1053400040460DF049FA68B940F23113494A4C49D8
:1053500047480EF09AFD41464A480EF096FD40F24D
:105360003111D7E78AF31188BFF36F8F039D002DAA
:105370006AD032463B46684612F0E0F93421A27A00
:10538000414B204601FB0233DB6A03A91B681E6800
:10539000DDE90023B0476061002845D12046FFF7D2
:1053A0001FFF3CE06C8C4046631E6B840DF014FACA
:1053B0000028C9D08AF31188BFF36F8F95F8243085
:1053C0002A8C1B33121B2C6B23F0030302FB0344B8
:1053D0002D4B2E4AEB1A9B105343A37295F82430A1
:1053E000E372C3E740460DF0F7F90028ACD08AF32A
:1053F0001188BFF36F8F54EA090308D012F0EAFA5C
:10540000234A244B12589A4204BF5C46A1462246C6
:105410004B4628460AF0C4FF04460028A6D10024C3
:10542000204605B0BDE8F08F039B9D420DD91A4977
:1054300040F24B130D4A0E480EF027FD17480EF0B0
:1054400024FD40F24B114BE76561012300212381CC
:10545000039BE27A6160638204F1180012F015FA8E
:105460002046FFF705FFDBE778B50100659E0100E8
:105470006B8901003D8F01006A8F01007F8F010061
:10548000958F0100AC8F010030060020C54EECC4A2
:105490000800000030160020B59E0100C69E0100E5
:1054A00070B50C46054658B928494FF4D373284ABD
:1054B00028480EF0EAFC4FF4D37125480EF0DCFCCE
:1054C00049B9254940F2A713214A22480EF0DDFCD4
:1054D00040F2A711F1E7EFF31186202383F312883E
:1054E000BFF36F8F1D480DF069F960B988231C4A1E
:1054F0001C4918480EF0C9FC18491B480EF0C5FCA1
:1055000088211748DAE715480DF07CF9002323605D
:105510006B689BB9C5E9004410480DF05DF980B98E
:1055200040F231130E4A11490A480EF0AEFC0B4905
:105530000F480EF0AAFC40F23111E2E71C606C60EB
:10554000EAE786F31188BFF36F8F70BD1CB20100CC
:10555000659E01006B89010010A50100381D002027
:105560003D8F01006A8F01007F8F0100958F010040
:10557000AC8F010070B5044658B92349234840F266
:10558000B313234A0EF081FC40F2B31120480EF011
:1055900073FCEFF31186202383F31288BFF36F8F20
:1055A0001C480DF00BF960B988231B4A1B491748AA
:1055B0000EF06BFC17491A480EF067FC882116485C
:1055C000E5E714480DF01EF925682DB162682B68D7
:1055D0009542236008BF63600E480DF0FDF868B97E
:1055E00040F231130C4A0F4908480EF04EFC0949AD
:1055F0000D480EF04AFC40F23111E0E786F31188C5
:10560000BFF36F8F284670BD1CB201006B8901008B
:10561000659E0100381D00203D8F01006A8F01004A
:105620007F8F0100958F0100AC8F010070B504469B
:1056300098B13426104D2046037A6468013BDBB2F2
:1056400003724BB9C3604360837A06FB03539B6AC2
:105650007BB19847002CEED170BD084908484FF443
:10566000E673084A0EF011FC4FF4E67105480EF09F
:1056700003FCFFF7B5FDEDE73006002010A50100A3
:105680006B890100659E010008B558B907490848B3
:105690004FF4FB73074A0EF0F8FB4FF4FB7105481B
:1056A0000EF0EAFB027A0132027208BD10A5010079
:1056B0006B890100659E010008B5034658B9084989
:1056C000084840F24123084A0EF0DFFB40F2412136
:1056D00005480EF0D1FB18465B68002BFBD108BDD6
:1056E00010A501006B890100659E010070B50D4693
:1056F000044658B90F494FF413730F4A0F480EF080
:10570000C4FB4FF413710C480EF0B6FB49B90C49B9
:1057100040F24D23084A09480EF0B7FB40F24D21F4
:10572000F1E746681EB10846FFF7C6FF46606560B0
:1057300070BD00BFECA10100659E01006B890100F6
:10574000C99E010038B505460C4659B90C490D48AB
:105750004FF416730C4A0EF098FB4FF416710A487A
:105760000EF08AFB20B9BDE838400846FFF78CBF31
:10577000FFF7A2FF2146FFF7B9FF284638BD00BF5B
:10578000C99E01006B890100659E010008B548B9FA
:105790000B492B230B4A0C480EF077FB2B210948B1
:1057A0000EF06AFB83883BB108492C23054A064862
:1057B0000EF06BFB2C21F2E783680B44036008BDFD
:1057C00010A50100D69E01006B890100029F010017
:1057D00008B5034600689A68821A91420BD90949B4
:1057E000094840F25513094A0EF04FFB40F255119B
:1057F00006480EF041FB9A88401A114418609980BF
:1058000008BD00BF219F01006B890100D69E0100E9
:1058100008B5828803468A420BD20949094840F2FA
:10582000C313094A0EF031FB40F2C31106480EF0D3
:1058300023FB521A828000680844186008BD00BF2C
:10584000119F01006B890100D69E010008B5034637
:105850009A8800688A420BD20849094840F2CF135F
:10586000084A0EF012FB40F2CF1106480EF004FB7E
:10587000521A01449A80196008BD00BF119F0100AF
:105880006B890100D69E0100F8B5858803680E4635
:1058900004465F190FF099FCB04209D20649074847
:1058A0003E23074A0EF0F1FA3E2105480EF0E4FAD5
:1058B0003544A5803846F8BD459F01006B8901003D
:1058C000D69E010008B543090DD0012B1CD0134909
:1058D00013484FF46C73134A0EF0D7FA4FF46C71FF
:1058E00010480EF0C9FA4FF0FF33C340DA07EED587
:1058F0000D4B03EB8003D3F8002222F0E04242EA92
:105900000171C3F8001208BD4FF6FF7300F01F00CD
:10591000C340DB07DBD5054BEBE700BFAB9F0100C6
:105920006B890100789F0100002584500028845075
:1059300038B50124134B144DC3F80045022303214D
:10594000C5F8D0360020FFF7BDFF20460321FFF742
:10595000B9FFC5F804472146C5F804492120C5F818
:10596000004BFFF7AFFF21462020FFF7ABFF21469A
:105970000B20FFF7A7FF21460A20FFF7A3FF002017
:1059800038BD00BF001000500040005007B50DF1B9
:10599000070008F011F8114B98421CD14FF48062B7
:1059A0000F4B1049C3F8B8254FF40062C3F83C25EB
:1059B0009DF8070007F0BCFF0B499DF8070007F0B2
:1059C0009FFF01209DF80730984007F08DFF0020D1
:1059D00003B05DF804FB6FF00B00F9E70000AD0BBE
:1059E00000A002502CA0025028A10250052370B53F
:1059F000144D154E2C780134B4FBF3F303EB830301
:105A0000E41A10F033FF114A137823B156F824300A
:105A1000C01A072814D94FF05023D3F8141141B1FC
:105A20000021C3F81411D3F814312C700CB90123E0
:105A300013702C7810F01AFF46F82400012070BD76
:105A40000020FCE7652400203C1D00206424002089
:105A500048B1054B054A1B68B3FBF2F35843044BAE
:105A600043F00103184770478403002040420F00B1
:105A7000D07E0100014902480EF052BB3482010081
:105A8000501D00204FF47F032DE9F041D3F8302161
:105A90000646072A0D46D3F8343120D1023B032BAA
:105AA00002D8124AD35CD3B14FF050244FF0010812
:105AB00000270520C4F81886C4F8147610F0E6FE16
:105AC0004046C4F8148610F0E1FEC4F81476C4F819
:105AD000187630462B46BDE8F041002118474FF0BC
