:10000000085D0020B94300002B4A0100A543000011
:10001000A5430000A5430000A5430000A543000040
:100020000000000000000000000000006545000026
:10003000A54300000000000025450000A543000086
:100040002547000025470000254700002547000000
:1000500025470000254700002547000025470000F0
:1000600025470000254700002547000025470000E0
:1000700025470000254700002547000025470000D0
:1000800025470000254700002547000025470000C0
:1000900025470000254700002547000025470000B0
:1000A00025470000254700002547000025470000A0
:1000B0002547000025470000254700002547000090
:1000C0002547000025470000254700002547000080
:1000D0002547000025470000254700002547000070
:1000E0002547000025470000254700002547000060
:1000F0002547000025470000254700002547000050
:10010000254700002547000025470000254700003F
:10011000254700002547000025470000254700002F
:10012000254700002547000025470000254700001F
:10013000254700002547000025470000254700000F
:1001400025470000254700002547000025470000FF
:04015000254700003F
:1001540081F0004102E000BF83F0004330B54FEA74
:1001640041044FEA430594EA050F08BF90EA020FE1
:100174001FBF54EA000C55EA020C7FEA645C7FEA74
:10018400655C00F0E2804FEA5454D4EB5555B8BF97
:100194006D420CDD2C4480EA020281EA030382EA08
:1001A400000083EA010180EA020281EA0303362D9A
:1001B40088BF30BD11F0004F4FEA01314FF4801C6D
:1001C4004CEA113102D0404261EB410113F0004F7F
:1001D4004FEA03334CEA133302D0524263EB430336
:1001E40094EA050F00F0A780A4F10104D5F1200ED4
:1001F4000DDB02FA0EFC22FA05F2801841F100012F
:1002040003FA0EF2801843FA05F359410EE0A5F102
:1002140020050EF1200E012A03FA0EFC28BF4CF033
:10022400020C43FA05F3C01851EBE37101F00045E9
:1002340007D54FF0000EDCF1000C7EEB00006EEBF6
:100244000101B1F5801F1BD3B1F5001F0CD3490880
:100254005FEA30004FEA3C0C04F101044FEA4452D7
:1002640012F5800F80F09A80BCF1004F08BF5FEA5E
:10027400500C50F1000041EB045141EA050130BD3E
:100284005FEA4C0C404141EB0101013C28BFB1F550
:10029400801FE9D291F0000F04BF01460020B1FA9B
:1002A40081F308BF2033A3F10B03B3F120020CDA6E
:1002B4000C3208DD02F1140CC2F10C0201FA0CF04C
:1002C40021FA02F10CE002F11402D8BFC2F1200CB1
:1002D40001FA02F120FA0CFCDCBF41EA0C01904067
:1002E400E41AA2BF01EB0451294330BD6FEA0404B0
:1002F4001F3C1CDA0C340EDC04F11404C4F120029B
:1003040020FA04F001FA02F340EA030021FA04F3AC
:1003140045EA030130BDC4F10C04C4F1200220FA03
:1003240002F001FA04F340EA0300294630BD21FA41
:1003340004F0294630BD94F0000F83F4801306BF07
:1003440081F480110134013D4EE77FEA645C18BFFB
:100354007FEA655C29D094EA050F08BF90EA020F92
:1003640005D054EA000C04BF1946104630BD91EA8A
:10037400030F1EBF0021002030BD5FEA545C05D18D
:100384004000494128BF41F0004130BD14F58004CC
:100394003CBF01F5801130BD01F0004545F0FE4140
:1003A40041F470014FF0000030BD7FEA645C1ABF75
:1003B400194610467FEA655C1CBF0B46024650EAAC
:1003C400013406BF52EA033591EA030F41F40021D8
:1003D40030BD00BF90F0000F04BF0021704730B55E
:1003E4004FF4806404F132044FF000054FF0000133
:1003F40050E700BF90F0000F04BF0021704730B5F4
:100404004FF4806404F1320410F0004548BF4042C8
:100414004FF000013EE700BF42004FEAE2014FEA1D
:1004240031014FEA02701FBF12F07F4393F07F4FF8
:1004340081F06051704732F07F4208BF704793F0FB
:100444007F4F04BF41F40021704730B54FF460740E
:1004540001F0004521F000411CE700BF50EA010211
:1004640008BF704730B54FF000050AE050EA0102BA
:1004740008BF704730B511F0004502D5404261EB2A
:1004840041014FF4806404F132045FEA915C3FF46B
:10049400D8AE4FF003025FEADC0C18BF03325FEA08
:1004A400DC0C18BF033202EBDC02C2F1200300FAB9
:1004B40003FC20FA02F001FA03FE40EA0E0021FADE
:1004C40002F11444BDE600BF70B54FF0FF0C4CF4CC
:1004D400E06C1CEA11541DBF1CEA135594EA0C0F7E
:1004E40095EA0C0F00F0DEF82C4481EA030621EAB9
:1004F4004C5123EA4C5350EA013518BF52EA0335F4
:1005040041F4801143F4801338D0A0FB02CE4FF0A5
:100514000005E1FB02E506F00042E0FB03E54FF0D5
:100524000006E1FB03569CF0000F18BF4EF0010ECD
:10053400A4F1FF04B6F5007F64F5407404D25FEAC9
:100544004E0E6D4146EB060642EAC62141EA55517C
:100554004FEAC52040EA5E504FEACE2EB4F1FD0CBE
:1005640088BFBCF5E06F1ED8BEF1004F08BF5FEA3C
:10057400500E50F1000041EB045170BD06F00046EE
:1005840046EA010140EA020081EA0301B4EB5C049B
:10059400C2BFD4EB0C0541EA045170BD41F4801193
:1005A4004FF0000E013C00F3AB8014F1360FDEBFB8
:1005B400002001F0004170BDC4F10004203C35DA94
:1005C4000C341BDC04F11404C4F1200500FA05F317
:1005D40020FA04F001FA05F240EA020001F00042B8
:1005E40021F0004110EBD37021FA04F642EB06012E
:1005F4005EEA430E08BF20EAD37070BDC4F10C0458
:10060400C4F1200500FA04F320FA05F001FA04F21B
:1006140040EA020001F0004110EBD37041F1000107
:100624005EEA430E08BF20EAD37070BDC4F1200512
:1006340000FA05F24EEA020E20FA04F301FA05F27A
:1006440043EA020321FA04F001F0004121FA04F222
:1006540020EA020000EBD3705EEA430E08BF20EAF2
:10066400D37070BD94F0000F0FD101F0004640002C
:1006740041EB010111F4801F08BF013CF7D041EAAE
:10068400060195F0000F18BF704703F000465200B2
:1006940043EB030313F4801F08BF013DF7D043EA83
:1006A4000603704794EA0C0F0CEA135518BF95EA39
:1006B4000C0F0CD050EA410618BF52EA4306D1D1C0
:1006C40081EA030101F000414FF0000070BD50EADF
:1006D400410606BF1046194652EA430619D094EA69
:1006E4000C0F02D150EA013613D195EA0C0F05D153
:1006F40052EA03361CBF104619460AD181EA0301A7
:1007040001F0004141F0FE4141F470014FF000005E
:1007140070BD41F0FE4141F4780170BD70B54FF0F9
:10072400FF0C4CF4E06C1CEA11541DBF1CEA135579
:1007340094EA0C0F95EA0C0F00F0A7F8A4EB05045B
:1007440081EA030E52EA03354FEA013100F0888052
:100754004FEA03334FF0805545EA131343EA12631B
:100764004FEA022245EA111545EA10654FEA0026D0
:100774000EF000419D4208BF964244F1FD0404F589
:10078400407402D25B084FEA3202B61A65EB0305E5
:100794005B084FEA32024FF480104FF4002CB6EBA2
:1007A400020E75EB030E22BFB61A754640EA0C0022
:1007B4005B084FEA3202B6EB020E75EB030E22BF62
:1007C400B61A754640EA5C005B084FEA3202B6EBA3
:1007D400020E75EB030E22BFB61A754640EA9C0062
:1007E4005B084FEA3202B6EB020E75EB030E22BF32
:1007F400B61A754640EADC0055EA060E18D04FEAF0
:10080400051545EA16754FEA06164FEAC30343EA8F
:1008140052734FEAC2025FEA1C1CC0D111F4801F5C
:100824000BD141EA00014FF000004FF0004CB6E755
:1008340011F4801F04BF01430020B4F1FD0C88BFF4
:10084400BCF5E06F3FF6AFAEB5EB030C04BFB6EBFF
:10085400020C5FEA500C50F1000041EB045170BDF2
:100864000EF0004E4EEA113114EB5C04C2BFD4EB1F
:100874000C0541EA045170BD41F480114FF0000EA3
:10088400013C90E645EA060E8DE60CEA135594EA1F
:100894000C0F08BF95EA0C0F3FF43BAF94EA0C0F22
:1008A4000AD150EA01347FF434AF95EA0C0F7FF497
:1008B40025AF104619462CE795EA0C0F06D152EAEB
:1008C40003353FF4FDAE1046194622E750EA4106CF
:1008D40018BF52EA43067FF4C5AE50EA41047FF4E0
:1008E4000DAF52EA43057FF4EBAE12E710F8012B8B
:1008F40011F8013B012A28BF9A42F7D0D01A704759
:10090400034611F8012B03F8012B002AF9D1704793
:10091400034613F8012B002AFBD1181A013870473B
:1009240008B5034812F05DFF0022024B1A7008BD9F
:1009340018810100DC23002010B504468CB029B1D5
:100944001B480CB0BDE8104012F04BBF03A908F0DF
:100954008FFC014620B1174812F043FF0CB010BDC4
:10096400BDF82000FFF746FD0022134BFFF7ACFD56
:10097400BDF82430024603EB83035B009BB2019372
:10098400BDF822300D4800930B4612F02AFF0C4BA1
:1009940002A918680290204614F0FDFB014610B12C
:1009A400084812F01EFF0122074B1A70D6E700BF59
:1009B400328101004E8101000000F43F6D8101008D
:1009C40044780100B8810100DC2300204FF000418D
:1009D40030B50D4B0D481B680D4CD3F840550378CA
:1009E4002268D9400133DBB2202D8CBF0A438A43ED
:1009F4001F2B88BF0023226083BF01220370054B95
:100A0400037088BF1A7030BD9C010020D7230020DA
:100A1400F0160020D62300200B78012B02D10648C3
:100A240012F0DFBE022B01D10448F9E7032B01D1F8
:100A34000348F5E7704700BFDC810100F581010040
:100A44000E820100F0B5884887B012F0CAFE00217A
:100A54004FF4004011F092F9002206210F2003F018
:100A6400BFFD002206210D2003F0BAFD0021012064
:100A74000CF034FE7D4B03A903934FF44073ADF89F
:100A8400103007238DF81230794B002279480593F2
:100A94000DF018FC784B01469842764C19D07748F3
:100AA40012F09FFE4FF40040002111F067F9072176
:100AB40073480DF033F9704B0646984210D07149D3
:100AC400E623714A714812F0A2FEE6216E4812F044
:100AD40095FE6F4812F085FE20460DF07FFCE6E798
:100AE40067480DF06BF96B4A6B49002808BF114643
:100AF4006A4812F076FE6A4961480DF069F9B0421D
:100B0400054607D05F49EB235F4A604812F07FFE39
:100B1400EB21DBE70921634A59480DF049F801222A
:100B2400092157480DF05AF95F4955480DF050F91D
:100B3400A842064609D0534940F20313524A534887
:100B440012F065FE40F20311C0E70821574A4C48F1
:100B5400574F0DF02DF80022082149480DF03EF9B9
:100B640038460CF0FBFBB042054609D045494FF42A
:100B74009A73454A454812F04AFE4FF49A71A5E724
:100B840009213F483E7815F0D0FB01463046012646
:100B940022680C3215F045FB3878464F06FA00F00F
:100BA4000CF074FB38460CF0D9FBA84209D0354947
:100BB4004FF4A073344A354812F029FE4FF4A07163
:100BC40084E708212E483D7815F0AFFB6379014690
:100BD40053B939492D484FF4BE73384A12F017FE01
:100BE4004FF4BE71354872E722682846403215F04A
:100BF40018FB387806FA00F00CF048FB304812F085
:100C0400F0FD1C480DF0A8FB1A480DF0C9FB2D4A55
:100C14002D49002808BF11462C4812F0E2FD00209F
:100C240006F088FA014630B1294812F0DAFD4FF097
:100C3400FF3007B0F0BD274808F04CFA264800F012
:100C4400A9F8014608B12548EFE7254812F0C9FD87
:100C54000222244B24492548009607F0DBF800289B
:100C6400E7D001462248E0E7388201000024F4007E
:100C74005F8201009C0100200000AD0B6C8201002A
:100C8400B4780100B282010096820100C982010099
:100C940084820100A5A00100A9A00100E682010050
:100CA400DB2300207C780100DA2300207078010027
:100CB400D9230020D823002039830100F8820100C1
:100CC400608301002F82010078830100808301008A
:100CD400918301008001002078010020B18301008C
:100CE400CE8301009C780100A4780100887801007B
:100CF400E58301008B1E59425941014B197070471D
:100D0400DE2300204B1E59425941014B1970704794
:100D1400DF23002008B5042BBDF808100CD171B9ED
:100D24000A4B1B680BB9042008BD1068012809D8B8
:100D340000F001009847F6E76FF00C00F4E76FF05D
:100D44000600F1E76FF01200EEE700BFF416002092
:100D54002DE9FF411F460D4B054658680C461646C3
:100D640080B1D1F80C808047094B324618700123BA
:100D7400CDE90183BDF828302146009328463B463F
:100D840015F067F804B0BDE8F08100BFF416002048
:100D9400DD23002020B1034B02681A6042685A60C8
:100DA40000207047F4160020F8B50F4600293BD008
:100DB40006680122304612F021FB01460446304603
:100DC40012F0E4FAC3070DD4AF23184A184919489E
:100DD40012F01DFD3946184812F019FDAF211348D1
:100DE40012F00CFD2146304612F0E6FA2518294689
:100DF4000022304612F0CAFA2D1AAC420BD0B723A7
:100E04000A4A0E490B4812F002FD39460C4812F00A
:100E1400FEFCB721E3E72146304612F0D3FA21461F
:100E2400BDE8F84012F00FBCF8BD00BF9384010088
:100E3400B6840100C9820100C7840100FF84010057
:100E4400258501002DE9F8430F4606681446B2686B
:100E54004B1EB2F5004F34BF042108213B4010D093
:100E6400C7F1000909EA0709494503F1FF3028BF22
:100E7400494618420CD11F46DCB900252846BDE876
:100E8400F8838F4213D82146BDE8F84312F01DBC05
:100E94002E494FF4A2732E4A2E4812F0B8FC2E4865
:100EA40012F0B5FC4FF4A271294812F0A7FC994640
:100EB400E2E7B2EBD40FE0D9E319591A104612F065
:100EC400A7FA0146304612F0FDFA80460028D4D035
:100ED400B36809EBC005B3F5004F34BF04230823FE
:100EE4001D4435447B1E1D44B5FBF7F57D43A5EB3E
:100EF40009052946304612F081FA2C44073424F0BF
:100F04000704A41B804507464FEAE40408D20246BE
:100F14004146304612F010FB4146304612F051FB78
:100F24003946304612F048FA3844844208D23946E9
:100F34003046224612F000FB2146304612F041FBB7
:100F440001223946304612F03DFA97E761850100E7
:100F540093840100C98201007C850100B2F5802FD1
:100F64002DE9F04110D2042A28D843494FF4F973EB
:100F7400424A434812F04BFC424812F048FC4FF4FA
:100F8400F9713E4812F03AFC0823D21ACC1D1144E0
:100F940024F0070421F00701091B17294FEAD106A1
:100FA4000ED8394940F2FB13344A354812F02FFC6D
:100FB400344812F02CFC40F2FB11E2E70423E4E78E
:100FC4000027046031463046A660E76012F029FA33
:100FD4000121421D8046304612F01AFA9200D51DB6
:100FE400ED082844B0423AD8B8F1FF3F3946A2F19F
:100FF400100204F11000B8BF3A4616F003F92A466D
:101004003946204612F0F6F93B463A463946204620
:1010140012F0C7F9A6EB050820463946012212F062
:10102400D1F94246294612F0E5F92B463A462946BB
:10103400204612F0B6F93146204612F0DBF9434659
:101044003A463146204612F0ACF931462046012298
:1010540012F0B8F92946BDE8F04112F0B2BA0B49D2
:101064004FF40373054A064812F0D1FB054812F009
:10107400CEFB4FF4037184E799850100938401004A
:10108400C9820100BA850100D3850100FC850100F5
:101094002DE9F04F91B0009302F004030293C2F3E0
:1010A400C2030133840705460E46DDF868800392C7
:1010B400059340F0F681041D30B1072909D86FF07B
:1010C4001B0011B0BDE8F08F01F00706341DC6F116
:1010D40008064FF000094FF0040B009B4F46013BFC
:1010E40001934FF0FF324B46DA46CDF810900DB124
:1010F400009921600598002800F3D780984800994A
:10110400814203D397488142C0F0CF800399A4EB76
:10111400050E89074FEA9E0040F1E2804FF0000C73
:10112400CCE07A285AD84B280CD8472856D82928F6
:101134002AD8252851D051D8202877D023384342A3
:10114400434173E04C382E2848D8DFE800F06F475D
:101154004747474747474747474749474747474719
:10116400474747594749495959596F496C476F4748
:101174001849184747807D49474749477D00002063
:1011840000234FF0040B39E001212A38C0B201FAE0
:1011940000F010EA0E0F49D110F0625C30D110EA71
:1011A400010343D06046013C5C44B4FBFBF40BFBFD
:1011B40004F4002D60D0AAEB050CA444B4453FF61A
:1011C4007EAF00286AD1BAF1040F45D158F8040B58
:1011D40020604FF0040A043428E0013A002325E09B
:1011E400019B13F8013C6C2B33D10020019B13F8B5
:1011F400023C6C2B0346C4D14FF0080BDA46D2E70D
:1012040008F1070828F00708073424F00704F8E871
:1012140002AB35B106982044B0423FF650AFC4E962
:1012240000AB002308344FF0080BDA46019911F89B
:10123400010F0191002800F0BC80002B7FF471AFF6
:101244002528F3D1012301324FF0040BEDE71846B2
:1012540096E700200346A6E7BAF1080F40F09B800A
:1012640008F1070828F00708F8E80201C4E90001BA
:101274004FF0080A0834D9E780B9BAF1040F02D153
:1012840008F10408A5E7BAF1080F40F0848008F1DA
:10129400070828F0070808F10808E9E70599013963
:1012A400059158F8041B009121E7039988074AD552
:1012B4004FF0010CA4EB050E4FEA9E00BEF5007F33
:1012C4001ED329494FF41F73284A294812F09FFA64
:1012D400284812F09CFA4FF41F71244812F08EFA39
:1012E4000F2F0FD8002D49D007F140010DEB010C51
:1012F4000CF8200C0CF8102C04980130049021E018
:101304000F2F0CD9184940F28123184A184812F0BB
:101314007EFA194812F07BFA40F28121DDE7CDB163
:1013240007F140010DEB010EC0B20EF8200C0EF8CF
:10133400102CBCF1000FDFD060F07F000EF8200C01
:1013440009F101090137C5F108014FF6DA7E0434C9
:1013540006916BE7BCF1000F10D00136F2E700BF35
:1013640064730100D0D1010091D1010027860100EE
:10137400C982010055860100768601000298023672
:101384000028DFD10098CDE90632FFF7C1FADDE984
:1013940006320644D6E740F2C623434A434944484A
:1013A40012F035FA5146434812F031FA40F2C621A0
:1013B40093E7631BB3F5806F0CD33C4940F2D2230F
:1013C400394A3B4812F023FA3B4812F020FA40F223
:1013D400D22182E71DB9A6F10804E01871E6029A49
:1013E4009B0828602B709DF81030C2B1EB7085F813
:1013F4000290B9F1000F05D0002208A8C5F1010C34
:1014040097420ED14FF0000AC5F101030DF12008F7
:1014140001930DF1300B574512D1601B51E66B70EF
:10142400E5E710F8013B190608D504EB0C0EB645A8
:1014340003F07F033FF643AE04F8013B0132DFE7DC
:10144400B9F1000F03D098F90020002A17DB029BA2
:10145400D3B11AF80B2004F8012B0022019B981831
:101464002044B0423FF62BAE98F80000009904F8EF
:10147400010B2046039215F0B8FE039A14440AF1B6
:10148400010A08F10108C6E798F8002055F822304F
:101494000093029B009845F82230FFF739FA421C6A
:1014A400DCE76FF00D000CE62786010091D1010006
:1014B400C982010090860100A58601002DE9F04F44
:1014C40097B000AF89460446D7F880B0FA623B6211
:1014D40058B9A9494FF46673A84AA94812F097F974
:1014E4004FF46671A54812F089F9CBF3C00390F864
:1014F40002A0BB6141B9457800780AEB8000204422
:101504004D4517D8A0EB0409E378FB61BAF1000F4D
:1015140002D01BF0010F16D1FB6953BBFB6A1BB150
:10152400494620463A6A98474D4628465C37BD46A8
:10153400BDE8F08F461C3046FFF7EAF9013030442D
:1015440009F10109DCE7626823787A62FA6A990092
:10155400796104EB8301002A40F002810E464FF0CA
:1015640000084D4601EB0A094E454CD101EB0A0631
:1015740010E01BF0020FD1D023789A007A616268E0
:1015840004EB83017A62FA6A002A77D14D469046C9
:1015940001EB0A061BF0050F0CBF02230123FB62BB
:1015A400FB6906EB430A0BF00203BB625645BCD051
:1015B40016F8021B16F8013C54F82390714B994518
:1015C40002D3714B994536D3BB69002B40D0786A5E
:1015D40012F0DEF800283BD0E9468AB06A466B4B2D
:1015E40053617B6AC2E906314FF400731384684B7C
:1015F40042F8103F00234FF41251664801F0E0FD19
:10160400023DCD46D2E716F8013BF96254F82300B7
:10161400FFF77EF9D7F88430F96A01304BB1D7F877
:10162400883098453EBFD7F8843023F8180008F175
:101634000108054498E7BB6923B1786A12F0A8F859
:101644000028C9D11BF0010F05D1FB6AED1AADE7E3
:10165400BB6A002BAAD04846FFF75AF9D7F8843062
:1016640053B1D7F8883098453FBFD7F88420431C3E
:1016740022F8183008F10108054497E7BAF1000F81
:1016840074D01BF0040674D0D046002607F148003D
:1016940052463B61B96215F0A8FDB96A3B6901EB9A
:1016A4000A02BA62FA69F9695200FA60BA6A02EB8C
:1016B40041023A610BF00202BA60BA6A39698A429D
:1016C4006AD162781BF0020F18BF00217A6208BF4A
:1016D4004FEA5801B2181BF0010FD2B240F0E58076
:1016E4001BF0040F14BF40460020BB616270A07061
:1016F400E17020463A6A7969FB6A9847051EFFF64D
:1017040014AFBB69414623707B6A3A6A6370FB6914
:1017140084F802A0E37007F14800FB6A9847B0F12F
:101724000008C0F2F0807B69A9EB0A01C91AFB68C2
:101734003A6AC91AD7E90A0398470028C0F2E58033
:101744004FF0000BA84408EB000507F1380AB34535
:10175400C0F0AD8000213A6A0846FB6A9847E4E687
:1017640056464FF0000807F1380091E75646D04638
:1017740095E7B04693E700BFBC86010027860100C9
:10178400C982010064730100D0D10100D786010031
:101794000400000134770100BA6A12F8021B12F83F
:1017A400015CBA6254F82500594A904202D3594A5E
:1017B400904218D3BA693AB1786A7B6011F0E8FFB5
:1017C4007B6800287FF479AFBA68002A4CD00F2ECA
:1017D40040D9514940F24C43504A514812F017F84D
:1017E40040F24C417EE6BA693AB1786A7B6011F006
:1017F400CFFF7B6800287FF460AF1BF0010F0BD094
:101804000F2E27D9444940F24243444A444811F038
:10181400FEFF40F2424165E61BF0040F3FF44DAF7A
:10182400B8F10F0F09D93F4940F245433B4A3C48C0
:1018340011F0EDFF40F2454154E608F1280207F1AA
:10184400300008F1010102EB000808F8105C5FFAAF
:1018540081F832E706F1280207F13000711C1618EE
:1018640006F8205CCEB228E7B8F10F0F09D92D494C
:1018740040F24F43294A2A4811F0C9FF40F24F4130
:1018840030E608F1280207F1300C08F10100944415
:1018940007F1580208F1020852FA80F00CF8101C03
:1018A4005FFA88F800F8105C07E700201DE71BF8D2
:1018B4000A3054F8239087F83730D7F88430FBB1D6
:1018C40033F81B8001213A6AFB6A07F13700984715
:1018D40000281ADB0544B8F1000F06D14846FFF78B
:1018E40017F800F101081FFA88F8414648463A6A99
:1018F400FB6A9847002808DB05440BF1010B26E737
:10190400D7F88480DEE745460FE605460DE600BFBE
:1019140064730100D0D101007A8701002786010099
:10192400C982010099870100014B1860704700BF0C
:101934000402002080B505460E461746984610F06E
:1019440053FA034615F002FD0446DFF818904246A8
:1019540049F8003039463046A84754F8090002F0E7
:1019640091FD00BF0800000038B50D460446202252
:10197400002115F047FC0022EB68E361AB68A3612A
:101984002B6823626B68A26263622A6923B1591EC1
:10199400194208BF42F0010222610122002104F130
:1019A4002C0015F097FA48B1054906482F23064A3A
:1019B40011F02DFF2F21044811F020FF38BD00BF86
:1019C400F0870100C9820100CA8701002DE9F04FA8
:1019D400002789B0CDE90123436A04468B42884637
:1019E400BA460597079755D34FF0200B00F114061C
:1019F400EFF3118300938BF31288BFF36F8F30469C
:101A0400DDF8009010F0ACFB58B988234A4A4B49E2
:101A14004B4811F0FCFE31464A4811F0F8FE88218B
:101A240060E0304610F0C0FB079A2AB139462046E0
:101A340011F0CEFF0023079306A9204611F0F4FE0F
:101A44000699054641452ED32268236A204613F899
:101A5400221003EB820A21F0030103F8221021680B
:101A6400424611F005FFE3682060984216D0002535
:101A7400304610F083FB40B389F31188BFF36F8FB6
:101A8400059929B1A2690AB120469047002305931C
:101A9400002DADD1504609B0BDE8F08F236943F065
:101AA40008032361E3E718B1204611F0FBFEDFE7EA
:101AB400DDE90132134337D0039115F080FA03991D
:101AC40090BB304610F05AFB78B940F231131A4AF1
:101AD4001D491B4811F09BFE31461C4811F097FE2E
:101AE40040F23111144811F089FE009B83F31188F0
:101AF400BFF36F8F04F12C00DDE901230EF0D0F960
:101B04000546EFF311898BF31288BFF36F8F3046CC
:101B140010F026FB00283FF478AFB5FA85F530467F
:101B240010F042FB6D09A3E7204607AB05AA27681E
:101B340011F0D7FE05469BE7F987010026880100CE
:101B4400C98201003B8801005188010068880100B6
:101B54002DE9F0410446C36908460E46984704F14E
:101B640014050746EFF31188202383F31288BFF38B
:101B74006F8F284610F0F4FA68B988231A4A1B4973
:101B84001B4811F044FE29461A4811F040FE8821F2
:101B9400154811F033FE284610F006FB33783A4618
:101BA40043F0010333706168204611F061FE606008
:101BB400204611F028FF284610F0E0FA68B940F2F8
:101BC4003113094A0C490A4811F021FE29460B48F1
:101BD40011F01DFE40F23111DAE788F31188BFF3EA
:101BE4006F8FBDE8F08100BFF987010026880100EE
:101BF400C98201003B880100518801006888010006
:101C04002DE9F843044600F11407EFF3118820236B
:101C140083F31288BFF36F8F384610F0A1FA05469C
:101C240068B98823344A3549354811F0F0FD3946FE
:101C3400344811F0ECFD88212F4811F0DFFD3846BF
:101C440010F0B2FA2369A26813F0080F02D1636896
:101C54009A4200D9636A9B1A002B3FD0216A11F87B
:101C6400223001EB820913F003003AD0022803D199
:101C740051F82260B60805D1D8071FD44846E36955
:101C840098470646A1683246204611F0F1FD3146D8
:101C9400A060204611F0FAFD384610F06FFA10BB30
:101CA40040F23113144A1849154811F0B0FD394671
:101CB400164811F0ACFD40F23111BDE743F00203C8
:101CC40001F82230E3694846A56898472946024648
:101CD400204611F0CDFD0025A060DDE71D46A94694
:101CE400DAE70546FBE788F31188BFF36F8F002D11
:101CF4008BD14846BDE8F883F987010026880100A6
:101D0400C98201003B8801005188010068880100F4
:101D14002DE9F0410446C36908460D46984704F18D
:101D240014060746EFF31188202383F31288BFF3C8
:101D34006F8F304610F014FA68B98823274A28496F
:101D4400284811F064FD3146274811F060FD8821D0
:101D5400224811F053FD304610F026FA2B786FF329
:101D640000032B7023699B0705D5E268236A03EB04
:101D740082039D4222D12B786FF341032B70D4E967
:101D84000231994204D13A46204611F071FDA06017
:101D94003946204611F07AFD304610F0EFF990B93B
:101DA40040F231130D4A11490E4811F030FD31460D
:101DB4000F4811F02CFD40F23111C9E72B6867F38D
:101DC4009F032B60E8E788F31188BFF36F8F04F15A
:101DD4002C00BDE8F0410EF021B800BFF9870100E6
:101DE40026880100C98201003B8801005188010056
:101DF4006888010070B5044600F11405EFF31186FC
:101E0400202383F31288BFF36F8F284610F0A8F9BC
:101E140068B988231A4A1B491B4811F0F8FC294663
:101E24001A4811F0F4FC8821154811F0E7FC284603
:101E340010F0BAF92369A06813F0080F02D163689F
:101E4400984213D9646A241A284610F097F978B98D
:101E540040F231130A4A0E490B4811F0D8FC2946C6
:101E64000C4811F0D4FC40F23111DDE71C1AEBE709
:101E740086F31188BFF36F8F201E18BF012070BD39
:101E8400F987010026880100C98201003B8801000E
:101E940051880100688801002DE9F84F0446A38B9E
:101EA40008461907154612D4022803F0070165D124
:101EB400204611F0B5FD88B10138042800F23781BD
:101EC400DFE810F05C0035018200D4000401012831
:101ED4000CBF43F0100143F02001A18314342046C9
:101EE40010F04CF9002840F09D819A4940F23113DA
:101EF400994A9A4811F08BFC2146B1E003F007029D
:101F0400501F01281ED80020062A2768C4E90000B3
:101F140014D13A4603E0E08B0130E0831268002AD2
:101F2400F9D123F0070343F002022046A28311F003
:101F340077FD90B342F02002A2832EE023F0070342
:101F44009AB2F2E7042A33D123F007039AB2204667
:101F5400A28311F065FD10B142F02002A283A38B8D
:101F640003F00709894540F0EC80A18BCA0640F1D3
:101F7400508121F01003A38301F00701D4F81880E5
:101F8400A38BB8F1000FB9DA0022276823F0070306
:101F9400C4E9002243F00103A383A38B03F00709E0
:101FA400894540F0CF80002FDFD00026B24644E0C0
:101FB4006B4940F21B136B4A684811F028FC40F24D
:101FC4001B11684811F01AFC49B167494FF4AB730F
:101FD400644A624811F01BFC4FF4AB71F1E72368CB
:101FE4004BB9624940F257135E4A5C4811F00FFC4A
:101FF40040F25711E5E723691E684EB95C494FF476
:10200400AD73584A554811F002FC4FF4AD71D8E74E
:102014000F4688464FF00609A38B23F0070343F0CD
:1020240006039BB2A383A268002A40F08D80002F90
:1020340040F08D80002E98D0BA4643F0080304F196
:10204400140B5846A38310F099F8002840F09A80A6
:10205400404940F23113404A404811F0D8FB5946F8
:10206400444811F0D4FB40F23111ADE0022909D00B
:10207400414940F25D133B4A384811F0C8FB40F235
:102084005D119EE7E78B4FB13C494FF4AF73354A7E
:10209400324811F0BCFB4FF4AF7192E723695E68DC
:1020A4004EB9334940F261132E4A2C4811F0AFFB6C
:1020B40040F2611185E7A38BB84623F0070343F090
:1020C40004039BB24FF00409A383ACE7012909D0B0
:1020D4002B494FF4B273234A204811F098FB4FF474
:1020E400B2716EE723684BB9204940F265131D4A6B
:1020F4001A4811F08CFB40F2651162E723699E686F
:102104004EB91B494FF4B473164A144811F07FFBBF
:102114004FF4B47155E70027A38BB84623F00703A7
:1021240043F005039BB24FF00509A3837BE70C49F9
:1021340040F26B130B4A094811F069FB40F26B1132
:102144003FE7002700266EE74FF0010A75E7924645
:1021540073E700BF51880100F9870100C9820100BB
:1021640091D101007D880100A2880100AE880100A0
:10217400D188010068880100E8880100FE88010018
:102184000D89010085F31188BFF36F8FBAF1000F39
:102194001CD177BB16B120462549B047EFF3118512
:1021A400202383F31288BFF36F8F58460FF0D8FFB4
:1021B40038BB88231F4A2049204811F028FB594680
:1021C4001F4811F024FB88211A48FBE6A168002966
:1021D400DFD00D680029DCD043464A462046D1F8BA
:1021E40004A0D0471DB12B6829461D46F2E72B46B3
:1021F400FAE7394643464A4620463F6811F03CFC1C
:10220400C7E758460FF0D0FFA38B23F00803A3833E
:10221400ABE68B067FF562AE21F02003A38301F0C9
:10222400070145E685F31188BFF36F8FBDE8F88F8A
:1022340049220000F987010026880100C9820100B3
:102244003B880100F8B504460D4600F11406EFF38F
:102254001187202383F31288BFF36F8F30460FF06A
:102264007FFF68B988230C4A0C490D4811F0CFFA56
:1022740031460C4811F0CBFA8821074811F0BEFA18
:1022840030460FF091FFA5613A462046BDE8F8407C
:102294000121FFF701BE00BFF98701002688010074
:1022A400C98201003B8801002DE9F04704460F462E
:1022B40011F0D2FB051E68DB04F11409EFF3118A57
:1022C400202383F31288BFF36F8F48460FF048FF33
:1022D400804660B98823384A3849394811F097FA5A
:1022E4004946384811F093FA8821334842E0484679
:1022F4000FF05AFF4FF6FF72E38BA68B934206F062
:10230400070645D0022E15D135460133E3834846EE
:102314000FF034FF002841D140F23113264A2A49F4
:10232400274811F074FA4946284811F070FA40F22F
:102334003111DAE7062E13D8DFE806F0092D121260
:10234400090409006FF085054FF00008DFE700235A
:102354003B60636883B9C4E9007786B13546F3E727
:102364001B4917484FF4E4731A4A11F050FA4FF41A
:10237400E471184811F042FA1F606760EDE75246B5
:1023840002212046FFF788FD35462846BDE8F08740
:102394006FF00A05D8E76FF00405D5E78AF31188D2
:1023A400BFF36F8FB8F1000FEFD0002332463946E8
:1023B400204611F061FBE8E7F98701002688010057
:1023C400C98201003B88010051880100688801002E
:1023D4000D8901007D880100F8B5054600F1140659
:1023E400EFF31187202383F31288BFF36F8F3046F6
:1023F4000FF0B6FE60B98823254A2649264811F015
:1024040006FA3146254811F002FA882120482BE0CB
:1024140030460FF0C9FEAC8B04F00704022C17D031
:10242400012C0CBF6FF004046FF0850430460FF0EC
:10243400A5FE38BB40F23113154A1949164811F06C
:10244400E6F93146174811F0E2F940F23111DDE7BF
:10245400EB8B5BB91449104840F2EF13134A11F0A7
:10246400D6F940F2EF11114811F0C8F9013B9BB2C3
:10247400EB83002BDAD13A4621462846FFF70CFDC0
:102484002046F8BD87F31188BFF36F8FF8E700BFCC
:10249400F987010026880100C98201003B880100F8
:1024A4005188010068880100238901007D880100AA
:1024B40008B54268034602F00302022A81600AD08A
:1024C400032A4FF0000103D0012A0AD1596006E023
:1024D4001868596008BD186800225A6058B900206D
:1024E400F8E7064906484523064A11F090F94521C4
:1024F400044811F083F910F049FAF0E791D1010092
:10250400C98201003189010010B530B90B480C496A
:1025140011F0F0FA6FF0150010BD836833B9074865
:10252400084911F0E7FA6FF00400F5E71B6813B1EE
:10253400BDE8104018471846EEE700BF4477010095
:10254400578901006889010010B530B90B480C495E
:1025540011F0D0FA6FF0150010BD836833B9074845
:10256400084911F0C7FA6FF00400F5E75B6813B18E
:10257400BDE8104018471846EEE700BF4477010055
:10258400578901006889010070B508B101B132B9F9
:102594000B480C4911F0AEFA6FF0150070BD846859
:1025A4000CB1E56835B90648074911F0A3FA6FF094
:1025B4000400F3E741F8040BE368BDE870401847F2
:1025C40044770100868901006889010010B504463A
:1025D40030B91048104911F08DFA6FF0150010BD94
:1025E400006830B90B480D4911F084FA6FF001000E
:1025F400F5E783680BB11B6933B90648084911F044
:1026040079FA6FF00400EAE7616898470028E6D198
:102614002060E4E744770100B2890100C389010026
:102624006889010070B51346044630B91048114951
:1026340011F060FA6FF0150070BD006830B90C48F5
:102644000D4911F057FA6FF00100F5E782680AB1FD
:10265400956835B90648094911F04CFA6FF0040041
:10266400EAE70A46AC466168BDE87040604700BFCF
:1026740044770100B2890100C3890100688901001F
:10268400034A13680BB9526813600020704700BFF7
:102694000802002030B50C460E4985B00291D0F8EE
:1026A400D4110546CDE9003100F1F0014FF0FF33BC
:1026B40020460CF0F7F850B9012384F86C30D5F8B3
:1026C400D03123B1204605B0BDE83040184705B0ED
:1026D40030BD00BFF13B010038B50C46114605463C
:1026E40011F086FA034638B92846044911F080FAF5
:1026F40003460020236038BD0120FBE760970100FA
:102704002DE9F04F012381460569466887B005F538
:102714006377D7E8EF2F002A03D1C7E8E13F002908
:10272400F7D10CBF1A46002240F0B480B368B16AF6
:1027340005F5F8781C1F104611F0DEFA844272D8B1
:10274400013A00F0A180B2FA82F24FF00044D44082
:1027540072682046073222F00302C5F88822B16A63
:1027640011F0CAFAC5F88C02B36A404663430333D6
:1027740023F0030302EB4302230103EB4403093375
:1027840023F0030303EBC403C5F880221A44083280
:10279400C5F87C227368C5F88442C5F878323F4B8B
:1027A400C5E9B363D9F80030C5F82432316800F0C4
:1027B400DFF90446002834D1D9F810B0D9F804A0C0
:1027C400D9F800300BF53A79059004934846DAE9D4
:1027D4000734012B08BF103C0DF044FFDAF8240045
:1027E4002F4904AB01EB80214FF4806248460093EB
:1027F40023460DF051FF2B490BF536700DF0B4FD57
:10280400DAE9050183685C684CB15B46264AA04757
:10281400044630B9DAE9050183681B692BB96FF006
:102824005704002129E0013285E701229847044634
:102834000028F6D11D4B2846C5F8D0311C4BC5F8ED
:10284400D4311C4B0393D5F838320293D5F8303287
:10285400CDE90083D5F89032B26AD5F8881300F038
:102864004FF904460028DCD105F1F0000CF0C0F863
:102874000028C5F890030ADB0221384611F0ECF970
:10288400204607B0BDE8F08F6FF00B04C9E76FF086
:102894001504C6E76FF07704F2E700BF473C010078
:1028A400902400202D3C0100213C0100BD280000A3
:1028B400D33D01008D3C010013B5044640B1002313
:1028C4000122CDE90032074BD0E909120BF09AFF3F
:1028D400236F1B6823B1606F02B0BDE81040184736
:1028E40002B010BD6097010013B504460846216983
:1028F40001F56371D1E8AF1F022910D193B1A0B1E2
:102904000121CDE900311346D0E909120BF07AFF19
:10291400074B984208BF6FF00B0002B010BD6FF078
:102924000F00FAE76FF04C00F7E76FF00100F4E7EF
:102934002EF8FFFF2DE9F74388461546066906F58C
:102944006373D3E8AF3F022B5FD1136823B96FF0F1
:10295400150003B0BDE8F0831B78002BF7D0D6F840
:102964008893B9F1000F33D106F5EC774FF0FF32BD
:102974004FF0FF3338460CF0EBFF30462A6801A9CC
:10298400FFF7AAFE019C1CB9384611F063F9DEE793
:1029940005F1080323676B6984F86C9063676464CA
:1029A40060B1384611F056F921463046A36E2A68C4
:1029B400FFF770FE0020C8F80040CAE7202229680B
:1029C40004F1480014F048FC384611F043F9F1E7EB
:1029D40030460F4911F00CF904460028B7D005F130
:1029E400080303676B6940644367002380F86C3015
:1029F40020222968483014F02FFC22460121304659
:102A040000F060F80028D5D0A1E76FF00F00A0E730
:102A14006097010010B50C46006900F56373D3E8B4
:102A2400AF3F022B0FD189B10A4900F536700DF082
:102A34008BFD204613F0CBFF78220021204614F0B2
:102A4400E1FB002010BD6FF00F00FBE76FF0010009
:102A5400F8E700BFFC1600202DE9F04F05460E46AE
:102A640090460027D0F8C4A085B0AAF5BE742146CC
:102A74003046FDF73BFFE0B9114BA4F1480B02933C
:102A8400DAF810303246CDE9008329464FF0FF339F
:102A94005846AAF5E2790BF005FF60B978230122C4
:102AA40003FB079383F86C20DAF80C300BB158461B
:102AB4009847783417B105B0BDE8F08F0127D6E701
:102AC400013E01001FB5144690B18AB1012912D10B
:102AD4000A4B00F1F0010293D0F8D431483201934B
:102AE4004FF0FF33204600930BF0DCFE04B010BD22
:102AF4006FF01500FAE70020F8E700BF013E01007F
:102B04002DE9F04387B00E46DDE90E811446DDE978
:102B140010251F4630B329B3DFF850C000F1F00987
:102B2400002D08BF65469EB9CDE9034400F5E27463
:102B34002046059614F0FFF803ABCDE900432A467E
:102B44003B46414648460CF017F907B0BDE8F08310
:102B5400002241460E9248462A4607B0BDE8F0439B
:102B64000CF060BA6FF01500EFE700BF5D2A0000BB
:102B7400F0B50E46044689B0002872D0436B0BB9F9
:102B8400394B436301232246E3630023D4F89810AE
:102B940004F1400042F8301FCDE901334FF0FF3318
:102BA4000093D4F89C3013F0E6FB304A06AB92E86D
:102BB400030083E8030018460BF02AFD0546D8B944
:102BC40004F134000BF006FD0546A8B9616B2848F2
:102BD40005AA13F0B2FB054670B9059B9A6872B159
:102BE4000C33D4F89400C4F8A03011F038F9C4F8C8
:102BF400D40030B96FF00B05284609B0F0BD034688
:102C0400EFE7D4F8940011F02AF9C4F8D8000028AA
:102C1400F0D0D4F88C30D4F8A010C4F8A830042331
:102C2400C4F8AC30C4F8C4300223A362114BB4F826
:102C34009420D4F8D470C4F8B810C4F8D010D4F8E0
:102C44009010236204F1A403A4F8B020C4F8A47083
:102C5400C4F8C010A4F8C820C4F8BC00A661E3629C
:102C6400CAE76FF01505C7E7E8890100C0770100DE
:102C7400F28901009C7901002DE9F84FDFF8FCA0EE
:102C84003F4F8146AAEB07038F2B88460BD93D495A
:102C940040F23F133C4A3D4810F0B9FD40F23F1169
:102CA400394810F0ABFD3A4811F02BF906460028DC
:102CB40034D13C4605464FF0010B544527D93549DC
:102CC4004FF4A673304A314810F0A1FD324810F099
:102CD4009EFD4FF4A671E3E7237B6BB12368DB68A9
:102CE4000BB12046984723681B6943B963680422E3
:102CF4002046196800F03EFA01361034DDE720461C
:102D040098470028F2D00BFA06F31D43F4E7E3D307
:102D1400B9F1000F02D04FF0010A0DB9BDE8F88FE8
:102D2400A94695FAA5F4B4FA84F40AFA04F3260140
:102D340007EB04146FEA030B25EA0305237B5BB15D
:102D4400BB591B69A3B93E44736804222046196821
:102D540009EA0B0900F00EFA002DE2D1B8F1000FD8
:102D640004D04FF4A47000210FF008F84D46D4E7C6
:102D7400204698470028EFD1E5E700BFB47701006B
:102D8400A4770100278A0100FA890100C9820100A1
:102D940038170020578A0100788A0100014B53F844
:102DA40020007047DC79010008B5034608462BB1C2
:102DB400044A136000F01CFD002008BD6FF01500EC
:102DC400FBE700BF340200200122014B1A70704758
:102DD400E023002010B50446064811F092F83CB1F7
:102DE400054BD3E8EF1F0139C3E8E21F002AF8D1ED
:102DF40010BD00BF3017002034170020002001460A
:102E0400034BD3E8EF0FC3E8E21F002AF9D1704760
:102E14003017002070B5FFF7F1FF05460F4C104E38
:102E2400B44219D90F4940F2FF130F4A0F4810F06A
:102E3400EEFC0F4810F0EBFC40F2FF110A4810F0D2
:102E4400DDFC63685B792BB123685B6813B12946A9
:102E5400204698471034E3E7F3D370BDA47701000C
:102E6400B4770100578A0100FA890100C982010080
:102E7400788A010010B5044C04492046FEF774FD1D
:102E8400034B1C6010BD00BFD4040020C8790100AE
:102E94002817002008B50023074A4FF40041137097
:102EA400064A07481360074A1360FFF77DFFBDE831
:102EB4000840FFF7DFBF00BFE123002030170020E8
:102EC400033F01003417002001460022002301487B
:102ED400FEF77CBDD40400200148FEF791BE00BF7C
:102EE400D4040020024B01461868FEF711BF00BF4E
:102EF400281700200148FEF77DBF00BFD40400203E
:102F040070B52E4B1878002857D0FFF7E5FF05461B
:102F140040B32B4BD3E8EF1F0139C3E8E21F002A6B
:102F2400F8D1284C284EB44218D9284940F2F3135A
:102F3400274A284810F06BFC274810F068FC40F240
:102F4400F311234810F05AFC63685B7923B12368BA
:102F5400294620461B6898471034E4E7F4D32846F2
:102F6400FFF7C0FF1D4B1E4C1B68002B19DD14F02E
:102F740088F84FF47A72A0FB020302FB0131C30B01
:102F840043EA4143D4E900209B1A40F2E9324FEA74
:102F9400D13161EB0001934271F1000101D3FFF7DC
:102FA40039FFD4E9003213F57A7342F10002C4E91F
:102FB4000032BDE87040FFF79DBF70BDE0230020E4
:102FC40034170020A4770100B4770100578A010068
:102FD400FA890100C9820100788A010030170020B3
:102FE400680F002013B52A4810F08BFF294B1B787B
:102FF400002B35D0EFF31184202383F31288BFF321
:103004006F8F25480FF0ACF868B98823234A244908
:10301400244810F0FCFB2049234810F0F8FB8821D9
:103024001E4810F0EBFB1C480FF0BEF8FFF768FFDA
:1030340019480FF0A3F868B940F23113174A1B4935
:10304400184810F0E4FB1449194810F0E0FB40F272
:103054003111E5E784F31188BFF36F8F02B010BD1F
:10306400144B1B68002BF9D038B9002200231248F6
:10307400CDE900230FF0C8FBF0E70928EED10E4894
:1030840014F046F80D4802B0BDE810400CF0C6BE7E
:1030940034170020E123002024170020F9870100C1
:1030A40026880100C98201003B8801005188010083
:1030B400688801002C170020700F0020E405002010
:1030C40010B5064B04461B6898472146A060044887
:1030D400FEF73EFDBDE81040FFF784BF3402002038
:1030E400D404002070B5154D297829BB0120FFF7C1
:1030F400C3FD134C134EB44217D913494FF4DC7378
:10310400124A134810F083FB124810F080FB4FF46E
:10311400DC710E4810F072FB63685B791BB12368A5
:1031240020469B6898471034E5E7F5D3FFF7E8FE9F
:103134000028FBD101232B7070BD00BFE1230020C8
:10314400A4770100B4770100578A0100FA890100CD
:10315400C9820100788A0100044A054B9B1AB1EB2D
:10316400D30F34BF52F8310000207047CC760100F1
:10317400A47701000E4B10B5C31A1B110133DBB247
:1031840048B90C490C48DF230C4A10F040FBDF21FE
:103194000A4810F033FB4468237143689A71012292
:1031A4004368196043685A71BDE81040FFF70CBECC
:1031B400A47701001B8B0100C9820100E38A01008E
:1031C4002DE9F04F8FB0C1F34A2804AF0D46914664
:1031D400B8607B600C0DB8F1000F68D000264FF08A
:1031E400040B4FF00A0A07F11403C7F80C80C7E96F
:1031F40007667E620193CDF808B0CDF800A007F110
:103204001C0332464846F968FEF758F9B0F5006FDA
:1032140003461CD36C468AB0D9F8041004AB2C487E
:103224001A46C3E9050140F2FF71D9614FF40071F8
:103234001984284B42F8103F4FF412513346264864
:10324400FFF7BEFFA5462C37BD46BDE8F08FC0F39F
:103254000A0804F11700184420F0070080083B60B6
:10326400FFF732FE68F35325044640B33B6800F190
:103274001001C7E9083607F11403F961CDE900A389
:10328400CDF808B04846154AF96807F11C03FEF763
:1032940015F9002813DA124912484FF4A373124A9D
:1032A40010F0B5FA4FF4A3710F4810F0A7FA04F127
:1032B400170020F007008008FFF706FE044668F3B5
:1032C40053252A4620467B68B96810F053FEBAE7B6
:1032D4003B8B0100040000014C7701004D3F0100CD
:1032E400A78B0100C98201007A8B01002DE9F04F00
:1032F40087B00446DDE9106ADDE912799346984601
:10330400039127B33B46524610210020CDF800908C
:10331400CDF81490FDF7BCFE051E0BDA264940F2E9
:103324006513264A264810F072FA40F265112348C4
:1033340010F064FAB5F5006F0ADB40F2FF73022166
:10334400204A214807B0BDE8F04F10F06CBE3D465E
:1033540006F11700284420F007008008FFF7B4FDA9
:1033640004F007040BF0070BE40044EA8B1444EA6E
:10337400452444EA06540646A0B19FB13B46524652
:103384002946CDF800901030FDF782FE002809DAB6
:10339400094940F28513094A094810F038FA40F205
:1033A4008511C4E7434622463046039907B0BDE879
:1033B400F04F10F0DFBD00BFA68B01007A8B010037
:1033C400C9820100B08B01004C770100406820B134
:1033D400034BC01A40F3CF0070474FF0FF307047E3
:1033E400CC7601000EB403B503AB53F8042B0146AD
:1033F4000448019301F036FC02B05DF804EB03B01D
:10340400704700BF29340000CA0605D48B064CBFA0
:1034140002490349FFF7E6BF704700BF5F97010009
:1034240084C4010038B54B6805461A68CB680C465D
:103434009A4202D1084610F01AFE6368D3E8EF2FCF
:10344400511CC3E8E01F0028F8D1A3689D546368A9
:103454001A68E3689A4209D9054906487B23064A53
:1034640010F0D5F97B21044810F0C8F9002038BDCC
:10347400178C0100C9820100E88B01002DE9F04F8F
:1034840089B09B46149B9DF84CA00693159B04465B
:103494000593169B0D469046179E0493BAF1000FB0
:1034A40000F0AD80BAF1040F0BD9A34940F24D23CB
:1034B400A24AA34810F0ABF940F24D219F4810F006
:1034C4009DF906F48073079310F03CFD06F00209A1
:1034D400024600283FD020469A49FFF783FF07465B
:1034E400B9F1000F08D016F0440F36D12A46204611
:1034F4009549FFF777FF074406F0010353B1934B57
:10350400204653F82A20924B9249002A08BF1A46B3
:10351400FFF768FF06F48073002B4AD006F0080317
:10352400002B64D1B8F1000F67D0424620468A4987
:10353400FFF758FF0546069B3D44002B6ED1049BC4
:10354400002B40F08380F30700F1F08031462046E1
:10355400FFF75AFFE4E00746C2E7804B18680028EB
:10356400C9D07F4B4FF47A791B684FF46161B5FB86
:10357400F3F5B5FBF0F300FB135509FB05F5B3FBBD
:10358400F1F2B5FBF0FE4FF03C0C01FB123100FBF5
:103594001E55B1FBFCF309FB05F5B5FBF0F50CFB7F
:1035A400131120460091CDE901E56E49FFF71AFF9A
:1035B400A1E706F00803EBB16B4B204653F82A2031
:1035C4006A49FFF70FFF0546B8F1000F05D04246E0
:1035D40020466149FFF706FF0544BBF1000FAAD05E
:1035E4005A4620466249FFF7FDFE0544A3E74FF023
:1035F400000BE1E706F00805E6E745469BE7BBF16B
:10360400010F069B06D1DBB9049B002B00F08880D8
:1036140000251BE0002BF7D0564812E056482246FE
:10362400069B564910F083F800280CDA544940F2FE
:10363400A723424A424810F0EAF840F2A7213DE7A6
:103644004D485546EBE7049B002B65D0DFF83481E9
:10365400DFF83491049F3146102F204628BF1027ED
:103664004FF0000BFFF7D0FE5D4542DC059B494659
:1036740020461A78FFF7B6FE4FF0010B1BF0070F38
:1036840003D141462046FFF7ADFE5F4538D9059B7F
:103694004946204613F80B20FFF7A4FE0BF1010B5B
:1036A400BBF1100FEAD14FF0000B20463749FFF76A
:1036B40099FE5A46059B20469A5CA2F120015F2997
:1036C40028BF2E223249FFF78DFE0BF1010BBBF10F
:1036D400100F1AD01BF0070F03D141462046FFF705
:1036E40081FE5F455A46E5D841462046FFF77AFEFB
:1036F400EBE741462046FFF775FE0BF1010BB3E7FC
:1037040020462449FFF76EFEC8E7059B3B4405931A
:10371400049BDB1B04939DD1BAF1000F7FF413AF1C
:10372400204609B0BDE8F04F10F0A1BC2046084A7D
:103734000849FFF757FE09E74C8C0100E88B0100AC
:10374400C9820100588C01005C8C0100EC790100F5
:10375400478C0100789E0100818C010040170020F5
:103764003C170020658C0100007A0100858C010063
:103774008B8C01008D40010029340000694C00004D
:10378400908C010050C40100998C01009F8C0100B1
:10379400A18C01004EC4010042F20F7373B58B4239
:1037A40028BF0B4605680446052168460D4A0FF0FC
:1037B40063FB0646636828460B225B680A4910F0DF
:1037C40048FC63683246694628465B6810F041FC51
:1037D40063681B2228465B68044910F03AFC02B077
:1037E40070BD00BF429B0100C08C0100A48C01008D
:1037F40000210123064A904206D8064A01B9012352
:103804001360054B18607047012140085B00F2E724
:1038140040420F003C17002040170020F8B50D4629
:103824000446064F4618B44201D12846F8BD14F8A0
:10383400011BBB6801485B689847F4E718740100F2
:1038440010B543681C68094813F0A2FA48B908493E
:1038540008489923084A0FF0DAFF992106480FF027
:10386400CDFF23685B685C6010BD00BF1874010065
:103874002A8D0100C9820100EC8C0100014B036018
:1038840000207047487A010008B504480FF0A9FFEA
:10389400BDE8084002480FF0A4BF00BF5E8D0100E0
:1038A400938D01000449431E0F3013F8012F8A5CE5
:1038B40083421A70F9D17047C18D0100F0B50746F3
:1038C400264E8DB001AD0C460FCE0FC50FCE0FC5E1
:1038D40096E8070085E807003846002F39D0002C09
:1038E40039D0381F0246214610344B780D781B041A
:1038F40043EA0563CD7804312B4311F8025C8C4212
:1039040043EA052342F8043FEFD10421144C8A070B
:10391400036916D1C3F30742A55C1A0EA25C42EAFE
:103924000562C3F30725655DDBB2E35C42EA054249
:1039340042EA032221F0030330336B4453F82C3C56
:10394400534050F8042F013153402C290361DED138
:1039540001200DB0F0BD2046FBE700BFC877010091
:10396400C18D01002DE9F04F002703689DB002933B
:103974004368DFF8BCA103938368DDE9024604933E
:10398400C36805930369DDE904BE0693436907939D
:103994008369DDE9062C0893C36998460993089B5B
:1039A4000093CD590CAB2DBA5AF8049BDD514FEA64
:1039B400F223A94483EAB213009D83EA72634B4461
:1039C40025EA020502EA0C0985EA09052B44434469
:1039D40086EA0B054FEA743888EAB408254006EAFB
:1039E4000B0985EA090588EAB4580437A844402F2E
:1039F40003EB0E054344DE46DDF8008040F088808A
:103A04004FF0100A4B490A9151460AF1010A0DF18F
:103A1400700E0AF00F070EEB870757F8407C01F091
:103A24000F094FEAB748019788EAF71801F10E0722
:103A340007F00F070EEB870757F8407C09314FEA70
:103A4400F74E8EEA774ECDF82CE001F00F010DF120
:103A5400700E0EEB81010EEB890959F840EC51F818
:103A6400401CBAF1400F7144DDF804E088EADE0836
:103A7400DDF82CE041448EEA972E714405EA0208F1
:103A84004FEAF52E2CEA050787EA08078EEAB51EE9
:103A9400DDF828808EEA756E774458F804EF49F80B
:103AA400401C77440F4400994FEA733E394484EA3A
:103AB4000607CDF828808EEAB30E07EA030704EA66
:103AC40006088EEAB35E87EA080777440F4401EBE1
:103AD4000B0ECDF800C0B34622D1029939440160DF
:103AE40003991944049B416023448360059B334438
:103AF400C360069B73440361079B2B444361089B8B
:103B040013448361099B6344C3611DB0BDE8F08F16
:103B1400B346CDF800C0264694461C462A4640E7E4
:103B2400944626462A461C4675463B466CE700BF2B
:103B3400487A0100847A010010B50446C8B17022A5
:103B4400002110F024FB0B4B0B4A0C49C4E9002361
:103B54000B4B0C48C4E902130B4BC4E904030120CA
:103B64000A4BA36103F17453A3F52303A3F6924311
:103B7400E36110BD85AE67BB67E6096A72F36E3C0C
:103B84003AF54FA57F520E518C68059BABD9831F24
:103B940001480FF02FB800BF487B010038B5044638
:103BA40018B90F4B0F485B6898476168B1F5683FD7
:103BB40010D0B1F5680F0DD00B4DA9420AD011F405
:103BC4006861206807D0014608480BF01BFE0023FB
:103BD4002360656038BD142213F014FBF9E700BFBD
:103BE40058040020C18E01002C5F5CA9701C0020C9
:103BF40008B560B34368B3F5683F0ED0B3F5680FFA
:103C040018D0144A934220D000684FF0FF324FF08E
:103C1400FF330BF09DFE58B115E001220368D3E891
:103C2400EF1F002903D1C3E8E02F0028F7D10AD100
:103C3400002008BD0368084A1B7803F5807352F816
:103C44002330002BF4D00548F3E70548F1E76FF47F
:103C5400E040EEE72C5F5CA900000350E98FFFFF12
:103C6400EA8FFFFF08B520B34368B3F5683F09D076
:103C7400B3F5680F13D0114A93421DD000680BF0BE
:103C840037FF14E000220368D3E8EF1F012903D1B2
:103C9400C3E8E02F0028F7D109D0094808BD002166
:103CA4000368084A1B7803F5807342F82310002048
:103CB400F4E76FF4E040F1E70348EFE72C5F5CA919
:103CC400E98FFFFF00000350EA8FFFFF10B50446A1
:103CD40018B91D4B1D485B6898476368B3F5683F86
:103CE4002FD0B3F5680F2CD0194A934219D1236809
:103CF40003BB4FF0FF324FF0FF33214615480BF062
:103D0400F5FC08B923681BB90F4B13485B68984747
:103D140014220021206813F075FA4FF4686363607D
:103D240008E0B3F5683F0DD83A2B03D040F6BA62E9
:103D34009342DED1206813F094F8636843F03A03A9
:103D4400636010BD054AF3E758040020C18E0100EA
:103D54002C5F5CA9701C0020E78E01003A00003A39
:103D640008B5064940231422054813F063F8BDE85A
:103D74000840044904480EF0AFBF00BF701700208C
:103D8400701C0020507B0100647B01002DE9F0478A
:103D940006460C4600AF002936D0D1E90012E946A8
:103DA4008AB06D46A3684FF0050AA8461F48C5E9C6
:103DB4000723C5E9050148F810AF002342464FF434
:103DC40021511B48FFF7FCF9D4E90312CD4663697E
:103DD400AD461848C5E90723C5E90501C5F810A093
:103DE400002342464FF421511148FFF7E9F9CD462B
:103DF400E3690121104A0E4810F015F9A369012165
:103E04000E4A0B4810F00FF9012E07D1EFF305838A
:103E14000B4A31460648103B10F005F9214630465E
:103E24000BF048F9BD46BDE8F08700BF148F0100D0
:103E340084770100438F0100728F0100818F01009C
:103E4400AF8F010030BFFFF7FDBF00BF2DE9F04188
:103E540005460B4EDFF82C80324606EB0807CC1BD8
:103E64002046094913F0C1F9A01942460021083C33
:103E740013F0C8F96C6707F10800BDE8F08100BFD2
:103E84000000000004000000B4770100074A9368B2
:103E940093F90E10002907DB526993421FBF044AAD
:103EA400536843F080535360704700BF842100205F
:103EB40000ED00E070B5344C06460D4633483449F5
:103EC40010F0B8FDA36AD9064DD53048314910F039
:103ED400B1FD1120A36A1A0704D52C482E4910F00D
:103EE400A9FD1220284CA36A9B0712D52B49274809
:103EF40010F0A0FD636BA26A110609D50121284ABE
:103F0400224810F090F81EB1A36A23F08003A36244
:103F140013201D4CA36ADA0704D51C48214910F06C
:103F240089FD1420A36A9B0604D518481E4910F085
:103F340081FD1520144B9A6AD60602D49A6A940716
:103F440013D59B6AD90610D5184940F26313184A51
:103F540018480FF05CFC18480FF059FC40F263114C
:103F640013480FF04BFC1020B4E7074B9A6A9206F3
:103F740042BF5A6A22F400525A629A6A42F0FF021D
:103F84009A6200232B7070BD00ED00E0847701007D
:103F9400C28F0100D88F01000B9001001E90010018
:103FA400369001004C9001006B900100CC90010010
:103FB4009A900100C98201001691010010B5244CA9
:103FC4002449254810F036FDA36A99013ED52248BC
:103FD400224910F02FFD1E20A36ADA0104D51E48E1
:103FE4001F4910F027FD1F20194CA36ADB0204D5DA
:103FF40019481C4910F01EFD0220A36A1C0304D5B5
:104004001548194910F016FD2120114CA36A5903D3
:1040140004D51148154910F00DFD2220A36A9A0316
:1040240004D50D48124910F005FD2320084CA36A5D
:10403400DB0304D508480F4910F0FCFC2420A36AD4
:104044006FEA03436FEA1343A36210BD1D20C3E765
:1040540000ED00E07A910100847701009291010063
:10406400A5910100BF910100E991010007920100AF
:104074002C9201004692010070B5294C06460D466B
:104084002848294910F0D6FCA36AD9043CD5254810
:10409400264910F0CFFC1720A36A1A0504D521483D
:1040A400234910F0C7FC18201D4CA36A9B0512D5A8
:1040B4001C48204910F0BEFCA36BA26A100409D569
:1040C40001211D4A17480FF0AEFF1EB1A36A23F465
:1040D4000043A3621920124CA36A590504D5114860
:1040E400164910F0A7FC1A20A36ADA050ED50D486C
:1040F400134910F09FFC1B20094A936A43F47F4341
:10410400936200232B7070BD1620C5E7A36A9B043D
:10411400F2D504480B4910F08DFC1C20ECE700BFDD
:1041240000ED00E0847701007192010087920100A4
:104134000B90010098920100B1920100C692010017
:10414400E19201006B900100F0B58BB0784B04460E
:104154005868002600AFC0F3080386F31188BFF344
:104164006F8F02F07F45B5F17F4F07D102F00C0548
:10417400082D12D16F49704810F05CFC6F494FF460
:104184008B636F4A6F480FF042FB6F480FF03FFBA1
:104194004FF48B616A480FF031FB15074CBF0C4696
:1041A4000126002CEAD00022FA71DA1E092A00F254
:1041B4009D80DFE802F0059396769B9B9B9B9B99E1
:1041C40062495D4810F036FC0023594DFB71EB6ADF
:1041D4009A0705D55E49584810F02CFC002329E0C5
:1041E400EB6A002B01DA5B49F5E7EB6A5B0068D503
:1041F4005949514810F01EFC6B69A26943F480735D
:104204006B61BFF34F8FBFF36F8F6B6932F8022C72
:1042140023F480736B61BFF34F8FBFF36F8F4DF641
:1042240002739A4227D1236801214C4A42480FF075
:10423400FAFE2368FA79DAB907F1080504F1200CCB
:104244002A4620686168083403C264451546F7D1DC
:104254007A6A002E66D0C2F3080121B96FEA5222AD
:104264006FEA42227A62184607F10801FFF78EFDD1
:104274002C37BD46F0BDAB6ADBB22BB10120F91D72
:10428400FFF718FE0346D5E7AB6A13F47F4F04D05B
:104294000120F91DFFF7F0FEF4E7AB6AB3F5803FA8
:1042A40002D3FFF78BFEEDE72D4940F22A33244A6F
:1042B40024480FF0ACFA2B480FF0A9FA40F22A3147
:1042C40068E7274940F22E331D4A1E480FF09FFA33
:1042D40025480FF09CFA40F22E315BE70020F91DCF
:1042E400CEE70020F91DD5E7204974E7204A6D4642
:1042F40010F4F87F8AB01F4918BF11466A46103B74
:10430400D3614FF400731C4813841C4BC2E90501AC
:1043140042F8103F00234FF411510748FEF750FFB5
:10432400AD465BE722F4FF7222F001029AE700BF78
:1043340000ED00E02793010084770100529301000F
:104344009A900100C982010065930100A3930100C2
:10435400BA930100DB930100E99301000894010082
:1043640091D1010024940100489401007894010043
:104374000E930100F99201009C94010004000001D5
:10438400064B5A6942F010025A615A6942F480623B
:104394005A615A6922F008025A61704700ED00E040
:1043A400EFF30880EFF3098101B57246FFF7CCFE05
:1043B40001BD00BF002080F31488BFF36F8F00207D
:1043C40080F30A8880F30B8808F042FE00200E492F
:1043D4000860BFF34F8F0D4880F3088800F02CF875
:1043E400202080F311880A484FF40061401880F3BC
:1043F4000988EFF314800221084380F31488BFF383
:104404006F8F00F01FF9000094ED00E0085D0020BC
:10441400C8330020002318460649D1F89020C2F37F
:104424000722934200DB7047C1F89830C1F8A0001E
:104434000133F6E700ED00E010B572B6002484F312
:104444001388FFF7E7FF23464FF0FF300C4A03F1D0
:1044540020010133102B42F82100F8D100234FF042
:10446400FF30074A03F160010133102B42F82100A9
:10447400F8D162B6BFF34F8FBFF36F8F10BD00BF8B
:1044840000E100E0084B9B6883420BD1EFF3058306
:1044940043B1064B5A6842F080525A605A6A22F479
:1044A40000425A620DF0A6BC8421002000ED00E019
:1044B4006FF00A01084A9368D967084998674B68FE
:1044C40043F080534B60002383F31188BFF36F8F55
:1044D4009368D86F704700BF8421002000ED00E08E
:1044E400EFF31183202383F31288BFF36F8F4FF010
:1044F4000061084A53699360074A5160596F074A3B
:10450400116000219A6F996782F31188BFF36F8F4E
:10451400704700BF8421002000ED00E0901C0020C3
:104524000E498A684FF030001044EFF3098C80E89C
:10453400F01F74467046FFF7D3FFA64607498A6802
:1045440002F1300090E8F01F8CF3098802F10000BA
:1045540004B510F077FABDE80440704784210020C8
:104564001EF0040F0CBFEFF30880EFF3098081699C
:1045740011F8021C0229FFD001B510F050FA01BD58
:1045840040B2002807DB01234109034A00F01F0061
:10459400834042F82130704700E100E040B2002837
:1045A4000CDB01220649430900F01F00824020333E
:1045B40041F82320BFF34F8FBFF36F8F704700BFC5
:1045C40000E100E0054B420953F82220012300F0EA
:1045D4001F0003FA00F01040704700BF00E100E044
:1045E40038B54B1C072B04460D460FD95823104AE7
:1045F400104911480FF00BF92946104807232246A9
:104604000FF005F958210A480FF0F8F840B20028D5
:10461400ACBF00F160400A4A4FEA4313DBB2ABBFC0
:1046240000F5614000F00F0080F80033135438BDEA
:10463400AF940100E6940100C982010001950100D4
:1046440014ED00E00B4A08B50B4B22F07F029A6090
:10465400BFF34F8FBFF36F8FD3F8882022F470021B
:10466400C3F888200AF04EFE0DF0A6FD00F04CF8C9
:104674000AF088FE0000000000ED00E042F8203C53
:10468400009B0B4942F81C3C019B21F0010142F8BC
:10469400183C029B42F8081C42F8143C4FF080730B
:1046A40042F8043C0023203A02658367704700BF48
:1046B4003919000000B50D4B15469860426F0C4B3C
:1046C4000E461A60436E83F30B882C4686F30988E2
:1046D4004FF00000074B984720464FF000014FF081
:1046E40000024FF00003044C204700BF8421002047
:1046F400901C0020514A0100391900001022014B7E
:104704001A61704700ED00E0002320210348C2181D
:104714000133452B82F80013F9D1704700E100E022
:1047240008B5EFF30583064A103B02EBC30152F8C8
:10473400330049688847BDE80840FFF7A7BB00BFBE
:10474400687401001FB5094C094A23460121094830
:1047540000F012F900230393074B0121E41A01A886
:104764000193029400F02CF904B010BD000007205E
:1047740000000020747B0100D007002010B50C7AE3
:104784000B6804F01F0223F01F031A43CB6864096B
:1047940023F01F03054943EA440343F00103C1F82E
:1047A4009800C1F89C20C1F8A03010BD00ED00E0D5
:1047B40010B50A4BD3F89030C3F30723013B98425A
:1047C40008D901210346064A06480FF02CFC6FF075
:1047D400150010BDFFF7D2FFFBE700BF00ED00E0BE
:1047E400459501006C7701002DE9F04F8946144688
:1047F40006464FF00008514D85B0C84527DAD6F873
:1048040004A0BAF1000F44D0BAF11F0F17D91AF05F
:104814001F0F14D1D6F800B01BF01F0F0FD158464C
:1048240010F050F907460AEB0B00013810F04AF972
:10483400874210D06FF01507414A3B4601E04346DA
:10484400404A012140480FF0EEFB6FF0150420466A
:1048540005B0BDE8F08F17F1160FEDD0BC42EBDDCB
:10486400C5F89870D5F89C10C5F89870D5F8A030A4
:1048740021F01F0143F01F0BD6E900321A4499427C
:1048840002F1FF3A1DD1D34507D13146F8B210F0F9
:1048940022F908F101080C36AFE73146C5F89870E3
:1048A400D5F89C3022F01F0203F01F031343C5F810
:1048B4009C30E0B210F00FF910F1160FC5D0441C73
:1048C400E7E7C5F89870D5F8A020013B23F01F0353
:1048D40002F01F021343D3453146E0B2C5F8A030BD
:1048E400E8D010F0F8F810F1160FAED0C5F89870B3
:1048F400D5F89C209DF808300BF1FF3B62F30403CC
:104904008DF80830D5F8A0309DF808205B0863F3D3
:1049140047128DF80820D6E900321344009323F09F
:104924001F035B44A3EB0A03013023F01F03694612
:10493400C0B20393FFF73CFFBEE700BF00ED00E009
:104944008E9501006B9501006C7701000522044BE4
:10495400C3F89420BFF34F8FBFF36F8F704700BF2E
:1049640000ED00E0BFF35F8F0022024BC3F89420F8
:10497400704700BF00ED00E038B50C4D0C462A78B6
:10498400FFF732FF287016300FD14FF4B473084A82
:10499400084909480EF03BFF214608480EF037FF4E
:1049A4004FF4B47102480EF029FF38BDE323002010
:1049B400B195010091D10100C9820100E095010087
:1049C4002DE9F74F314E894605464FF00008B346AE
:1049D4002F4FC84502DB03B0BDE8F08FD5F804A023
:1049E400BAF1000F4CD029680846019110F06AF81A
:1049F400019904460AEB0100013810F063F884427F
:104A04004FF01402234B15D002FB08F36FF015028C
:104A14004BF803204FF4BC731F4A204920480EF082
:104A2400F6FE49461F480EF0F2FE4FF4BC711A48D8
:104A34000EF0E4FE14F1160F3460EBD01978A142A5
:104A4400E8DD02FB08B0C7F89840C7F89840D7F8EB
:104A54009C4000F10801007B64F304000871D7F85E
:104A6400A0000C79400860F347140C71D7F89C102F
:104A740021F01F017160D7F8A01021F01F013161EE
:104A840008F1010814360C35A3E700BF941C00207C
:104A940000ED00E0E3230020B195010091D1010075
:104AA400C98201000C9601002DE9F041574C584E83
:104AB400D4F890303568C3F307239D4286B013D9E8
:104AC40040F29F13534A544954480EF0A0FED4F8C0
:104AD400902029465248C2F307220EF098FE40F275
:104AE4009F114C480EF08AFE0020FFF73BFF4D4B10
:104AF400C4F8C03085421AD14B4C01A82570FEF78A
:104B0400BDFE002506464FF04108484FAE4215D180
:104B1400002023783D49D1F89020C2F30722934224
:104B24006DDB0020FFF712FF06B0BDE8F08171686D
:104B340001EB0011FFF722FE0130DBE7019A2901A6
:104B440002EB0513D3F80CC00CEA0700B0F5001F04
:104B540027D0B0F5800F40D0B0F5801F4DD15868F4
:104B640052589B68CDE902022122013B20F01F012B
:104B74000B4423F01F038DF810200593207802A91D
:104B8400FFF716FE002835DA234940F2C913214AFB
:104B940022480EF03CFE26480EF039FE40F2C911C0
:104BA4009FE758689B685258013B20F01F010B4453
:104BB40023F01F031CF0010FCDE902028DF81080D1
:104BC4000593DBD01B496D23124A14480EF01FFED7
:104BD40019480EF01CFE6D2183E758689B685258F3
:104BE400013B20F01F010B44CDE9020223F01F0317
:104BF4000622C0E7237801332370013586E7C1F824
:104C04009830C1F8A000013385E700BF00ED00E053
:104C1400807B0100B195010091D10100C98201009E
:104C24003B960100AAFF4400E32300200000F0FFAC
:104C3400C49601006F9601009596010008B5024BD9
:104C44001B689847002008BDA81C0020034B044A99
:104C54001860937843F0020393707047A81C0020F7
:104C640060020020F0B587B007460E4614460021C6
:104C7400102268461D4612F0C5FA02238DF8023050
:104C8400054B2A4621466846CDE9047601930EF089
:104C94001FF907B0F0BD00BF0D4B010008B5064970
:104CA400064821F00701C1F1005202F5E022FCF7A9
:104CB40055F9002008BD00BFE79A0020AC1C002075
:104CC40070B541690446867A0A4D59B1437ADB07C7
:104CD40006D4342303FB0653DB6A1B689B6898479E
:104CE400002363613420214606FB0050BDE8704078
:104CF40012F0E2B8300600203422024B02FB0030EE
:104D0400704700BF300600203421827A064B01FB35
:104D140002331A6B93F82430801A1B3323F00303F5
:104D2400B0FBF3F0704700BF3006002038B53424E0
:104D3400827A064B04FB0233DB6AD3E901240C605C
:104D44001568FFF7E1FF04FB005038BD3006002072
:104D540008B5437A4BB10C495A230C4A0C480EF05F
:104D640056FD5A2109480EF049FD43683BB10949F3
:104D74005B23064A06480EF04AFD5B21F2E70382F4
:104D84004369C36008BD00BF22970100FD9601007E
:104D9400C9820100339701002DE9F04F054685B023
:104DA400684614469946039112F06DF9DDE90067EF
:104DB40045B96549EE23654A65480EF028FDEE21A4
:104DC400624818E005F11C08EFF3118A202383F3ED
:104DD4001288BFF36F8F40460DF0C2F968B988237B
:104DE4005C4A5D495A480EF012FD41465B480EF09C
:104DF4000EFD882157480EF001FD40460DF0D4F910
:104E0400B5F822B0BBF1000F5CD02B8C5B4539D9CF
:104E14000022002328460AF095FF0446002831D0DA
:104E240040460DF0ABF968B940F23113494A4C4998
:104E340047480EF0ECFC41464A480EF0E8FC40F2CC
:104E44003111D7E78AF31188BFF36F8F039D002DCB
:104E54006AD032463B46684612F039F93421A27AC8
:104E6400414B204601FB0233DB6A03A91B681E6821
:104E7400DDE90023B0476061002845D12046FFF7F3
:104E84001FFF3CE06C8C4046631E6B840DF076F98A
:104E94000028C9D08AF31188BFF36F8F95F82430A6
:104EA4002A8C1B33121B2C6B23F0030302FB0344D9
:104EB4002D4B2E4AEB1A9B105343A37295F82430C2
:104EC400E372C3E740460DF059F90028ACD08AF3E9
:104ED4001188BFF36F8F54EA090308D012F036FA31
:104EE400234A244B12589A4204BF5C46A1462246E8
:104EF4004B4628460AF026FF04460028A6D1002483
:104F0400204605B0BDE8F08F039B9D420DD91A4998
:104F140040F24B130D4A0E480EF079FC17480EF080
:104F240076FC40F24B114BE765610123002123819C
:104F3400039BE27A6160638204F1180012F062F963
:104F44002046FFF705FFDBE710AE0100FD960100E8
:104F5400C9820100F9870100268801003B8801000D
:104F6400518801006888010030060020C54EECC459
:104F740008000000B01500204D9701005E97010065
:104F840070B50C46054658B928494FF4D373284ADE
:104F940028480EF03CFC4FF4D37125480EF02EFC4B
:104FA40049B9254940F2A713214A22480EF02FFCA3
:104FB40040F2A711F1E7EFF31186202383F312885F
:104FC400BFF36F8F1D480DF0CBF860B988231C4ADE
:104FD4001C4918480EF01BFC18491B480EF017FC1E
:104FE40088211748DAE715480DF0DEF8002323601E
:104FF4006B689BB9C5E9004410480DF0BFF880B94F
:1050040040F231130E4A11490A480EF000FC0B49D4
:105014000F480EF0FCFB40F23111E2E71C606C60BB
:10502400EAE786F31188BFF36F8F70BDB4AA01005D
:10503400FD960100C9820100A89D0100B81C002052
:10504400F9870100268801003B880100518801008E
:105054006888010070B5044658B92349234840F2D2
:10506400B313234A0EF0D3FB40F2B31120480EF0E1
:10507400C5FBEFF31186202383F31288BFF36F8FF0
:105084001C480DF06DF860B988231B4A1B4917486A
:105094000EF0BDFB17491A480EF0B9FB88211648DB
:1050A400E5E714480DF080F825682DB162682B6897
:1050B4009542236008BF63600E480DF05FF868B93D
:1050C40040F231130C4A0F4908480EF0A0FB09497D
:1050D4000D480EF09CFB40F23111E0E786F3118895
:1050E400BFF36F8F284670BDB4AA0100C9820100C6
:1050F400FD960100B81C0020F987010026880100F4
:105104003B880100518801006888010070B504469D
:1051140098B13426104D2046037A6468013BDBB213
:1051240003724BB9C3604360837A06FB03539B6AE3
:105134007BB19847002CEED170BD084908484FF464
:10514400E673084A0EF063FB4FF4E67105480EF06F
:1051540055FBFFF7B5FDEDE730060020A89D0100E3
:10516400C9820100FD96010008B558B907490848ED
:105174004FF4FB73074A0EF04AFB4FF4FB710548EA
:105184000EF03CFB027A0132027208BDA89D0100B8
:10519400C9820100FD96010008B5034658B90849C3
:1051A400084840F24123084A0EF031FB40F2412105
:1051B40005480EF023FB18465B68002BFBD108BDA5
:1051C400A89D0100C9820100FD96010070B50D463D
:1051D400044658B90F494FF413730F4A0F480EF0A1
:1051E40016FB4FF413710C480EF008FB49B90C4937
:1051F40040F24D23084A09480EF009FB40F24D21C4
:10520400F1E746681EB10846FFF7C6FF46606560D1
:1052140070BD00BF849A0100FD960100C98201009F
:105224006197010038B505460C4659B90C490D483B
:105234004FF416730C4A0EF0EAFA4FF416710A484A
:105244000EF0DCFA20B9BDE838400846FFF78CBF01
:10525400FFF7A2FF2146FFF7B9FF284638BD00BF7C
:1052640061970100C9820100FD96010008B548B9A3
:105274000B492B230B4A0C480EF0C9FA2B21094881
:105284000EF0BCFA83883BB108492C23054A064832
:105294000EF0BDFA2C21F2E783680B44036008BDCD
:1052A400A89D01006E970100C98201009A97010030
:1052B40008B5034600689A68821A91420BD90949D5
:1052C400094840F25513094A0EF0A1FA40F255116B
:1052D40006480EF093FA9A88401A1144186099808F
:1052E40008BD00BFB9970100C98201006E97010093
:1052F40008B5828803468A420BD20949094840F21C
:10530400C313094A0EF083FA40F2C31106480EF0A3
:1053140075FA521A828000680844186008BD00BFFC
:10532400A9970100C98201006E97010008B50346E0
:105334009A8800688A420BD20849094840F2CF1380
:10534400084A0EF064FA40F2CF1106480EF056FAFD
:10535400521A01449A80196008BD00BFA997010040
:10536400C98201006E970100F8B5858803680E466E
:1053740004465F190FF0F2FBB04209D20649074810
:105384003E23074A0EF043FA3E2105480EF036FA52
:105394003544A5803846F8BDDD970100C982010077
:1053A4006E97010008B543090DD0012B1CD0134999
:1053B40013484FF46C73134A0EF029FA4FF46C71CE
:1053C40010480EF01BFA4FF0FF33C340DA07EED556
:1053D4000D4B03EB8003D3F8002222F0E04242EAB3
:1053E4000171C3F8001208BD4FF6FF7300F01F00EF
:1053F400C340DB07DBD5054BEBE700BF4398010057
:10540400C9820100109801000025845000288450AE
:1054140038B50124134B144DC3F80045022303216E
:10542400C5F8D0360020FFF7BDFF20460321FFF763
:10543400B9FFC5F804472146C5F804492120C5F839
:10544400004BFFF7AFFF21462020FFF7ABFF2146BB
:105454000B20FFF7A7FF21460A20FFF7A3FF002038
:1054640038BD00BF001000500040005007B50DF1DA
:10547400070007F073FF114B98421CD14FF4806270
:105484000F4B1049C3F8B8254FF40062C3F83C250C
:105494009DF8070007F01EFF0B499DF8070007F071
:1054A40001FF01209DF80730984007F0EFFE00202F
:1054B40003B05DF804FB6FF00B00F9E70000AD0BDF
:1054C40000A002502CA0025028A10250052370B560
:1054D400144D154E2C780134B4FBF3F303EB830322
:1054E400E41A10F08CFE114A137823B156F82430D4
:1054F400C01A072814D94FF05023D3F8141141B11E
:105504000021C3F81411D3F814312C700CB9012301
:1055140013702C7810F073FE46F82400012070BD3F
:105524000020FCE7E5230020BC1C0020E42300202D
:1055340048B1054B054A1B68B3FBF2F35843044BCF
:1055440043F00103184770478403002040420F00D2
:1055540050780100014902480EF0A4BAB47B01005E
:10556400D01C00204FF47F032DE9F041D3F8302103
:105574000646072A0D46D3F8343120D1023B032BCB
:1055840002D8124AD35CD3B14FF050244FF0010833
:1055940000270520C4F81886C4F8147610F03FFEDE
:1055A4004046C4F8148610F03AFEC4F81476C4F8E1
:1055B400187630462B46BDE8F041002118474FF0DD
:1055C40050230022C3F81426F3E700BFAB98010070
:1055D4001FB518B3002301930393012369461248AE
:1055E4000293FCF761FE002809DA10493C23104AB3
:1055F40010480EF00CF93C210D480EF0FFF8029B08
:105604009B0707D009494423094A0A480EF0FFF8CA
:105614004421F1E7039B05B05DF804FB0248FCF765
:10562400DBFE0028F7DAEDE7D01C0020A298010089
:105634006A980100C98201000F2AF8B5044615468C
:1056440008461F460BD90F490F4840F2F3130F4A7F
:105654000EF0DDF840F2F3110C480EF0CFF807F02D
:1056640081FA0B4EAD0001462E4420462FB144F082
:10567400004407F02FFE3460F8BD07F059FE376090
:10568400FAE700BFE1980100C9820100AF98010068
:1056940080A102507FB5284B01A90293002302A8E0
:1056A4008DF80C3008F0EEF8244B984241D107F005
:1056B40035FC041E0BDA9DF8041002A808F0EAF881
:1056C400012123461E4A1F480EF0ADFC2EE040F691
:1056D40007031D4D8DF80540AE68ADF806307468BB
:1056E400019B14B96FF05704EAE708212846174ACA
:1056F400A047041EE4DB3369002BF3D00122082108
:1057040028469847041EDBDB01259DF8040005FAB2
:1057140000F007F0BBFD2B469DF807209DF805100F
:105724009DF80400FFF788FF002CC9D1204604B07F
:1057340070BD6FF01204C3E7007001500000AD0BA0
:10574400EC980100947701002C740100F1570000DB
:1057540073B5069EC6F30744F5B2C6F30726304672
:1057640007F0E6F90F2C01460BD91849184840F206
:10577400ED13184A0EF04BF840F2ED1115480EF0F7
:105784003DF8284607F0BEFD00220120124BA4007C
:10579400E4B21A51114BA84000938DF8042007F08D
:1057A4007BFD304607F0D8FB2946684608F072F8BE
:1057B4000B4B984208D00B49054876230A4A0EF051
:1057C40026F876210848DAE702B070BDE1980100B6
:1057D400C9820100AF98010080A0025000700150FE
:1057E4000000AD0B43990100149901002DE9F74322
:1057F400144683681B694BB922492348CA23234AA8
:105804000EF005F8CA2121480DF0F8FF0022984750
:1058140006460028F0D1C4F30728404607F0BCF937
:105824005FFA84F941463346220E07464846FFF79D
:1058340003FF404607F07CF9C4F307450F2D0146EA
:105844000AD91349104840F2ED13124A0DF0DFFF54
:1058540040F2ED110F48D7E70F4BAD0049F000427D
:10586400EDB25A51484607F01DFD0C4B07F13202C8
:105874000093404633460194520007F05DFA03B0AA
:10588400BDE8F083F0870100C9820100149901008A
:10589400E1980100AF98010080A002505557000024
:1058A4000E4B402928BF402170B51D460C4C4618AC
:1058B400B04203F1020304D1002305F81130074874
:1058C40070BD02781209A25C03F8022C10F8012BB7
:1058D40002F00F02A25C03F8012CE9E70424002083
:1058E400BF99010030B503788BB0044607AD032B94
:1058F40021D8DFE803F0021A1C1E12492846FAF7E1
:10590400FFFF059563781E210493A3780E4A039341
:10591400E3780E4802932379019363790093A37982
:105924000DF0AAFA09480BB030BD0949E6E7094968
:10593400E4E70949E2E70A212846084A0DF09CFAFF
:10594400DFE700BF7A9901009C990100E62300205B
:1059540081990100889901009299010016AF010014
:1059640030B50024094D0A4B85B0284602930394B0
:105974000AF078FE02AB284600934FF4A3620A2390
:1059840004490AF089FE204605B030BDA80F002066
:10599400D099010090280020014601480AF0A4BFD4
:1059A400A80F0020037830B5012B13D0022B27D089
:1059B4007BB90A46184B03F1100453F8045BA34265
:1059C40042F8045BF9D11B78137043884B731B0AAC
:1059D4008B7330BD0A46104B03F1100453F8045B7B
:1059E400A34242F8045BF9D11B7813704368C3F3F4
:1059F40007224B731B0CCB731B0A8A730B74E8E7E7
:105A040000F1100350F8042B984241F8042BF9D10B
:105A140003780B70DDE700BFD999010038B505465E
:105A2400012D1046194610D0032D1AD0052D18D07B
:105A34000E493C230E4A0F480DF0E9FE0E480DF0C6
:105A4400E6FE3C210A480DF0D9FE0C480FF068F838
:105A5400044620B101210C30FFF708FC25762046CE
:105A640038BD02460B460648F0E700BF199A01000C
:105A7400EA990100C98201005E9A01000007002032
:105A8400300600200F2810B50ED80D280ED90B486B
:105A94000FF046F8044628B101210C30FFF7E6FB6D
:105AA40001232376204610BD1328F0D009B1044801
:105AB400EEE70120BDE81040FFF7B0BF9C070020CF
:105AC400CC06002038B50B6804460D464BB9164980
:105AD4001648BC23164A0DF09AFEBC2114480DF05A
