:020000022000DC
:106000000000012099180300D9180300DB180300D1
:10601000DD180300DF180300E11803000000000092
:106020000000000000000000000000001518030040
:10603000E51803000000000035180300E91803000C
:10604000EB180300EB180300D1F20200EB18030079
:10605000EB180300EB180300EB180300EB18030028
:10606000EB180300EB180300EB180300EB18030018
:10607000EB180300EB180300EB180300EB18030008
:10608000EB1803006D150300EB180300EB18030079
:10609000EB180300EB1803002D860200EB18030039
:1060A000EB180300EB180300EB180300EB180300D8
:1060B000EB180300EB1803000000000000000000D4
:1060C000EB180300EB180300EB180300EB180300B8
:1060D000EB180300EB180300EB18030000000000AE
:1060E00000000000000000000000000000000000B0
:1060F00000000000000000000000000000000000A0
:10610000000000000000000000000000000000008F
:10611000000000000000000000000000000000007F
:10612000000000000000000000000000000000006F
:10613000000000000000000000000000000000005F
:10614000000000000000000000000000000000004F
:10615000000000000000000000000000000000003F
:10616000000000000000000000000000000000002F
:10617000000000000000000000000000000000001F
:10618000000000000000000000000000000000000F
:1061900000000000000000000000000000000000FF
:1061A00000000000000000000000000000000000EF
:1061B00000000000000000000000000000000000DF
:1061C00000000000000000000000000000000000CF
:1061D00000000000000000000000000000000000BF
:1061E00000000000000000000000000000000000AF
:1061F000000000000000000000000000000000009F
:10620000F1EE103A43F08073E1EE103A704700BFB0
:1062100010B5054C237833B9044B13B10448AFF3E0
:1062200000800123237010BD4838002000000000CA
:106230008C68030008B5034B1BB103490348AFF357
:10624000008008BD000000004C3800208C6803006E
:10625000154B002B08BF134B9D46A3F5803A002138
:106260008B460F461348144A121A0CF087FC0F4B4A
:10627000002B00D098470E4B002B00D098470020F1
:10628000002104000D000D48002802D00C48AFF397
:1062900000800CF009FC200029000BF051FB0CF0F1
:1062A000DDFB00BF0000080000000120000000002E
:1062B00000000000483800201858002000000000AE
:1062C00000000000C161704730B585B0044641F65A
:1062D0001201684601F048FD6946204600F0B8FC0E
:1062E0002546684601F02EFD094B45F8203B6846DF
:1062F00042F64D2101F038FD6946284600F0C0FA0B
:10630000684601F01FFD00232046E36105B030BD63
:10631000D05F030000B583B0019000F071FC0199DB
:1063200001F1200000F0CAFA012003B05DF804FB7F
:10633000F0B583B005460E4600F074FC044660B12B
:106340004FF6FF73AB80064805F12007012301AA31
:106350003146019700F0A2FEAE80204603B0F0BDAA
:10636000143C0020704700BF0146014800F0D8B936
:10637000F038002010B582B0014601900C4802F0C0
:106380004DF9019904460B48FFF7D2FF48B120466A
:1063900000F04CFD0849094802B0BDE8104008F083
:1063A00083BC204602B0BDE8104000F0F7BC00BF3F
:1063B000E038002064380020DC5F0300584D0020E6
:1063C00010B50146064802F029F9044600F0CAFC5F
:1063D00000B110BD2046BDE8104000F027BD00BF51
:1063E000E0380020704700BF10B5054C2046FFF78D
:1063F0006BFF2046034A0449BDE810400CF0F6BA92
:106400006438002000360020ED64020070B5234D92
:1064100023492448244E08F055FD01222846002136
:1064200001F044FF2149284602F0B2F83046FFF758
:1064300071FF30461E49FFF745FF05F1100428465D
:10644000FA2102F0BDF820461A4900F09FF92046D3
:10645000194905F5387400F09BF905F1200017493A
:1064600001F0C6FB2046164901F07AF920460121C9
:1064700001F078F920465022A02101F06BF9314655
:10648000204601F0EDF92046012101F05BF920469C
:106490000021BDE8704001F06BB900BFE03800207A
:1064A00080841E00584D002064380020F85F0300EF
:1064B000C56402007563020065630200C1630200E7
:1064C0006963020030B4D0E90052D0E902430549C3
:1064D00005484A700D708C70CB7030BC042208F0F7
:1064E000C7BC00BFC4380020584D002010B5074B72
:1064F000044640F8203B00F097F92046044B40F852
:106500000C3B01F01FFC204610BD00BFD05F030014
:106510002460030072DF704773DF704777DF7047D6
:106520000022C2770270704710B4084A084C09492B
:1065300002620022C0E90A41C0E90C225DF8044B66
:106540000270C27742628263704700BFFF010100A0
:106550002000F40020001E00F0B5154605EB850371
:10656000274A89B0044603EB830300200E469B00B4
:1065700011680290CDE90460ADF8143094F8213030
:106580008DF80830CB07CDE90600039009D41D49EA
:106590001D4BC87FE77F988101201C6099609F8018
:1065A0001060194902AA04F12000FFF7B3FF10B1EF
:1065B000002009B0F0BD94F820101448019101F0BA
:1065C000FBFF019902460120FFF7A8FF0028EFD149
:1065D00094F820000121FFF79FFF0028E8D10B4825
:1065E00002F034F8628EA68595424FF0010094BF08
:1065F000521B921A628684F8230009B0F0BD00BFD6
:10660000C8380020A03B0020CC380020E038002013
:1066100030B50B888D88112B85B0044605D0262B0C
:1066200033D0102B25D005B030BD436AEB40DB07DB
:10663000F9D52E4801F00EF80028F4D1636A94F8D9
:106640002310012202FA05F523EA050363620029FB
:10665000E9D194F82230002BE5D0238E23486386BD
:10666000FA2101F0ADFFE28D218D2046FFF774FF86
:10667000D9E7CB7B012BD6D1426A03FA05F5154346
:106680000023456280F82330CDE70B7A012BCAD175
:10669000002380F823304FF4FA71144801F090FF82
:1066A000238E5BB1658E95B1A36B0BB19847658E58
:1066B000618D2A462046FFF74FFFB4E7A36B03B175
:1066C0009847618D00222046FFF746FFABE7074859
:1066D00001F0D0FF626B002AA5D0009503AB2946DC
:1066E000284603950BF022FC9DE700BFE038002010
:1066F00075DF70478CDF704710B44FF010144FF403
:1067000048010022C0E90041C0E902225DF8044BC3
:10671000704700BF014800F079BC00BF143C002066
:1067200010B582B00246084801920C4601F01EF8EE
:10673000019A01460223A01CFFF7DCFFB0FA80F0AB
:10674000400902B010BD00BFC03B0020F8B50025D5
:106750000D4F2E4601E0142D14D0A9B2384601F099
:106760005DFF013504460028F5D000F0F7FA002857
:10677000F1D0204600F0FCFA022804BF0136F6B240
:10678000142DEAD13046F8BDE03800208160704712
:10679000C160704770B58E881B480C4694B0314676
:1067A00001F03CFF23881A2B05D01F2B1CD0102B87
:1067B0000FD014B070BD054600F0D2FA0028F8D012
:1067C000284600F0CFFA0028F3D1284600F024FB39
:1067D000EFE7694600F008FB0028EAD06A46314638
:1067E0000A4801F011FAE4E754F8080F61686B46B3
:1067F00003C33046BDF80030ADF802306946FFF7FC
:1068000077FF14B070BD00BFE038002000390020D1
:1068100051F8322F0260496841607047A1DF70472C
:10682000A3DF7047A4DF704710B5074B044640F85C
:10683000243B01F063FF2146044800F0A1FE201D27
:1068400001F080FA204610BD146003006439002076
:1068500010B5094B044640F8243B01F04FFF214698
:10686000064800F08DFE201D01F06CFA20460BF06A
:10687000A3F8204610BD00BF146003006439002057
:1068800070B50446D1E901020A4E0B4DCB68236175
:10689000C4E90202C4E9006504F1240001F01AFF12
:1068A00000236361A36184F83C30C4E90D33E361E4
:1068B000204670BD146003005460030038B50446E0
:1068C0000D46043001F06EFA5DB12146256206489E
:1068D00000F07EFE04F124000121BDE8384001F003
:1068E00003BF024B1D68F0E764390020DC3800204C
:1068F0000A46034649681068143303C312891A8094
:10690000704700BF00238383704700BF808B00382F
:1069100018BF0120704700BF006A00F0B1B900BF86
:10692000808B704710B592B00446039200924148A4
:10693000322305AA00F05AFC68B39DF81A30012BE7
:1069400056D0012827D99DF82030012B58D0022895
:1069500021D09DF82630012B59D003281BD09DF85B
:106960002C30012B1AD0042815D09DF83230012B81
:1069700026D005280FD09DF83830012B28D00628C6
:1069800009D09DF83E30012B2AD0072803D09DF86E
:106990004430012B43D0012012B010BDBDF82A2095
:1069A00042F602139A42DED1032312AA03EB4303F9
:1069B00002EB4303012033F8323CE38312B010BDF5
:1069C000BDF8302042F602139A42D2D10423ECE7FC
:1069D000BDF8362042F602139A42D0D10523E4E7EF
:1069E000BDF83C2042F602139A42CED10623DCE7E2
:1069F000BDF8182042F602139A42A2D10023D4E730
:106A0000BDF81E1042F602129142A0D1CDE7BDF8AA
:106A1000242042F602139A429FD10223C5E7BDF813
:106A2000422042F602139A4208BF0723BDD001203C
:106A300012B010BD143C00202DE9F0410B88CE8827
:106A4000382B86B00C46054606D0392B66D0362B3F
:106A500043D006B0BDE8F08100F12407002E36D106
:106A60000A8A3846314601F099FE94F80C80B8F154
:106A7000010F2CD0B8F1040FEBD1286A00F000F917
:106A800001465C4801F0CAFD00F074F92A8E053811
:106A900083B2934228BF1346002B00F09A80218ACC
:106AA000E289286AAC8B8DF80D600A44E96A059189
:106AB0008DF80C80ADF81230ADF81020ADF80E4016
:106AC00000F0DEF803A9FFF7ABFE0028C1D038467E
:106AD00001F07CFE06B0BDE8F081006A00F0D0F85D
:106AE0000146444801F09AFD00F044F907466EBBA8
:106AF00005F12406E289304604F1100101F04EFE52
:106B00002B8E2BB1F81EE38980B20138834255DA0F
:106B1000304601F05BFE06B0BDE8F0810B7B012B37
:106B20001AD0022B95D1836B002B92D090F83C2089
:106B30008F8892071FD401F11006E289314628465A
:106B4000984761893846FFF76DFE82E705F1240713
:106B5000384601F03BFEBDE7436B002B3FF479AFB5
:106B600090F83C20D10717D404F11006E289314691
:106B7000284698476DE7C989039004F11006032061
:106B80001A46009003AB3046CDE904610BF0CEF914
:106B90000028D6D1AB6BD0E7E189039004F1100651
:106BA00003201A46009003AB3046CDE904610BF098
:106BB000BDF900287FF44DAF6B6BD7E7286A00F072
:106BC0005FF86A8EA98B92B2FFF728FE00289FD14A
:106BD0003FE7AA8B286AADF80E2040F20511ADF808
:106BE0000C10CDE9043300F04BF803A9FFF718FEB1
:106BF0006DE700BFE03800204FF6FF7383807047D9
:106C000010B504460C3001F0CDF8044B04481C606C
:106C1000214600F0F1FC012010BD00BFDC3800204F
:106C20006439002038B5044608480D4600F0FAF9EA
:106C300040B1064801232246294600F0F5F900B18B
:106C4000A58038BD014800F0E1F9F2E7143C0020CE
:106C500070B44C680461D1E90254064A064E0749F3
:106C6000C2604FF6FF72C0E905540660416070BC17
:106C7000028170475460030024600300FFFF01009D
:106C80008088704782B0C0F8061002B0704700BF1D
:106C900076DF70478FDF704790DF7047B1DF704756
:106CA000B5DF704710B5074B03600446806A09F0F2
:106CB000CBF9E06A09F0C8F9206B08B109F0C4F912
:106CC000204610BD3860030010B5094B0360044630
:106CD000806A09F0B9F9E06A09F0B6F9206B08B1E9
:106CE00009F0B2F920460AF067FE204610BD00BF49
:106CF0003860030070B504460D4692E80300A58095
:106D00000E0CA061A183144DA67717201B21568974
:106D10002560E0809589D089E181D1796581012262
:106D200022752274A08161741846194626819DF847
:106D3000105008F0EBFB2946A062284608F0E6FB5D
:106D40004FF4885100234FF6FF72E182E0626282C5
:106D500023636375204670BD38600300007D704773
:106D6000407D7047C07D113818BF0120704700BFBB
:106D7000407C7047C0887047008970474B7D10B4D5
:106D80004BB11F310C688A888B79046082805DF872
:106D9000044B837170471831F4E700BF08B5132125
:106DA0008088FFF775FFB0FA80F0400908BD00BF8A
:106DB000818800F11F02407C01F04EBD38B50A46C3
:106DC00005460C468188407C01F032FD21460120B9
:106DD00051F8483FC5F81F308B888A7985F82520FF
:106DE000A5F82330687538BD38B50A4604460D4607
:106DF00000F11801407C01F065FD607550B1294635
:106E000051F8483FC4F81F308B888A7984F82520D0
:106E1000A4F8233038BD00BF10B5447D24B100F183
:106E20001F01407C01F02CFD204610BDC37D112BBD
:106E300001D0012070478188014800F0DBBE00BF0F
:106E40000039002070B50B88113B82B00C46054616
:106E5000462B2BD8DFE803F0383B2A2A2A2A2A2A95
:106E60002A422A2A2A2A2A2A50585E642A2A2A2AA8
:106E70002A2A2A2A2A2A2A2A2A2A2A2A2A2A2A2A72
:106E80002A672A942A2A2A2A2A2A2A2A2A2A2A2ABB
:106E90002A2A2A2A2A2A2A2A2A246A2A752C84009B
:106EA0000023A8881A461946FFF7F8FE02B070BD05
:106EB0008B79002BFAD1006BAB750028F6D01A46FF
:106EC000194608F055FBF1E700230375EEE74B89FF
:106ED00003818B894381CB898381E7E70B7AC37573
:106EE000112BE3D0818800F11F02407C01F0A2FD4C
:106EF00003460028DAD1D4E7002301A98088ADF841
:106F00000430FFF7C7FED1E70B7A002BCED14B7AC6
:106F10000374CBE7002211468088FFF7BDFEC5E76A
:106F20000B89C381C2E74B89C380BFE7006B012394
:106F3000AB750028BAD000231A46194608F018FB92
:106F4000B4E7417C164801F061FBE38801469942B1
:106F500028BF194689B2A888E980FFF7A1FEA5E7F6
:106F60008B79002BA2D0002600231A461946A86A66
:106F700008F0FEFA0136A279F3B29A42F4D895E706
:106F80008B7A002B92D0002600231A461946E86A15
:106F900008F0EEFA0136A27AF3B29A42F4D885E705
:106FA000E038002070B58AB086880B4606A84FF4FA
:106FB0002851144605934FF6FF7500F0D5FE0120C9
:106FC000CDE90105059B0094314606AA044800F06E
:106FD00073F9044606A800F0B5FE20460AB070BD5D
:106FE000643900209BDF70479DDF70479EDF70474C
:106FF00010B50446043001F06DFB034B2360002301
:107000002375204610BD00BF0100FFFF017D01B1C7
:10701000704710B50446043001F066FB0123237568
:1070200010BD00BF007D70472DE9F04100F104085C
:1070300084B00E4614461F460A2201A90546404662
:1070400001F06EFB3946304604F11002FFF7CAFF2B
:1070500020B10026304604B0BDE8F08140464FF430
:107060007A7101F063FB0028F3DDBDF80430002BDA
:10707000EFD0DDF8061004F10C0000F0EBFE064640
:107080000028E6D0DDF80A00286001462046FFF718
:10709000F9FD2B8801332B80DCE700BF2DE9F04F91
:1070A0002DED028B89B00446522008EE101A04948C
:1070B000174602921D46059308F064F90646002D16
:1070C00000F091806B1E3A46DBB2043202EB83097A
:1070D0002346043308EE903A002303935222002102
:1070E00030460BF04BFD18EE900A3146522201F06B
:1070F00017FB049918EE100AFFF776FF00283ED11F
:1071000018EE900A4FF47A7101F010FB002836DD7A
:107110003388082B64D9082333804FF0000AD04607
:1071200008EB880300935F00DDF808B04FEA88039E
:1071300001935C465BF8040BF519FFF7E7FB38B9E0
:107140005BF8040CD5F80210043000F083FEF8B9A7
:10715000D945EED133880AF1010A5FFA8AFA9A45D5
:10716000D046DDDB013B03EB830306EB4303049ACC
:107170005B8901331380059B039A9342AED8304656
:1071800008F01AF9039809B0BDEC028BBDE8F08F46
:10719000009B206806EB43010231FFF7A9FBAB79A6
:1071A000DA0601D49B060BD5019B434406EB43084A
:1071B000049B5A88B8F80A3001339BB2934204D931
:1071C000039B0133DBB20393C4E7ADF81C30ADF889
:1071D0001E202068079A18EE101AFFF7A3FBEFE7AE
:1071E000002B9AD1BEE7059B0393C8E770B51546FF
:1071F000041D0E46204629461A4601F091FA04A9BC
:107200003046FFF7F3FE08B1002070BD20464FF472
:107210007A7101F08BFA0028F6DD28880028F3D077
:1072200070BD00BF0B88322B10B504D0332B17D0A4
:10723000302B08D010BDCB88DBB1041D2046BDE843
:10724000104001F0C3BACB88041D002BF6D14B8946
:10725000002BF3D00A3120460A2201F09FFAEDE715
:10726000CB88002BE9D14A89002AE6D002EB420202
:1072700004E04A89002AE0D002EB82025200041D99
:10728000023292B20A31204601F088FAD6E700BFF6
:10729000A0DF704710B5044600F5F87001F01AFA47
:1072A0002046F82200210BF069FCF822A0180021EA
:1072B0000BF064FC204610BD2DE9F04782B0054676
:1072C000BDF82C60BDF830402048ADF80460BDF832
:1072D00028A0ADF80640904699460F4601F09EF969
:1072E00005F5F875064603E0FFF746FD08F03CF8A3
:1072F000284601F051FA04463046002CF4D1012111
:10730000284601F0F1F952464946284601F008FAAC
:1073100008F10401384601AAFFF7BAFF30B1284648
:1073200001F0ECF9204602B0BDE8F0874FF4FA71A5
:10733000284601F0FBF920EAE074284601F0DEF966
:10734000A4B2204602B0BDE8F08700BFE0380020BC
:107350002DE9F04F8F880D8885B088460446394660
:10736000864801F05BF9A5F11003012B814640F23C
:10737000908094F854203AB3002633461633502DAB
:1073800054F823A069D0512D1AD198F80630B8F8D6
:1073900008B0022B53D0BBF1000F11D05146684604
:1073A000FFF736FABDF800305B4559D0514602A8C8
:1073B000FFF72EFABDF80C305B4551D094F85420FD
:1073C0000136F3B29342D9D394F84C31002B00F03C
:1073D000D18004F5A679002604E094F84C310136FA
:1073E000B34220DD59F8040FFFF796FAB842F4D102
:1073F000382D03D0392D01D0362DEED1B8F80AA0A2
:10740000BAF1000FE9D0D9F800B05846FFF788FA72
:107410005045E2D158464146FFF70EFB94F84C31F7
:107420000136B342DEDC112D55D0352D04D1B8F82C
:107430000A30002B40F08F8005B0BDE8F08F98F83F
:107440000E30062BA7D1DAF800305046DB684146F3
:1074500098474846FFF786FCB0E7B8F806B09AE7C9
:10746000DAF800305046DB68414698474846FFF757
:1074700079FC0028A2D0502DA0D1514602A8FFF7D8
:10748000C7F9BDF80C305B4598D14846FFF790FC32
:1074900094E72378002B3FF46CAF0026112D334680
:1074A0000CD004EB83033946586803685B6898473F
:1074B00001362278F3B29A42F3D85AE704EB8303F9
:1074C0003946586803681B68984701362278F3B23A
:1074D0009A42F3D84DE7D3B10026334605E094F83D
:1074E0004C210136F3B29A4211D904EB8305D5F849
:1074F0005001FFF711FAB842F1D1D5F85001FFF76A
:1075000001FA013694F84C21F3B29A42EDD894F87E
:10751000F820002A90D000252B4604EB8303D3F8F3
:10752000FC008388BB420AD00135EBB2934283D280
:1075300004EB8303D3F8FC008388BB42F4D10368D7
:107540001B689847013594F8F820EBB29342E4D3D6
:1075500005B0BDE8F08F04F5F874B8F80C202046AB
:1075600008F1100101F01AF9204605B0BDE8F04F0E
:1075700001F02CB9112D7FF458AFC8E7E038002096
:1075800070B590F84C510DB3064600F5A673002473
:1075900002E00134AC4219D053F8042F8A42F8D1EA
:1075A00009F0D8F896F84C31013BDBB206EB8302C8
:1075B00086F84C315434D2F8503146F82430002348
:1075C000BDE87040C2F8503109F074B970BD00BF19
:1075D00090F84C21272A0CD810B4034602F1540429
:1075E000013280F84C2143F8241001205DF8044B4F
:1075F00070470020704700BF90F8F830132B08D870
:1076000000EB8302013380F8F8300120C2F8FC104F
:1076100070470020704700BF78DF70477ADF7047FF
:10762000054A034692E80300002283E80300C3E909
:1076300002221846704700BF4060030008B5FFF7FC
:10764000EDFF08B1002008BDFFF7E6FFB0FA80F0BB
:10765000400908BDF8B500250D4F2E4601E0142D58
:1076600014D0A9B2384600F0D9FF013504460028ED
:10767000F5D0FFF773FB0028F1D02046FFF778FB29
:10768000012804BF0136F6B2142DEAD13046F8BD08
:10769000E0380020704700BF8ADF70472DE9F041D5
:1076A00090F8383005460E469BB1436B8BB153F8CA
:1076B000044C03EB0414A34207D054F8103D1B689C
:1076C000204698476B6BA342F7D1A4F108000AF05B
:1076D00075F94FF0010885F8388018200AF06AF92A
:1076E0000446102300F10807C0F8048023603846E0
:1076F00000F030FB6F63D6E90112C4E90312F368AE
:107700006361BDE8F08100BF30B40D4CC4621F2539
:10771000002250248584A025C0E91122C0E90F224F
:10772000A0F84650A0F84840006230BC8262028651
:1077300080F838204263C264A0F85020704700BF30
:107740000001800090F8443061F3820380F84430F7
:10775000704700BFA0F84610A0F84820704700BF4F
:10776000C163704780F82D10704700BF44307047E8
:107770001F2310B5A0F84A1004460062838400F16C
:1077800020014430FFF788FF08B1002010BD0348F6
:1077900000F05CFF012084F82C0010BDE0380020D0
:1077A0002DE9F04F10468DB016460C4600F0EAFA6F
:1077B000C5B2102D4FD0B66807220623A16994F8F0
:1077C0001C9001918DF80D208DF80C30ED080DF115
:1077D0000C080DF10E0A0027B9F1010F0A97CDE947
:1077E0000477CDE90677CDE90877CDF82B700ED96F
:1077F00098F8000001994B464A7882420FD00A78E7
:10780000D4432344013213F0FF031144F4D108F1AF
:107810000108C245E0D100200DB0BDE8F08F11F89D
:10782000024B013CE4B2224604A80BF07FF90DF1B3
:10783000100B1CB9EBE714F0FF04E8D058462A46B9
:1078400031460BF065F9641BAB440028F3D10120ED
:107850000DB0BDE8F08F043603220223AEE700BF6F
:1078600030B5D1E9052485B00D69064B0093694612
:10787000CDE902240195FFF711FF684600F062FA96
:1078800005B030BD546003002DE9F0430B888E88AD
:10789000103B87B00D4604460D2B2CD8DFE803F0D3
:1078A00077072B2B2B2B2B2B2B2B2B842B2E836A0D
:1078B000F340DB071FD55648FEF748FFD8B9A36A47
:1078C00094F82C20012505FA06F623EA0606A6629E
:1078D0008AB994F82D3073B11F232462A38404F174
:1078E000200104F14400FFF7D7FE20B9494800F019
:1078F000ADFE84F82C5007B0BDE8F08390F92E203F
:1079000091F91B309A423ADC90F8383001F10808BE
:107910000BB3DFF80491002602E0D6B2B34218D9C7
:10792000636BCDF8089003EB061302AA5968039124
:10793000D3E902734146204605930497FFF730FFD1
:10794000074602A800F0FEF994F83830721C002FA8
:10795000E3D09E4213D094F82F30002B49D095F8F5
:107960002430012B0BD9296A4A78FF2A30D00A78B3
:10797000D0430344013213F0FF031144F4D104F166
:1079800020010020FFF788FE07B0BDE8F083CB7B25
:10799000022BB0D1836A012202FA06F63343002299
:1079A000836280F82C20A6E70B7A012BA3D1002557
:1079B00080F82C50174800F05DFE226C002A9AD007
:1079C000009502AB2946284602950AF0AFFA92E7E5
:1079D00011F8025B6A1ED2B2022A28BF022202A854
:1079E0000BF0A4F8012DCAD0228EBDF808309A42BF
:1079F000C5D1E26B002A3FF47EAF012300934046DD
:107A000002AB2421CDF808800AF090FA73E700BF9A
:107A1000F0380020E03800205460030046DF704753
:107A20007EDF70477FDF704780DF704785DF7047FC
:107A300086DF704738B51C460D460346114628467A
:107A40002246984734B1014600222846BDE8384016
:107A5000FFF7EABF38BD00BF044A026003210022DD
:107A6000C0E9162201710266704700BF310710039A
:107A7000012070470B7803F0FE03042B01D0002097
:107A8000704770B515468CB00C462022002104A822
:107A90000BF074F828686968AA68EB686D460FC532
:107AA0009DF800109DF80F209DF801609DF80E5084
:107AB0009DF802008DF80F1023469DF80D108DF8EB
:107AC00000209DF803208DF80E608DF801509DF880
:107AD0000C609DF804508DF80D008DF802109DF893
:107AE0000B009DF805108DF80C209DF80A208DF8EC
:107AF00003608DF80B508DF804008DF805208DF88B
:107B00000A109DF8061033F8042FADF810209B786A
:107B10009DF809209DF81D009DF810609DF81F50EC
:107B20008DF809108DF806209DF811109DF81E2083
:107B30008DF81D309DF807308DF812008DF81F600C
:107B40009DF808009DF813608DF810508DF81E10F8
:107B50009DF81C509DF814108DF811208DF80830F8
:107B60009DF81B209DF81A308DF807008DF81C60D9
:107B70008DF813509DF815608DF81B108DF81420AA
:107B800068468DF815309DF819109DF817209DF85E
:107B900018309DF816508DF818208DF816108DF8B5
:107BA00017308DF81A608DF81950FFF737FF62789B
:107BB0009DF82F309DF82E009DF82D108DF8210096
:107BC0009A428DF8221004F1010404D0012080F0C3
:107BD00001000CB070BD6278C3B29A4204F1010496
:107BE000F4D16278CBB29A42F0D10020EFE700BF27
:107BF0000166704708B5034608461946FFF710FFAF
:107C0000B0FA80F0400908BD08B5137CDB0758BF07
:107C10001C32084602F11201FFF708FFB0FA80F0AB
:107C2000400908BDF0B58E880C4699B0054631462E
:107C3000404800F0F3FC2388133B0746072B1AD873
:107C4000DFE803F027424E191919041B237A33B9D0
:107C5000637B9B075ED53846A91DFFF7AFF8EA6D39
:107C60004AB1247A022300210093084604ABCDE9EF
:107C700004640AF05BF919B0F0BD2A6E002AFAD04C
:107C8000012300210093084604AB04960AF04EF944
:107C9000F1E7AB1D002405F12202049305F13E0338
:107CA000CDE90823CDE90544CDE90A440794FFF75F
:107CB0005FF801280CBF2A4622462146304604AB15
:107CC000FFF7B0FE19B0F0BD04A9FFF78DF8034629
:107CD000D0B104A93046002312AAFFF7A9FECAE7D3
:107CE000AB6D002BC7D0A57B0493042304F10800DF
:107CF00005F001050093104A059604AB0621CDE975
:107D000006050AF013F9B6E730461A461946FFF79A
:107D10008FFEB0E702A83946FFF730F80298BDF8A9
:107D20000C209DF80E3085F85430C5F84E00A5F8AB
:107D3000522090E7E0380020357A020062DF704779
:107D400063DF7047704700BF10B5044609F034FE8A
:107D5000204610BD034A02600022C0E9022282715F
:107D6000828070475460030010B4054C818000226B
:107D700001210460C0E902225DF8044B8171704763
:107D8000546003008379012B0AD0826832B9C2683B
:107D900022B9012B8CBF80200020704780207047C3
:107DA000102070472DE9F047857982B0002D47D12A
:107DB000C7680646002F47D0102007F0E3FA824636
:107DC00038460BF0B6FD441E30B3DFF88490A84669
:107DD00004E00134023C1FD4102D1DD017F804C05C
:107DE000BCF12D0F07EB0402F3D099F80030ADF889
:107DF00005808DF8043012F8013C8DF80430102213
:107E0000002101A88DF805C00BF04EFE6B1C023C52
:107E10000AF80500DDB2DFD5C6F808A0BAF1000FF8
:107E20000ED0B11D5046FFF789FFB168321D1020FA
:107E3000FFF786FFB0FA80F0400902B0BDE8F08796
:107E4000012002B0BDE8F087D0F808A0E6E700BF47
:107E50004860030082B083790191C1F307418B42EE
:107E600002D0002002B070478088BDF80430C01AEC
:107E7000B0FA80F0400902B0704700BF4BDF704796
:107E800010DF70477CDF704760DF704769DF704745
:107E900061DF704766DF704767DF7047704700BF7C
:107EA00013200AF095B900BF30B5124C124D83B0C3
:107EB000D4F86C034FF0FF3107F04AFF0028F7D0E9
:107EC0006DB101A8FFF7DAFF0528F1D00028F8D13D
:107ED0000198831E012BF4D806F054FEF1E701A8A7
:107EE000FFF7CCFF0528E3D001A8FFF7C7FF05285F
:107EF000F5D1DDE7E038002085EB02002DE9F04FF9
:107F00002DED028B4FF4FA7089B007F03BFAB04EBA
:107F100000F1080308EE103A054606F5717706F5FC
:107F2000217AD6F868034FF0FF3107F011FF0028DF
:107F3000F7D04FF4FA730DF116012846ADF816305C
:107F4000FFF7A6FF10B10528F3D1EAE7B5F80490D2
:107F5000B9F1130F00F2348109F1DE0356F8234022
:107F60003CB129462046FEF76DFF9A482946FFF7A7
:107F700059FE2B88013B1B2B57D8DFE813F011016A
:107F80005600560056005600560056005600560041
:107F9000560056005600560056005600B1001C0010
:107FA0005600560056005600560056005600560021
:107FB000560056009F00DFF830824FF0000B58F853
:107FC000040F30B1FEF7CAFE18B10BF1010B5FFAD6
:107FD0008BFBB845F3D1BBF1000F06D196F8743393
:107FE0001BB1594613200AF0DDF82046FEF7C0FE0B
:107FF000012800F0E780F26962B10223002195F8C0
:1080000008C00093084606ABCDF81890CDF81CC008
:1080100009F08CFF09F1DE0856F8280010B103685A
:108020005B689847002346F8283029465046FEF7FB
:10803000EFFA69482946FFF727FCB6F876334B4537
:108040002B8800F0B280102B1ED02CB32046FEF7F8
:108050008FFE012803D15E482946FFF71BFB20460F
:10806000FEF786FE02281BD05C48FEF7DBFF00BB54
:108070005B482946FFF76CF9D6F8CC33002B3FF468
:1080800058AF2846984754E7EB7B012BDDD1AB88EE
:10809000A6F87633002CD9D14D482946FFF7FAFAD5
:1080A00050482946FEF776FB4C48FEF7BBFF0028F8
:1080B000DED04A482946FFF7B5F8D9E7D6F8C823F5
:1080C000002AB2D00223002195F908C00093084687
:1080D00006ABCDF81890CDF81CC009F027FFA4E737
:1080E0004FF00008D6F87003CDF8008043464246B2
:1080F00003213D4C09F0A6F954F8040F30B1FEF706
:108100002DFE18B108F101085FFA88F8BC42F3D1DE
:1081100096F874336BB1B8F1000118BF0121132038
:108120000AF040F896F874331BB1012113200AF0CD
:1081300039F809F1DE0856F8280028B103685B68B1
:108140009847002346F82830EB7B012B0BBF96F8AD
:10815000563396F85C3396F8574396F85D4303938D
:10816000342009F025FC039B009418EE102A0446E5
:108170004946FEF7BFFD204646F82840FEF7F8FDC9
:10818000012833D0B269002A3FF44FAF0123002108
:108190000093084606ABCDF8189009F0C7FE44E7F7
:1081A00000214846FFF776FE3FE7102B3FF46CAF07
:1081B000112B7FF44AAF4FF6FF73A6F8763344E7EE
:1081C0000446D6E6F268002A7FF417AF22E700BF24
:1081D000E038002000390020C03B0020143C002083
:1081E00064390020F0380020543C0020B268002A96
:1081F0003FF41BAF0021009006AB0846CDF8189065
:1082000009F094FE11E700BF38B50446FFF708FAFD
:1082100004F11000FEF770FA04F12000FFF71CFCD7
:1082200004F18400FFF736F804F52170FEF77CF9BD
:1082300004F53070FEF774F904F53870FFF764FA4E
:1082400004F54D70FEF7D4FE15481649164AC4F8D9
:1082500058234FF440630025C4F84C3340F2011317
:10826000C4E9D401A4F85C33A4F85E5304F55E704D
:10827000294650220AF082FC01224FF6FF73A4F82F
:10828000605384F86253C4E9DA55C4E9F255C4F87E
:10829000705384F87423A4F87633204638BD00BFA9
:1082A000010A17000300010117000300F0B5AE4EEC
:1082B00080F860138DB0336980F861230446AB49C0
:1082C000039303A8FFF7DCFD18B1002528460DB085
:1082D000F0BD0990CDE90A00A54A94F85133049203
:1082E00009A901208DF82430FFF7D0FD0028ECD13A
:1082F00094F861330B90CDE90900181E18BF0120D6
:1083000094F860538DF82700049A8DF8263009A957
:1083100040208DF82550FFF7B9FD0028D5D194F8FD
:1083200050130990034661F30003CDE90A00049A53
:108330008DF8243009A9A020FFF7A8FD0028C4D19A
:10834000D4F84C330A900B90049A099309A9A12000
:10835000FFF79CFD0028B8D194F86033002B40F063
:10836000B48094F86133002B47D00023B4F85873DD
:10837000049A0993022509A92320CDE90A338DF82F
:108380002450ADF82670FFF781FD00289DD1CDE97E
:10839000090094F86173B4F85A330B90049A8DF87D
:1083A000245009A920208DF82670ADF82830FFF759
:1083B0006DFD002889D10990CDE90A0094F85C335D
:1083C000049A8DF8245009A922208DF82630FFF751
:1083D0005DFD00287FF479AFCDE9090094F85D33A5
:1083E0000B90049A8DF8245009A921208DF826308D
:1083F000FFF74CFD00287FF468AF04A8FFF744FDA9
:1084000000287FF462AFCDE9070040F0010307A91F
:1084100002208DF81C30FFF73FFD00287FF455AF98
:108420002046FFF70BF9054600283FF44EAF04F154
:108430002000FFF71DFB337D4E498DF808301022D8
:1084400002A8FFF71FFD00287FF43FAF94F86133C7
:10845000002B40F0848003220021012007F014F853
:10846000C4F8680300283FF430AF05AB0326CDE91C
:1084700000634149414800234FF4A06207F082FFA6
:1084800032460021012006F0FFFFC4F86C030028EB
:108490003FF41BAF06ABCDE90063394939480023EF
:1084A000C82207F06FFF384B4FF480021A60374B39
:1084B00000930023184601224FF4807108F06CFFEE
:1084C000C4F8700300F08EF900E70990CDE90A00C6
:1084D000B4F85233049AADF82630012509A92320B7
:1084E0008DF82450FFF7D2FC00287FF4EEAECDE9E2
:1084F000090094F86073B4F854330B90049A8DF823
:10850000245009A920208DF82670ADF82830FFF7F7
:10851000BDFC00287FF4D9AE0990CDE90A0094F89B
:108520005633049A8DF8245009A922208DF826305C
:10853000FFF7ACFC00287FF4C8AECDE9090094F841
:1085400057330B90049A8DF8245009A921208DF8F7
:108550002630FFF79BFC00283FF403AFB5E604F19B
:108560001000FEF7D7F876E7B46003009D7E0200A6
:108570000036002098600300AC600300FD7E02001E
:10858000B0600300A97E020000E100E0A17E0200CD
:1085900000B5084B85B01B7D019108468DF80C3065
:1085A0000BF0C7F9019982B203A8FFF76BFC05B085
:1085B0005DF804FBB460030090F96203704700BFEC
:1085C00070B5044682B0D0F870030D4608F066FF1F
:1085D0004FF47A7206460023A90DA8020AF076F835
:1085E000002302460421D4F87003009308F02AFF08
:1085F0000EB102B070BD0096D4F870033346324617
:10860000032108F01FFF02B070BD00BF01290CBF9D
:10861000B0F85203B0F85803704700BF13299ABF4F
:10862000DE3150F821000020704700BF10B5064C25
:108630000021D4F86C0307F0FFF9D4F86803002197
:10864000BDE8104007F0F8B9E038002090F8743326
:1086500003B9704710B582B0D0F8704308F082F8C3
:108660000023024600932046012108F0EBFE02B0F1
:1086700010BD00BFF0B583B0002405462346D0F8F6
:10868000700300942246032108F0DCFE05F55D76B8
:1086900005F5717756F8040F20B1FEF75FFB08B1BE
:1086A0000134E4B2BE42F5D195F8743343B1211ED2
:1086B00018BF0121132003B0BDE8F04009F072BDDE
:1086C00003B0F0BD0148FFF79FBD00BFE0380020B8
:1086D00000207047002201214270C0E90122017090
:1086E000C2818281704700BF10B50446017001B19C
:1086F00010BD0A2006F00AFF606010BD037810B5B7
:10870000044643B1002301226370C4E90133E381CD
:10871000A381227010BD406807F096FCF2E700BF0D
:10872000002381608281C381704700BF037870B5E8
:1087300004460D46B3B94668012363704FF47A725C
:108740000023A802A90D09F0C1FF0146304607F039
:10875000FFFA98B9237800264FF0FF356670A3B969
:10876000284670BD03220021012006F08DFE06463A
:1087700060600028E0D14FF0FF35F1E7E58923780C
:108780000026ADB26670002BEAD0606807F05CFC92
:108790006660284670BD00BF4078704738B5044613
:1087A0008089824228BF0246154619B1A0680AF0A6
:1087B000BDF9A089E389A26815FA83F3401B9BB237
:1087C0002A44A081E381A260284638BD406820B1D8
:1087D00000231A46194606F0CBBE7047B1DF70473A
:1087E000B2DF704708B50F4806F074F80E490D481F
:1087F00000F054FB28B10D490A4800F04FFB50B17E
:1088000008BD0949074800F065FB0849054800F024
:1088100045FB0028F4D1BDE808400449014800F0B8
:1088200059BB00BFB03C0020D8600300EC600300DF
:1088300070B586B00E46032300210546144600930A
:10884000044A0496084603AB0395059409F06EFBB1
:1088500006B070BD1D8B020070B586B003231446B0
:1088600006460D460093104603AB044A05940721C3
:10887000CDE9036509F05AFB06B070BD4D8C0200CE
:1088800030B50A4691B089795379039111790293F1
:10889000D378094D094C01910093937852780128BF
:1088A0000CBF2946214604A80AF0EEFF04A904489B
:1088B00000F068FB11B030BD0061030030610300BF
:1088C000B03C00202DE9F043D1B00B78032B04AF6E
:1088D0000D460446904668D95A08022A5ED14F4A8E
:1088E0004F49504BDFF84891012818BF114600222C
:1088F000381D00F01FFD4B4907F1680000F050FCE7
:1089000007F1CC0611E00246414607F1680000F08D
:1089100039FD08F1380229464846FFF7ABF804460E
:1089200078BB07F1680000F0A3FD0022391D304636
:1089300000F0D0FD07F1D0000DC8D7F8DC10D7F853
:10894000E4407B67D7F8E83097F8E0C0F8663A670C
:10895000B967412207F1EC0107F18800C7E920431C
:1089600087F87CC00AF0E2F807F1680000F0ACFD7F
:10897000044607F1680044B100F0B2FB5028D0D1A2
:10898000C1E707F1680000F073FD381D00F070FDCD
:10899000204607F59A77BD46BDE8F08300242046BF
:1089A00007F59A77BD46BDE8F083E9468CB0897932
:1089B000AB786A78039169790291297901911A4E0D
:1089C0001A49E878009004AD012C08BF31462846CA
:1089D00007F1CC060AF058FF1249304600F0E0FBE0
:1089E00029463046002200F089FC044650B9002494
:1089F000304600F03DFD2046CD4607F59A77BD464E
:108A0000BDE8F083304600F06BFB021EEFDD92B252
:108A10004146304600F0B6FCEAE700BFEC600300D8
:108A2000D8600300B03C0020006103003061030007
:108A300000390020F0B5ADB095799378344E1446E6
:108A4000527803956579029594F804C0CDF804C076
:108A5000304DE478009404AF0C4601280CBF314639
:108A6000294607F10C000AF00FFF2B4B07F10C0110
:108A700007F13C00002200F05DFC07F13C0000F033
:108A800023FD40B9002407F13C0000F0F1FC204632
:108A9000A437BD46F0BD07F13C0000F021FB051EE8
:108AA00008DD07F13C0000F0ABFC291807F13C00A1
:108AB00000F088FC07F13C0000F012FB051E08DD09
:108AC00007F13C0000F09CFC291807F13C0000F085
:108AD00079FC07F13C0000F003FB0028D2DDC31D48
:108AE00023F007036D46ADEB030D82B204A907F135
:108AF0003C00C7E9001200F045FC2046D7E900120F
:108B00000323FFF76BFEB0FA80F46409AD46BAE7C1
:108B10000061030030610300B03C0020F0B5B5B047
:108B200092F84E5092F84A30434E144692F849203B
:108B3000039594F84D50029594F84C50019594F893
:108B40004B5000950D463D4904AF012818BF3146F2
:108B500007F12C000AF098FE394807F12C0100F0CB
:108B60009DF96E4600284AD1354B07F12C0107F1DB
:108B70005C00012200F0DEFB07F15C0000F0A4FCC9
:108B800018B9C437B546BD46F0BD502107F15C00A9
:108B900000F0D4FA5022214607F15C0000F00CFAF4
:108BA0000023294627487B61C7E90333C7E9063319
:108BB000C7E90833BB62FFF731FD07F10C01202242
:108BC000FEF7F0F93B7B03B307F10C000AF0B1FEAE
:108BD000013082B2C1B207F15C007A6000F0AEFAF7
:108BE0007A6807F10C0107F15C0000F0E5F907F184
:108BF0005C0000F03DFCC437B546BD46F0BD07F152
:108C00002C010F4800F0BEF9AEE794F8491094F833
:108C10004D3094F84E20039194F84A10029194F844
:108C20004B10019194F84C10009107F10C0006498B
:108C30000AF02AFEC8E700BF3061030000610300AC
:108C4000B03C0020E0380020606103002DE9F043D3
:108C5000ADB00C4604AF002103230646154620465E
:108C600007F10A027981FFF7BBFD7B89E84623B94A
:108C7000A437C546BD46BDE8F0830733DB08A8EB43
:108C8000C3039D460DF11009204607F10A0249462B
:108C90000323FFF7A5FD04460028E9D1A979AB78A5
:108CA0006A78039169790291297901913D483E4999
:108CB000ED780095012E08BF014607F10C000AF07F
:108CC000E3FD3A4B07F10C0107F13C00012200F0F3
:108CD00031FB07F13C0000F0F7FB0028C8D021462B
:108CE00007F13C0000F06EFB07F13C0000F0F8F9E2
:108CF000041E08DD07F13C0000F082FB211807F19B
:108D00003C0000F05FFB07F13C0000F0E9F9041EB5
:108D100008DD07F13C0000F073FB211807F13C006F
:108D200000F050FB07F13C0000F0DAF97C8980B2DA
:108D3000A04213D0E1B207F13C0000F0FFF9224657
:108D4000494607F13C0000F037F907F13C0000F01C
:108D50008FFBA437C546BD46BDE8F083E31D6D46D5
:108D6000DB08A5EBC3039D4604A9224607F13C009E
:108D7000796000F007FB79687A89484609F0C8FEF7
:108D800008B9AD46E1E707F13C0000F055FB7B89EF
:108D9000DB43191807F13C0000F014FBAD467C8959
:108DA000C8E700BF0061030030610300B03C002051
:108DB000704700BF10B5044608F0FEFD204610BD08
:108DC00038B50A4B04460D46442240F80C3B0021BE
:108DD00009F0D4FE0023A560237104F154010120A1
:108DE00006F076FD2065204638BD00BF886103008F
:108DF00070B504460E46006D4FF0FF3106F0A8FF37
:108E0000257955B98EB1A660314604F10C0005F004
:108E1000BBFBB0FA80F56D0925710023206D1A4661
:108E2000194606F0A5FB284670BDA668002EF4D0B2
:108E3000EAE700BF70B505464FF0FF31006D06F060
:108E400087FF2B7993B1002305F10C062B71304677
:108E500005F0AEFC044680B10023286D1A46194681
:108E600006F086FBB4FA84F0400970BDA96805F1EC
:108E70000C0004F029FF0446EEE7A968304604F030
:108E800023FF04460028E7D1A968304605F07CFBA3
:108E900004460028E0D101232B71DDE730B50446FC
:108EA00095B00D46006D4FF0FF3106F051FF294699
:108EB00001AA04F10C0004F0DBFC00230246194671
:108EC000206D14461A4606F053FBB4FA84F04009AC
:108ED00015B030BD2DE9F04F83B00B7800AF2F2BCC
:108EE00078600CBF4C1C0C4606460D46006D4FF0DA
:108EF000FF3106F02DFF06F10C084FF0000917E0D6
:108F0000ADEB030D68468B4500F8019BEA4601DD99
:108F100009F034FE29465A46504609F007FE5146EC
:108F2000404603F00BFD08B1113028D10134B5469D
:108F300020462F210AF0D7FCA0EB050B0BF108030C
:108F40006E460021044623F007035A460028D7D175
:108F50002946404603F0F2FC60B901247A680023F8
:108F6000106D19461A4606F003FB20460C37BD4625
:108F7000BDE8F08F113014BF00240124EEE7002477
:108F8000B546EBE738B504460D46006D4FF0FF31AE
:108F900006F0DEFE294604F10C0004F0C1FC0023BB
:108FA00002461946206D14461A4606F0E1FAB4FA54
:108FB00084F0400938BD00BF036970B504460D4612
:108FC000186D4FF0FF31164606F0C2FE237D4BB1FF
:108FD000002522690023106D19461A4606F0C8FACA
:108FE000284670BD2069A1692A4633460C3003F03B
:108FF000F3FF20EAE075ECE770B50369044682B040
:10900000186D4FF0FF3106F0A3FE267D4EBB2069A0
:10901000A1690C3004F01EFC05462069A1698DF899
:10902000076001230DF107020C3004F05FFB0028FC
:109030002069A169C8BF9DF807602A4600F10C00AD
:109040004FF00003D8BF4FF0FF3604F0D3FB226986
:109050000023106D19461A4606F08AFA304602B00F
:1090600070BD4FF0FF36F2E738B5036904464FF0A4
:10907000FF31186D06F06CFE237D4BB1002522698F
:109080000023106D19461A4606F072FA284638BDBC
:109090002069A1690C3004F0DFFB05462069A16955
:1090A0000C3004F0D7FB2D1AE9E700BF036910B5B7
:1090B00004464FF0FF31186D06F04AFE237D43B1A0
:1090C00022690023106DBDE810401A46194606F0CB
:1090D0004FBA2069A1690C3004F0E4F9F0E700BF51
:1090E00030B50369044683B0186D4FF0FF3106F0C8
:1090F0002FFE257D55B122690023106D19461A46B1
:1091000006F036FA4FF0FF3003B030BD2069A16998
:109110000DF1070201230C3004F0E8FA23692A4616
:1091200004462946186D2B4606F022FA002CCCBFC7
:109130009DF807004FF0FF3003B030BD30B5036835
:10914000164A5B6883B093428DF807101ED10369FD
:1091500004464FF0FF31186D06F0FAFD237D53B140
:10916000002522690023106D19461A4606F000FA00
:10917000284603B030BD2069A1690C3001230DF1F0
:10918000070203F029FF20EAE075EAE701220DF16A
:10919000070198470546284603B030BDB98F020045
:1091A00030B4074C016100224FF47A75C0E90042E7
:1091B0008560C0E9062230BC027580F82020704727
:1091C000A4610300F0B5836997B004460D461646C6
:1091D00093B1077D006919460C30002F45D003F08C
:1091E000ADFDA06906F0E8F8E0690023A36108B1CD
:1091F00006F0E2F80023E361206903AA0C30294657
:1092000004F036FB98B99DF80C30112B34D02C208B
:1092100006F0B8F80146A06130B120692A460C304A
:1092200003F064FD002839D0002017B0F0BD0230F3
:10923000FAD1012EF8D1382006F0A4F80146A06139
:109240000028F1D0206940F203130C302A4603F0C5
:1092500011FE06460028E7D12069A1690C300223DF
:10926000324604F0C7FA267509E004F09DF9A069BA
:1092700006F0A2F8A761BFE7EEB1012E3AD02F2188
:1092800028460AF071FB203400B1451C29462046CF
:1092900040220AF056FB012017B0F0BD01232375D0
:1092A00028460AF046FB013006F06CF82946E061DA
:1092B0000AF026FBE3E701233820019306F062F869
:1092C000019BA06101460028AED020692A460C30DF
:1092D00003F0D0FD0028A7D1012E02D00023237572
:1092E000CDE72369A169024603F10C00022304F0D3
:1092F00081FAF3E740F20313DEE700BF30B50369FC
:1093000083B004460D46186D01924FF0FF3106F010
:109310001FFD019A29462046FFF754FF21690023CB
:1093200002461446086D1A46194606F021F92046F1
:1093300003B030BD70B504460025C4E90655104899
:10934000236182B0206084F820504FF47A700E467A
:10935000A0604FF0FF31186D65602575019206F031
:10936000F7FC019A31462046FFF72CFF22692B4675
:10937000106D29462A4606F0FBF8204602B070BD63
:10938000A4610300036970B504460D46186D4FF0E3
:10939000FF31164606F0DCFC237D4BB10025226927
:1093A0000023106D19461A4606F0E2F8284670BDF3
:1093B0002069A1692A4633460C3004F097F9054626
:1093C000EDE700BF38B5036904460D46186D4FF050
:1093D000FF3106F0BDFC237D4BB10025226900233F
:1093E000106D19461A4606F0C3F8284638BD2069A4
:1093F000A1692A460C3004F0FDF9C543ED0FEDE7F5
:1094000038B5036904464FF0FF31186D06F0A0FC33
:10941000237D4BB1002522690023106D19461A46A1
:1094200006F0A6F8284638BD2069A1690C3004F082
:1094300011FA0546EFE700BF38B5036904464FF05F
:10944000FF31186D06F084FC237D4BB100252269A5
:109450000023106D19461A4606F08AF8284638BDD2
:109460002069A1690C3004F0F7F90546EFE700BF69
:10947000036970B504464FF0FF31186D06F068FCC3
:10948000A16981B12069257D0C30ADB103F056FC96
:10949000A06905F091FFE0690023A36108B105F020
:1094A0008BFF0023E36122690023106DBDE870404B
:1094B0001A46194606F05CB804F076F8A06905F083
:1094C0007BFFA561EFE700BF8069003818BF01206E
:1094D000704700BF2DE9F04F95B00B6906460C466A
:1094E000186D4FF0FF3100AF904606F031FC0023BD
:1094F0002069337586F82030227D2B4930614FF486
:109500007A70C6E90013C6E90633B060DAB342F6F2
:109510002E652069A1690C303A1D03F023FC012857
:1095200031D1BB892E2BF4D0AB4238D0D4F81C906B
:1095300048460AF0FEF9054607F10C000AF0F9F971
:109540002B18093323F00703EA46ADEB030D6846F9
:109550006A1C494609F0EAFA99F800302F2BEB46CD
:1095600002D199F801301BB1104B1B882BF8053044
:1095700007F10C0158460AF0A7F942465946304611
:10958000FFF720FED54622690023106D19461A46C2
:1095900005F0EEFF30465437BD46BDE8F08FBB7B8B
:1095A000002BB6D0C2E700BFA4610300986103009E
:1095B0002DE9F04F85B0DDE90E4B109F81460D4639
:1095C00090461E46002F63D0B8F1000F03D0D8F8A4
:1095D0000030B34249D0D9F800002B689E422BD00E
:1095E0004369B4FBF3F203FB1242BAB9BB4215D88C
:1095F000B7FBF3F203FB127AA7EB0A030093039382
:10960000436822461F4631465B46B84788B9039BEC
:1096100057469B441C44002FD6D139E00093A21A30
:10962000C5E90062D0F804A0AB683146D0470028F5
:10963000CAD005B0BDE8F08F69684369A142D0D8AF
:10964000CA18A242CDD9A2EB040ABA45AB6828BF1A
:10965000BA46611A524658461944BF1A544409F092
:1096600065FAD344002FAFD112E0D8F80430A342FA
:10967000B1D8D9F8000082691A44A242ADD9A2EB50
:10968000040ABA45D8F8081028BFBA46E31AE1E739
:10969000002005B0BDE8F08F2DE9F04F074687B0F8
:1096A0000D4672B30368D1F800B090469A69D1E9CB
:1096B00001104AB3013A01F101098618A9EB00092A
:1096C000441E4FF0010A08E014F8012F9DF81730EE
:1096D0009A4223D1A6423B6814D01A6A934509EBFB
:1096E000040320D20DF11702CDE90032CDF808A015
:1096F0005B46002241463846FFF75AFF0028E3D078
:1097000009DB3B68A8689A69FF2109F037FA4FF036
:10971000FF332B60002007B0BDE8F08F6FF03300FF
:1097200007B0BDE8F08F034B034A0448122109F04B
:1097300063F900BFC0610300EC630300E061030054
:109740002DE9F04F87B0DDF840A00592002B64D0E2
:10975000D0F800908B46D9F81C105C1EA1F10808C7
:109760004445074651D3B4FBF8F0013808F0C6FF72
:10977000D04500F10200A4EB8003B3FBF8F560D8FC
:10978000BAFBF8F0013808F0B9FF861CAAEB860690
:10979000B6FBF8F6304608F0B1FFAAEB800006FBF6
:1097A000180AB54243D9D9F82020059B4FF0040987
:1097B0000DF114080BE0012B45D93A68126A934267
:1097C00041D8012101FA04F42D1BB54230D9AC1B5C
:1097D000B4FA84F495FAA5F1C4F11F04B1FA81F149
:1097E0008C4228BF0C4693424FEA840132D200914A
:1097F000CDE90189002259463846FFF7D9FE059B7D
:109800000028D8D007B0BDE8F08FD04588BF1346F8
:10981000BAFBF8F00CD80025B4E711994FF0FF32ED
:109820000A60129A1846136007B0BDE8F08F059BD6
:10983000119A1360129B0020C3F800A007B0BDE886
:10984000F08F0026ADE7064B064A07484FF48F61BC
:1098500009F0D2F8054B064A0348122109F0CCF86A
:10986000606203000C640300E0610300C061030058
:10987000EC6303002DE9F04F89B00746149C129D5C
:109880008B4692461E46002C55D0DBF80030B34282
:109890005CD0013340F0A18038688269B5FBF2F3F7
:1098A00002FB1353002B4AD1A24248D8B4FBF2F377
:1098B00002FB13430593E31A009304938468139BFC
:1098C0002A463146A04700287ED1BAF1000F29D0A0
:1098D000049B3BB3139B5C1E049B04EB0309139B8B
:1098E00005F10108A8EB030807E014F8012F9DF823
:1098F0001F309A4266D14C4514D03B681A6A964292
:1099000008EB040363D2012202920DF11F02CDE99C
:1099100000325146334600223846FFF749FE002800
:10992000E3D051DB139A049B059C11461944139113
:109930001D44002CA9D1002009B0BDE8F08FEB1A1E
:10994000CBE90063DBF80030B342A2D1DBF80410AE
:10995000A9429ED83A6892690A44AA4299D9A2EBD0
:109960000508A045DBF8080028BFA046691A08448E
:109970004246139909F0DAF8386813998269454428
:109980004144B5FBF2F302FB1353A4EB080413911B
:10999000002B7FF478AFDBF800104B1C3FF473AF63
:1099A0000092DBE90123D0F80880C04760B9524635
:1099B00059463846FFF770FE00283FF464AF09B0FF
:1099C000BDE8F08F6FF0330009B0BDE8F08F064BB3
:1099D000064A0748122109F00FF8064B064A0448C8
:1099E000B72109F009F800BFC0610300EC63030070
:1099F000E06103008C620300FC6303002DE9F04F7B
:109A00000446D2E9003091B04FF0010B0A930023D5
:109A10000B90069104F114080DF1280905932368B1
:109A200059F8045B1B6A9D427BD210230DF1300A6A
:109A30000022CDE901A300922B4641462046FFF7C4
:109A4000B7FD002839D1059B002B60D10D9B23F079
:109A50000043132B4FD92268D26993424BD84FF061
:109A6000FF3309A810225146099304F0BFFE0D9B55
:109A700023F00043102B28D0CDF81C9010260DF1B8
:109A80002307994607E001360122394609A804F068
:109A9000ADFEB14517D023681B6A9D4241D2012318
:109AA000CDE9017300962B46002241462046FFF780
:109AB0007FFD0028E7D0DDF81C9010F1340F1AD09C
:109AC00011B0BDE8F08FDDF81C90099B9BB99AE8B6
:109AD0000F000BF0010610AF07EB860C069F102657
:109AE000FE603E467D601C365CF8185CBD6086E812
:109AF0000F0001230593BBF1020F0FD1059B002B33
:109B000014BF00206FF0330011B0BDE8F08F069A4B
:109B10000C9BD2699B1A002B98DAECE74FF0020BF2
:109B20007DE7034B034A0448122108F065FF00BF9C
:109B3000C0610300EC630300E0610300436801338C
:109B400037D02DE9F0438368013383B0044628D031
:109B500015460E464FF000084FF001096A462946A7
:109B6000CDE90089FFF74AFFE0B905F124086B6AE7
:109B7000591C16D0AF6A7A1C13D0D6F800C09C4589
:109B800013D0D6F804E0BE450FD0734542462946AF
:109B900020460AD0BC4508D0FFF730FF0028E6D0A9
:109BA00000E0002003B0BDE8F083012003B0BDE871
:109BB000F0830020704700BF2DE9F041D1F820C0AC
:109BC0000C46C9682CF00043043B01F10C069E4290
:109BD00084B0054617461FD904F12408102612E068
:109BE000424621462846FFF709FF90B9D4F820C025
:109BF000A169E6602CF00043043B14311B2BA161EA
:109C00004FF0100108D8BCF1000FE9DB39606FF0AC
:109C1000010004B0BDE8F0812A46636852F8140BD5
:109C2000066AB34207F104001AD20C26CDE90010EF
:109C30000296114628460022FFF7BAFC0028E8D118
:109C40007B79BA79FD79A16904331344E2683A60FB
:109C50002B441A440B44E260A36104B0BDE8F081D8
:109C6000024B034A0348122108F0C6FEC0610300FC
:109C7000EC630300E0610300F0B593B000260D46ED
:109C8000012707A96A46CDE900670446FFF7B6FE3B
:109C9000064610B121E0831C22D1109B01331CD059
:109CA000119B013319D010AA07A92046FFF7A6FE81
:109CB000B0B903AA07A92046FFF77EFF0028EAD122
:109CC0009DF91030002B4FF00802294605A8F0DB63
:109CD00008F01EFF0028ECD10126304613B0F0BD7D
:109CE0000646304613B0F0BD2DE9F0471646002475
:109CF0000122C6E90942824688461D4606F124092A
:109D00004A4631465046FFF779FE074668B92A466B
:109D100031465046FFF750FF50B1831C1FD1736A84
:109D2000013302D0B36A0133EAD13846BDE8F08787
:109D30002C7904F07004202CE9D1AB68D8F800200D
:109D4000934208D0E868D8F80410884203D08B42C8
:109D500001D08242DBD101273846BDE8F0870746B3
:109D6000E3E700BF2DE9F04F2DED028B8DB090465B
:109D70001C46099340F622032268C8F80430089272
:109D8000D0E90123724EC8F8082082468946C8F8F7
:109D90000C3000F1140B089D3146284609F0F8FDFF
:109DA0002B460344044631461846059309F0B0FD9E
:109DB0000128049000F0B080022804D1059B1B7894
:109DC0002E2B00F0B280DDE90423134408931F46D4
:109DD00001243146384609F0DBFD07443846314658
:109DE00009F096FD78B1022802D001340744F0E76B
:109DF0003B782E2BF9D17B782E2BF6D1013CF5D177
:109E0000BB1C0893C7E7059C207800285FD0099BFE
:109E10001C6098F80430222B40F08D8008F1080374
:109E20001A464946504608EE103AFFF7E7FD00286B
:109E30004DD1049B013B234407934246494650467B
:109E4000FFF7BAFE002842D198F8042002F07F0301
:109E5000112B01D0222BF0D198F8073004998B42B6
:109E6000EBD1D8F8003098F8051098F80650D9F8DA
:109E7000047004330B441D44049BA3B3059BCDF82D
:109E800018800135DDF81C80ED1A5C1E07E014F81F
:109E9000012F9DF82F309A421ED144451FD0DAF889
:109EA00000301A6A974205EB040347D2012202925E
:109EB0000DF12F02CDE9003259463B4600225046B3
:109EC000FFF776FB0028E2D0DDF8188009DA0DB044
:109ED000BDEC028BBDE8F08FDDF81880ADE7DDF852
:109EE000188098F8042013067FF555AFDAF804308F
:109EF00001330CD0DAF80830013308D018EE101A0C
:109F00005046FFF7B9FE00281ED198F8042002F051
:109F10007F0288F804203EE72B5D2E2B7FF453AFA1
:109F2000DDE904231344089335E7059B5B782E2B6A
:109F30007FF449AFF4E76FF01300C8E7054B064A1A
:109F40000648122108F058FDC1DB6FF00100BEE7A2
:109F500098610300C0610300EC630300E06103004B
:109F60002DE9F04F8B469DB00BF1040304930BF1E8
:109F70000C03CDE9053B016B04464FF001080025B9
:109F8000D4E90D3010E05A09E66B01385F1CA0637C
:109F9000676356F822C003F01F0208FA02F212EAC1
:109FA0000C0F00F027813B469942ECD1002800F0CD
:109FB000F2812268E36AD2E908621944904228BF1C
:109FC0001046B1FBF6F306FB13112063E162E06B70
:109FD0006563D208002108F0D1FD6368013300F009
:109FE0005781A368013300F053810022012300252B
:109FF000CDE9082304F1140701222E46D4F800C04D
:10A00000E16ADCF82030206B591A0E44B6FBF3F5F8
:10A0100003FB1565854210D26909E26B05F01F0547
:10A0200052F8213008FA05F51D4342F82150DCF8BA
:10A030002030E16A099A206B591A0A44B2FBF3F105
:10A0400003FB112383420AD25809E16B03F01F037B
:10A0500051F8202008FA03F3134341F8203008AAEE
:10A0600011A92046FFF7CAFC002840F00E810C25FC
:10A07000149A24E02068129B006A834280F01A82BE
:10A080000EA9CDE900210295002239462046FFF7AE
:10A090008FFA002840F0F9809DF839209DF83A3079
:10A0A0009DF83B60149904321A449DF838303244CC
:10A0B00003F070030A44102B149200F0EB80199BFC
:10A0C00023F00043043B02F10C009842D2D9DDE9B1
:10A0D0001A62701CCDE9086201D0511C8ED1D4F8EF
:10A0E0000C904D46B9F1000F00F0DE81EB69DA0308
:10A0F00040F156816F69002F00F05281D4F800A022
:10A10000DAF81C60013F083EB742C0F0CF81B7FBD0
:10A11000F6F0013808F0F2FA0230A7EB8002B2FB49
:10A12000F6F6D4F830E0E16A2B69079505F12C00CA
:10A130000546DAF82020704604F114098E460146DF
:10A140009818A0EB0E0EBEFBF2F002FB10E28A4262
:10A150000AD25709E06B02F01F0250F8271008FAE4
:10A1600002F20A4340F82720002E00F01781DAF8A7
:10A17000202006F00107C7F1020A93424FEA8A0045
:10A1800080F098810BA90022CDE901100092494688
:10A190002A462046FFF70CFA002876D10AF1FF3C48
:10A1A000D4F800A013E0BBFBF2F302FB13B38B4225
:10A1B0004FF0010014D24FEA531EE16B03F01F036E
:10A1C00051F82E2000FA03F3134341F82E30D4F84F
:10A1D0002CE0DAF820200B9B216BA2EB0E0B9B44AA
:10A1E0006045E0DB1CAB03EB8C0C023F5CF8443CAD
:10A1F0003E44A5E72068E26A016A1344B3FBF1F22A
:10A2000001FB1233049A42F8043BD4E90C1399423F
:10A21000049207D10FE0A26B0133013A8B42C4E9EB
:10A220000D3208D05D0903F01F0256F8255008FAD8
:10A2300002F22A42EFD1DDE9043293427FF49FAE6D
:10A24000DDF818B0006ADBF8043083420BF11C0221
:10A2500004F1140180F02E81042501920022204691
:10A2600002950092FFF7A4F9002840F08B80DBF8FC
:10A270001C304FF0FF32CBE90922142001331021AA
:10A28000CBE90730CBF80C1000201DB0BDE8F08FF3
:10A29000216B75E6109B002B3FF411AFD4F800A0A2
:10A2A000DAF81C6003F1FF3BA6F10809CB4570D337
:10A2B000BBFBF9F0013808F021FA861CABEB8606EF
:10A2C000B6FBF9F60F9BE16ADAF82020D4F830E00B
:10A2D0009818401AB0FBF2F102FB110272450BD242
:10A2E0004FEA521CE16B02F01F0251F82C0008FAF1
:10A2F00002F2024341F82C20002E3FF4B9AEDAF806
:10A30000202006F00109C9F1020A93424FEA8A00AF
:10A3100080F0D0800BA90022CDE9011000923946CF
:10A320002046FFF745F90028AFD10AF1FF3CD4F8E9
:10A3300000A013E0BBFBF2F302FB13B373454FF035
:10A34000010014D24FEA531EE16B03F01F0351F8D2
:10A350002E2000FA03F3134341F82E30E16ADAF8B5
:10A3600020200B9BD4F830E0A2EB010B9B4460450E
:10A37000E0DB1CAB03EB8C0CA9F102095CF8443C5C
:10A380004E44A5E710F1340F3FF471AF1DB0BDE8A6
:10A39000F08F064696E76FF01B0076E7079DEB69A6
:10A3A0009B037DD52F6A002F7AD0D4F800A0DAF86D
:10A3B0001C60013F083EB7427AD3B7FBF6F0013884
:10A3C00008F09CF90230A7EB8003B3FBF6F6D4F853
:10A3D00030E0E16A6B6A079505F12C000546DAF872
:10A3E0002020704604F114098E4601469818A0EB0F
:10A3F0000E0EBEFBF2F002FB10E28A420AD25709AF
:10A40000E06B02F01F0250F8271008FA02F20A432C
:10A4100040F82720002E42D0DAF8202006F001076D
:10A42000C7F1020A93424FEA8A0043D20BA90022E5
:10A43000CDE90110009249462A462046FFF7B8F8B8
:10A4400000287FF422AF0AF1FF3CD4F800A013E00B
:10A45000BBFBF2F302FB13B38B424FF0010014D2AB
:10A460004FEA531EE16B03F01F0351F82E2000FA50
:10A4700003F3134341F82E30D4F82CE0DAF820200F
:10A480000B9B216BA2EB0E0B9B446045E0DB1CABEE
:10A4900003EB8C0C023F5CF8443C3E44A6E7079D6E
:10A4A0002D68002D7FF422AE216B68E5002638E68A
:10A4B00000268CE7024B034A0348122108F09CFA5D
:10A4C000C0610300EC630300E06103002DE9F04F7D
:10A4D0002DED028B9BB0012504460491A9464FF057
:10A4E0000008D4E90D31D4F830C00FE05A09E76B09
:10A4F0000139581CA163606357F8226003F01F0202
:10A5000005FA02F2324200F02A8103469C45EDD161
:10A51000002900F052822368E66AD3E90802B444B5
:10A52000914228BF1146BCFBF0F300FB13C321632B
:10A53000E362E06BC4F83480D208002108F01EFB0F
:10A5400063680133CDD0A3680133CAD00022012350
:10A55000CDE906230122002004F114079646226863
:10A56000E36A116A266BCB1A03EB000CBCFBF1F01B
:10A5700001FB10C0864210D94609E16B00F01F00B4
:10A5800051F8263005FA00F0184341F82600D4E9C6
:10A590000B36116ADDF81CE0CB1A7344B3FBF1F201
:10A5A00001FB1233B3420AD25809E16B03F01F03D7
:10A5B00051F8202005FA03F3134341F8203006AA8E
:10A5C0000FA92046FFF71AFA002840F0E9804FF063
:10A5D0000C08129A0CAE23E02168109B096A8B428A
:10A5E00080F0F5810092CDE90168002239462046CD
:10A5F000FEF7DEFF002840F0D3809DF831209DF863
:10A6000032109DF833C0129B04320A449DF830107A
:10A6100062441A4401F07003102B129200F0C580BE
:10A62000179B23F00043043B02F10C019942D3D95C
:10A63000DDE9180E411CCDE9060E02D0BEF1FF3F48
:10A640008DD1D4F80C804646B8F1000F3FF447AFE7
:10A65000F369DA0340F128817769002F00F0248143
:10A66000D4F800A0DAF81C30013FA3F108084745F0
:10A67000C0F0A881B7FBF8F0013808F03FF80230CD
:10A68000A7EB8007B7FBF8F704F11400E16AD4F8F0
:10A6900030C0DAF8202033690596834606F12C0095
:10A6A00008EE100A0E4661469818A0EB060EBEFB97
:10A6B000F2F002FB10E28A420BD2E06B4FEA521C2E
:10A6C00002F01F0150F82C2005FA01F10A4340F86E
:10A6D0002C20002F00F0E680DAF8202007F0010897
:10A6E000C8F1020A93424FEA8A0080F0708109A9FA
:10A6F0000022CDE901100092594618EE102A20469A
:10A70000FEF756FF00284BD10AF1FF3CD4F800A019
:10A7100012E0BEFBF2F302FB13E38B424FF00100A9
:10A7200012D25E09E16B03F01F0351F8262009FAEB
:10A7300003F3134341F82630E66ADAF82020099B38
:10A74000216BA2EB060E9E446045E2DB1AAB03EBE5
:10A750008C0CA8F102085CF8443C4744A4E721684B
:10A76000E26A096A1344B3FBF1F201FB1233049A63
:10A770001360D4E90C03834211D0012506E0A26BDB
:10A780000133013A8342C4E90D3208D0590903F07C
:10A790001F0257F8211005FA02F20A42EFD10020F9
:10A7A0001BB0BDEC028BBDE8F08F0E9E002E3FF477
:10A7B00011AFD4F800A0DAF81C20013EA2F1080B7A
:10A7C0005E450AD3B6FBFBF0013807F097FF023075
:10A7D000A6EB8003B3FBFBF31846E16AD4F830C064
:10A7E0000D9BDAF8202008EE107A8E460746614667
:10A7F0009818A0EB0E0EBEFBF2F002FB10E28A42AC
:10A800000AD25609E06B02F01F0250F8261005FA32
:10A8100002F20A4340F82620002F00F0D580DAF833
:10A82000202007F00106C6F1020A93424FEA8A008F
:10A8300080F0CD8009A90022CDE90110009218EE28
:10A84000101A2046FEF7B4FE0028A9D10AF1FF3CF9
:10A85000D4F800A013E0BBFBF2F302FB13B38B426E
:10A860004FF0010014D24FEA531EE16B03F01F03B7
:10A8700051F82E2009FA03F3134341F82E30D4F88F
:10A880002CE0DAF82020099B216BA2EB0E0B9B44F5
:10A890006045E0DB1AAB03EB8C0C023E5CF8443CF9
:10A8A0003744A5E7059EF3699B0340F18180376A31
:10A8B000002F7DD0D4F800A0DAF81C20013FA2F1CF
:10A8C000080847457CD3B7FBF8F0013807F016FFBE
:10A8D0000230A7EB8007B7FBF8F704F11400E16A38
:10A8E000D4F830C0DAF82020736A0596834606F162
:10A8F0002C0008EE100A0E4661469818A0EB060ED2
:10A90000BEFBF2F002FB10E28A420BD2E06B4FEA90
:10A91000521C02F01F0150F82C2005FA01F10A43E5
:10A9200040F82C20002F42D0DAF8202007F0010850
:10A93000C8F1020A93424FEA8A0048D209A90022CC
:10A94000CDE901100092594618EE102A2046FEF774
:10A950002FFE00287FF424AF0AF1FF3CD4F800A0BA
:10A9600012E0BEFBF2F302FB13E38B424FF0010057
:10A9700012D25E09E16B03F01F0351F8262009FA99
:10A9800003F3134341F82630E66ADAF82020099BE6
:10A99000216BA2EB060E9E446045E2DB1AAB03EB93
:10A9A0008C0CA8F102085CF8443C4744A5E7059EDE
:10A9B0003668002E7FF44CAE91E56FF01B00EFE699
:10A9C00000278AE700275FE618EE107A01E6034BBE
:10A9D000034A0448122108F00FF800BFC0610300C9
:10A9E000EC630300E06103002DE9F04F044687B0FB
:10A9F0000F4600F1140905A92046FFF767FD06463A
:10AA000040B920680599C3689847064630B110F1EF
:10AA1000340FF0D0304607B0BDE8F08FBB6A83B387
:10AA200007F12C0A35460DF1130804F1200B13E051
:10AA30002268059B126A934247D20122CDE9018226
:10AA400000954A4659462046FEF714FF002831D1AA
:10AA5000BB6A0135AB4214D922687B6A126A934201
:10AA60002DD20122CDE90182009552464946204669
:10AA7000FEF79EFD0028DBD00646304607B0BDE855
:10AA8000F08F2368A16A9A69786B08F04FF8D4E9CF
:10AA900008122368A06AC7E90B12FF219A6908F01F
:10AAA0006DF8059B4FF0FF32304622627B6207B0A3
:10AAB000BDE8F08F10F1340F9DD00646DDE7064B60
:10AAC000064A0748122107F097FF034B054A04483E
:10AAD0009C2107F091FF00BFC0610300EC630300FD
:10AAE000E0610300FC6303002DE9F04F2DED028BC4
:10AAF000C9B004462C2200211CA808F03FF84FF0F2
:10AB00000043282227A80021249308F037F823685F
:10AB10001B6A01223192002B00F0C98100274FF0FF
:10AB20000C09319B013300F0B18130AA27A92046DE
:10AB3000FEF764FF0546002840F00C81249B002BA3
:10AB4000C0F20E816368013300F04E81A3680133C7
:10AB500000F04A8132AE32460CAB25A92046FFF701
:10AB6000C3F80028C0F2F58000F03E810E9B259AC4
:10AB70000F982699934200F090818B4200F09381C8
:10AB8000DDE91D51239A2690206825930132002388
:10AB9000CDE91D150B9505932392C3680A9198473B
:10ABA0004FF0FF380546F0B115F1340F40F0D28078
:10ABB0000A9BC4F82080012B40F279810B9B012B6A
:10ABC00040F275811DA92046FFF780FC054600284C
:10ABD00040F0C08020681D9901230593C368984701
:10ABE00005460028E0D123AF0DF1500AA1461022FE
:10ABF00039465046CDF8508003F0F8FD59F8202B27
:10AC00001D9B126A934280F015821026CDE90057F1
:10AC10002A46029649462046FEF72CFE05460028A5
:10AC2000C2D1249B23F00043043B102B32D904F102
:10AC3000140B3DAF22680B9B126A934280F0F481A3
:10AC40000122CDE901720096002259462046FEF706
:10AC5000AFFC054600287DD101223946504603F05D
:10AC6000C5FD22681D9B126A934280F0E381012298
:10AC7000CDE9017200962A4649462046FEF7FAFDC4
:10AC80000546002890D1249B23F000430136043B65
:10AC90009E42CFD322681D9B126A934280F0CA81E4
:10ACA00004220292CDE9006A494600222046FEF7BE
:10ACB000E1FD054600287FF477AF216AC4F81480CF
:10ACC0004A1C12D02068A36A826900928568626A71
:10ACD000A847054600287FF467AF2368A06A9A69F1
:10ACE000FF2107F04BFFC4F82080206803699847D4
:10ACF000054600287FF458AF249EDDF874B0CDF8E7
:10AD0000F48026F0004604F11403043E08EE103AE5
:10AD100000F0968107460DF1400908E00137012255
:10AD200049463DA803F062FDBE4240F28981236896
:10AD30001B6A9B4580F078810123CDE9019318EED1
:10AD4000101A00975B4600222046FEF731FC0028CF
:10AD5000E4D00546284649B0BDEC028BBDE8F08F33
:10AD600032AE4FF00008324627A92046FEF724FFF6
:10AD7000F0B1831CEDD10DF19C0CBCE80F001CAEB2
:10AD80000FC6BCE80F000FC69CE8070086E8070066
:10AD900023681B6A01379F4280F08980309B013312
:10ADA0007FF4BFAE284649B0BDEC028BBDE8F08F02
:10ADB0009DF9CC309DF8CC20002BD4DA63680133A8
:10ADC00041D0A36801333ED034A92046FEF754FF9A
:10ADD0000028BEDB35D0324627A9204601F0C8F94D
:10ADE0000028C0D00546B5E7DDE93050DDE91D217A
:10ADF000239B1D91CDE925500133239308911E9289
:10AE000009924FF0000801262068C368984705465C
:10AE100000284FD015F1340F9CD1089B4FF0FF3222
:10AE2000012B226243D9099B012B40D91DA9204641
:10AE3000FFF74CFB054600288CD11D994FF0010807
:10AE4000E2E79DF8CC20DDF8C8E09DF8CFC0CDF852
:10AE5000F89002F07F020EF10C0033A9CDE93F1902
:10AE60008DF8CC20419001233DAA27A92046CDF89A
:10AE70000C81CDF8F4E0CDF808C1CDF810C100F098
:10AE8000F9F900283FF46FAF054663E7002528462F
:10AE900049B0BDEC028BBDE8F08F88423FF461AF52
:10AEA0008B427FF46DAE82427FF46AAE59E76FF059
:10AEB00033054FE723AFA2464FF0FF331022394648
:10AEC00007A8079303F092FC5AF8202B1D9B126AE7
:10AED000934280F0AF804FF01009CDE900572A4629
:10AEE000CDF8089051462046FEF7C4FC05460028E0
:10AEF00090D1249B23F00043043B102B34D904F160
:10AF0000140B10AF2268099B126A934280F08C8068
:10AF1000CDE90176CDF80090002259462046FEF793
:10AF200047FB054600287FF415AF0122394607A8E4
:10AF300003F05CFC22681D9B126A93427AD22A4677
:10AF4000CDE90176CDF8009051462046FEF792FCFF
:10AF5000054600287FF45EAF249B23F0004309F1EF
:10AF60000109043B9945CDD322681D9B126A934287
:10AF700060D2042207A9CDE9009102925146002235
:10AF80002046FEF777FC054600287FF443AF216A90
:10AF90004FF0FF37B942676111D02068A36A826918
:10AFA00000928568626AA847054600287FF432AFA0
:10AFB0002368A06A9A69FF2107F0E0FD27622068F4
:10AFC00003699847054600287FF424AF249FDDF8E5
:10AFD00074B027F000474FF0FF3204F11403043F30
:10AFE00008EE103A109245D081460DF1F40A08E0BF
:10AFF00009F101090122514610A803F0F7FB4F4562
:10B0000038D923681B6A9B450ED2CDE901A618EEFC
:10B01000101ACDF800905B4600222046FEF7C8FAD1
:10B020000028E5D0054695E68E4B8F4A8F481221C1
:10B0300007F0E2FC8B4B8E4A8C489C2107F0DCFC2D
:10B040003D9A149B9A427FF4B3AD059B002B30D1FF
:10B050002369002B3FF47EAE5C681D9A944271D048
:10B0600099681E9881426DD084426BD08A4269D023
:10B070001B68EEE7109A079B9A427FF4CEAEB8F1B8
:10B08000000F40F082802369002B3FF463AE5C68C0
:10B090001D9A944200F0C48099681E98814200F085
:10B0A000BF80844200F0BC808A4200F0B9801B68F7
:10B0B000EAE7636801334ED0A36801333DAE0AAFBF
:10B0C0004BD03246394610AB2046FEF70DFE002825
:10B0D000FFF63FAE41D0DDE91D03109F14973146C6
:10B0E0000C370C2612909DF847001897139311AF58
:10B0F00015961796199000261B905246012320465C
:10B1000016971A9600F0B6F800287FF422AE0A9837
:10B11000636898421AD00B9AA1688A4216D0884276
:10B1200014D0934212D00122013384F840208FD0F2
:10B13000A36801338CD02046FFF7D6FC002887D0C7
:10B14000054607E65A601E9A9A6091E7DDE91D32CE
:10B15000C4E90132E7E73DAE0AAF39463246204640
:10B16000FEF7ECFC0028FFF6F4AD3FF471AF31467A
:10B17000DDE91D60002347901A462046469600F000
:10B1800079F800283FF464AFDAE76368013350D000
:10B19000A36801333DAE4DD0324610AB08A920461E
:10B1A000FEF7A2FD0028FFF6D4AD43D0DDE91D0275
:10B1B000109B14930C33189312900C2311A89DF834
:10B1C000477013923146159300261793169001236A
:10B1D00014AA204619971B971A9600F04BF80028DE
:10B1E0007FF4B7AD0898636898421DD0099AA168AA
:10B1F0008A4219D0884217D0934215D001220133D8
:10B2000084F840203FF43FAFA36801333FF43BAFE5
:10B210002046FFF769FC00283FF435AF054699E565
:10B220005A601E9A9A6042E7DDE91D32C4E9013294
:10B23000E4E73DAE08A932462046FEF77FFC002831
:10B24000FFF687AD3FF41FAF3146DDE91D600023F7
:10B2500047901A462046469600F00CF800283FF426
:10B2600012AFDBE7C0610300EC630300E0610300A1
:10B27000FC6303002DE9F04F2DED028BCE690D46E6
:10B28000D1E90141A5B0013690462A1D6960824688
:10B29000EE61AC600892059383B11E46D8F80400B5
:10B2A000D8F80C302A6A1B1A022E1A4405D1D8F895
:10B2B0001C70D8F814603A44921B2A62DAF8000035
:10B2C000CDF818800023CDE90B140993C368984783
:10B2D0000446E0B114F1340F3DD10B9B4FF0FF3227
:10B2E000012BCAF8202034D90C9B012B31D90899A5
:10B2F0005046FFF7EBF8044668BBDAF800006968CF
:10B3000001230993C368984704460028E2D105F158
:10B310001C07D0464FF0FF331022394611A8119375
:10B3200003F064FA58F8202B6B68126A934280F09D
:10B330000D811026CDE9004722460296414650462F
:10B34000FEF798FA834660B110F1340FC5D0044679
:10B3500001E06FF03304204625B0BDEC028BBDE860
:10B36000F08F2B6A23F00043043BB3426BD90AF100
:10B37000140308EE103A37460DF1640934E0DAF8A8
:10B3800000200C9B126A934280F0E6800122CDE9F6
:10B39000019218EE101A009700225046FEF708F9A5
:10B3A00004460028D7D10122494611A803F01EFA0D
:10B3B000DAF800206B68126A934280F0C78001229D
:10B3C000CDE901920096224641465046FEF752FAD8
:10B3D000044600287FF47EAF013701362B6A23F044
:10B3E0000043043B9E422ED2059B5B45C7DD069A77
:10B3F0004FEA0B1302EB0B11D3580791BB42BED19E
:10B400000C4611A8D1E9021203F0F0F9DAF8002095
:10B410006B68106AE168A268834280F09780CDE98A
:10B4200001210096002241465046FEF723FA0446C9
:10B4300000287FF44FAF079B5A68DB680BF1010BC4
:10B4400017441E44CAE7DAF800206B68126A934278
:10B450007CD2042211A9CDE900610292414600226A
:10B460005046FEF707FA044600287FF433AFDAF8B7
:10B4700020104FF0FF339942CAF8143019D0DAF88F
:10B480000000DAF82830826900928468DAF8242013
:10B49000A047044600287FF41DAFDAF80030DAF840
:10B4A00028009A69FF2107F069FB4FF0FF33CAF8C3
:10B4B0002030DAF8000003699847044600287FF43A
:10B4C00009AF2B6AD5F8048023F000434FF0FF3218
:10B4D000B3F1040919920AF1140B1DD007460DAE01
:10B4E00007E001370122314619A803F07FF9B94579
:10B4F00012D0DAF800301B6A98452DD20123CDE92D
:10B50000016300974346002259465046FEF750F823
:10B510000028E6D004461EE7199A119B9A427FF450
:10B52000DCAE099B13BBDAF81030002B3FF413AFED
:10B530005E686A68964215D09968A868814211D001
:10B5400086420FD08A420DD01B68EEE73D4B3E4A43
:10B550003E489C2107F050FA3A4B3D4A3B481221A5
:10B5600007F04AFA5A60AA689A60EDE7DAF8043000
:10B57000013347D0DAF80830013319AE0BAF43D0AE
:10B58000324639460DAB5046FEF7AEFB0028C1DB14
:10B590003AD0D5E901030D9F119731460C370C269F
:10B5A0000F909DF83B00159710930EAF12961496CE
:10B5B00016900026189011AA01235046139717964B
:10B5C000FFF758FE0028A5D10B98DAF8043098420E
:10B5D00031D00C9ADAF808108A422CD088422AD04E
:10B5E000934228D0012201338AF840209BD0DAF818
:10B5F0000830013397D05046FFF776FA002892D0F2
:10B600000446A8E619AE0BAF394632465046FEF75F
:10B6100095FA0028FFF67EAF85D03146D5E9016066
:10B62000002323901A4650462296FFF723FE002857
:10B630003FF479AFE4E76B68CAF80430AA68CAF847
:10B640000820CFE7C0610300FC630300E061030052
:10B65000EC6303002DE9F04F2DED028B0D46BDB0DC
:10B66000824616461F4601F1240809E0002B52DAF3
:10B67000424629465046FEF7C1F9002840F00881AD
:10B680007479B179F279DAF800002B6A04340C4449
:10B690001444C1691C448C42E8D8B4461E1F4CF8BF
:10B6A000046BE96924974C1C6F68A96825920C33D8
:10B6B00013442B62C5E901170C23002221932B1D93
:10B6C000CDF880C01E96229613971291EC611F92BE
:10B6D000239207920693C36898470446002800F017
:10B6E000DE8014F1340F65D1129B4FF0FF32012B35
:10B6F000CAF820205CD9139B012B59D906995046D2
:10B70000FEF7E4FE0446002854D101236968DAF804
:10B7100000000793DFE7AC46BCE80F0026AC0FC47F
:10B72000BCE80F000FC49CE8070084E80700294626
:10B730005046FEF715FC044600283BD1DDE92F12E8
:10B740002B6A69623046191FAA6240F8041BF67919
:10B750001794CDE91B473344069416916C681A91EF
:10B76000A968EA691D960C332B62C5E901140C2304
:10B77000013219932B1D18900F940E91EA610793D3
:10B780004FF00109DAF80000C36898470446002822
:10B7900000F0AA8014F1340F0CD10E9B4FF0FF3251
:10B7A000012BCAF8202003D90F9B012B00F2BF8088
:10B7B0006FF0330420463DB0BDEC028BBDE8F08F46
:10B7C000DAF800206B68126A934280F04C820422FF
:10B7D0000BA9CDE900610292414600225046FEF7D6
:10B7E00049F804460028D5D1DAF820104FF0FF338D
:10B7F0009942CAF8143018D0DAF80000DAF8283084
:10B80000826900928468DAF82420A0470446002860
:10B81000C0D1DAF80030DAF828009A69FF2107F081
:10B82000ADF94FF0FF33CAF82030DAF800000369B1
:10B83000984704460028ADD12E6A26F000464FF006
:10B84000FF33321F0C930AF1140B6B68059200F062
:10B85000EA81074631AE1C4609E0012231460CA8B8
:10B8600002F0C4FF059B0137BB4200F0DC81DAF82F
:10B8700000301B6A9C4280F0FC81CDE90169009791
:10B880002346002259465046FDF792FE0028E4D098
:10B89000044620463DB0BDEC028BBDE8F08F05F1BB
:10B8A0001C07D0464FF0FF331022394609A80993F0
:10B8B00002F09CFF58F8202B6B68126A934280F0CC
:10B8C000D2811026CDE900472246029641465046D5
:10B8D000FDF7D0FF8346002800F0AA8010F1340F56
:10B8E0003FF402AF5C4665E705F11C07D0464FF018
:10B8F000FF33102239460BA80B9302F077FF58F85C
:10B90000202B6B68126A934280F0AD811026CDE93E
:10B9100000472246029641465046FDF7ABFF83465C
:10B9200088B110F1340F3FF438AF5C4642E7079915
:10B930005046FEF7CBFD044600287FF43BAF0123C1
:10B94000696806931EE72B6A23F00043043BB34269
:10B950007FF636AF0AF1140308EE103A374638E0A6
:10B96000DAF800200F9B126A934280F082810CAAC1
:10B97000CDE9007218EE101ACDF80890002250465A
:10B98000FDF716FE044600287FF414AF01220CA92F
:10B990000BA802F02BFFDAF800206B68126A9342C2
:10B9A00080F061810CAACDE90062CDF808902246B2
:10B9B00041465046FDF75EFF044600287FF4EAAE9C
:10B9C000013701362B6A23F00043043BB3427FF674
:10B9D000F7AEBBF1010FC3DC16AA4FEA0B1302EB63
:10B9E0000B11D3580591BB42BAD10C460BA8D1E933
:10B9F000021202F0FBFEDAF800206B68106AE168C0
:10BA0000A268834280F02F81CDE9012100960022B7
:10BA100041465046FDF72EFF044600287FF4BAAE9B
:10BA2000059B5A68DB680BF1010B17441E44C9E7FC
:10BA30002B6A23F00043043BB3426CD90AF1140390
:10BA400008EE103A37460DF1280935E0DAF8002003
:10BA5000139B126A934280F00C810122CDE901927E
:10BA600018EE101A009700225046FDF7A1FD04467B
:10BA700000287FF49FAE0122494609A802F0B6FED5
:10BA8000DAF800206B68126A934280F0EC800122A1
:10BA9000CDE901920096224641465046FDF7EAFE66
:10BAA000044600287FF41DAE013701362B6A23F0CF
:10BAB0000043043BB3422ED9BBF1010FC6DC1EAAE2
:10BAC0004FEA0B1302EB0B11D3580591BB42BDD1CA
:10BAD0000C4609A8D1E9021202F088FEDAF800202B
