:020000040000FA
:10000000585F0020FD3B000025270100E93B000070
:10001000E93B0000E93B0000E93B0000E93B000050
:10002000000000000000000000000000A93D0000EA
:10003000E93B000000000000693D0000E93B0000D2
:10004000693F0000693F0000693F0000693F000010
:10005000693F0000693F0000693F0000693F000000
:10006000693F0000693F0000693F0000693F0000F0
:10007000693F0000693F0000693F0000693F0000E0
:10008000693F0000693F0000693F0000693F0000D0
:10009000693F0000693F0000693F0000693F0000C0
:1000A000693F0000693F0000693F0000693F0000B0
:1000B000693F0000693F0000693F0000693F0000A0
:1000C000693F0000693F0000693F0000693F000090
:1000D000693F0000693F0000693F0000693F000080
:1000E000693F0000693F0000693F0000693F000070
:1000F000693F0000693F0000693F0000693F000060
:10010000693F0000693F0000693F0000693F00004F
:10011000693F0000693F0000693F0000693F00003F
:10012000693F0000693F0000693F0000693F00002F
:10013000693F0000693F0000693F0000693F00001F
:10014000693F0000693F0000693F0000693F00000F
:10015000693F000010F8012B11F8013B012A28BF6C
:100160009A42F7D0D01A7047034611F8012B03F8D2
:10017000012B002AF9D17047034613F8012B002AFE
:10018000FBD1181A01387047BFB5704811F0AFF9AC
:1001900000220621102003F047FE00220621112034
:1001A00003F042FE002206210D2003F03DFE6848C8
:1001B00011F09DF9002101200BF0E2F9654B0026BA
:1001C0000393072303A9644A64488DF81230ADF8FD
:1001D000106005960BF0D8FE614B0146984214D092
:1001E000604811F084F907215F480BF075FC5C4B07
:1001F0000446984228D05D49BD235D4A5D4811F010
:100200008CF9BD215A4811F07FF95B4811F06FF964
:100210006421524813F0BAFD322107464F4813F0CB
:10022000B5FD012504462B463A4631464B4800951C
:100230000BF06CFF2B462246294648480BF032FF54
:1002400046480BF00FFFCEE747480BF095FC4B4AB2
:100250004B494C4E002808BF11464B4811F047F956
:10026000314641480BF092FCA042054607D03F4979
:10027000ED233F4A3F4811F050F9ED21C2E73378B2
:1002800000228DF808308DF80C300223012607215A
:100290008DF80A208DF80D303C4A02AB32488DF8BB
:1002A00009608DF80E600BF097FB1921374A03ABFC
:1002B0002D480BF091FB36480AF0A2FFA8420446F5
:1002C00009D02A494FF49A73294A2A4811F025F98E
:1002D0004FF49A7196E72F4D28460AF091FFA042FD
:1002E00009D022494FF4A673214A224811F015F98A
:1002F0004FF4A67186E707211B482C7813F010FDF8
:1003000025490246204613F087FC192116482C780F
:1003100013F006FD21490246204613F07DFC3046CD
:100320000AF006FF1E4811F0E2F80C480BF076FECA
:100330004FF4404000210FF0A9FB1A4811F0D7F804
:10034000002142200FF0A2FBFAE700BF515B010041
:10035000795B01000024F40097100100D8520100DD
:100360000000AD0B905B0100E0520100DD5B01007D
:10037000C15B0100345B0100A95B010085770100CE
:10038000897701005E230020F45B0100435C0100DB
:10039000602300205F2300204011015044110150D0
:1003A0000D5C01002E5C01008B1E59425941014B2E
:1003B00019707047622300204B1E59425941014B6E
:1003C000197070476323002008B5042BBDF808108E
:1003D0000CD171B90A4B1B680BB9042008BD106819
:1003E000012809D800F001009847F6E76FF00C00EB
:1003F000F4E76FF00600F1E76FF01200EEE700BFE0
:10040000781600202DE9FF411F460D4B0546586820
:100410000C46164680B1D1F80C808047094B324615
:1004200018700123CDE90183BDF8283021460093DF
:1004300028463B4613F008FA04B0BDE8F08100BF3F
:100440007816002061230020F8B50F4600293BD024
:1004500006680122304610F057FE01460446304639
:1004600010F01AFEC3070DD4AF23184A18491948D3
:1004700011F053F83946184811F04FF8AF211348DE
:1004800011F042F82146304610F01CFE251829468E
:100490000022304610F000FE2D1AAC420BD0B723DC
:1004A0000A4A0E490B4811F038F839460C4811F049
:1004B00034F8B721E3E72146304610F009FE214623
:1004C000BDE8F84010F045BFF8BD00BFBD5C0100BD
:1004D000E05C0100345B0100F15C0100295D01007A
:1004E0004F5D01002DE9F8430F4606681446B268D7
:1004F0004B1EB2F5004F34BF042108213B4010D001
:10050000C7F1000909EA0709494503F1FF3028BF8F
:10051000494618420CD11F46DCB900252846BDE8E3
:10052000F8838F4213D82146BDE8F84310F053BF3B
:100530002E494FF4A2732E4A2E4810F0EEFF2E489B
:1005400010F0EBFF4FF4A271294810F0DDFF99463F
:10055000E2E7B2EBD40FE0D9E319591A104610F0D4
:10056000DDFD0146304610F033FE80460028D4D031
:10057000B36809EBC005B3F5004F34BF042308236B
:100580001D4435447B1E1D44B5FBF7F57D43A5EBAB
:1005900009052946304610F0B7FD2C44073424F0F5
:1005A0000704A41B804507464FEAE40408D202462C
:1005B0004146304610F046FE4146304610F087FE78
:1005C0003946304610F07EFD3844844208D2394620
:1005D0003046224610F036FE2146304610F077FEB7
:1005E00001223946304610F073FD97E78B5D01001C
:1005F000BD5C0100345B0100A65D0100B2F5802FF7
:100600002DE9F04110D2042A28D843494FF4F97358
:10061000424A434810F081FF424810F07EFF4FF4F9
:10062000F9713E4810F070FF0823D21ACC1D114416
:1006300024F0070421F00701091B17294FEAD1060E
:100640000ED8394940F2FB13344A354810F065FFA3
:10065000344810F062FF40F2FB11E2E70423E4E7C4
:100660000027046031463046A660E76010F05FFD69
:100670000121421D8046304610F050FD9200D51DEC
:10068000ED082844B0423AD8B8F1FF3F3946A2F10C
:10069000100204F11000B8BF3A4614F0FAFA2A46E4
:1006A0003946204610F02CFD3B463A463946204656
:1006B00010F0FDFCA6EB050820463946012210F09B
:1006C00007FD4246294610F01BFD2B463A462946B7
:1006D000204610F0ECFC3146204610F011FD434658
:1006E0003A463146204610F0E2FC314620460122CF
:1006F00010F0EEFC2946BDE8F04110F0E8BD0B49D2
:100700004FF40373054A064810F007FF054810F040
:1007100004FF4FF4037184E7C35D0100BD5C010079
:10072000345B0100E45D0100FD5D0100265E010017
:100730002DE9F04F91B0009302F004030293C2F34D
:10074000C2030133840705460E46DDF86880039234
:10075000059340F0F681041D30B1072909D86FF0E8
:100760001B0011B0BDE8F08F01F00706341DC6F183
:1007700008064FF000094FF0040B009B4F46013B69
:1007800001934FF0FF324B46DA46CDF810900DB191
:10079000009921600598002800F3D78098480099B7
:1007A000814203D397488142C0F0CF800399A4EBE4
:1007B000050E89074FEA9E0040F1E2804FF0000CE1
:1007C000CCE07A285AD84B280CD8472856D8292864
:1007D0002AD8252851D051D8202877D02338434211
:1007E000434173E04C382E2848D8DFE800F06F47CB
:1007F0004747474747474747474749474747474787
:10080000474747594749495959596F496C476F47B5
:100810001849184747807D49474749477D000020D0
:1008200000234FF0040B39E001212A38C0B201FA4D
:1008300000F010EA0E0F49D110F0625C30D110EADE
:10084000010343D06046013C5C44B4FBFBF40BFB6A
:1008500004F4002D60D0AAEB050CA444B4453FF687
:100860007EAF00286AD1BAF1040F45D158F8040BC5
:1008700020604FF0040A043428E0013A002325E008
:10088000019B13F8013C6C2B33D10020019B13F822
:10089000023C6C2B0346C4D14FF0080BDA46D2E77A
:1008A00008F1070828F00708073424F00704F8E8DF
:1008B00002AB35B106982044B0423FF650AFC4E9D0
:1008C00000AB002308344FF0080BDA46019911F809
:1008D000010F0191002800F0BC80002B7FF471AF64
:1008E0002528F3D1012301324FF0040BEDE7184620
:1008F00096E700200346A6E7BAF1080F40F09B8078
:1009000008F1070828F00708F8E80201C4E9000127
:100910004FF0080A0834D9E780B9BAF1040F02D1C0
:1009200008F10408A5E7BAF1080F40F0848008F147
:10093000070828F0070808F10808E9E705990139D0
:10094000059158F8041B009121E7039988074AD5BF
:100950004FF0010CA4EB050E4FEA9E00BEF5007FA0
:100960001ED329494FF41F73284A294810F0D5FD9A
:10097000284810F0D2FD4FF41F71244810F0C4FD38
:100980000F2F0FD8002D49D007F140010DEB010CBE
:100990000CF8200C0CF8102C04980130049021E085
:1009A0000F2F0CD9184940F28123184A184810F02B
:1009B000B4FD194810F0B1FD40F28121DDE7CDB161
:1009C00007F140010DEB010EC0B20EF8200C0EF83D
:1009D000102CBCF1000FDFD060F07F000EF8200C6F
:1009E00009F101090137C5F108014FF6DA7E043437
:1009F00006916BE7BCF1000F10D00136F2E700BFA3
:100A0000F04D010050A601000FA60100515E01004B
:100A1000345B01007F5E0100A05E01000298023697
:100A20000028DFD10098CDE90632FFF7A5FBDDE90C
:100A300006320644D6E740F2C623434A43494448B7
:100A400010F06BFD5146434810F067FD40F2C6219F
:100A500093E7631BB3F5806F0CD33C4940F2D2237C
:100A6000394A3B4810F059FD3B4810F056FD40F222
:100A7000D22182E71DB9A6F10804E01871E6029AB6
:100A80009B0828602B709DF81030C2B1EB7085F880
:100A90000290B9F1000F05D0002208A8C5F1010CA1
:100AA00097420ED14FF0000AC5F101030DF1200865
:100AB00001930DF1300B574512D1601B51E66B705D
:100AC000E5E710F8013B190608D504EB0C0EB64516
:100AD00003F07F033FF643AE04F8013B0132DFE74A
:100AE000B9F1000F03D098F90020002A17DB029B10
:100AF000D3B11AF80B2004F8012B0022019B98189F
:100B00002044B0423FF62BAE98F80000009904F85C
:100B1000010B2046039214F0AFF8039A14440AF133
:100B2000010A08F10108C6E798F8002055F82230BC
:100B30000093029B009845F82230FFF71DFB421CF2
:100B4000DCE76FF00D000CE6515E01000FA601001E
:100B5000345B0100BA5E0100CF5E01002DE9F04F69
:100B600097B000AF89460446D7F880B0FA623B627E
:100B700058B9A9494FF46673A84AA94810F0CDFCAA
:100B80004FF46671A54810F0BFFCCBF3C00390F89A
:100B900002A0BB6141B9457800780AEB800020448F
:100BA0004D4517D8A0EB0409E378FB61BAF1000FBB
:100BB00002D01BF0010F16D1FB6953BBFB6A1BB1BE
:100BC000494620463A6A98474D4628465C37BD4616
:100BD000BDE8F08F461C3046FFF7CEFA01303044B6
:100BE00009F10109DCE7626823787A62FA6A990000
:100BF000796104EB8301002A40F002810E464FF038
:100C000000084D4601EB0A094E454CD101EB0A069E
:100C100010E01BF0020FD1D023789A007A6162684D
:100C200004EB83017A62FA6A002A77D14D46904636
:100C300001EB0A061BF0050F0CBF02230123FB6228
:100C4000FB6906EB430A0BF00203BB625645BCD0BE
:100C500016F8021B16F8013C54F82390714B994585
:100C600002D3714B994536D3BB69002B40D0786ACB
:100C700010F014FC00283BD0E9468AB06A466B4B62
:100C800053617B6AC2E906314FF400731384684BE9
:100C900042F8103F00234FF41251664801F0B4FEB1
:100CA000023DCD46D2E716F8013BF96254F8230025
:100CB000FFF762FAD7F88430F96A01304BB1D7F800
:100CC000883098453EBFD7F8843023F8180008F1E3
:100CD0000108054498E7BB6923B1786A10F0DEFB90
:100CE0000028C9D11BF0010F05D1FB6AED1AADE751
:100CF000BB6A002BAAD04846FFF73EFAD7F88430EB
:100D000053B1D7F8883098453FBFD7F88420431CAB
:100D100022F8183008F10108054497E7BAF1000FEE
:100D200074D01BF0040674D0D046002607F14800AA
:100D300052463B61B96213F09FFFB96A3B6901EB10
:100D40000A02BA62FA69F9695200FA60BA6A02EBF9
:100D500041023A610BF00202BA60BA6A39698A420A
:100D60006AD162781BF0020F18BF00217A6208BFB7
:100D70004FEA5801B2181BF0010FD2B240F0E580E3
:100D80001BF0040F14BF40460020BB616270A070CE
:100D9000E17020463A6A7969FB6A9847051EFFF6BA
:100DA00014AFBB69414623707B6A3A6A6370FB6982
:100DB00084F802A0E37007F14800FB6A9847B0F19D
:100DC0000008C0F2F0807B69A9EB0A01C91AFB6830
:100DD0003A6AC91AD7E90A0398470028C0F2E580A1
:100DE0004FF0000BA84408EB000507F1380AB345A3
:100DF000C0F0AD8000213A6A0846FB6A9847E4E6F5
:100E000056464FF0000807F1380091E75646D046A5
:100E100095E7B04693E700BFE65E0100515E010032
:100E2000345B0100F04D010050A60100015F01009C
:100E300004000001C0510100BA6A12F8021B12F846
:100E4000015CBA6254F82500594A904202D3594ACB
:100E5000904218D3BA693AB1786A7B6010F01EFBF1
:100E60007B6800287FF479AFBA68002A4CD00F2E37
:100E700040D9514940F24C43504A514810F04DFB83
:100E800040F24C417EE6BA693AB1786A7B6010F074
:100E900005FB7B6800287FF460AF1BF0010F0BD0CF
:100EA0000F2E27D9444940F24243444A444810F0A7
:100EB00034FB40F2424165E61BF0040F3FF44DAFB6
:100EC000B8F10F0F09D93F4940F245433B4A3C482E
:100ED00010F023FB40F2454154E608F1280207F1E7
:100EE000300008F1010102EB000808F8105C5FFA1D
:100EF00081F832E706F1280207F13000711C16185C
:100F000006F8205CCEB228E7B8F10F0F09D92D49B9
:100F100040F24F43294A2A4810F0FFFA40F24F416D
:100F200030E608F1280207F1300C08F10100944482
:100F300007F1580208F1020852FA80F00CF8101C70
:100F40005FFA88F800F8105C07E700201DE71BF83F
:100F50000A3054F8239087F83730D7F88430FBB143
:100F600033F81B8001213A6AFB6A07F13700984782
:100F700000281ADB0544B8F1000F06D14846FFF7F8
:100F8000FBF800F101081FFA88F8414648463A6A22
:100F9000FB6A9847002808DB05440BF1010B26E7A4
:100FA000D7F88480DEE745460FE605460DE600BF2C
:100FB000F04D010050A60100A45F0100515E010048
:100FC000345B0100C35F0100014B1860704700BF34
:100FD000D801002080B505460E46174698460EF00B
:100FE0008BFD034613F0FAFE0446DFF818904246E4
:100FF00049F8003039463046A84754F8090002F055
:1010000065FE00BF0800000038B50D4604462022EA
:10101000002113F03EFE0022EB68E361AB68A361A0
:101020002B6823626B68A26263622A6923B1591E2E
:10103000194208BF42F0010222610122002104F19D
:101040002C0013F082FC48B1054906482F23064ABC
:1010500010F063FA2F21044810F056FA38BD00BF93
:101060001A600100345B0100F45F01002DE9F04FCC
:10107000002789B0CDE90123436A04468B428846A4
:10108000BA460597079755D34FF0200B00F1140689
:10109000EFF3118300938BF31288BFF36F8F304609
:1010A000DDF800900EF0E4FE58B988234A4A4B4917
:1010B0004B4810F032FA31464A4810F02EFA882197
:1010C00060E030460EF0F8FE079A2AB13946204615
:1010D00010F004FB0023079306A9204610F02AFA1B
:1010E0000699054641452ED32268236A204613F807
:1010F000221003EB820A21F0030103F82210216879
:10110000424610F03BFAE3682060984216D0002572
:1011100030460EF0BBFE40B389F31188BFF36F8FEA
:10112000059929B1A2690AB1204690470023059389
:10113000002DADD1504609B0BDE8F08F236943F0D2
:1011400008032361E3E718B1204610F031FADFE726
:10115000DDE90132134337D0039113F06BFC03999F
:1011600090BB30460EF092FE78B940F231131A4A25
:101170001D491B4810F0D1F931461C4810F0CDF93B
:1011800040F23111144810F0BFF9009B83F311882D
:10119000BFF36F8F04F12C00DDE901230CF008FD93
:1011A0000546EFF311898BF31288BFF36F8F30463A
:1011B0000EF05EFE00283FF478AFB5FA85F53046B4
:1011C0000EF07AFE6D09A3E7204607AB05AA276853
:1011D00010F00DFA05469BE7236001005060010006
:1011E000345B0100656001007B60010092600100DA
:1011F0002DE9F0410446C36908460E46984704F1BC
:1012000014050746EFF31188202383F31288BFF3F8
:101210006F8F28460EF02CFE68B988231A4A1B49A6
:101220001B4810F07AF929461A4810F076F98821FF
:10123000154810F069F928460EF03EFE33783A461C
:1012400043F0010333706168204610F097F9606045
:10125000204610F05EFA28460EF018FE68B940F2FB
:101260003113094A0C490A4810F057F929460B482E
:1012700010F053F940F23111DAE788F31188BFF327
:101280006F8FBDE8F08100BF236001005060010056
:10129000345B0100656001007B6001009260010029
:1012A0002DE9F843044600F11407EFF311882023D9
:1012B00083F31288BFF36F8F38460EF0D9FD0546D1
:1012C00068B98823344A3549354810F026F939463B
:1012D000344810F022F988212F4810F015F93846CB
:1012E0000EF0EAFD2369A26813F0080F02D16368CB
:1012F0009A4200D9636A9B1A002B3FD0216A11F8E9
:10130000223001EB820913F003003AD0022803D106
:1013100051F82260B60805D1D8071FD44846E369C2
:1013200098470646A1683246204610F027F9314614
:10133000A060204610F030F938460EF0A7FD10BB33
:1013400040F23113144A1849154810F0E6F83946AE
:10135000164810F0E2F840F23111BDE743F0020305
:1013600001F82230E3694846A568984729460246B5
:10137000204610F003F90025A060DDE71D46A946D0
:10138000DAE70546FBE788F31188BFF36F8F002D7E
:101390008BD14846BDE8F88323600100506001000E
:1013A000345B0100656001007B6001009260010018
:1013B0002DE9F0410446C36908460D46984704F1FB
:1013C00014060746EFF31188202383F31288BFF336
:1013D0006F8F30460EF04CFD68B98823274A2849A4
:1013E000284810F09AF83146274810F096F88821DE
:1013F000224810F089F830460EF05EFD2B786FF32E
:1014000000032B7023699B0705D5E268236A03EB71
:1014100082039D4222D12B786FF341032B70D4E9D4
:101420000231994204D13A46204610F0A7F8A06054
:101430003946204610F0B0F830460EF027FD90B93E
:1014400040F231130D4A11490E4810F066F831464A
:101450000F4810F062F840F23111C9E72B6867F3CA
:101460009F032B60E8E788F31188BFF36F8F04F1C7
:101470002C00BDE8F0410CF059BB00BF2360010017
:1014800050600100345B0100656001007B60010079
:101490009260010070B5044600F11405EFF3118667
:1014A000202383F31288BFF36F8F28460EF0E0FCF1
:1014B00068B988231A4A1B491B4810F02EF82946A0
:1014C0001A4810F02AF88821154810F01DF828460F
:1014D0000EF0F2FC2369A06813F0080F02D16368D4
:1014E000984213D9646A241A28460EF0CFFC78B9C2
:1014F00040F231130A4A0E490B4810F00EF8294603
:101500000C4810F00AF840F23111DDE71C1AEBE745
:1015100086F31188BFF36F8F201E18BF012070BDA6
:101520002360010050600100345B01006560010030
:101530007B600100926001002DE9F84F0446A38B07
:1015400008461907154612D4022803F0070165D191
:10155000204610F0EBF888B10138042800F23781FA
:10156000DFE810F05C0035018200D400040101289E
:101570000CBF43F0100143F02001A1831434204636
:101580000EF084FC002840F09D819A4940F231130E
:10159000994A9A480FF0C1FF2146B1E003F00702D3
:1015A000501F01281ED80020062A2768C4E9000021
:1015B00014D13A4603E0E08B0130E0831268002A40
:1015C000F9D123F0070343F002022046A28310F072
:1015D000ADF890B342F02002A2832EE023F007037F
:1015E0009AB2F2E7042A33D123F007039AB22046D5
:1015F000A28310F09BF810B142F02002A283A38BCB
:1016000003F00709894540F0EC80A18BCA0640F140
:10161000508121F01003A38301F00701D4F8188052
:10162000A38BB8F1000FB9DA0022276823F0070373
:10163000C4E9002243F00103A383A38B03F007094D
:10164000894540F0CF80002FDFD00026B24644E02D
:101650006B4940F21B136B4A68480FF05EFF40F283
:101660001B1168480FF050FF49B167494FF4AB7345
:10167000644A62480FF051FF4FF4AB71F1E7236801
:101680004BB9624940F257135E4A5C480FF045FF80
:1016900040F25711E5E723691E684EB95C494FF4E3
:1016A000AD73584A55480FF038FF4FF4AD71D8E785
:1016B0000F4688464FF00609A38B23F0070343F03B
:1016C00006039BB2A383A268002A40F08D80002FFE
:1016D00040F08D80002E98D0BA4643F0080304F104
:1016E000140B5846A3830EF0D1FB002840F09A80DB
:1016F000404940F23113404A40480FF00EFF59462E
:1017000044480FF00AFF40F23111ADE0022909D040
:10171000414940F25D133B4A38480FF0FEFE40F26B
:101720005D119EE7E78B4FB13C494FF4AF73354AEB
:1017300032480FF0F2FE4FF4AF7192E723695E6812
:101740004EB9334940F261132E4A2C480FF0E5FEA2
:1017500040F2611185E7A38BB84623F0070343F0FD
:1017600004039BB24FF00409A383ACE7012909D01D
:101770002B494FF4B273234A20480FF0CEFE4FF4AA
:10178000B2716EE723684BB9204940F265131D4AD8
:101790001A480FF0C2FE40F2651162E723699E68A5
:1017A0004EB91B494FF4B473164A14480FF0B5FEF6
:1017B0004FF4B47155E70027A38BB84623F0070315
:1017C00043F005039BB24FF00509A3837BE70C4967
:1017D00040F26B130B4A09480FF09FFE40F26B1169
:1017E0003FE7002700266EE74FF0010A75E79246B3
:1017F00073E700BF7B60010023600100345B0100E0
:101800000FA60100A7600100CC600100D8600100B4
:10181000FB6001009260010012610100286101007B
:101820003761010085F31188BFF36F8FBAF1000FA4
:101830001CD177BB16B120462549B047EFF311857F
:10184000202383F31288BFF36F8F58460EF010FBEE
:1018500038BB88231F4A204920480FF05EFE5946B6
:101860001F480FF05AFE88211A48FBE6A16800299C
:10187000DFD00D680029DCD043464A462046D1F827
:1018800004A0D0471DB12B6829461D46F2E72B4620
:10189000FAE7394643464A4620463F680FF072FF52
:1018A000C7E758460EF008FBA38B23F00803A38379
:1018B000ABE68B067FF562AE21F02003A38301F037
:1018C000070145E685F31188BFF36F8FBDE8F88FF8
:1018D000E51800002360010050600100345B010046
:1018E00065600100F8B504460D4600F11406EFF3FB
:1018F0001187202383F31288BFF36F8F30460EF0D9
:10190000B7FA68B988230C4A0C490D480FF005FE58
:1019100031460C480FF001FE882107480FF0F4FD16
:1019200030460EF0C9FAA5613A462046BDE8F840B7
:101930000121FFF701BE00BF2360010050600100DC
:10194000345B0100656001002DE9F04704460F4655
:101950000FF008FF051E68DB04F11409EFF3118A8C
:10196000202383F31288BFF36F8F48460EF080FA6E
:10197000804660B98823384A384939480FF0CDFD90
:10198000494638480FF0C9FD8821334842E04846AF
:101990000EF092FA4FF6FF72E38BA68B934206F09D
:1019A000070645D0022E15D135460133E38348465C
:1019B0000EF06CFA002841D140F23113264A2A4930
:1019C00027480FF0AAFD494628480FF0A6FD40F22F
:1019D0003111DAE7062E13D8DFE806F0092D1212CE
:1019E000090409006FF085054FF00008DFE70023C8
:1019F0003B60636883B9C4E9007786B13546F3E795
:101A00001B4917484FF4E4731A4A0FF086FD4FF450
:101A1000E47118480FF078FD1F606760EDE75246EB
:101A200002212046FFF788FD35462846BDE8F087AD
:101A30006FF00A05D8E76FF00405D5E78AF311883F
:101A4000BFF36F8FB8F1000FEFD000233246394655
:101A500020460FF097FEE8E7236001005060010088
:101A6000345B0100656001007B6001009260010051
:101A700037610100A7600100F8B5054600F11406C2
:101A8000EFF31187202383F31288BFF36F8F304663
:101A90000EF0EEF960B98823254A264926480FF052
:101AA0003CFD314625480FF038FD882120482BE0C9
:101AB00030460EF001FAAC8B04F00704022C17D06C
:101AC000012C0CBF6FF004046FF0850430460EF05B
:101AD000DDF938BB40F23113154A194916480FF0A9
:101AE0001CFD314617480FF018FD40F23111DDE7BB
:101AF000EB8B5BB91449104840F2EF13134A0FF017
:101B00000CFD40F2EF1111480FF0FEFC013B9BB2BF
:101B1000EB83002BDAD13A4621462846FFF70CFD2D
:101B20002046F8BD87F31188BFF36F8FF8E700BF39
:101B30002360010050600100345B0100656001001A
:101B40007B600100926001004D610100A76001000F
:101B500008B54268034602F00302022A81600AD0F7
:101B6000032A4FF0000103D0012A0AD1596006E090
:101B70001868596008BD186800225A6058B90020DA
:101B8000F8E7064906484523064A0FF0C6FC4521FA
:101B900004480FF0B9FC0EF081FDF0E70FA601003C
:101BA000345B01005B61010010B530B90B480C4992
:101BB0000FF026FE6FF0150010BD836833B907489B
:101BC00008490FF01DFE6FF00400F5E71B6813B124
:101BD000BDE8104018471846EEE700BFD05101009D
:101BE000816101009261010010B530B90B480C49C8
:101BF0000FF006FE6FF0150010BD836833B907487B
:101C000008490FF0FDFD6FF00400F5E75B6813B1C4
:101C1000BDE8104018471846EEE700BFD05101005C
:101C2000816101009261010070B508B101B132B962
:101C30000B480C490FF0E4FD6FF0150070BD84688F
:101C40000CB1E56835B9064807490FF0D9FD6FF0CA
:101C50000400F3E741F8040BE368BDE8704018475F
:101C6000D0510100B06101009261010010B504463D
:101C700030B9104810490FF0C3FD6FF0150010BDCA
:101C8000006830B90B480D490FF0BAFD6FF0010044
:101C9000F5E783680BB11B6933B9064808490FF0B3
:101CA000AFFD6FF00400EAE7616898470028E6D1CD
:101CB0002060E4E7D0510100DC610100ED6101002A
:101CC0009261010070B51346044630B910481149BD
:101CD0000FF096FD6FF0150070BD006830B90C482C
:101CE0000D490FF08DFD6FF00100F5E782680AB134
:101CF000956835B9064809490FF082FD6FF0040078
:101D0000EAE70A46AC466168BDE87040604700BF3C
:101D1000D0510100DC610100ED6101009261010020
:101D2000034A13680BB9526813600020704700BF64
:101D3000DC01002030B50C460E4985B00291D0F888
:101D4000D4110546CDE9003100F1F0014FF0FF3329
:101D500020460AF02FFC50B9012384F86C30D5F8E6
:101D6000D03123B1204605B0BDE83040184705B05A
:101D700030BD00BFF918010038B50C4611460546C4
:101D80000FF0BCFD034638B9284604490FF0B6FDF4
:101D900003460020236038BD0120FBE7AE6F010041
:101DA0002DE9F04F012381460569466887B005F5A6
:101DB0006377D7E8EF2F002A03D1C7E8E13F002976
:101DC000F7D10CBF1A46002240F0B480B368B16A64
:101DD00005F5F8781C1F10460FF014FE844272D8E7
:101DE000013A00F0A180B2FA82F24FF00044D440F0
:101DF00072682046073222F00302C5F88822B16AD1
:101E00000FF000FEC5F88C02B36A4046634303330B
:101E100023F0030302EB4302230103EB44030933E2
:101E200023F0030303EBC403C5F880221A440832ED
:101E3000C5F87C227368C5F88442C5F878323F4BF8
:101E4000C5E9B363D9F80030C5F82432316800F031
:101E5000DFF90446002834D1D9F810B0D9F804A02D
:101E6000D9F800300BF53A79059004934846DAE941
:101E70000734012B08BF103C0CF07CFADAF8240080
:101E80002F4904AB01EB80214FF480624846009358
:101E900023460CF089FA2B490BF536700CF0ECF860
:101EA000DAE9050183685C684CB15B46264AA047C5
:101EB000044630B9DAE9050183681B692BB96FF074
:101EC0005704002129E0013285E7012298470446A2
:101ED0000028F6D11D4B2846C5F8D0311C4BC5F85B
:101EE000D4311C4B0393D5F838320293D5F83032F5
:101EF000CDE90083D5F89032B26AD5F8881300F0A6
:101F00004FF904460028DCD105F1F0000AF0F8FB97
:101F10000028C5F890030ADB022138460FF022FDA5
:101F2000204607B0BDE8F08F6FF00B04C9E76FF0F3
:101F30001504C6E76FF07704F2E700BF4F19010000
:101F4000902300203519010029190100591F0000B4
:101F5000DB1A01009519010013B5044640B10023B6
:101F60000122CDE90032074BD0E909120AF0D2FA7A
:101F7000236F1B6823B1606F02B0BDE810401847A3
:101F800002B010BDAE6F010013B5044608462169CA
:101F900001F56371D1E8AF1F022910D193B1A0B14F
:101FA0000121CDE900311346D0E909120AF0B2FA55
:101FB000074B984208BF6FF00B0002B010BD6FF0E6
:101FC0000F00FAE76FF04C00F7E76FF00100F4E75D
:101FD0002EF8FFFF2DE9F74388461546066906F5FA
:101FE0006373D3E8AF3F022B5FD1136823B96FF05F
:101FF000150003B0BDE8F0831B78002BF7D0D6F8AE
:102000008893B9F1000F33D106F5EC774FF0FF322A
:102010004FF0FF3338460BF023FB30462A6801A906
:10202000FFF7AAFE019C1CB938460FF099FCDEE7C9
:1020300005F1080323676B6984F86C906367646437
:1020400060B138460FF08CFC21463046A36E2A68FA
:10205000FFF770FE0020C8F80040CAE72022296878
:1020600004F1480012F03FFE38460FF079FCF1E72A
:1020700030460F490FF042FC04460028B7D005F166
:10208000080303676B6940644367002380F86C3082
:1020900020222968483012F026FE224601213046CF
:1020A00000F060F80028D5D0A1E76FF00F00A0E79E
:1020B000AE6F010010B50C46006900F56373D3E8FC
:1020C000AF3F022B0FD189B10A4900F536700CF0F1
:1020D000C3F8204612F0B6F978220021204612F00B
:1020E000D8FD002010BD6FF00F00FBE76FF001007E
:1020F000F8E700BF801600202DE9F04F05460E4698
:1021000090460027D0F8C4A085B0AAF5BE74214639
:102110003046FEF71FF8E0B9114BA4F1480B0293CB
:10212000DAF810303246CDE9008329464FF0FF330C
:102130005846AAF5E2790AF03DFA60B978230122FF
:1021400003FB079383F86C20DAF80C300BB1584688
:102150009847783417B105B0BDE8F08F0127D6E76E
:10216000091B01001FB5144690B18AB1012912D193
:102170000A4B00F1F0010293D0F8D43148320193B8
:102180004FF0FF33204600930AF014FA04B010BD5C
:102190006FF01500FAE70020F8E700BF091B010007
:1021A0002DE9F04387B00E46DDE90E811446DDE9E6
:1021B00010251F4630B329B3DFF850C000F1F009F5
:1021C000002D08BF65469EB9CDE9034400F5E274D1
:1021D0002046059612F0EAFA03ABCDE900432A4601
:1021E0003B46414648460AF04FFC07B0BDE8F08345
:1021F000002241460E9248462A4607B0BDE8F04309
:102200000AF098BD6FF01500EFE700BFF92000005D
:10221000F0B50E46044689B0002872D0436B0BB966
:10222000394B436301232246E3630023D4F898101B
:1022300004F1400042F8301FCDE901334FF0FF3385
:102240000093D4F89C3011F0D1FD304A06AB92E8EF
:10225000030083E8030018460AF062F80546D8B97F
:1022600004F134000AF03EF80546A8B9616B28482D
:1022700005AA11F09DFD054670B9059B9A6872B1DB
:102280000C33D4F89400C4F8A0300FF06EFCC4F8FE
:10229000D40030B96FF00B05284609B0F0BD0346F5
:1022A000EFE7D4F894000FF060FCC4F8D8000028E1
:1022B000F0D0D4F88C30D4F8A010C4F8A83004239F
:1022C000C4F8AC30C4F8C4300223A362114BB4F894
:1022D0009420D4F8D470C4F8B810C4F8D010D4F84E
:1022E0009010236204F1A403A4F8B020C4F8A470F1
:1022F000C4F8C010A4F8C820C4F8BC00A661E3620A
:10230000CAE76FF01505C7E71262010040520100ED
:102310001C620100C853010030B5002289B00F498A
:102320000F4812F030FC002200230024CDE90623E0
:102330000E230C4DCDE903344FF400622846CDE95D
:102340000144094B094900940CF0A4FB08492846B4
:1023500012F076FB204609B030BD00BFB924000062
:10236000980F0020100B0020A527000090270020C8
:10237000246201002DE9F047044607464FF00109A9
:10238000DFF8508014B93846BDE8F08794FAA4F518
:10239000B5FA85F509FA05F32E0108EB05156FEA84
:1023A000030A24EA03042B7B002BEBD058F80630F9
:1023B0001B694BB94644736804222846196807EA2A
:1023C0000A0700F0FBFADDE7284698470028D9D134
:1023D000F0E700BF305201002DE9F047DFF8B89078
:1023E0002E4C8046A9EB04038F2B0F460BD92C49AA
:1023F00040F23F132B4A2C480FF08FF840F23F1168
:1024000028480FF081F829480FF001FC064660B318
:1024100000252846BDE8F087237B6BB12368DB6885
:102420000BB12046984723681B69B3B9636804223F
:102430002046196800F0C2FA013610344C4518D90C
:102440001B494FF4A673174A17480FF066F819484E
:102450000FF063F84FF4A671D2E7204698470028A2
:10246000E4D00AFA06F31D43E6E705464FF0010AF9
:10247000E4E7D1D3B8F1000FCBD0002DC8D0284667
:10248000FFF778FF0546002FF7D000214FF4A47026
:102490000DF0FCFAF1E700BF40520100305201009C
:1024A000596201002C620100345B0100BC1600205F
:1024B00089620100AA62010001480BF037BB00BF2E
:1024C00088050020014B53F8200070470854010094
:1024D00008B5034608462BB1044A136000F0ACFD72
:1024E000002008BD6FF01500FBE700BF08020020C8
:1024F00010B5044C237813B903480BF017FB0123E4
:10250000237010BD642300208805002010B5044608
:1025100009480FF07CFB3CB1084BD3E8EF1F0139B1
:10252000C3E8E21F002AF8D1054812F038FBBDE8E5
:10253000104004480BF0FABAB4160020B816002078
:10254000980F00208805002000200146034BD3E8A7
:10255000EF0FC3E8E21F002AF9D17047B41600203C
:1025600070B5FFF7F1FF05460F4C104EB44219D974
:102570000F4940F2FF130F4A0F480EF0CEFF0F48ED
:102580000EF0CBFF40F2FF110A480EF0BDFF63686A
:102590005B792BB123685B6813B1294620469847C5
:1025A0001034E3E7F3D370BD305201004052010014
:1025B000896201002C620100345B0100AA62010003
:1025C00010B5044C04492046FEF71EFD034B1C6069
:1025D00010BD00BF78040020F4530100AC160020A9
:1025E00008B50023074A4FF400411370064A074814
:1025F0001360074A1360FFF76BFFBDE80840FFF761
:10260000DFBF00BF65230020B41600200B1C0100B3
:10261000B81600200146002200230148FEF726BD1F
:10262000780400200148FEF73BBE00BF780400207C
:10263000024B01461868FEF7BBBE00BFAC16002077
:102640000148FEF727BF00BF7804002070B52E4B6D
:102650001878002857D0FFF7E5FF054640B32B4B0D
:10266000D3E8EF1F0139C3E8E21F002AF8D1284C54
:10267000284EB44218D9284940F2F313274A284873
:102680000EF04BFF27480EF048FF40F2F3112348AD
:102690000EF03AFF63685B7923B123682946204630
:1026A0001B6898471034E4E7F4D32846FFF7C0FFCF
:1026B0001D4B1E4C1B68002B19DD12F01DFA4FF448
:1026C0007A72A0FB020302FB0131C30B43EA4143D0
:1026D000D4E900209B1A40F2E9324FEAD13161EB94
:1026E0000001934271F1000101D3FFF739FFD4E9F2
:1026F000003213F57A7342F10002C4E90032BDE8FA
:102700007040FFF79DBF70BD64230020B816002005
:102710003052010040520100896201002C62010028
:10272000345B0100AA620100B4160020900F002063
:1027300070B5154D297829BB0120FFF74DFE134CCC
:10274000134EB44217D913494FF4DC73124A13489D
:102750000EF0E3FE12480EF0E0FE4FF4DC710E487E
:102760000EF0D2FE63685B791BB1236820469B683C
:1027700098471034E5E7F5D3FFF768FF0028FBD151
:1027800001232B7070BD00BF652300203052010073
:1027900040520100896201002C620100345B01009B
:1027A000AA6201002DE9F047304B314FFB1A1B099B
:1027B0000BD1304940F292332F4A30480EF0ADFE33
:1027C00040F292312C480EF09FFE00210846FFF7A0
:1027D00003FE044650B340F267684FF0000912F060
:1027E000FDFA274B274A1B58136033B1264B1B6851
:1027F000092B02DD25480BF099F90025DFF88CA0A4
:1028000044B12046FFF7B6FD044618B94FF0FF3833
:102810004FF0FF39FFF71AFF064628B95DB9424667
:102820004B4650460BF0C4F93546E9E74FF0FF3808
:102830004FF0FF39D3E70D4D08E0F0D22B689B69CC
:102840001BB100222846114698471035BD42F4D9E5
:102850000F4940F28633084A08480EF05EFE0D48E4
:102860000EF05BFE40F28631ACE700BF3052010053
:1028700040520100C96201002C620100345B01007A
:1028800008000000B0160020B816002088050020BF
:1028900089620100AA62010013B52C480FF0B7F954
:1028A0002B4B1B78002B35D0EFF31184202383F3BF
:1028B0001288BFF36F8F27480DF0DAFA68B98823C2
:1028C000254A264926480EF028FE224925480EF0C2
:1028D00024FE882120480EF017FE1E480DF0ECFA69
:1028E000FFF7B4FE1B480DF0D1FA68B940F231137E
:1028F000194A1D491A480EF010FE16491B480EF0E1
:102900000CFE40F23111E5E784F31188BFF36F8FBD
:1029100002B010BD164B1B68002BF9D050B9002235
:1029200000231448CDE900234FF4004200230DF0AA
:10293000F3FDEDE70928EBD10E4812F030F90E480F
:1029400002B0BDE810400BF0F1B800BFB81600208F
:1029500065230020A81600202360010050600100BC
:10296000345B0100656001007B6001009260010042
:10297000B0160020980F00208805002010B5064BE7
:1029800004461B6898472146A0600448FEF730FCC7
:10299000BDE81040FFF780BF080200207804002047
:1029A000044A054B9B1AB1EBD30F34BF52F83100E8
:1029B0000020704758510100305201000E4B10B5F5
:1029C000C31A1B110133DBB248B90C490C48DF2391
:1029D0000C4A0EF0A2FDDF210A480EF095FD446876
:1029E000237143689A7101224368196043685A71E0
:1029F000BDE81040FFF77CBD305201006963010063
:102A0000345B0100316301002DE9F04F8FB0C1F359
:102A10004A2804AF0D469146B8607B600C0DB8F1B2
:102A2000000F68D000264FF0040B4FF00A0A07F1A0
:102A30001403C7F80C80C7E907667E620193CDF8DE
:102A400008B0CDF800A007F11C0332464846F968EB
:102A5000FEF784F8B0F5006F03461CD36C468AB0CD
:102A6000D9F8041004AB2C481A46C3E9050140F21A
:102A7000FF71D9614FF400711984284B42F8103F5F
:102A80004FF4125133462648FFF7BEFFA5462C37B8
:102A9000BD46BDE8F08FC0F30A0804F117001844E2
:102AA00020F0070080083B60FFF7B4FD68F3532572
:102AB000044640B33B6800F11001C7E9083607F14E
:102AC0001403F961CDE900A3CDF808B04846154AD2
:102AD000F96807F11C03FEF741F8002813DA1249E0
:102AE00012484FF4A373124A0EF017FD4FF4A3716E
:102AF0000F480EF009FD04F1170020F007008008D0
:102B0000FFF788FD044668F353252A4620467B6874
:102B1000B9680FF0AEF8BAE789630100040000015C
:102B2000D8510100471C0100F5630100345B01002E
:102B3000C86301002DE9F04F87B00446DDE9106A53
:102B4000DDE9127993469846039127B33B465246F6
:102B500010210020CDF80090CDF81490FDF7E8FD8D
:102B6000051E0BDA264940F26513264A26480EF068
:102B7000D4FC40F2651123480EF0C6FCB5F5006F99
:102B80000ADB40F2FF730221204A214807B0BDE86A
:102B9000F04F0FF0C7B83D4606F11700284420F06B
:102BA00007008008FFF736FD04F007040BF0070B61
:102BB000E40044EA8B1444EA452444EA06540646F9
:102BC000A0B19FB13B4652462946CDF80090103047
:102BD000FDF7AEFD002809DA094940F28513094ADC
:102BE00009480EF09AFC40F28511C4E7434622469C
:102BF0003046039907B0BDE8F04F0FF03AB800BF78
:102C0000F4630100C8630100345B0100FE6301004E
:102C1000D8510100406820B1034BC01A40F3CF00E7
:102C200070474FF0FF307047585101000EB403B5A4
:102C300003AB53F8042B01460448019301F036FC22
:102C400002B05DF804EB03B0704700BF6D2C0000CC
:102C5000CA0605D48B064CBF02490349FFF7E6BFFD
:102C6000704700BFAD6F01000299010038B54B6895
:102C700005461A68CB680C469A4202D108460FF006
:102C800075F86368D3E8EF2F511CC3E8E01F0028F4
:102C9000F8D1A3689D5463681A68E3689A4209D919
:102CA000054906487B23064A0EF037FC7B21044881
:102CB0000EF02AFC002038BD65640100345B010081
:102CC000366401002DE9F04F89B09B46149B9DF8B6
:102CD0004CA00693159B04460593169B0D46904603
:102CE000179E0493BAF1000F00F0AD80BAF1040F03
:102CF0000BD9A34940F24D23A24AA3480EF00DFC84
:102D000040F24D219F480EF0FFFB06F480730793BD
:102D10000EF097FF06F00209024600283FD0204639
:102D20009A49FFF783FF0746B9F1000F08D016F064
:102D3000440F36D12A4620469549FFF777FF0744CE
:102D400006F0010353B1934B204653F82A20924BCF
:102D50009249002A08BF1A46FFF768FF06F48073FD
:102D6000002B4AD006F00803002B64D1B8F1000F05
:102D700067D0424620468A49FFF758FF0546069B22
:102D80003D44002B6ED1049B002B40F08380F30761
:102D900000F1F08031462046FFF75AFFE4E0074695
:102DA000C2E7804B18680028C9D07F4B4FF47A796E
:102DB0001B684FF46161B5FBF3F5B5FBF0F300FB65
:102DC000135509FB05F5B3FBF1F2B5FBF0FE4FF02F
:102DD0003C0C01FB123100FB1E55B1FBFCF309FB5F
:102DE00005F5B5FBF0F50CFB131120460091CDE97C
:102DF00001E56E49FFF71AFFA1E706F00803EBB102
:102E00006B4B204653F82A206A49FFF70FFF05460F
:102E1000B8F1000F05D0424620466149FFF706FF92
:102E20000544BBF1000FAAD05A4620466249FFF77D
:102E3000FDFE0544A3E74FF0000BE1E706F00805AF
:102E4000E6E745469BE7BBF1010F069B06D1DBB9E0
:102E5000049B002B00F0888000251BE0002BF7D09E
:102E6000564812E056482246069B56490EF0E5FAAF
:102E700000280CDA544940F2A723424A42480EF097
:102E80004CFB40F2A7213DE74D485546EBE7049B3C
:102E9000002B65D0DFF83481DFF83491049F314690
:102EA000102F204628BF10274FF0000BFFF7D0FE51
:102EB0005D4542DC059B494620461A78FFF7B6FE81
:102EC0004FF0010B1BF0070F03D141462046FFF7DF
:102ED000ADFE5F4538D9059B4946204613F80B20C7
:102EE000FFF7A4FE0BF1010BBBF1100FEAD14FF07D
:102EF000000B20463749FFF799FE5A46059B2046AE
:102F00009A5CA2F120015F2928BF2E223249FFF7E7
:102F10008DFE0BF1010BBBF1100F1AD01BF0070F48
:102F200003D141462046FFF781FE5F455A46E5D86A
:102F300041462046FFF77AFEEBE741462046FFF781
:102F400075FE0BF1010BB3E720462449FFF76EFE37
:102F5000C8E7059B3B440593049BDB1B04939DD171
:102F6000BAF1000F7FF413AF204609B0BDE8F04F6F
:102F70000EF0FCBE2046084A0849FFF757FE09E755
:102F80009A64010036640100345B0100A66401000C
:102F9000AA640100185401009564010047750100FE
:102FA000CF640100C4160020C0160020B3640100E5
:102FB0002C540100D3640100D9640100871D010075
:102FC0006D2C0000AD440000DE640100CE980100CD
:102FD000E7640100ED640100EF640100CC9801009A
:102FE00042F20F7373B58B4228BF0B460568044647
:102FF000052168460D4A0DF0C7FD06466368284660
:103000000B225B680A490EF0A3FE636832466946EC
:1030100028465B680EF09CFE63681B2228465B68AE
:1030200004490EF095FE02B070BD00BF2489010076
:103030000E650100F264010000210123064A90425E
:1030400006D8064A01B901231360054B1860704782
:10305000012140085B00F2E740420F00C01600204B
:10306000C4160020F8B50D460446064F4618B44273
:1030700001D12846F8BD14F8011BBB6801485B6804
:103080009847F4E7A44E010010B543681C6809484E
:1030900011F0B9FB48B9084908489923084A0EF0CD
:1030A0003CFA992106480EF02FFA23685B685C60B1
:1030B00010BD00BFA44E010078650100345B010023
:1030C0003A650100014B0360002070477454010011
:1030D00008B504480EF00BFABDE8084002480EF0AF
:1030E00006BA00BFAC650100E16501000449431E5A
:1030F0000F3013F8012F8A5C83421A70F9D17047A0
:103100000F660100F0B50746264E8DB001AD0C46A6
:103110000FCE0FC50FCE0FC596E8070085E8070054
:103120003846002F39D0002C39D0381F02462146AE
:1031300010344B780D781B0443EA0563CD780431D5
:103140002B4311F8025C8C4243EA052342F8043F0A
:10315000EFD10421144C8A07036916D1C3F3074247
:10316000A55C1A0EA25C42EA0562C3F30725655D01
:10317000DBB2E35C42EA054242EA032221F00303A8
:1031800030336B4453F82C3C534050F8042F01313A
:1031900053402C290361DED101200DB0F0BD204643
:1031A000FBE700BF485201000F6601002DE9F04F18
:1031B000002703689DB002934368DFF8BCA1039326
:1031C0008368DDE902460493C36805930369DDE97A
:1031D00004BE0693436907938369DDE9062C0893CF
:1031E000C36998460993089B0093CD590CAB2DBA3F
:1031F0005AF8049BDD514FEAF223A94483EAB21343
:10320000009D83EA72634B4425EA020502EA0C0939
:1032100085EA09052B44434486EA0B054FEA7438D6
:1032200088EAB408254006EA0B0985EA090588EA18
:10323000B4580437A844402F03EB0E054344DE4640
:10324000DDF8008040F088804FF0100A4B490A9169
:1032500051460AF1010A0DF1700E0AF00F070EEB4C
:10326000870757F8407C01F00F094FEAB7480197EC
:1032700088EAF71801F10E0707F00F070EEB870732
:1032800057F8407C09314FEAF74E8EEA774ECDF879
:103290002CE001F00F010DF1700E0EEB81010EEB31
:1032A000890959F840EC51F8401CBAF1400F7144BB
:1032B000DDF804E088EADE08DDF82CE041448EEA1F
:1032C000972E714405EA02084FEAF52E2CEA05070D
:1032D00087EA08078EEAB51EDDF828808EEA756E4B
:1032E000774458F804EF49F8401C77440F4400999C
:1032F0004FEA733E394484EA0607CDF828808EEA07
:10330000B30E07EA030704EA06088EEAB35E87EA0B
:10331000080777440F4401EB0B0ECDF800C0B3460D
:1033200022D102993944016003991944049B4160F8
:1033300023448360059B3344C360069B734403614D
:10334000079B2B444361089B13448361099B63449F
:10335000C3611DB0BDE8F08FB346CDF800C026466E
:1033600094461C462A4640E7944626462A461C4672
:1033700075463B466CE700BF74540100B054010031
:1033800010B50446C8B1702200210EF07FFD0B4B32
:103390000B4A0C49C4E900230B4B0C48C4E9021347
:1033A0000B4BC4E9040301200A4BA36103F17453DE
:1033B000A3F52303A3F69243E36110BD85AE67BB7B
:1033C00067E6096A72F36E3C3AF54FA57F520E51DB
:1033D0008C68059BABD9831F01480DF093BA00BFE1
:1033E0007455010038B5044618B90F4B0F485B6897
:1033F00098476168B1F5683F10D0B1F5680F0DD0FE
:103400000B4DA9420AD011F46861206807D001462B
:1034100008480AF07FF800232360656038BD142255
:1034200011F037FCF9E700BF0C0400200F67010022
:103430002C5F5CA9F41B002008B560B34368B3F5AA
:10344000683F0ED0B3F5680F18D0144A934220D0CD
:1034500000684FF0FF324FF0FF330AF001F958B126
:1034600015E001220368D3E8EF1F002903D1C3E868
:10347000E02F0028F7D10AD1002008BD0368084AD0
:103480001B7803F5807352F82330002BF4D00548E5
:10349000F3E70548F1E76FF4E040EEE72C5F5CA945
:1034A00000000350E98FFFFFEA8FFFFF08B520B34C
:1034B0004368B3F5683F09D0B3F5680F13D0114ADC
:1034C00093421DD000680AF09BF914E000220368C3
:1034D000D3E8EF1F012903D1C3E8E02F0028F7D17B
:1034E00009D0094808BD00210368084A1B7803F584
:1034F000807342F823100020F4E76FF4E040F1E716
:103500000348EFE72C5F5CA9E98FFFFF0000035041
:10351000EA8FFFFF10B5044618B91D4B1D485B68C4
:1035200098476368B3F5683F2FD0B3F5680F2CD088
:10353000194A934219D1236803BB4FF0FF324FF071
:10354000FF332146154809F059FF08B923681BB914
:103550000F4B13485B68984714220021206811F034
:1035600098FB4FF46863636008E0B3F5683F0DD8DB
:103570003A2B03D040F6BA629342DED1206811F0B4
:10358000ABF9636843F03A03636010BD054AF3E7A3
:103590000C0400200F6701002C5F5CA9F41B0020C5
:1035A000356701003A00003A08B506494023142265
:1035B000054811F07AF9BDE80840044904480DF0C7
:1035C00013BA00BFF4160020F41B00207C55010044
:1035D000905501002DE9F04706460C4600AF002942
:1035E00036D0D1E90012E9468AB06D46A3684FF0A3
:1035F000050AA8461F48C5E90723C5E9050148F89B
:1036000010AF002342464FF421511B48FFF7FCF94D
:10361000D4E90312CD466369AD461848C5E90723CE
:10362000C5E90501C5F810A0002342464FF4215119
:103630001148FFF7E9F9CD46E3690121104A0E4828
:103640000EF070FBA36901210E4A0B480EF06AFBD5
:10365000012E07D1EFF305830B4A31460648103B94
:103660000EF060FB2146304609F0ACFBBD46BDE8DC
:10367000F08700BF626701001052010091670100EE
:10368000C0670100CF670100FD67010030BFFFF791
:10369000FDBF00BF2DE9F04105460B4EDFF82C8041
:1036A000324606EB0807CC1B2046094911F0E4FA24
:1036B000A01942460021083C11F0EBFA6C6707F1B3
:1036C0000800BDE8F08100BF000000000400000019
:1036D00040520100074A936893F90E10002907DB56
:1036E000526993421FBF044A536843F080535360AA
:1036F000704700BF1021002000ED00E070B5344C91
:1037000006460D46334834490FF013F8A36AD9062C
:103710004DD5304831490FF00CF81120A36A1A0733
:1037200004D52C482E490FF004F81220284CA36A27
:103730009B0712D52B4927480EF0FBFF636BA26A4B
:10374000110609D50121284A22480EF0EBFA1EB1D4
:10375000A36A23F08003A36213201D4CA36ADA0737
:1037600004D51C4821490EF0E4FF1420A36A9B06EF
:1037700004D518481E490EF0DCFF1520144B9A6A38
:10378000D60602D49A6A940713D59B6AD90610D537
:10379000184940F26313184A18480DF0BEFE184845
:1037A0000DF0BBFE40F2631113480DF0ADFE10208A
:1037B000B4E7074B9A6A920642BF5A6A22F4005253
:1037C0005A629A6A42F0FF029A6200232B7070BD1F
:1037D00000ED00E0105201001068010026680100B1
:1037E000596801006C680100846801009A68010052
:1037F000B96801001A690100E8680100345B010042
:103800006469010010B5244C244925480EF091FF4D
:10381000A36A99013ED5224822490EF08AFF1E2054
:10382000A36ADA0104D51E481F490EF082FF1F204B
:10383000194CA36ADB0204D519481C490EF079FF24
:103840000220A36A1C0304D5154819490EF071FF24
:103850002120114CA36A590304D5114815490EF0D3
:1038600068FF2220A36A9A0304D50D4812490EF07E
:1038700060FF2320084CA36ADB0304D508480F49E6
:103880000EF057FF2420A36A6FEA03436FEA134345
:10389000A36210BD1D20C3E700ED00E0C869010070
:1038A00010520100E0690100F36901000D6A010096
:1038B000376A0100556A01007A6A0100946A0100C2
:1038C00070B5294C06460D46284829490EF031FFAF
:1038D000A36AD9043CD5254826490EF02AFF1720B3
:1038E000A36A1A0504D5214823490EF022FF1820A7
:1038F0001D4CA36A9B0512D51C4820490EF019FFE8
:10390000A36BA26A100409D501211D4A17480EF0C5
:1039100009FA1EB1A36A23F40043A3621920124CD2
:10392000A36A590504D5114816490EF002FF1A2062
:10393000A36ADA050ED50D4813490EF0FAFE1B20D6
:10394000094A936A43F47F43936200232B7070BD4E
:103950001620C5E7A36A9B04F2D504480B490EF074
:10396000E8FE1C20ECE700BF00ED00E01052010073
:10397000BF6A0100D56A010059680100E66A0100CA
:10398000FF6A0100146B01002F6B0100B968010090
:10399000F0B58BB0784B04465868002600AFC0F3F2
:1039A000080386F31188BFF36F8F02F07F45B5F1EE
:1039B0007F4F07D102F00C05082D12D16F497048D6
:1039C0000EF0B7FE6F494FF48B636F4A6F480DF0EE
:1039D000A4FD6F480DF0A1FD4FF48B616A480DF016
:1039E00093FD15074CBF0C460126002CEAD000229F
:1039F000FA71DA1E092A00F29D80DFE802F00593D1
:103A000096769B9B9B9B9B9962495D480EF091FE2D
:103A10000023594DFB71EB6A9A0705D55E4958485A
:103A20000EF087FE002329E0EB6A002B01DA5B49E8
:103A3000F5E7EB6A5B0068D5594951480EF079FE0D
:103A40006B69A26943F480736B61BFF34F8FBFF35F
:103A50006F8F6B6932F8022C23F480736B61BFF3B4
:103A60004F8FBFF36F8F4DF602739A4227D12368B1
:103A700001214C4A42480EF055F92368FA79DAB927
:103A800007F1080504F1200C2A4620686168083413
:103A900003C264451546F7D17A6A002E66D0C2F398
:103AA000080121B96FEA52226FEA42227A6218466F
:103AB00007F10801FFF78EFD2C37BD46F0BDAB6A5C
:103AC000DBB22BB10120F91DFFF718FE0346D5E745
:103AD000AB6A13F47F4F04D00120F91DFFF7F0FE0D
:103AE000F4E7AB6AB3F5803F02D3FFF78BFEEDE757
:103AF0002D4940F22A33244A24480DF00EFD2B486C
:103B00000DF00BFD40F22A3168E7274940F22E33D1
:103B10001D4A1E480DF001FD25480DF0FEFC40F247
:103B20002E315BE70020F91DCEE70020F91DD5E717
:103B3000204974E7204A6D4610F4F87F8AB01F4987
:103B400018BF11466A46103BD3614FF400731C48FE
:103B500013841C4BC2E9050142F8103F00234FF4C7
:103B600011510748FEF750FFAD465BE722F4FF72A4
:103B700022F001029AE700BF00ED00E0756B010042
:103B800010520100A06B0100E8680100345B0100E5
:103B9000B36B0100F16B0100086C0100296C01009E
:103BA000376C0100566C01000FA60100726C010019
:103BB000966C0100C66C01005C6B0100476B010054
:103BC000EA6C010004000001064B5A6942F0100241
:103BD0005A615A6942F480625A615A6922F00802B5
:103BE0005A61704700ED00E0EFF30880EFF30981C0
:103BF00001B57246FFF7CCFE01BD00BF002080F387
:103C00001488BFF36F8F002080F30A8880F30B883D
:103C100007F070F900200E490860BFF34F8F0D4880
:103C200080F3088800F02CF8202080F311880A48DF
:103C30004FF40061401880F30988EFF314800221EB
:103C4000084380F31488BFF36F8F00F01FF9000062
:103C500094ED00E0585F002018360020002318463D
:103C60000649D1F89020C2F30722934200DB704747
:103C7000C1F89830C1F8A0000133F6E700ED00E08C
:103C800010B572B6002484F31388FFF7E7FF2346CC
:103C90004FF0FF300C4A03F120010133102B42F8A2
:103CA0002100F8D100234FF0FF30074A03F16001F3
:103CB0000133102B42F82100F8D162B6BFF34F8FC9
:103CC000BFF36F8F10BD00BF00E100E0084B9B68A1
:103CD00083420BD1EFF3058343B1064B5A6842F0A0
:103CE00080525A605A6A22F400425A620BF00ABFAC
:103CF0001021002000ED00E06FF00A01084A9368EF
:103D0000D967084998674B6843F080534B6000239C
:103D100083F31188BFF36F8F9368D86F704700BF2C
:103D20001021002000ED00E0EFF31183202383F346
:103D30001288BFF36F8F4FF00061084A5369936098
:103D4000074A5160596F074A116000219A6F9967BD
:103D500082F31188BFF36F8F704700BF10210020DE
:103D600000ED00E0141C00200E498A684FF030007E
:103D70001044EFF3098C80E8F01F74467046FFF79B
:103D8000D3FFA64607498A6802F1300090E8F01F89
:103D90008CF3098802F1000004B50EF0D2FCBDE8F6
:103DA00004407047102100201EF0040F0CBFEFF3F9
:103DB0000880EFF30980816911F8021C0229FFD005
:103DC00001B50EF0ABFC01BD40B2002807DB0123BA
:103DD0004109034A00F01F00834042F82130704738
:103DE00000E100E040B200280CDB01220649430953
:103DF00000F01F008240203341F82320BFF34F8F93
:103E0000BFF36F8F704700BF00E100E0054B420930
:103E100053F82220012300F01F0003FA00F01040A5
:103E2000704700BF00E100E038B54B1C072B04468B
:103E30000D460FD95823104A104911480DF06DFB5B
:103E400029461048072322460DF067FB58210A48EF
:103E50000DF05AFB40B20028ACBF00F160400A4AA6
:103E60004FEA4313DBB2ABBF00F5614000F00F0037
:103E700080F80033135438BDFD6C0100346D01002F
:103E8000345B01004F6D010014ED00E00B4A08B5F2
:103E90000B4B22F07F029A60BFF34F8FBFF36F8FFF
:103EA000D3F8882022F47002C3F8882009F0B2F811
:103EB0000CF00AF800F04CF809F0ECF800000000F3
:103EC00000ED00E042F8203C009B0B4942F81C3C0E
:103ED000019B21F0010142F8183C029B42F8081CAA
:103EE00042F8143C4FF0807342F8043C0023203A1F
:103EF00002658367704700BFD50F000000B50D4B0A
:103F000015469860426F0C4B0E461A60436E83F361
:103F10000B882C4686F309884FF00000074B984722
:103F200020464FF000014FF000024FF00003044C18
:103F3000204700BF10210020141C00204B27010047
:103F4000D50F00001022014B1A61704700ED00E010
:103F5000002320210348C2180133452B82F80013A7
:103F6000F9D1704700E100E008B5EFF30583064A98
:103F7000103B02EBC30152F8330049688847BDE8A3
:103F80000840FFF7A7BB00BFF44E01001FB5094C66
:103F9000094A23460121094800F012F9002303933E
:103FA000074B0121E41A01A80193029400F02CF9B7
:103FB00004B010BD0000072000000020A055010043
:103FC0007807002010B50C7A0B6804F01F0223F06C
:103FD0001F031A43CB68640923F01F03054943EA12
:103FE000440343F00103C1F89800C1F89C20C1F8D4
:103FF000A03010BD00ED00E010B50A4BD3F89030B2
:10400000C3F30723013B984208D901210346064A1E
:1040100006480DF087FE6FF0150010BDFFF7D2FFC8
:10402000FBE700BF00ED00E0936D0100F8510100D7
:104030002DE9F04F8946144606464FF00008514DD1
:1040400085B0C84527DAD6F804A0BAF1000F44D0ED
:10405000BAF11F0F17D91AF01F0F14D1D6F800B0FC
:104060001BF01F0F0FD158460EF0ABFB07460AEBB3
:104070000B0001380EF0A5FB874210D06FF015073A
:10408000414A3B4601E04346404A012140480DF089
:1040900049FE6FF01504204605B0BDE8F08F17F11A
:1040A000160FEDD0BC42EBDDC5F89870D5F89C102A
:1040B000C5F89870D5F8A03021F01F0143F01F0B10
:1040C000D6E900321A44994202F1FF3A1DD1D34594
:1040D00007D13146F8B20EF07DFB08F101080C362D
:1040E000AFE73146C5F89870D5F89C3022F01F0232
:1040F00003F01F031343C5F89C30E0B20EF06AFBD7
:1041000010F1160FC5D0441CE7E7C5F89870D5F834
:10411000A020013B23F01F0302F01F021343D345ED
:104120003146E0B2C5F8A030E8D00EF053FB10F1F4
:10413000160FAED0C5F89870D5F89C209DF80830C1
:104140000BF1FF3B62F304038DF80830D5F8A03083
:104150009DF808205B0863F347128DF80820D6E924
:1041600000321344009323F01F035B44A3EB0A03C4
:10417000013023F01F036946C0B20393FFF73CFFF1
:10418000BEE700BF00ED00E0DC6D0100B96D01008D
:10419000F85101000522044BC3F89420BFF34F8F60
:1041A000BFF36F8F704700BF00ED00E0BFF35F8F7C
:1041B0000022024BC3F89420704700BF00ED00E0DE
:1041C00038B50C4D0C462A78FFF732FF28701630B0
:1041D0000FD14FF4B473084A084909480DF09DF90E
:1041E000214608480DF099F94FF4B47102480DF0DA
:1041F0008BF938BD67230020FF6D01000FA6010079
:10420000345B01002E6E01002DE9F74F314E8946D7
:1042100005464FF00008B3462F4FC84502DB03B0F8
:10422000BDE8F08FD5F804A0BAF1000F4CD0296892
:10423000084601910EF0C5FA019904460AEB010007
:1042400001380EF0BEFA84424FF01402234B15D011
:1042500002FB08F36FF015024BF803204FF4BC7318
:104260001F4A204920480DF058F949461F480DF0D3
:1042700054F94FF4BC711A480DF046F914F1160FB9
:104280003460EBD01978A142E8DD02FB08B0C7F832
:104290009840C7F89840D7F89C4000F10801007B8F
:1042A00064F304000871D7F8A0000C79400860F3AB
:1042B00047140C71D7F89C1021F01F017160D7F8DA
:1042C000A01021F01F01316108F1010814360C35EE
:1042D000A3E700BF181C002000ED00E067230020CA
:1042E000FF6D01000FA60100345B01005A6E010052
:1042F0002DE9F041574C584ED4F890303568C3F34F
:1043000007239D4286B013D940F29F13534A544964
:1043100054480DF002F9D4F8902029465248C2F3CF
:1043200007220DF0FAF840F29F114C480DF0ECF81E
:104330000020FFF73BFF4D4BC4F8C03085421AD137
:104340004B4C01A82570FEF7BDFE002506464FF038
:104350004108484FAE4215D1002023783D49D1F89D
:104360009020C2F3072293426DDB0020FFF712FF7B
:1043700006B0BDE8F081716801EB0011FFF722FE85
:104380000130DBE7019A290102EB0513D3F80CC0D9
:104390000CEA0700B0F5001F27D0B0F5800F40D021
:1043A000B0F5801F4DD1586852589B68CDE9020284
:1043B0002122013B20F01F010B4423F01F038DF845
:1043C00010200593207802A9FFF716FE002835DAA1
:1043D000234940F2C913214A22480DF09EF826488D
:1043E0000DF09BF840F2C9119FE758689B6852583E
:1043F000013B20F01F010B4423F01F031CF0010FB1
:10440000CDE902028DF810800593DBD01B496D23A6
:10441000124A14480DF081F819480DF07EF86D210C
:1044200083E758689B685258013B20F01F010B44FA
:10443000CDE9020223F01F030622C0E723780133EF
:104440002370013586E7C1F89830C1F8A000013328
:1044500085E700BF00ED00E0AC550100FF6D0100F5
:104460000FA60100345B0100896E0100AAFF440021
:10447000672300200000F0FF126F0100BD6E0100F5
:10448000E36E010008B5024B1B689847002008BD89
:104490002C1C0020034B044A1860937843F002035D
:1044A000937070472C1C002034020020F0B587B0B8
:1044B00007460E4614460021102268461D4610F09D
:1044C000E8FB02238DF80230054B2A462146684658
:1044D000CDE9047601930CF083FB07B0F0BD00BF7B
:1044E0000728010008B50649064821F00701C1F177
:1044F000005202F5E022FCF781F8002008BD00BF61
:1045000037810020301C002070B541690446867A4E
:104510000A4D59B1437ADB0706D4342303FB065313
:10452000DB6A1B689B68984700236361342021463F
:1045300006FB0050BDE8704010F0F9B9D40500202A
:104540003422024B02FB0030704700BFD40500202C
:104550003421827A064B01FB02331A6B93F8243024
:10456000801A1B3323F00303B0FBF3F0704700BF46
:10457000D405002038B53424827A064B04FB02337C
:10458000DB6AD3E901240C601568FFF7E1FF04FB47
:10459000005038BDD405002008B5437A4BB10C4912
:1045A0005A230C4A0C480CF0B8FF5A2109480CF069
:1045B000ABFF43683BB109495B23064A06480CF050
:1045C000ACFF5B21F2E703824369C36008BD00BF13
:1045D000706F01004B6F0100345B0100816F0100BF
:1045E0002DE9F04F054685B068461446994603917B
:1045F00010F084FADDE9006745B96549EE23654AA4
:1046000065480CF08AFFEE21624818E005F11C08AD
:10461000EFF3118A202383F31288BFF36F8F404694
:104620000BF026FC68B988235C4A5D495A480CF0B7
:1046300074FF41465B480CF070FF882157480CF02E
:1046400063FF40460BF038FCB5F822B0BBF1000F19
:104650005CD02B8C5B4539D900220023284609F019
:10466000F9F90446002831D040460BF00FFC68B938
:1046700040F23113494A4C4947480CF04EFF41463D
:104680004A480CF04AFF40F23111D7E78AF311880B
:10469000BFF36F8F039D002D6AD032463B466846BC
:1046A00010F050FA3421A27A414B204601FB02332C
:1046B000DB6A03A91B681E68DDE90023B04760615F
:1046C000002845D12046FFF71FFF3CE06C8C404698
:1046D000631E6B840BF0DAFB0028C9D08AF31188C3
:1046E000BFF36F8F95F824302A8C1B33121B2C6B71
:1046F00023F0030302FB03442D4B2E4AEB1A9B10BD
:104700005343A37295F82430E372C3E740460BF09D
:10471000BDFB0028ACD08AF31188BFF36F8F54EA39
:10472000090308D010F05AFB234A244B12589A422E
:1047300004BF5C46A14622464B46284609F08AF94A
:1047400004460028A6D10024204605B0BDE8F08F1D
:10475000039B9D420DD91A4940F24B130D4A0E4856
:104760000CF0DBFE17480CF0D8FE40F24B114BE783
:104770006561012300212381039BE27A61606382EA
:1047800004F1180010F085FA2046FFF705FFDBE77B
:10479000758201004B6F0100345B01002360010052
:1047A00050600100656001007B60010092600100C3
:1047B000D4050020C54EECC40800000038150020C8
:1047C0009B6F0100AC6F010070B5044698B13426B0
:1047D000104D2046037A6468013BDBB203724BB98B
:1047E000C3604360837A06FB03539B6A7BB198479F
:1047F000002CEED170BD084908484FF4E673084A12
:104800000CF08BFE4FF4E67105480CF07DFEFFF7CF
:104810007BFEEDE7D4050020A4740100345B0100A9
:104820004B6F010008B558B9074908484FF4FB73AE
:10483000074A0CF072FE4FF4FB7105480CF064FE61
:10484000027A0132027208BDA4740100345B0100D7
:104850004B6F010008B5034658B90849084840F2B3
:104860004123084A0CF059FE40F2412105480CF062
:104870004BFE18465B68002BFBD108BDA4740100F9
:10488000345B01004B6F010070B50D46044658B90A
:104890000F494FF413730F4A0F480CF03EFE4FF4CC
:1048A00013710C480CF030FE49B90C4940F24D230D
:1048B000084A09480CF031FE40F24D21F1E7466804
:1048C0001EB10846FFF7C6FF4660656070BD00BFB9
:1048D000C17201004B6F0100345B0100AF6F01003A
:1048E00038B505460C4659B90C490D484FF41673B6
:1048F0000C4A0CF012FE4FF416710A480CF004FE3C
:1049000020B9BDE838400846FFF78CBFFFF7A2FF8B
:104910002146FFF7B9FF284638BD00BFAF6F010041
:10492000345B01004B6F010008B548B90B492B23DC
:104930000B4A0C480CF0F1FD2B2109480CF0E4FD6A
:1049400083883BB108492C23054A06480CF0E5FD55
:104950002C21F2E783680B44036008BDA4740100B6
:10496000BC6F0100345B0100E86F010008B503462D
:1049700000689A68821A91420BD90949094840F2A5
:104980005513094A0CF0C9FD40F2551106480CF0C8
:10499000BBFD9A88401A11441860998008BD00BF79
:1049A00007700100345B0100BC6F010008B582880C
:1049B00003468A420BD20949094840F2C313094A07
:1049C0000CF0ABFD40F2C31106480CF09DFD521AED
:1049D000828000680844186008BD00BFF76F0100BE
:1049E000345B0100BC6F010008B503469A8800687B
:1049F0008A420BD20849094840F2CF13084A0CF00A
:104A00008CFD40F2CF1106480CF07EFD521A014495
:104A10009A80196008BD00BFF76F0100345B010088
:104A2000BC6F0100F8B5858803680E4604465F191F
:104A30000DF013FFB04209D2064907483E23074A4A
:104A40000CF06BFD3E2105480CF05EFD3544A58061
:104A50003846F8BD2B700100345B0100BC6F0100CB
:104A600008B543090DD0012B1CD0134913484FF44E
:104A70006C73134A0CF051FD4FF46C7110480CF03C
:104A800043FD4FF0FF33C340DA07EED50D4B03EB88
:104A90008003D3F8002222F0E04242EA0171C3F819
:104AA000001208BD4FF6FF7300F01F00C340DB0784
:104AB000DBD5054BEBE700BF91700100345B0100D3
:104AC0005E700100002584500028845038B5012410
:104AD000134B144DC3F8004502230321C5F8D0360B
:104AE0000020FFF7BDFF20460321FFF7B9FFC5F8FF
:104AF00004472146C5F804492120C5F8004BFFF7BB
:104B0000AFFF21462020FFF7ABFF21460B20FFF728
:104B1000A7FF21460A20FFF7A3FF002038BD00BFF2
:104B2000001000500040005007B50DF1070006F0DE
:104B300067FB114B98421CD14FF480620F4B104918
:104B4000C3F8B8254FF40062C3F83C259DF8070070
:104B500006F012FB0B499DF8070006F0F5FA01205C
:104B60009DF80730984006F0E3FA002003B05DF8A6
:104B700004FB6FF00B00F9E70000AD0B00A0025042
:104B80002CA0025028A10250052370B5144D154EDB
:104B90002C780134B4FBF3F303EB8303E41A0FF036
:104BA00029F8114A137823B156F82430C01A07287F
:104BB00014D94FF05023D3F8141141B10021C3F898
:104BC0001411D3F814312C700CB9012313702C7804
:104BD0000FF010F846F82400012070BD0020FCE71B
:104BE000692300203C1C00206823002048B1054BAD
:104BF000054A1B68B3FBF2F35843044B43F001032F
:104C0000184770473803002040420F00D05201007F
:104C1000014902480CF0CCBDE0550100501C0020B9
:104C20004FF47F032DE9F041D3F830210646072ADF
:104C30000D46D3F8343120D1023B032B02D8124A5F
:104C4000D35CD3B14FF050244FF00108002705206A
:104C5000C4F81886C4F814760EF0DCFF4046C4F899
:104C600014860EF0D7FFC4F81476C4F818763046D0
:104C70002B46BDE8F041002118474FF05023002299
:104C8000C3F81426F3E700BFF97001001FB518B38D
:104C90000023019303930123694612480293FCF712
:104CA00053FE002809DA10493C23104A10480CF042
:104CB00034FC3C210D480CF027FC029B9B0707D0DD
:104CC00009494423094A0A480CF027FC4421F1E72A
:104CD000039B05B05DF804FB0248FCF7CDFE0028FD
:104CE000F7DAEDE7501C0020F0700100B870010009
:104CF000345B01000F2AF8B50446154608461F46E6
:104D00000BD90F490F4840F2F3130F4A0CF005FC82
:104D100040F2F3110C480CF0F7FB05F075FE0B4E5A
:104D2000AD0001462E4420462FB144F0004406F069
:104D300023FA3460F8BD06F04DFA3760FAE700BF99
:104D40002F710100345B0100FD70010080A1025051
:104D50007FB5284B01A90293002302A88DF80C30DF
:104D600006F0E2FC244B984241D106F029F8041EDB
:104D70000BDA9DF8041002A806F0DEFC01212346A0
:104D80001E4A1F480CF0CEFF2EE040F607031D4DD3
:104D90008DF80540AE68ADF806307468019B14B913
:104DA0006FF05704EAE708212846174AA047041E77
:104DB000E4DB3369002BF3D0012208212846984711
:104DC000041EDBDB01259DF8040005FA00F006F067
:104DD000AFF92B469DF807209DF805109DF80400BB
:104DE000FFF788FF002CC9D1204604B070BD6FF0DA
:104DF0001204C3E7007001500000AD0B3A710100CE
:104E000020520100B84E0100A94E000073B5069E65
:104E1000C6F30744F5B2C6F30726304605F0DAFDBF
:104E20000F2C01460BD91849184840F2ED13184AC7
:104E30000CF073FB40F2ED1115480CF065FB2846B1
:104E400006F0B2F900220120124BA400E4B21A517C
:104E5000114BA84000938DF8042006F06FF93046FE
:104E600005F0CCFF2946684606F066FC0B4B9842DD
:104E700008D00B49054876230A4A0CF04EFB7621F0
:104E80000848DAE702B070BD2F710100345B010001
:104E9000FD70010080A00250007001500000AD0BB9
:104EA00091710100627101002DE9F7431446836896
:104EB0001B694BB922492348CA23234A0CF02DFB16
:104EC000CA2121480CF020FB002298470646002802
:104ED000F0D1C4F30728404605F0B0FD5FFA84F92D
:104EE00041463346220E07464846FFF703FF404639
:104EF00005F070FDC4F307450F2D01460AD913498B
:104F0000104840F2ED13124A0CF007FB40F2ED118D
:104F10000F48D7E70F4BAD0049F00042EDB25A51B0
:104F2000484606F011F90C4B07F132020093404657
:104F300033460194520005F051FE03B0BDE8F08302
:104F40001A600100345B0100627101002F710100E1
:104F5000FD70010080A002500D4E000030B50378B6
:104F60008BB0044607AD032B21D8DFE803F0021A0B
:104F70001C1E12492846FBF7F7F8059563781E2199
:104F80000493A3780E4A0393E3780E48029323799F
:104F9000019363790093A3790BF0F6FD09480BB0F8
:104FA00030BD0949E6E70949E4E70949E2E70A2192
:104FB0002846084A0BF0E8FDDFE700BFC871010092
:104FC000EA7101006A230020CF710100D67101004F
:104FD000E07101007B83010030B50024094D0A4BCC
:104FE00085B028460293039409F0C4F902AB284621
:104FF00000934FF4A3620A23044909F0D5F920462F
:1050000005B030BDD00F00200D720100902F0020A0
:105010000146014809F0F0BAD00F0020037830B5FE
:10502000012B13D0022B27D07BB90A46184B03F172
:10503000100453F8045BA34242F8045BF9D11B78D7
:10504000137043884B731B0A8B7330BD0A46104B99
:1050500003F1100453F8045BA34242F8045BF9D156
:105060001B7813704368C3F307224B731B0CCB737D
:105070001B0A8A730B74E8E700F1100350F8042B45
:10508000984241F8042BF9D103780B70DDE700BF9B
:105090001672010038B50546012D1046194610D08C
:1050A000032D1AD0052D18D00E493C230E4A0F4867
:1050B0000CF033FA0E480CF030FA3C210A480CF0A0
:1050C00023FA0C480DF0ABFB044620B101210C3053
:1050D000FFF72AFC2576204638BD02460B460648D7
:1050E000F0E700BF5672010027720100345B010037
:1050F0009B720100A4060020D40500200F2810B5E3
:105100000ED80D280ED90B480DF089FB044628B1A6
:1051100001210C30FFF708FC01232376204610BD47
:105120001328F0D009B10448EEE70120BDE8104093
:10513000FFF7B0BF400700207006002038B50B68AD
:1051400004460D464BB916491648BC23164A0CF0C6
:10515000E4F9BC2114480CF0D7F94A68DA600B680E
:105160004A895A820868FFF72FFB0021102228463F
:105170000FF08FFDA07AFFF7E3F96169054649B1A9
:10518000637ADB0704D4C36A20461B689B68984790
:105190000023636121462846BDE838400FF0C7BBB5
:1051A000BB720100345B0100277201002DE9F84356
:1051B00005460C461F4616464AB926499823264AF4
:1051C00026480CF0AAF9982123480CF09DF938B92B
:1051D00023499923204A21480CF09FF99921F3E7AC
:1051E00001F10C0948460DF034FB38B91D499D23E7
:1051F000194A1A480CF091F99D21E5E720460DF077
:10520000ABFB804638B118499F23134A13480CF072
:1052100084F99F21D8E705F10C0148460DF003FB06
:1052200048460DF016FB012310FA86F068826B7277
:10523000314648462E82FFF7B9FBE36828467B607B
:10524000638AC4F80C807B81A4F812803C60BDE8BE
:10525000F88300BFAD99010027720100345B0100A3
:10526000C8720100CD720100EA7201002DE9F34716
:105270000023074688461646DFF82091D9E8EF4F0D
:10528000C9E8E23F002AF9D144B93B460121444A2A
:10529000444802B0BDE8F0470DF069BB2046FFF777
:1052A00057F94FF00C0A404D0AFB00504388BB42AF
:1052B00020D02046FFF74CF90AFB0050438801211B
:1052C00000933A4A3B4637480CF036FDD9E8EF3FA9
:1052D000C9E8E24F002AF9D1002B5CD034493548A7
:1052E00040F66D13344A0CF018F940F66D1132484F
:1052F0000CF00AF9A6420ED02046FFF74DF9012125
:1053000004F10C0738462176FFF70EFB3846328A47
:10531000F1680DF0AAFA2046FFF71AF90C2606FBF1
:1053200000504368ABB1B8F1000F12D12046FFF72F
:105330000FF9012106FB00504268D2E90003127AFE
:1053400003F01F06B1405B09FAB100EB83000DF0DA
:1053500010FB2046FFF7FCF80C2606FB0050836884
:105360006BB12046FFF7F4F8704305F80080204643
:10537000FFF7EEF806FB0055A86808F0D7FB2046BB
:1053800002B0BDE8F047FFF71FBAC94300EB830046
:105390000DF0FDFADDE702B0BDE8F087480100201E
:1053A0004874010088510100701C002070740100D5
:1053B000A3740100345B0100D273010010B5C1E990
:1053C00000239DF808300C460B72FFF7C1F80C2241
:1053D000024B02FB00335C6010BD00BF701C00205C
:1053E0002DE9F0474FF0FF3206464FF0FF331848E3
:1053F00088460DF014FA044638B34FF0000900F166
:105400000C0701213846FFF78FFA204684F81890E0
:10541000FFF79EF84FF00C0A0E4D0AFB0050468035
:105420002046FFF795F80AFB0050C0F80890204688
:10543000FFF78EF80AFB005503213846C5F80490A3
:10544000FFF7F0FA068080F802802046BDE8F0877A
:105450000C070020701C002070B5064690B00B4D64
:1054600001AC0FCD0FC40FCD0FC40FCD0FC495E805
:10547000070084E807000E2E9DBF10AB03EB8606E5
:1054800056F83C0C024810B070BD00BF74520100C9
:105490001E750100034B0146D3F8700182689268C3
:1054A000104700BF000000202DE9F84F3D4C00AF31
:1054B00004213D480DF05DFA3C4DE2793C4B20461D
:1054C000012A88BF1D466E46FFF748FD8AB06A462E
:1054D000384BA346C2E905350125374BD06113622D
:1054E000364B4FF42351364842F8103F0DF04CFA3A
:1054F000DFF8D080B546DFF8C890334EE3790BF182
:10550000070B9D4238DB94F870506E462846FFF733
:10551000A3FF8CB06A46B4F87210B4F87630C2E9D2
:1055200007514FF400755362DFF8A0C0284BC2E961
:1055300005C015854FF4535142F8103F20480DF037
:1055400023FAB54694F871603046FFF785FF8AB0BC
:105550006A46B4F874301F49C2E907631E4BC2E9BA
:10556000051095844FF43351154842F8103F0DF063
:105570000BFABD46BDE8F88F5846FFF7EFFCEA4648
:105580008AB06A4640F20133C2E90565D0611384EE
:105590004FF41351484642F8108F0DF0F5F90135DC
:1055A000D546ABE700000020D4000020AE6F01001C
:1055B000267501002A7501000002010304000002A3
:1055C0008851010004000001397501004A7501008D
:1055D00006000001887501000500000100487047C1
:1055E000AF750100014808F031BE00BF4402002041
:1055F00038B505460C4619B9FFF7F2FE0446D8B196
:1056000040F635439D420FD12046FFF743FF054644
:1056100040B1034601210A480A4A0DF0A8F9204684
:10562000FFF7D2F8284638BD214607480FF074F935
:105630000025FFF7D7FFF5E76FF06805F2E700BF39
:1056400088510100C075010054010020F8B5052102
:10565000054640F63540FFF7C3FE044678B9FD2302
:105660001C4A1D491D480BF058FF1D480BF055FF03
:1056700084F31188BFF36F8F0323184602DF04F110
:105680000C0701213846FFF7CDF9012604210670E9
:105690003846FFF7C7F90580002521468670C5709A
:1056A00040F63540FFF7A4FF044688B140F20713E7
:1056B000084A0C4909480BF030FF21460A480BF014
:1056C0002CFF85F31188BFF36F8F0323184602DF89
:1056D000F8BD00BFD2730100A4740100345B010067
:1056E000E27501001A600100017601002DE9F04128
:1056F0000446868B477E807AFEF722FF6169054665
:1057000049B1637ADA0704D4C36A20461B689B68F0
:10571000984700236361214628460FF008F9A37ECD
:1057200033BB144B93F88A309B0621D5384601F0E1
:10573000BBFE044638B93B46BDE8F04102210E4AA3
:105740000E480DF014B9837A073B012B09D90B4899
:1057500002210B4A0DF009F92046BDE8F04101F0A5
:10576000CBB901F0C9F93046BDE8F041FFF76EBF93
:10577000BDE8F0810000002024760100885101007E
:105780004D76010038B502460B462B4DD5F8541125
:1057900009B9002038BD05F5987008F009FA00280D
:1057A000F7D10022002305F5AA7008F053F904464A
:1057B00068B940F6B733214A214922480BF0ADFEC3
:1057C00084F31188BFF36F8F0323184602DFD5F8E7
:1057D00048315BB101211C4A1C480DF0C6F8D5F8D0
:1057E0004801FEF7F1FF0023C5F848312046FFF7D6
:1057F00019F8C5F848012046FFF74CFE0346C8B12A
:105800000121134A11480DF0B2F8124808F08EF940
:105810002046FEF79DFE0C220F4B02FB00335888FA
:1058200018B122461F21FFF721FD2046FEF7CCFFCD
:10583000FFF7D8FE0120ADE700000020D273010081
:10584000A4740100345B01007976010088510100E5
:10585000C075010030010020701C00202DE9F04FC0
:1058600087B0054616460C4600AF31B9FFF7B8FDC4
:105870000446A0B96FF0680099E0887AFEF760FEF0
:10588000524B83420BD0524952484FF4BF73524A95
:105890000BF043FE4FF4BF714F480BF035FE012271
:1058A000002138460FF051F82046FEF751FE0C2338
:1058B000DFF828A103FB00A087602046FEF7B2FFB7
:1058C000014647480FF028F8FFF78CFE0FF086FAE4
:1058D000444B1A58444B9A4220D1DFF810B140484B
:1058E0000FF02FF8002181464FF4A020FFF74AFF68
:1058F000804688B94FF4D4735946374A35480BF07F
:105900000CFE29463A480BF008FE88F31188BFF3D5
:105910006F8F0323184602DF4C45E0D14FF4A022DD
:105920000023384608F044F9804698B14FF4D77305
:10593000294A304927480BF0F0FD424629462E48B7
:105940000BF0EBFD002383F31188BFF36F8F03236C
:10595000184602DF2046FEF7FBFD0C2358431AF8D9
:105960000080B8F1000F26D06E468AB06A46234BFD
:10597000C2F81C80C2E90535214B4FF43251136245
:1059800040F2024393841F4B1F4842F8103FA8F196
:1059900009080CF0F9FF2046B5465FFA88F8FEF7D3
:1059A00013FFB8F1090F0ED8184B13F908001C3774
:1059B000BD46BDE8F08F16B134600020F7E7204601
:1059C000FEF702FFF9E76FF00400F0E70C07002094
:1059D0000FA60100345B0100D2730100701C00208F
:1059E00054010020080000003815002094760100C2
:1059F0009C7601001A600100BC760100017701006D
:105A0000AE6F0100050000018851010069780100B6
:105A1000F0B583B000AF002140F603403A1DFFF718
:105A20001DFF0446002840F0B0807868C3681B78EA
:105A300053B9BD4BD3E8AF2F02F00902D3E8EF1FF3
:105A4000C3E8E42F002CF9D1FEF7BEFE002141F29D
:105A500003003A1DFFF702FF0446002840F095803E
:105A60007A68B24DD16805F17803D1F80100D1F818
:105A7000051003C31046FEF7A7FE214641F20100C0
:105A80003A1DFFF7EBFE044600287ED17868C36814
:105A90005A7885F870205A88A5F872201A7985F806
:105AA0007120B3F80720A5F87420B3F80530A5F8E5
:105AB0007630FEF789FE214641F202003A1DFFF7DB
:105AC000CDFE0446002860D1D7F804C005F1800659
:105AD000DCF80C20531C41323446186859680833EE
