:10000000D01E0020B52A000069940000A12A00003B
:10001000A12A0000A12A0000A12A0000A12A0000B4
:10002000000000000000000000000000612C000043
:10003000A12A000000000000212C0000A12A0000DD
:10004000212E0000212E0000212E0000212E000074
:10005000212E0000212E0000212E0000212E000064
:10006000212E0000212E0000212E0000212E000054
:10007000212E0000212E0000212E0000212E000044
:10008000212E0000212E0000212E0000212E000034
:10009000212E0000212E0000212E0000212E000024
:1000A000212E0000212E0000212E0000212E000014
:1000B000212E0000212E0000212E0000212E000004
:1000C000212E0000212E0000212E0000212E0000F4
:1000D000212E0000212E0000212E0000212E0000E4
:1000E000212E0000212E0000212E0000212E0000D4
:1000F000212E0000212E0000212E0000212E0000C4
:10010000212E0000212E0000212E0000212E0000B3
:10011000212E0000212E0000212E0000212E0000A3
:10012000212E0000212E0000212E0000212E000093
:10013000212E0000212E0000212E0000212E000083
:10014000212E0000212E0000212E0000212E000073
:04015000212E00005C
:10015400034613F8012B002AFBD1181A0138704703
:1001640070B501250B4808F0B1FE0A210A4808F0D1
:10017400ADFE2C46094E654321462A4630460134DD
:1001840008F0A4FE0B2CF6D1054808F09FFE0020D1
:1001940070BD00BFD0A1000006A200003BA2000079
:1001A40057A20000B2F5802F2DE9F04110D2042AA5
:1001B40028D843494FF4F973424A434808F09CFE57
:1001C400424808F099FE4FF4F9713E4808F08BFE5E
:1001D4000823D21ACC1D114424F0070421F007018E
:1001E400091B17294FEAD1060ED8394940F2FB13EF
:1001F400344A354808F080FE344808F07DFE40F269
:10020400FB11E2E70423E4E70027046031463046AB
:10021400A660E76008F0B2FD0121421D8046304629
:1002240008F0A3FD9200D51DED082844B0423AD849
:10023400B8F1FF3F3946A2F1100204F11000B8BF33
:100244003A4609F02AFC2A463946204608F089FD38
:100254003B463A463946204608F05AFDA6EB0508C7
:1002640020463946012208F064FD4246294608F03A
:1002740078FD2B463A462946204608F049FD31468A
:10028400204608F06EFD43463A463146204608F0C3
:100294003FFD31462046012208F04BFD2946BDE8CA
:1002A400F04108F077BD0B494FF40373054A064843
:1002B40008F022FE054808F01FFE4FF4037184E79E
:1002C4007BA3000090A20000C4A200009CA3000035
:1002D400B5A30000DEA300002DE9F04F91B0009318
:1002E40002F004030293C2F3C203013384070546F8
:1002F4000E46DDF868800392059340F0F681041DF4
:1003040030B1072909D86FF01B0011B0BDE8F08F98
:1003140001F00706341DC6F108064FF000094FF03E
:10032400040B009B4F46013B01934FF0FF324B46B9
:10033400DA46CDF810900DB1009921600598002897
:1003440000F3D78098480099814203D397488142AB
:10035400C0F0CF800399A4EB050E89074FEA9E00F5
:1003640040F1E2804FF0000CCCE07A285AD84B28B8
:100374000CD8472856D829282AD8252851D051D80E
:10038400202877D023384342434173E04C382E2849
:1003940048D8DFE800F06F47474747474747474794
:1003A40047474947474747474747475947494959AF
:1003B40059596F496C476F471849184747807D4919
:1003C400474749477D00002000234FF0040B39E0E4
:1003D40001212A38C0B201FA00F010EA0E0F49D107
:1003E40010F0625C30D110EA010343D06046013C56
:1003F4005C44B4FBFBF40BFB04F4002D60D0AAEBCB
:10040400050CA444B4453FF67EAF00286AD1BAF186
:10041400040F45D158F8040B20604FF0040A04344B
:1004240028E0013A002325E0019B13F8013C6C2BE2
:1004340033D10020019B13F8023C6C2B0346C4D13A
:100444004FF0080BDA46D2E708F1070828F007084E
:10045400073424F00704F8E802AB35B106982044C9
:10046400B0423FF650AFC4E900AB002308344FF06C
:10047400080BDA46019911F8010F0191002800F0E8
:10048400BC80002B7FF471AF2528F3D10123013206
:100494004FF0040BEDE7184696E700200346A6E765
:1004A400BAF1080F40F09B8008F1070828F007080C
:1004B400F8E80201C4E900014FF0080A0834D9E75A
:1004C40080B9BAF1040F02D108F10408A5E7BAF122
:1004D400080F40F0848008F1070828F0070808F1A5
:1004E4000808E9E705990139059158F8041B0091BA
:1004F40021E7039988074AD54FF0010CA4EB050EB8
:100504004FEA9E00BEF5007F1ED329494FF41F73A6
:10051400284A294808F0F0FC284808F0EDFC4FF47C
:100524001F71244808F0DFFC0F2F0FD8002D49D08D
:1005340007F140010DEB010C0CF8200C0CF8102C09
:1005440004980130049021E00F2F0CD9184940F28F
:100554008123184A184808F0CFFC194808F0CCFC4D
:1005640040F28121DDE7CDB107F140010DEB010E31
:10057400C0B20EF8200C0EF8102CBCF1000FDFD026
:1005840060F07F000EF8200C09F101090137C5F174
:1005940008014FF6DA7E043406916BE7BCF1000FD4
:1005A40010D00136F2E700BF989B00004CC3000056
:1005B400D9A5000009A40000C4A2000037A40000CB
:1005C40058A40000029802360028DFD10098CDE933
:1005D4000632FFF7BDFDDDE906320644D6E740F2F8
:1005E400C623434A4349444808F086FC51464348DD
:1005F40008F082FC40F2C62193E7631BB3F5806FD9
:100604000CD33C4940F2D223394A3B4808F074FCED
:100614003B4808F071FC40F2D22182E71DB9A6F1F3
:100624000804E01871E6029A9B0828602B709DF874
:100634001030C2B1EB7085F80290B9F1000F05D00B
:10064400002208A8C5F1010C97420ED14FF0000A10
:10065400C5F101030DF1200801930DF1300B57454D
:1006640012D1601B51E66B70E5E710F8013B1906E7
:1006740008D504EB0C0EB64503F07F033FF643AEFA
:1006840004F8013B0132DFE7B9F1000F03D098F918
:100694000020002A17DB029BD3B11AF80B2004F8C0
:1006A400012B0022019B98182044B0423FF62BAE48
:1006B40098F80000009904F8010B2046039209F011
:1006C400DFF9039A14440AF1010A08F10108C6E7A4
:1006D40098F8002055F822300093029B009845F8C2
:1006E4002230FFF735FD421CDCE76FF00D000CE60D
:1006F40009A40000D9A50000C4A2000072A400004F
:1007040087A400002DE9F04F97B000AF8946044656
:10071400D7F880B0FA623B6258B9A9494FF46673BE
:10072400A84AA94808F0E8FB4FF46671A54808F008
:10073400DAFBCBF3C00390F802A0BB6141B9457862
:1007440000780AEB800020444D4517D8A0EB04093B
:10075400E378FB61BAF1000F02D01BF0010F16D150
:10076400FB6953BBFB6A1BB1494620463A6A98476A
:100774004D4628465C37BD46BDE8F08F461C3046E2
:10078400FFF7E6FC0130304409F10109DCE7626857
:1007940023787A62FA6A9900796104EB8301002A6A
:1007A40040F002810E464FF000084D4601EB0A0965
:1007B4004E454CD101EB0A0610E01BF0020FD1D0DC
:1007C40023789A007A61626804EB83017A62FA6A98
:1007D400002A77D14D46904601EB0A061BF0050F1F
:1007E4000CBF02230123FB62FB6906EB430A0BF0F7
:1007F4000203BB625645BCD016F8021B16F8013C36
:1008040054F82390714B994502D3714B994536D3D3
:10081400BB69002B40D0786A08F02FFB00283BD03E
:10082400E9468AB06A466B4B53617B6AC2E906317A
:100834004FF400731384684B42F8103F00234FF4C5
:100844001251664801F0B0F9023DCD46D2E716F8E0
:10085400013BF96254F82300FFF77AFCD7F884309F
:10086400F96A01304BB1D7F8883098453EBFD7F8C4
:10087400843023F8180008F10108054498E7BB699F
:1008840023B1786A08F0F9FA0028C9D11BF0010FE6
:1008940005D1FB6AED1AADE7BB6A002BAAD0484626
:1008A400FFF756FCD7F8843053B1D7F88830984511
:1008B4003FBFD7F88420431C22F8183008F1010800
:1008C400054497E7BAF1000F74D01BF0040674D006
:1008D400D046002607F1480052463B61B96209F050
:1008E400CFF8B96A3B6901EB0A02BA62FA69F9699D
:1008F4005200FA60BA6A02EB41023A610BF002025A
:10090400BA60BA6A39698A426AD162781BF0020F06
:1009140018BF00217A6208BF4FEA5801B2181BF0D1
:10092400010FD2B240F0E5801BF0040F14BF404623
:100934000020BB616270A070E17020463A6A796958
:10094400FB6A9847051EFFF614AFBB694146237046
:100954007B6A3A6A6370FB6984F802A0E37007F16A
:100964004800FB6A9847B0F10008C0F2F0807B6948
:10097400A9EB0A01C91AFB683A6AC91AD7E90A033A
:1009840098470028C0F2E5804FF0000BA84408EB1C
:10099400000507F1380AB345C0F0AD8000213A6A7A
:1009A4000846FB6A9847E4E656464FF0000807F10C
:1009B400380091E75646D04695E7B04693E700BF26
:1009C4009EA4000009A40000C4A20000989B00009B
:1009D4004CC30000B9A4000004000001A49E000060
:1009E400BA6A12F8021B12F8015CBA6254F82500C4
:1009F400594A904202D3594A904218D3BA693AB13B
:100A0400786A7B6008F039FA7B6800287FF479AF54
:100A1400BA68002A4CD00F2E40D9514940F24C43B9
:100A2400504A514808F068FA40F24C417EE6BA69EF
:100A34003AB1786A7B6008F020FA7B6800287FF47A
:100A440060AF1BF0010F0BD00F2E27D9444940F2A1
:100A54004243444A444808F04FFA40F2424165E6B2
:100A64001BF0040F3FF44DAFB8F10F0F09D93F4904
:100A740040F245433B4A3C4808F03EFA40F24541C7
:100A840054E608F1280207F1300008F1010102EBF5
:100A9400000808F8105C5FFA81F832E706F12802D2
:100AA40007F13000711C161806F8205CCEB228E756
:100AB400B8F10F0F09D92D4940F24F43294A2A486A
:100AC40008F01AFA40F24F4130E608F1280207F123
:100AD400300C08F10100944407F1580208F10208AF
:100AE40052FA80F00CF8101C5FFA88F800F8105CD9
:100AF40007E700201DE71BF80A3054F8239087F815
:100B04003730D7F88430FBB133F81B8001213A6ABF
:100B1400FB6A07F13700984700281ADB0544B8F14F
:100B2400000F06D14846FFF713FB00F101081FFA36
:100B340088F8414648463A6AFB6A9847002808DB29
:100B440005440BF1010B26E7D7F88480DEE7454620
:100B54000FE605460DE600BF989B00004CC300005D
:100B64005CA5000009A40000C4A200007BA500004D
:100B7400014B1860704700BF0000002080B5054697
:100B84000E461746984606F08FFF034608F0F8FF16
:100B94000446DFF81890424649F80030394630469A
:100BA400A84754F8090001F0EBFF00BF080000005B
:100BB40038B50D4604462022002108F06EFF0022BD
:100BC400EB68E361AB68A3612B6823626B68A26284
:100BD40063622A6923B1591E194208BF42F0010217
:100BE40022610122002104F12C0008F0DDFE48B14D
:100BF400054906482F23064A08F07EF92F210448A8
:100C040008F071F938BD00BFD2A50000C4A20000ED
:100C1400ACA500002DE9F04F002789B0CDE90123F0
:100C2400436A04468B428846BA460597079755D3CC
:100C34004FF0200B00F11406EFF3118300938BF3B4
:100C44001288BFF36F8F3046DDF8009007F078F814
:100C540058B988234A4A4B494B4808F04DF9314664
:100C64004A4808F049F9882160E0304607F08CF8DA
:100C7400079A2AB13946204608F01FFA0023079341
:100C840006A9204608F045F90699054641452ED3A4
:100C94002268236A204613F8221003EB820A21F00B
:100CA400030103F822102168424608F056F9E3686C
:100CB4002060984216D00025304607F04FF840B324
:100CC40089F31188BFF36F8F059929B1A2690AB11D
:100CD4002046904700230593002DADD1504609B01E
:100CE400BDE8F08F236943F008032361E3E718B1FB
:100CF400204608F04CF9DFE7DDE90132134337D031
:100D0400039108F05DFE039990BB304607F026F886
:100D140078B940F231131A4A1D491B4808F0ECF81F
:100D240031461C4808F0E8F840F23111144808F044
:100D3400DAF8009B83F31188BFF36F8F04F12C0062
:100D4400DDE9012305F0ECFD0546EFF311898BF392
:100D54001288BFF36F8F304606F0F2FF00283FF48D
:100D640078AFB5FA85F5304607F00EF86D09A3E7BC
:100D7400204607AB05AA276808F028F905469BE733
:100D8400DBA5000008A60000C4A200001DA6000008
:100D940033A600004AA600002DE9F0410446C369C9
:100DA40008460E46984704F114050746EFF31188E8
:100DB400202383F31288BFF36F8F284606F0C0FF09
:100DC40068B988231A4A1B491B4808F095F8294634
:100DD4001A4808F091F88821154808F084F8284644
:100DE40006F0D2FF33783A4643F00103337061686A
:100DF400204608F0B2F86060204608F079F92846E9
:100E040006F0ACFF68B940F23113094A0C490A48AC
:100E140008F072F829460B4808F06EF840F23111D8
:100E2400DAE788F31188BFF36F8FBDE8F08100BF64
:100E3400DBA5000008A60000C4A200001DA6000057
:100E440033A600004AA600002DE9F843044600F149
:100E54001407EFF31188202383F31288BFF36F8FF5
:100E6400384606F06DFF054668B98823344A35498B
:100E7400354808F041F83946344808F03DF88821EF
:100E84002F4808F030F8384606F07EFF2369A26840
:100E940013F0080F02D163689A4200D9636A9B1A5F
:100EA400002B3FD0216A11F8223001EB820913F0A4
:100EB40003003AD0022803D151F82260B60805D1C4
:100EC400D8071FD44846E36998470646A1683246C6
:100ED400204608F042F83146A060204608F04BF85E
:100EE400384606F03BFF10BB40F23113144A184950
:100EF400154808F001F83946164807F0FDFF40F29E
:100F04003111BDE743F0020301F82230E36948469A
:100F1400A568984729460246204608F01EF8002591
:100F2400A060DDE71D46A946DAE70546FBE788F33E
:100F34001188BFF36F8F002D8BD14846BDE8F8832D
:100F4400DBA5000008A60000C4A200001DA6000046
:100F540033A600004AA600002DE9F0410446C36907
:100F640008460D46984704F114060746EFF3118826
:100F7400202383F31288BFF36F8F304606F0E0FE20
:100F840068B98823274A2849284807F0B5FF31461D
:100F9400274807F0B1FF8821224807F0A4FF304614
:100FA40006F0F2FE2B786FF300032B7023699B0786
:100FB40005D5E268236A03EB82039D4222D12B7894
:100FC4006FF341032B70D4E90231994204D13A46BC
:100FD400204607F0C2FFA0603946204607F0CBFF49
:100FE400304606F0BBFE90B940F231130D4A114968
:100FF4000E4807F081FF31460F4807F07DFF40F2AD
:101004003111C9E72B6867F39F032B60E8E788F386
:101014001188BFF36F8F04F12C00BDE8F04105F097
:1010240027BC00BFDBA5000008A60000C4A2000086
:101034001DA6000033A600004AA6000070B50446B1
:1010440000F11405EFF31186202383F31288BFF314
:101054006F8F284606F074FE68B988231A4A1B4924
:101064001B4807F049FF29461A4807F045FF882125
:10107400154807F038FF284606F086FE2369A06865
:1010840013F0080F02D16368984213D9646A241AD2
:10109400284606F063FE78B940F231130A4A0E4935
:1010A4000B4807F029FF29460C4807F025FF40F2BA
:1010B4003111DDE71C1AEBE786F31188BFF36F8F5C
:1010C400201E18BF012070BDDBA5000008A600008B
:1010D400C4A200001DA6000033A600004AA600001A
:1010E4002DE9F84F0446A38B08461907154612D478
:1010F400022803F0070165D1204608F006F888B1FC
:101104000138042800F23781DFE810F05C00350173
:101114008200D400040101280CBF43F0100143F005
:101124002001A1831434204606F018FE002840F064
:101134009D819A4940F23113994A9A4807F0DCFE9E
:101144002146B1E003F00702501F01281ED80020F9
:10115400062A2768C4E9000014D13A4603E0E08B6C
:101164000130E0831268002AF9D123F0070343F029
:1011740002022046A28307F0C8FF90B342F0200287
:10118400A2832EE023F007039AB2F2E7042A33D1B4
:1011940023F007039AB22046A28307F0B6FF10B1EA
:1011A40042F02002A283A38B03F00709894540F093
:1011B400EC80A18BCA0640F1508121F01003A38377
:1011C40001F00701D4F81880A38BB8F1000FB9DA45
:1011D4000022276823F00703C4E9002243F0010337
:1011E400A383A38B03F00709894540F0CF80002F28
:1011F400DFD00026B24644E06B4940F21B136B4A31
:10120400684807F079FE40F21B11684807F06BFE4E
:1012140049B167494FF4AB73644A624807F06CFE06
:101224004FF4AB71F1E723684BB9624940F25713AD
:101234005E4A5C4807F060FE40F25711E5E7236917
:101244001E684EB95C494FF4AD73584A554807F0CF
:1012540053FE4FF4AD71D8E70F4688464FF00609A8
:10126400A38B23F0070343F006039BB2A383A26876
:10127400002A40F08D80002F40F08D80002E98D001
:10128400BA4643F0080304F1140B5846A38306F04E
:1012940065FD002840F09A80404940F23113404AED
:1012A400404807F029FE5946444807F025FE40F21D
:1012B4003111ADE0022909D0414940F25D133B4AA6
:1012C400384807F019FE40F25D119EE7E78B4FB1F5
:1012D4003C494FF4AF73354A324807F00DFE4FF4E2
:1012E400AF7192E723695E684EB9334940F26113E6
:1012F4002E4A2C4807F000FE40F2611185E7A38BCB
:10130400B84623F0070343F004039BB24FF00409EB
:10131400A383ACE7012909D02B494FF4B273234AC4
:10132400204807F0E9FD4FF4B2716EE723684BB92A
:10133400204940F265131D4A1A4807F0DDFD40F2CA
:10134400651162E723699E684EB91B494FF4B47373
:10135400164A144807F0D0FD4FF4B47155E700273E
:10136400A38BB84623F0070343F005039BB24FF069
:101374000509A3837BE70C4940F26B130B4A094828
:1013840007F0BAFD40F26B113FE7002700266EE735
:101394004FF0010A75E7924673E700BF33A60000D9
:1013A400DBA50000C4A20000D9A500005FA60000D0
:1013B40084A6000090A60000B3A600004AA6000080
:1013C400CAA60000E0A60000EFA6000085F311887D
:1013D400BFF36F8FBAF1000F1CD177BB16B1204653
:1013E4002549B047EFF31185202383F31288BFF317
:1013F4006F8F584606F0A4FC38BB88231F4A204947
:10140400204807F079FD59461F4807F075FD8821EB
:101414001A48FBE6A1680029DFD00D680029DCD05A
:1014240043464A462046D1F804A0D0471DB12B6854
:1014340029461D46F2E72B46FAE7394643464A4613
:1014440020463F6807F08DFEC7E7584606F09CFC2F
:10145400A38B23F00803A383ABE68B067FF562AE70
:1014640021F02003A38301F0070145E685F31188E9
:10147400BFF36F8FBDE8F88F91140000DBA5000067
:1014840008A60000C4A200001DA60000F8B504468A
:101494000D4600F11406EFF31187202383F312881D
:1014A400BFF36F8F304606F04BFC68B988230C4AB3
:1014B4000C490D4807F020FD31460C4807F01CFD8F
:1014C4008821074807F00FFD304606F05DFCA56152
:1014D4003A462046BDE8F8400121FFF701BE00BFAF
:1014E400DBA5000008A60000C4A200001DA60000A1
:1014F4002DE9F04704460F4607F023FE051E68DB7E
:1015040004F11409EFF3118A202383F31288BFF343
:101514006F8F484606F014FC804660B98823384A29
:101524003849394807F0E8FC4946384807F0E4FCF4
:101534008821334842E0484606F026FC4FF6FF7205
:10154400E38BA68B934206F0070645D0022E15D1F5
:1015540035460133E383484606F000FC002841D1B8
:1015640040F23113264A2A49274807F0C5FC494668
:10157400284807F0C1FC40F23111DAE7062E13D8EF
:10158400DFE806F0092D1212090409006FF0850541
:101594004FF00008DFE700233B60636883B9C4E9C8
:1015A400007786B13546F3E71B4917484FF4E473D7
:1015B4001A4A07F0A1FC4FF4E471184807F093FCB1
:1015C4001F606760EDE7524602212046FFF788FD61
:1015D40035462846BDE8F0876FF00A05D8E76FF076
:1015E4000405D5E78AF31188BFF36F8FB8F1000FB4
:1015F400EFD0002332463946204607F0B2FDE8E733
:10160400DBA5000008A60000C4A200001DA600007F
:1016140033A600004AA60000EFA600005FA6000063
:1016240008B54268034602F00302032A816002D02F
:101634002AB1002000E0006800225A6008BD054974
:1016440005484523054A07F057FC4521034807F0A0
:101654004AFC00BFD9A50000C4A2000005A70000F1
:101664002DE9F84FDFF8FCA03F4F8146AAEB0703B2
:101674008F2B88460BD93D4940F23F133C4A3D48E5
:1016840007F03AFC40F23F11394807F02CFC3A4885
:1016940007F0B6FD0646002834D13C4605464FF017
:1016A400010B544527D935494FF4A673304A3148C4
:1016B40007F022FC324807F01FFC4FF4A671E3E761
:1016C400237B6BB12368DB680BB120469847236802
:1016D4001B6943B9636804222046196800F03EFA86
:1016E40001361034DDE7204698470028F2D00BFA83
:1016F40006F31D43F4E7E3D3B9F1000F02D04FF032
:10170400010A0DB9BDE8F88FA94695FAA5F4B4FA13
:1017140084F40AFA04F3260107EB04146FEA030BBA
:1017240025EA0305237B5BB1BB591B69A3B93E447E
:10173400736804222046196809EA0B0900F00EFABE
:10174400002DE2D1B8F1000F04D04FF4A4700021B1
:1017540006F074F94D46D4E7204698470028EFD1A7
:10176400E5E700BF0C9F0000FC9E000058A70000A6
:101774002BA70000C4A200002408002088A70000B2
:10178400A9A70000014B53F8200070472C9F0000CC
:1017940008B5034608462BB1044A136000F01CFD4B
:1017A400002008BD6FF01500FBE700BF0400002017
:1017B4000122014B1A7070478411002010B50446B1
:1017C400064807F01DFD3CB1054BD3E8EF1F013976
:1017D400C3E8E21F002AF8D110BD00BF1C08002096
:1017E4002008002000200146034BD3E8EF0FC3E894
:1017F400E21F002AF9D170471C08002070B5FFF7DA
:10180400F1FF05460F4C104EB44219D90F4940F26E
:10181400FF130F4A0F4807F06FFB0F4807F06CFBEC
:1018240040F2FF110A4807F05EFB63685B792BB155
:1018340023685B6813B12946204698471034E3E7D0
:10184400F3D370BDFC9E00000C9F000088A700002D
:101854002BA70000C4A20000A9A7000010B5044CE7
:1018640004492046FFF7A4F9034B1C6010BD00BFD8
:101874005C010020189F00001408002008B5002314
:10188400074A4FF400411370064A07481360074A99
:101894001360FFF77DFFBDE80840FFF7DFBF00BF1F
:1018A400851100201C08002001920000200800205F
:1018B4000146002200230148FFF7ACB95C01002077
:1018C4000148FFF7C1BA00BF5C010020024B01468A
:1018D4001868FFF741BB00BF140800200148FFF758
:1018E400ADBB00BF5C01002070B52E4B18780028FA
:1018F40057D0FFF7E5FF054640B32B4BD3E8EF1F66
:101904000139C3E8E21F002AF8D1284C284EB4421A
:1019140018D9284940F2F313274A284807F0ECFA6B
:10192400274807F0E9FA40F2F311234807F0DBFAFD
:1019340063685B7923B12368294620461B6898476E
:101944001034E4E7F4D32846FFF7C0FF1D4B1E4CC8
:101954001B68002B19DD08F075F84FF47A72A0FBB0
:10196400020302FB0131C30B43EA4143D4E90020E3
:101974009B1A40F2E9324FEAD13161EB0001934204
:1019840071F1000101D3FFF739FFD4E9003213F5F7
:101994007A7342F10002C4E90032BDE87040FFF7F7
:1019A4009DBF70BD8411002020080020FC9E000013
:1019B4000C9F000088A700002BA70000C4A2000011
:1019C400A9A700001C0800200006002013B52A481F
:1019D40007F016FC294B1B78002B35D0EFF311844C
:1019E400202383F31288BFF36F8F254806F0A8F9EC
:1019F40068B98823234A2449244807F07DFA2049FA
:101A0400234807F079FA88211E4807F06CFA1C482D
:101A140006F0BAF9FFF768FF194806F09FF968B9AC
:101A240040F23113174A1B49184807F065FA144964
:101A3400194807F061FA40F23111E5E784F311889F
:101A4400BFF36F8F02B010BD144B1B68002BF9D08D
:101A540038B9002200231248CDE9002306F0C4FC63
:101A6400F0E70928EED10E4807F0EEFF0D4802B06A
:101A7400BDE8104004F0FCBE2008002085110020C1
:101A840010080020DBA5000008A60000C4A2000086
:101A94001DA6000033A600004AA600001808002076
:101AA40008060020EC01002010B5064B04461B6814
:101AB40098472146A0600448FFF76EF9BDE810403E
:101AC400FFF784BF040000205C01002070B5154DB1
:101AD400297829BB0120FFF7C3FD134C134EB442F0
:101AE40017D913494FF4DC73124A134807F004FA68
:101AF400124807F001FA4FF4DC710E4807F0F3F9CD
:101B040063685B791BB1236820469B68984710344F
:101B1400E5E7F5D3FFF7E8FE0028FBD101232B709E
:101B240070BD00BF85110020FC9E00000C9F0000CA
:101B340088A700002BA70000C4A20000A9A70000EA
:101B4400044A054B9B1AB1EBD30F34BF52F8310052
:101B540000207047A49E0000FC9E00000E4B10B5B0
:101B6400C31A1B110133DBB248B90C490C48DF23FB
:101B74000C4A07F0C1F9DF210A4807F0B4F94468B8
:101B8400237143689A7101224368196043685A714A
:101B9400BDE81040FFF70CBEFC9E00004CA80000FE
:101BA400C4A2000014A800002DE9F04F8FB0C1F3C7
:101BB4004A2804AF0D469146B8607B600C0DB8F11D
:101BC400000F68D000264FF0040B4FF00A0A07F10B
:101BD4001403C7F80C80C7E907667E620193CDF849
:101BE40008B0CDF800A007F11C0332464846F96856
:101BF400FEF788FDB0F5006F03461CD36C468AB02F
:101C0400D9F8041004AB2C481A46C3E9050140F284
:101C1400FF71D9614FF400711984284B42F8103FC9
:101C24004FF4125133462648FFF7BEFFA5462C3722
:101C3400BD46BDE8F08FC0F30A0804F1170018444C
:101C440020F0070080083B60FFF732FE68F353255D
:101C5400044640B33B6800F11001C7E9083607F1B8
:101C64001403F961CDE900A3CDF808B04846154A3C
:101C7400F96807F11C03FEF745FD002813DA124941
:101C840012484FF4A373124A07F036F94FF4A371C4
:101C94000F4807F028F904F1170020F00700800826
:101CA400FFF706FE044668F353252A4620467B6860
:101CB400B96807F0DEFABAE76CA800000400000176
:101CC400B49E00004B920000D8A80000C4A20000FB
:101CD400ABA800002DE9F04F87B00446DDE9106A97
:101CE400DDE9127993469846039127B33B46524661
:101CF40010210020CDF80090CDF81490FEF7ECFAF6
:101D0400051E0BDA264940F26513264A264807F0D9
:101D1400F3F840F26511234807F0E5F8B5F5006FD4
:101D24000ADB40F2FF730221204A214807B0BDE8D4
:101D3400F04F07F0F7BA3D4606F11700284420F0AB
:101D440007008008FFF7B4FD04F007040BF0070B4D
:101D5400E40044EA8B1444EA452444EA0654064663
:101D6400A0B19FB13B4652462946CDF800901030B1
:101D7400FEF7B2FA002809DA094940F28513094A44
:101D8400094807F0B9F840F28511C4E743462246F2
:101D94003046039907B0BDE8F04F07F06ABA00BFB8
:101DA400D7A80000ABA80000C4A20000E1A800006E
:101DB400B49E0000406820B1034BC01A40F3CF002A
:101DC40070474FF0FF307047A49E00000EB403B577
:101DD40003AB53F8042B01460448019301F0C0FA05
:101DE40002B05DF804EB03B0704700BF111E0000A1
:101DF400CA0605D48B064CBF02490349FFF7E6BF68
:101E0400704700BF4ABE000019A9000038B54B68EE
:101E140005461A68CB680C469A4202D1084607F078
:101E240099FA6368D3E8EF2F511CC3E8E01F002838
:101E3400F8D1A3689D5463681A68E3689A4209D983
:101E4400054906487B23064A07F056F87B210448D7
:101E540007F049F8002038BD4BA90000C4A20000D7
:101E64001CA900002DE9F04F89B09B46149B9DF8F6
:101E74004CA00693159B04460593169B0D4690466D
:101E8400179E0493BAF1000F00F0AD80BAF1040F6D
:101E94000BD9A34940F24D23A24AA34807F02CF8DA
:101EA40040F24D219F4807F01EF806F48073079313
:101EB40007F0C7F906F00209024600283FD0204681
:101EC4009A49FFF783FF0746B9F1000F08D016F0CF
:101ED400440F36D12A4620469549FFF777FF074439
:101EE40006F0010353B1934B204653F82A20924B3A
:101EF4009249002A08BF1A46FFF768FF06F4807368
:101F0400002B4AD006F00803002B64D1B8F1000F6F
:101F140067D0424620468A49FFF758FF0546069B8C
:101F24003D44002B6ED1049B002B40F08380F307CB
:101F340000F1F08031462046FFF75AFFE4E00746FF
:101F4400C2E7804B18680028C9D07F4B4FF47A79D8
:101F54001B684FF46161B5FBF3F5B5FBF0F300FBCF
:101F6400135509FB05F5B3FBF1F2B5FBF0FE4FF099
:101F74003C0C01FB123100FB1E55B1FBFCF309FBC9
:101F840005F5B5FBF0F50CFB131120460091CDE9E6
:101F940001E56E49FFF71AFFA1E706F00803EBB16C
:101FA4006B4B204653F82A206A49FFF70FFF05467A
:101FB400B8F1000F05D0424620466149FFF706FFFD
:101FC4000544BBF1000FAAD05A4620466249FFF7E8
:101FD400FDFE0544A3E74FF0000BE1E706F008051A
:101FE400E6E745469BE7BBF1010F069B06D1DBB94B
:101FF400049B002B00F0888000251BE0002BF7D009
:10200400564812E056482246069B564906F004FFFD
:1020140000280CDA544940F2A723424A424806F009
:102024006BFF40F2A7213DE74D485546EBE7049B83
:10203400002B65D0DFF83481DFF83491049F3146FA
:10204400102F204628BF10274FF0000BFFF7D0FEBB
:102054005D4542DC059B494620461A78FFF7B6FEEB
:102064004FF0010B1BF0070F03D141462046FFF749
:10207400ADFE5F4538D9059B4946204613F80B2031
:10208400FFF7A4FE0BF1010BBBF1100FEAD14FF0E7
:10209400000B20463749FFF799FE5A46059B204618
:1020A4009A5CA2F120015F2928BF2E223249FFF752
:1020B4008DFE0BF1010BBBF1100F1AD01BF0070FB3
:1020C40003D141462046FFF781FE5F455A46E5D8D5
:1020D40041462046FFF77AFEEBE741462046FFF7EC
:1020E40075FE0BF1010BB3E720462449FFF76EFEA2
:1020F400C8E7059B3B440593049BDB1B04939DD1DC
:10210400BAF1000F7FF413AF204609B0BDE8F04FD9
:1021140007F020B92046084A0849FFF757FE09E7A7
:1021240080A900001CA90000C4A200008CA9000022
:1021340090A900003C9F00007BA90000B5A9000005
:10214400B8A900002C0800202808002099A9000044
:10215400509F0000BCA90000C2A9000073930000B6
:10216400111E000065330000C7A90000D8A90000B3
:10217400D0A90000DAA90000DCA90000D6A900005B
:1021840042F20F7373B58B4228BF0B4605680446B1
:10219400052168460D4A06F029FB06466368284671
:1021A4000B225B680A4907F0C7F863683246694640
:1021B40028465B6807F0C0F863681B2228465B6802
:1021C400044907F0B9F802B070BD00BFFAAB0000D3
:1021D400FBA90000DFA9000000210123064A904268
:1021E40006D8064A01B901231360054B18607047ED
:1021F400012140085B00F2E740420F00280800205C
:102204002C080020F8B50D460446064F4618B44283
:1022140001D12846F8BD14F8011BBB6801485B686E
:102224009847F4E7549C000010B543681C680948BB
:1022340007F052FB48B9084908489923084A06F0B0
:102244005BFE9921064806F04EFE23685B685C60DD
:1022540010BD00BF549C000065AA0000C4A2000089
:1022640027AA0000014B036000207047989F0000DC
:1022740008B5044806F02AFEBDE80840024806F006
:1022840025BE00BF99AA0000CEAA0000014806F0AE
:102294006BB900BF989F000038B5044618B90F4BBE
:1022A4000F485B6898476168B1F5683F10D0B1F595
:1022B400680F0DD00B4DA9420AD011F46861206853
:1022C40007D00146084804F0CFF800232360656076
:1022D40038BD142207F0E1FBF9E700BFF00000204D
:1022E400FCAA00002C5F5CA9540D002008B560B363
:1022F4004368B3F5683F0ED0B3F5680F18D0144A9D
:10230400934220D000684FF0FF324FF0FF3304F0C7
:1023140051F958B115E001220368D3E8EF1F0029F1
:1023240003D1C3E8E02F0028F7D10AD1002008BD6B
:102334000368084A1B7803F5807352F82330002B96
:10234400F4D00548F3E70548F1E76FF4E040EEE721
:102354002C5F5CA900000350E98FFFFFEA8FFFFFA9
:1023640008B520B34368B3F5683F09D0B3F5680FE7
:1023740013D0114A93421DD0006804F0EBF914E025
:1023840000220368D3E8EF1F012903D1C3E8E02F3B
:102394000028F7D109D0094808BD00210368084A7C
:1023A4001B7803F5807342F823100020F4E76FF4E0
:1023B400E040F1E70348EFE72C5F5CA9E98FFFFFFA
:1023C40000000350EA8FFFFF10B5044618B91D4BF7
:1023D4001D485B6898476368B3F5683F2FD0B3F531
:1023E400680F2CD0194A934219D1236803BB4FF0CC
:1023F400FF324FF0FF332146154803F0A9FF08B917
:1024040023681BB90F4B13485B68984714220021BB
:10241400206807F042FB4FF46863636008E0B3F59B
:10242400683F0DD83A2B03D040F6BA629342DED10E
:10243400206807F0B2FA636843F03A03636010BDA2
:10244400054AF3E7F0000020FCAA00002C5F5CA919
:10245400540D002022AB00003A00003A08B50649AA
:1024640040231422054807F081FABDE808400449D6
:10247400044806F0EBB800BF54080020540D0020B7
:10248400A09F0000B49F00002DE9F04706460C46CB
:1024940000AF002936D0D1E90012E9468AB06D4672
:1024A400A3684FF0050AA8461F48C5E90723C5E9F4
:1024B400050148F810AF002342464FF421511B4850
:1024C400FFF772FBD4E90312CD466369AD461848A1
:1024D400C5E90723C5E90501C5F810A00023424654
:1024E4004FF421511148FFF75FFBCD46E369012109
:1024F400104A0E4806F016FFA36901210E4A0B4844
:1025040006F010FF012E07D1EFF305830B4A314685
:102514000648103B06F006FF2146304603F018FD3E
:10252400BD46BDE8F08700BF4FAB0000DC9E000055
:102534007EAB0000ADAB0000BCAB0000EAAB00001A
:1025440030BFFFF7FDBF00BF2DE9F04105460B4E3C
:10255400DFF82C80324606EB0807CC1B20460949DD
:1025640007F08EFAA01942460021083C07F095FABC
:102574002C6707F10800BDE8F08100BF00000000EF
:10258400040000000C9F0000074A936893F90E10A2
:10259400002907DB526993421FBF044A536843F082
:1025A40080535360704700BF680F002000ED00E0C7
:1025B40070B5344C06460D463348344906F059FF8D
:1025C400A36AD9064DD53048314906F052FF11208F
:1025D400A36A1A0704D52C482E4906F04AFF122094
:1025E400284CA36A9B0712D52B49274806F041FFC4
:1025F400636BA26A110609D50121284A224806F014
:1026040091FE1EB1A36A23F08003A36213201D4C24
:10261400A36ADA0704D51C48214906F02AFF1420CE
:10262400A36A9B0604D518481E4906F022FF15200C
:10263400144B9A6AD60602D49A6A940713D59B6AF5
:10264400D90610D5184940F26313184A184806F001
:1026540053FC184806F050FC40F26311134806F08E
:1026640042FC1020B4E7074B9A6A920642BF5A6AAA
:1026740022F400525A629A6A42F0FF029A620023DC
:102684002B7070BD00ED00E0DC9E0000FDAB00008F
:1026940013AC000046AC000059AC000071AC000063
:1026A40087AC0000A6AC000007AD0000D5AC00006C
:1026B400C4A2000051AD000010B5244C24492548A3
:1026C40006F0D7FEA36A99013ED52248224906F0B6
:1026D400D0FE1E20A36ADA0104D51E481F4906F065
:1026E400C8FE1F20194CA36ADB0204D519481C49F3
:1026F40006F0BFFE0220A36A1C0304D5154819493D
:1027040006F0B7FE2120114CA36A590304D51148E1
:10271400154906F0AEFE2220A36A9A0304D50D489B
:10272400124906F0A6FE2320084CA36ADB0304D555
:1027340008480F4906F09DFE2420A36A6FEA03436C
:102744006FEA1343A36210BD1D20C3E700ED00E050
:10275400B5AD0000DC9E0000CDAD0000E0AD000092
:10276400FAAD000024AE000042AE000067AE0000E7
:1027740081AE000070B5294C06460D46284829490B
:1027840006F077FEA36AD9043CD52548264906F00D
:1027940070FE1720A36A1A0504D52148234906F0C0
:1027A40068FE18201D4CA36A9B0512D51C482049BD
:1027B40006F05FFEA36BA26A100409D501211D4A2D
:1027C400174806F0AFFD1EB1A36A23F40043A362C9
:1027D4001920124CA36A590504D51148164906F06C
:1027E40048FE1A20A36ADA050ED50D48134906F0EF
:1027F40040FE1B20094A936A43F47F4393620023FB
:102804002B7070BD1620C5E7A36A9B04F2D504485B
:102814000B4906F02EFE1C20ECE700BF00ED00E0A3
:10282400DC9E0000ACAE0000C2AE000046AC00006E
:10283400D3AE0000ECAE000001AF00001CAF0000FE
:10284400A6AC0000F0B58BB0784B0446586800265F
:1028540000AFC0F3080386F31188BFF36F8F02F053
:102864007F45B5F17F4F07D102F00C05082D12D139
:102874006F49704806F0FDFD6F494FF48B636F4A52
:102884006F4806F039FB6F4806F036FB4FF48B6156
:102894006A4806F028FB15074CBF0C460126002C9D
:1028A400EAD00022FA71DA1E092A00F29D80DFE8DC
:1028B40002F0059396769B9B9B9B9B9962495D488E
:1028C40006F0D7FD0023594DFB71EB6A9A0705D535
:1028D4005E49584806F0CDFD002329E0EB6A002B41
:1028E40001DA5B49F5E7EB6A5B0068D55949514861
:1028F40006F0BFFD6B69A26943F480736B61BFF39B
:102904004F8FBFF36F8F6B6932F8022C23F48073FF
:102914006B61BFF34F8FBFF36F8F4DF602739A4213
:1029240027D1236801214C4A424806F0FBFC236866
:10293400FA79DAB907F1080504F1200C2A4620686F
:102944006168083403C264451546F7D17A6A002EDB
:1029540066D0C2F3080121B96FEA52226FEA42221B
:102964007A62184607F10801FFF78EFD2C37BD4641
:10297400F0BDAB6ADBB22BB10120F91DFFF718FEE5
:102984000346D5E7AB6A13F47F4F04D00120F91D49
:10299400FFF7F0FEF4E7AB6AB3F5803F02D3FFF72D
:1029A4008BFEEDE72D4940F22A33244A244806F0F1
:1029B400A3FA2B4806F0A0FA40F22A3168E7274927
:1029C40040F22E331D4A1E4806F096FA254806F0BA
:1029D40093FA40F22E315BE70020F91DCEE7002088
:1029E400F91DD5E7204974E7204A6D4610F4F87FB5
:1029F4008AB01F4918BF11466A46103BD3614FF491
:102A040000731C4813841C4BC2E9050142F8103FB3
:102A140000234FF411510748FFF7C6F8AD465BE7B2
:102A240022F4FF7222F001029AE700BF00ED00E0F9
:102A340062AF0000DC9E00008DAF0000D5AC00004A
:102A4400C4A20000A0AF0000DEAF0000F5AF00009C
:102A540016B0000024B0000043B00000D9A5000067
:102A64005FB0000083B00000B3B0000049AF0000C5
:102A740034AF0000D7B0000004000001064B5A69CF
:102A840042F010025A615A6942F480625A615A69EA
:102A940022F008025A61704700ED00E0EFF308806D
:102AA400EFF3098101B57246FFF7CCFE01BD00BF0B
:102AB400002080F31488BFF36F8F002080F30A880E
:102AC40080F30B8802F0F4F800200E490860BFF38D
:102AD4004F8F0D4880F3088800F02CF8202080F3F5
:102AE40011880A484FF40061401880F30988EFF315
:102AF40014800221084380F31488BFF36F8F00F021
:102B04001FF9000094ED00E0D01E00209011002079
:102B1400002318460649D1F89020C2F307229342B5
:102B240000DB7047C1F89830C1F8A0000133F6E724
:102B340000ED00E010B572B6002484F31388FFF7AB
:102B4400E7FF23464FF0FF300C4A03F12001013325
:102B5400102B42F82100F8D100234FF0FF30074A30
:102B640003F160010133102B42F82100F8D162B661
:102B7400BFF34F8FBFF36F8F10BD00BF00E100E0C4
:102B8400084B9B6883420BD1EFF3058343B1064B9B
:102B94005A6842F080525A605A6A22F400425A62D9
:102BA40004F088BF680F002000ED00E06FF00A0118
:102BB400084A93689967084958674B6843F08053FB
:102BC4004B60002383F31188BFF36F8F9368986F72
:102BD400704700BF680F002000ED00E0EFF31183A1
:102BE400202383F31288BFF36F8F4FF00061084AEC
:102BF40053699360074A5160196F074A11600021B5
:102C04005A6F596782F31188BFF36F8F704700BF03
:102C1400680F002000ED00E0740D00200E498A6862
:102C24004FF030001044EFF3098C80E8F01F744635
:102C34007046FFF7D3FFA64607498A6802F13000C1
:102C440090E8F01F8CF3098802F1000004B506F047
:102C540018FCBDE804407047680F00201EF0040F04
:102C64000CBFEFF30880EFF30980816911F8021CAF
:102C74000229FFD001B506F0F1FB01BD40B20028E6
:102C840007DB01234109034A00F01F00834042F897
:102C94002130704700E100E040B200280CDB012243
:102CA4000649430900F01F008240203341F82320E5
:102CB400BFF34F8FBFF36F8F704700BF00E100E099
:102CC400054B420953F82220012300F01F0003FAA8
:102CD40000F01040704700BF00E100E038B54B1C25
:102CE400072B04460D460FD95823104A10491148A2
:102CF40006F002F9294610480723224606F0FCF89C
:102D040058210A4806F0EFF840B20028ACBF00F1A1
:102D140060400A4A4FEA4313DBB2ABBF00F561409F
:102D240000F00F0080F80033135438BDEAB00000FF
:102D340021B10000C4A200003CB1000014ED00E089
:102D44000B4A08B50B4B22F07F029A60BFF34F8FFA
:102D5400BFF36F8FD3F8882022F47002C3F8882061
:102D640003F01EFA05F018F800F04CF803F058FAD6
:102D74000000000000ED00E042F8203C009B0B49FD
:102D840042F81C3C019B21F0010142F8183C029BD3
:102D940042F8081C42F8143C4FF0807342F8043C9B
:102DA4000023203A02654367704700BF810B00008F
:102DB40000B50D4B15469860026F0C4B0E461A6019
:102DC400036E83F30B882C4686F309884FF00000CA
:102DD400074B984720464FF000014FF000024FF098
:102DE4000003044C204700BF680F0020740D00202E
:102DF4008F940000810B00001022014B1A61704770
:102E040000ED00E0002320210348C2180133452BC4
:102E140082F80013F9D1704700E100E008B5EFF340
:102E24000583064A103B02EBC30152F8330049689C
:102E34008847BDE80840FFF7A7BB00BF7C9C0000A3
:102E44001FB5094C094A23460121094800F012F92B
:102E540000230393074B0121E41A01A80193029470
:102E640000F02CF904B010BD000007200000002081
:102E7400C49F00000002002010B50C7A0B6804F017
:102E84001F0223F01F031A43CB68640923F01F03B6
:102E9400054943EA440343F00103C1F89800C1F82B
:102EA4009C20C1F8A03010BD00ED00E010B50A4B25
:102EB400D3F89030C3F30723013B984208D901218A
:102EC4000346064A064806F02DFA6FF0150010BDB9
:102ED400FFF7D2FFFBE700BF00ED00E080B1000088
:102EE400D49E00002DE9F04F8946144606464FF063
:102EF4000008514D85B0C84527DAD6F804A0BAF1C8
:102F0400000F44D0BAF11F0F17D91AF01F0F14D1B4
:102F1400D6F800B01BF01F0F0FD1584606F0F1FA97
:102F240007460AEB0B00013806F0EBFA874210D093
:102F34006FF01507414A3B4601E04346404A0121F0
:102F4400404806F0EFF96FF01504204605B0BDE8DF
:102F5400F08F17F1160FEDD0BC42EBDDC5F8987079
:102F6400D5F89C10C5F89870D5F8A03021F01F0151
:102F740043F01F0BD6E900321A44994202F1FF3A9A
:102F84001DD1D34507D13146F8B206F0C3FA08F192
:102F940001080C36AFE73146C5F89870D5F89C3077
:102FA40022F01F0203F01F031343C5F89C30E0B264
:102FB40006F0B0FA10F1160FC5D0441CE7E7C5F8C7
:102FC4009870D5F8A020013B23F01F0302F01F02E4
:102FD4001343D3453146E0B2C5F8A030E8D006F03B
:102FE40099FA10F1160FAED0C5F89870D5F89C2058
:102FF4009DF808300BF1FF3B62F304038DF80830B1
:10300400D5F8A0309DF808205B0863F347128DF8CB
:103014000820D6E900321344009323F01F035B44D5
:10302400A3EB0A03013023F01F036946C0B20393E4
:10303400FFF73CFFBEE700BF00ED00E0C9B10000B0
:10304400A6B10000D49E00000522044BC3F89420CE
:10305400BFF34F8FBFF36F8F704700BF00ED00E0E9
:10306400BFF35F8F0022024BC3F89420704700BF68
:1030740000ED00E038B50C4D0C462A78FFF732FF1E
:10308400287016300FD14FF4B473084A0849094820
:1030940005F032FF2146084805F02EFF4FF4B471C5
:1030A400024805F020FF38BD87110020ECB1000074
:1030B400D9A50000C4A200001BB200002DE9F74FFF
:1030C400314E894605464FF00008B3462F4FC84598
:1030D40002DB03B0BDE8F08FD5F804A0BAF1000F0D
:1030E4004CD029680846019106F00BFA0199044670
:1030F4000AEB0100013806F004FA84424FF014028E
:10310400234B15D002FB08F36FF015024BF8032094
:103114004FF4BC731F4A2049204805F0EDFE494690
:103124001F4805F0E9FE4FF4BC711A4805F0DBFEB8
:1031340014F1160F3460EBD01978A142E8DD02FBDC
:1031440008B0C7F89840C7F89840D7F89C4000F1F9
:103154000801007B64F304000871D7F8A0000C791F
:10316400400860F347140C71D7F89C1021F01F013C
:103174007160D7F8A01021F01F01316108F1010836
:1031840014360C35A3E700BF780D002000ED00E0F5
:1031940087110020ECB10000D9A50000C4A20000F2
:1031A40047B200002DE9F041574C584ED4F8903006
:1031B4003568C3F307239D4286B013D940F29F13A9
:1031C400534A5449544805F097FED4F890202946B0
:1031D4005248C2F3072205F08FFE40F29F114C487B
:1031E40005F081FE0020FFF73BFF4D4BC4F8C030D3
:1031F40085421AD14B4C01A82570FFF733F80025FE
:1032040006464FF04108484FAE4215D100202378BE
:103214003D49D1F89020C2F3072293426DDB002090
:10322400FFF712FF06B0BDE8F081716801EB0011F1
:10323400FFF722FE0130DBE7019A290102EB0513B7
:10324400D3F80CC00CEA0700B0F5001F27D0B0F586
:10325400800F40D0B0F5801F4DD1586852589B68FC
:10326400CDE902022122013B20F01F010B4423F08F
:103274001F038DF810200593207802A9FFF716FE8E
:10328400002835DA234940F2C913214A224805F0BF
:1032940033FE264805F030FE40F2C9119FE7586816
:1032A4009B685258013B20F01F010B4423F01F037D
:1032B4001CF0010FCDE902028DF810800593DBD0DC
:1032C4001B496D23124A144805F016FE194805F0EF
:1032D40013FE6D2183E758689B685258013B20F028
:1032E4001F010B44CDE9020223F01F030622C0E7AD
:1032F400237801332370013586E7C1F89830C1F88B
:10330400A000013385E700BF00ED00E0D09F00007E
:10331400ECB10000D9A50000C4A2000076B2000000
:10332400AAFF4400871100200000F0FFFFB2000054
:10333400AAB20000D0B2000008B5024B1B6898473F
:10334400002008BD8C0D0020034B044A18609378BC
:1033540043F00203937070478C0D0020300000206E
:10336400F0B587B007460E46144600211022684681
:103374001D4606F092FB02238DF80230054B2A46C7
:1033840021466846CDE90476019305F05BFA07B05F
:10339400F0BD00BF4B95000008B50649064821F072
:1033A4000701C1F1005202F5E022FCF7FBFE002008
:1033B40008BD00BFD71E0020900D002008B54309AA
:1033C4000DD0012B1CD0134913484FF46C73134ACE
:1033D40005F092FD4FF46C71104805F084FD4FF038
:1033E400FF33C340DA07EED50D4B03EB8003D3F86C
:1033F400002222F0E04242EA0171C3F8001208BD43
:103404004FF6FF7300F01F00C340DB07DBD5054B0D
:10341400EBE700BF6BB30000C4A2000038B30000A8
:10342400002584500028845038B50124134B144DD2
:10343400C3F8004502230321C5F8D0360020FFF766
:10344400BDFF20460321FFF7B9FFC5F80447214615
:10345400C5F804492120C5F8004BFFF7AFFF21460A
:103464002020FFF7ABFF21460B20FFF7A7FF2146E3
:103474000A20FFF7A3FF002038BD00BF0010005052
:103484000040005007B50DF1070001F097FD114B06
:1034940098421CD14FF480620F4B1049C3F8B825F1
:1034A4004FF40062C3F83C259DF8070001F042FD8B
:1034B4000B499DF8070001F025FD01209DF8073018
:1034C400984001F013FD002003B05DF804FB6FF099
:1034D4000B00F9E70000AD0B00A002502CA0025035
:1034E40028A10250052370B5144D154E2C780134D3
:1034F400B4FBF3F303EB8303E41A06F02BF9114A4C
:10350400137823B156F82430C01A072814D94FF081
:103514005023D3F8141141B10021C3F81411D3F886
:1035240014312C700CB9012313702C7806F012F9A5
:1035340046F82400012070BD0020FCE7891100201A
:103544009C0D00208811002048B1054B054A1B68DA
:10355400B3FBF2F35843044B43F00103184770479D
:103564004800002040420F00109F0000014902481B
:1035740005F00DBEF89F0000B00D00204FF47F034E
:103584002DE9F041D3F830210646072A0D46D3F839
:10359400343120D1023B032B02D8124AD35CD3B17D
:1035A4004FF050244FF0010800270520C4F8188676
:1035B400C4F8147606F0DEF84046C4F8148606F023
:1035C400D9F8C4F81476C4F8187630462B46BDE80A
:1035D400F041002118474FF050230022C3F814266D
:1035E400F3E700BF92B300000F2AF8B5044615466E
:1035F40008461F460BD90F490F4840F2F3130F4AF0
:1036040005F07AFC40F2F3110C4805F06CFC01F073
:10361400E9F80B4EAD0001462E4420462FB144F08C
:10362400004401F087FC3460F8BD01F0B1FC376060
:10363400FAE700BFC8B30000C4A2000096B30000BC
:1036440080A102507FB5284B01A90293002302A850
:103654008DF80C3001F0B8FE244B984241D101F0B2
:103664009DFA041E0BDA9DF8041002A801F0B4FEC2
:10367400012123461E4A1F4805F054FE2EE040F661
:1036840007031D4D8DF80540AE68ADF8063074682B
:10369400019B14B96FF05704EAE708212846174A3A
:1036A400A047041EE4DB3369002BF3D00122082178
:1036B40028469847041EDBDB01259DF8040005FA23
:1036C40000F001F013FC2B469DF807209DF805102F
:1036D4009DF80400FFF788FF002CC9D1204604B0F0
:1036E40070BD6FF01204C3E7007001500000AD0B11
:1036F400D3B30000EC9E0000689C0000A1370000DA
:1037040073B5069EC6F30744F5B2C6F307263046E2
:1037140001F04EF80F2C01460BD91849184840F215
:10372400ED13184A05F0E8FB40F2ED11154805F0D9
:10373400DAFB284601F016FC00220120124BA400FB
:10374400E4B21A51114BA84000938DF8042001F003
:10375400D3FB304601F040FA2946684601F03CFEAE
:103764000B4B984208D00B49054876230A4A05F0CA
:10377400C3FB76210848DAE702B070BDC8B3000085
:10378400C4A2000096B3000080A002500070015053
:103794000000AD0B2AB40000FBB300002DE9F74391
:1037A400144683681B694BB922492348CA23234A18
:1037B40005F0A2FBCA21214805F095FB0022984799
:1037C40006460028F0D1C4F30728404601F024F847
:1037D4005FFA84F941463346220E07464846FFF70E
:1037E40003FF404600F0E4FFC4F307450F2D0146F4
:1037F4000AD91349104840F2ED13124A05F07CFB34
:1038040040F2ED110F48D7E70F4BAD0049F00042ED
:10381400EDB25A51484601F075FB0C4B07F13202E8
:103824000093404633460194520001F0C5F803B0BA
:10383400BDE8F083D2A50000C4A20000FBB30000E1
:10384400C8B3000096B3000080A002500537000002
:1038540037B540230C460A490093411A49110546DD
:103864002346084A084805F081FE011E05DA284669
:10387400234603B0BDE83040184703B030BD00BF55
:10388400E40D0020DD950000189C0000C9B2032956
:1038940008B509D909490A4882230A4A05F02CFBCC
:1038A4008221084805F01FFB0C22036901FB023347
:1038B400D3F8880000F0070008BD00BF84B40000FE
:1038C400C4A2000047B4000070B5C9B2032903695B
:1038D4000BD91949194840F26B13194A05F00CFB2E
:1038E40040F26B11164805F0FEFAEFF3118520241F
:1038F40084F31288BFF36F8F0C2606FB0134D4F8CF
:10390400884014F0C00408D0A24206D085F3118880
:10391400BFF36F8F4FF0FF3070BD012271430B4432
:10392400C3F8882085F31188BFF36F8F43680B4475
:103934005B6898470020EFE784B40000C4A200004D
:1039440047B4000070B50D4606490446411A4911B2
:1039540040220548FFF7B8FF2B4601462046BDE844
:1039640070401847E40D0020189C00002DE9F8432E
:103974000022012106460520FFF7B0F9114801F0A5
:10398400EBFB114B984219D101F0F6FB00244FF0E8
:103994000C080127DFF834903569494605EB4410DB
:1039A40005F0F5FB002807DB08FB04550134042C63
:1039B400C5F88870F0D10020BDE8F8836FF00400EA
:1039C400FAE700BF913A00000000AD0B04A000002C
:1039D4001FB500220123CDE902236B46084ACDF826
:1039E40000D0CDF804D005F0F0FD002805DB4FF43D
:1039F40080420023684602F093FF05B05DF804FBA3
:103A04000D96000010B5EFF31184202383F3128880
:103A1400BFF36F8F074A136823F00201DB071160BD
:103A240002D4012001F05CFC84F31188BFF36F8F92
:103A340010BD00BF940E00200C22124B014602FB65
:103A44000033002030B4D3E92052C3F88000EFF3F0
:103A54001180202484F31288BFF36F8FD3F8884039
:103A640004F0C00444F00204C3F8884080F31188D1
:103A7400BFF36F8F1DB12B4630BC0348184730BCD1
:103A8400704700BFE40D0020189C000008B506280C
:103A940021D8DFE800F004122A2014100E00134B82
:103AA400D3F8880010F007001FD1BDE80840FFF7E5
:103AB400C3BF0220F9E70320F7E70120F5E70C492B
:103AC4004FF41F730B4A0C4805F016FA4FF41F719C
:103AD400084805F008FA064940F28523054A0648D5
:103AE40005F00AFA40F28521F2E708BDE40D002052
:103AF400D9A5000047B40000C4A2000010B4EFF33D
:103B04001182202383F31288BFF36F8F1848016852
:103B140041F002040460C80707D482F31188BFF39C
:103B24006F8F012010BC01F053BB4FF05021D1F82E
:103B34000C04D1F80C14C907EFD5EFF3118083F30B
:103B44001288BFF36F8F0B49D1F8883003F0C0039C
:103B540043F00203C1F8883080F31188BFF36F8FFC
:103B640082F31188BFF36F8F002010BCFFF764BF8E
:103B7400940E0020E40D00202DE9F04101220646B8
:103B84004349D1E8EF3FC1E8E02F0028F9D1A3B9B8
:103B9400404941484B60CB608A60FDF7A9FC00288E
:103BA4000BDA3E4940F23E233D4A3E4805F0A4F973
:103BB40040F23E213A4805F096F976B3731E012B84
:103BC4005BD8012E07D14FF05023D3F81C3403F0F7
:103BD4000303022B21D005F0F3FE0546F8B9324B5E
:103BE4001B78E3B14FF0502302220746C3F80823A1
:103BF4004FF05024DFF8B480D4F81824D4F81834E3
:103C0400D20315D503F00303022B01D0012E0FD1EB
:103C14006DB387F31188BFF36F8FBDE8F081EFF3C5
:103C24001187202383F31288BFF36F8F0125DFE709
:103C3400C5B1384605F049FCD4F81835DBB2012B80
:103C4400DAD1D4F80421002AD6D00022C4F8042101
:103C5400D4F804210222C4F818252022C8F88021AF
:103C6400A360C9E70021212003F0E8FEE4E74FF058
:103C740050230222C3F80423CFE70D494FF41473F1
:103C8400074A084805F038F94FF4147192E700BF69
:103C9400E00D0020D00D0020040E0020C7A9000074
:103CA40047B40000C4A200008C11002000E100E031
:103CB400D9A5000008B5074805F00EFE38B106483E
:103CC400FFF742FB0448FCF753FF002008BD6FF0E8
:103CD4001200FBE7549C0000E13C00000A2838B5C0
:103CE4000446074D04D1AB680D2128465B6898470C
:103CF400AB6803485B68E1B29847204638BD00BF13
:103D0400549C000010B5036961B920493E23204A40
:103D1400204805F0F1F8204805F0EEF83E211C4853
:103D240005F0E1F8486850B91C493F23184A19487E
:103D340005F0E2F81A4805F0DFF83F21EFE758688C
:103D4400F8B1884219D19C680868A142586000D132
:103D54009860002008602AB15A680A609A6859601D
:103D640002B99960002010E0814206D10868206001
:103D740098688142EDD19C60EBE704460068002816
:103D8400F2D1002AE8D16FF0150010BD1EB5000075
:103D9400E2B40000C4A2000027B5000036B500005C
:103DA40048B5000038B545682B69B3B110352846CD
:103DB40001F054FE044680B90146284601F0FEFD98
:103DC400084B98420BD122462846074901F0C4FD0E
:103DD400224605210D20FEF781FF002038BD6FF03B
:103DE4000400FBE70000AD0BC940000008B5036800
:103DF4000246590914D0012906D14FF6FF7103F088
:103E04001F03D940C80712D40A490B484FF46C73F6
:103E14000A4A05F071F84FF46C71084805F063F82C
:103E24004FF0FF31D940C907EED5054800E00548F9
:103E3400136008BD6BB30000C4A2000038B30000D7
:103E44000025845000288450F0B5406801F01F0418
:103E5400057B87B044EA45140569002D5BD0B2F5B3
:103E6400001F00F1100506D12146284605F02EFD5D
:103E7400002007B0F0BD0027B2F5800F01AE019716
:103E8400776033D1B3F1007F14BF052304238DF889
:103E940004300023CDE9046303938368CB40D9073E
:103EA40016D4B2F1A07F13D168460094FFF79EFFA9
:103EB400009B803350F82330DB0709D46A4621463F
:103EC400284601F04FFD174B98421AD0CDF808D080
:103ED4002146284603AA01F009FC134B98421DD140
:103EE40001222146284601F0CFFDC1E7B3F1C06F9E
:103EF40005D0B3F1007F14BF01230223C7E70323D6
:103F0400C5E76946284601F0B9FD074B9842DDD064
:103F14006FF00B00ADE76FF08500AAE76FF01500B6
:103F2400A7E700BF0400AD0B0000AD0B2DE9F04383
:103F3400466840F20635337BD00601F01F0747EA96
:103F4400431748BF032302EA050558BFC2F34013D1
:103F540087B0B5F5837F14468DF8033044D00FD86D
:103F6400062D18D007D8B5B1022D3FD06FF015003B
:103F740007B0BDE8F083B5F5807FF7D101250AE0ED
:103F840040F20222954233D0B5F5407F32D0B5F5E8
:103F9400007FEBD102250123220303FA01F12BD583
:103FA40073689960336963BB03A80397FFF71EFF27
:103FB400039B00EB830084F48033C3F30043C4F316
:103FC4004044D0F8002244EA43049DF8033022F42C
:103FD400706244EA830422F00F0244EA0523134387
:103FE400C0F800320020C3E70725D4E70425D2E750
:103FF4000525D0E70325CEE7630344BF7368D96082
:10400400D0E71036394630460DF1020201F0AAFC21
:1040140014F4403F804617D13946304605F054FC2D
:10402400244B9845DED130469DF8021001F020FD66
:104034004045D7D020492148EC23214A04F05CFFB5
:10404400EC211F4804F04FFF4FF0000901AB394643
:10405400304603AACDE90439CDE90199CDF80C9095
:1040640001F044FB134B984280D114F4003315D073
:104074009DF8033084F48034C4F300448DF80E308A
:1040840039464B46304603AA8DF80C508DF80D4046
:1040940001F0E2FB074B9842C2D067E7CDE9043355
:1040A40039460DF10303304603AA039301F01EFBC6
:1040B400F0E700BF0000AD0B2AB40000C4A200006A
:1040C4005FB500004209034670B502D0012A1ED034
:1040D40070BD144E326951680029F9D0012503F0EE
:1040E4001F030C689D400029F2D08A682A4012D030
:1040F4004B6873B90C4961230C4A0D4804F0FCFE6B
:104104000C4804F0F9FE6121084804F0ECFE0A4E64
:10411400E0E7304698471CB1236821461C46E2E795
:104124002346FAE7409C00008BB50000E2B400008F
:10413400C4A2000048B500002C9C000010B5044641
:104144000269A2B0C2F880001F49002001F0F4FD0A
:10415400002201212A20FEF7C1FD64688422002187
:1041640001A805F09AFC6368B3F5803F04D30221EB
:10417400164A174805F0CDF82368B3F5803F04D3F9
:104184000221144A124805F0C4F8002301202193A7
:1041940001AA61680432D940C90744BF00FA03F197
:1041A40042F8041C2168D940C90748BF00FA03F14A
:1041B40003F1010348BFD163102BEAD101A801F038
:1041C400E3FD002022B010BDB5420000AFB50000F1
:1041D400CC9E0000DBB5000038B50F290C460569FC
:1041E4003CD843681B68CB40DB0737D5D5F884300F
:1041F400CB4003F001031AB9EBB96FF077002CE060
:10420400002BFAD155F8213023B90221154A16485A
:1042140005F07FF8D5F8843013B92A20FEF72EFD77
:104224000122D5F88430A2401343C5F88430E0B2AB
:1042340001F0ECFD0AE0C8B201F006FE0122D5F857
:104244008430A24023EA0203C5F88430D5F88430D0
:1042540013B92A20FEF720FD002038BD6FF01500A9
:10426400FBE700BF07B60000CC9E000038B505464A
:104274000C4622B102210C4A0C4805F04AF80F2CD6
:104284000ED86B685B68E340DB0709D50123002087
:10429400A400E4B204F1A04404F52834236038BD3A
:1042A4006FF01500FBE700BF37B60000CC9E00009E
:1042B40070B5D1F880600F2804460D46736803D8A2
:1042C4001B68C340DA0704D402210E4A0E4805F0E5
:1042D40020F8D5F88430E340DB0704D402210B4AEC
:1042E400094805F016F805EB840255F824503DB151
:1042F40021463046AC46BDE870400023126C60474E
:1043040070BD00BF52B60000CC9E00006EB6000027
:1043140008B503680246590914D0012906D14FF69D
:10432400FF7103F01F03D940C80712D40A490B4890
:104334004FF46C730A4A04F0DFFD4FF46C710848C3
:1043440004F0D1FD4FF0FF31D940C907EED505483F
:1043540000E00548136008BD6BB30000C4A2000070
:1043640038B3000000258450002884502DE9F04F14
:104374001546824640F2FF19DFF884B185B000EBA0
:104384008108D04503D1002005B0BDE8F08FDAF8EC
:104394000030C3F3C3210829C3F3080400F2AA8040
:1043A400584A1B0E4C4508BF4FF0FF34575C222B74
:1043B40000F2A380DFE803F012191F22252B22A1AB
:1043C400A1A1A13A67A1A1A1A1A1A1A1A1A16A7FD3
:1043D4008285A1A1A1888F9295989B00C5F80C4570
:1043E400621C5DD10AF1040ACBE7C5F81445631CCD
:1043F400F8D000265DE0C5F80845F1E7C5F810459A
:10440400F5E7661CC5F80845ECD0002604E0601CFE
:10441400C5F80C45E6D0012603A80394FFF778FFFE
:104424000121039B01FA03F3C36008E0C5F80845C2
:10443400002FDCD1631CD5D0002606273146DAF8DC
:104444000030039403F40040002818BF002103A89F
:1044540018BF012601930091FFF75AFF039C019BAB
:1044640000EB8400D0F80042C3F3412C00993B02D6
:1044740043EA8C030B4304EA0B04234343EA460355
:10448400C0F80032AEE7C5F80C45D1E7C5F8604581
:10449400611CDAF80030A5D0C3F30043002BBAD076
:1044A400012603A80394FFF733FF039B06FA03F3E3
:1044B40083603146C3E7C5F86445E9E7C5F8684554
:1044C400E6E7C5F86C45E3E7C5F82445621C89D0E6
:1044D40001260021B3E7C5F8284581E7C5F8304532
:1044E400F4E7C5F83445F1E7C5F83845EEE7C5F813
:1044F4003C4575E76FF0150046E76FF0850043E72C
:10450400F0F0FCFFA4B600002DE9F04104460D468E
:10451400476805F055FA4FF0200888B9264B1B78F8
:1045240073B16426606805F0D8F8F0B9012005F08D
:1045340021F9013EF6D10021212003F07FFAF0E7B2
:10454400EFF31186314688F31288BFF36F8F6068EA
:1045540005F0C3F8A8B986F31188BFF36F8FEFE7AE
:1045640086F31188BFF36F8FE5E7EFF311863146C9
:1045740088F31288BFF36F8F606805F0AEF80028E7
:10458400EED0FB6900201D706368FA691B68C3F8EC
:1045940044250122C3F84825C3F82001D3F820415B
:1045A400C3F85801D3F858019A6081F31188BFF316
:1045B4006F8FBDE8F08100BF8C110020F7B5054670
:1045C400002201210820FEF789FB0820FEF756FB94
:1045D4006B681A691868C0F82425997D5A7D0A43C6
:1045E400198B1B7D0B431343C0F86C356E68D6E9F9
:1045F400004313F0010350D02F6907F1080000F0C5
:10460400DDFC334B984208D032480121324A04F091
:1046140080FE6FF0040003B0F0BD387A04F10C02A0
:1046240004F5907105F0A8F8387A012707FA00F02C
:1046340000F05CFC0823C4F80035F369C4F8443581
:104644000023C4F84835A760D4F85831002BFBD0B8
:104654000021C4F800156B6801AADC68204605F047
:104664000FF8002805DB019B226819791868FFF709
:104674007DFE08216A681368C3F80015117A51B9E0
:10468400126AC3F834250122C3F83825C3F810117F
:10469400D3F810111A600020BDE70822C4F80025E1
:1046A400F269C4F84425C4F848350123A360D4F85A
:1046B4002031002BFBD00023C4F82031D4F8203162
:1046C4000123E3604FF48073C4F80433BCE700BFF4
:1046D4000000AD0BF49E0000ADB600000123834042
:1046E40070B5DC430B4AD2E8EF1F01EA0405C2E8C7
:1046F400E65F002EF7D14FF4803282400648C0F8BE
:104704000823BFF35F8FBFF36F8F0B4214BF0120E9
:10471400002070BD4C0F00200050015070B40E49B1
:1047240022F07F46D1E90034D01AC31844F10004C2
:10473400C1E90034A6F50013B3F5400F09D2074BC5
:104744001B681A0A1B069C19054B42F10005C3E9B4
:10475400004570BC03F094BC60060020500F00209C
:1047640068060020D9B101230D4A8340D2E8EFCF77
:104774004CEA030CC2E8E1CF0029F7D14FF48033AF
:10478400084A8340C2F80433074BD3E8AF3FC34021
:10479400DB0742BF4FF40012044BC3F800217047FB
:1047A4004C0F002000500150440F002000E100E0B5
:1047B400012808B509D9074907488623074A04F0A0
:1047C4009BFB8621054804F08EFB830004481844B3
:1047D40008BD00BF17B70000C4A20000E6B6000081
:1047E40040510150012808B509D9074907488D23CC
:1047F400074A04F081FB8D21054804F074FB00286E
:10480400044808BF002008BD17B70000C4A2000078
:10481400E6B6000044500150012808B509D90849FA
:104824000848C123084A04F067FBC121064804F084
:104834005AFB064B00F5A87053F8200008BD00BFD2
:1048440017B70000C4A20000E6B6000000500150F3
:104854000D4B1868010A0006BFF35F8F0B4BD3F8AA
:104864000435181841F10001B3F5801F0AD2084B32
:10487400D3E90023904271EB030303D210F180705B
:1048840041F10001704700BF500F0020005001505B
:10489400680600202DE9F04F85B016461F460446F1
:1048A4009DF840A0FFF71AFF0190FFF7D1FFB04237
:1048B40071EB070352D23B4B301A67EB010198426C
:1048C40071F100014DD2384B03EB0413D3E90223F9
:1048D4009F4208BF964258D04FF48038334908FAB3
:1048E40004F8204626F07F4BC1F8488304F026FFE5
:1048F4004FF00309584604F15005AD00ADB205F17F
:10490400502504F5A87305F580350293029A20F02A
:104914007F4341F82230C1F84483D1F80435244A56
:10492400C01A033820F07F4090422ED9286868B11D
:10493400D1F80435A3EB0B0020F07F40B0F5000F55
:10494400039322D9204604F0F9FE039BBAF1000F29
:1049540007D109EB030009F10109D7E7BAF1000F08
:1049640009D06FF0150520460199FFF7FBFE284694
:1049740005B0BDE8F08F01230E4AA340D2E8EF0F43
:104984001843C2E8E10F0029F8D107490E98230122
:10499400C8500F9B01EB04120025C2E90267536063
:1049A400E1E700BF010080004006002000500150F4
:1049B400FDFF7F00440F002001281FB50BD00B49D9
:1049C4000B4840F28B130B4A04F096FA40F28B1119
:1049D400084804F088FA0021029107990191069988
:1049E4000091FFF757FF05B05DF804FB33B70000F3
:1049F400C4A20000E6B600007FB500254FF0FF30EA
:104A04004FF0FF314FF480321C4C1D4B0226C4F88A
:104A14000833C4F848331B4BC4F80855C3E90201F2
:104A2400C4F80423C3E906014FF400334FF4001221
:104A3400C4F80433144B0121C4F804631520C3F8EB
:104A440080212A46FEF74AF91520FEF717F90123BB
:104A54000322A36023600D4B28461A600C4B0D4AB9
:104A64001E600D4BCDE9015500930023FFF712FFA3
:104A74003046FFF781F8284604B070BD005001505D
:104A840003000F004006002000E100E04C0F00206E
:104A9400480F0020FFFF7F00214700002DE9F04F61
:104AA400394B85B0D3F8042392070BD5D3F80421EE
:104AB40042B10022C3F80421344AD3F80431136804
:104AC40001331360324D0024A8464FF480362E4F34
:104AD400D7F8043306FA04F919EA030F2ED0012398
:104AE400A340DB432B49D1E8EF2F02EA0300C1E8DE
:104AF400EC0FBCF1000FF6D122FA04F3DB0703D468
:104B0400254B53F82430CBB1204604F017FEFFF7B1
:104B14009FFEEFF311832022029382F31288BFF3E6
:104B24006F8F08EB041CDCE902AB504571EB0B0101
:104B34000BD2029B83F31188BFF36F8F103514B12E
:104B440005B0BDE8F08F0124C2E70020D5E90013C9
:104B54004FF0FF3203934FF0FF3328600A48CCE94B
:104B64000223C0F84893204604F0E8FD029B83F337
:104B74001188BFF36F8F0029E0D0039B5246009346
:104B84005B468847DAE700BF00500150500F002011
:104B940040060020440F00204051015070B501240C
:104BA4000C4B186890B1B0FA80F0C0F11F0004FA01
:104BB40000F1C943D3E8EF2F02EA0105C3E8E65F39
:104BC400002EF7D1C240D207EBD570BD6FF00B00B9
:104BD400FBE700BF480F0020012808B50BD00B49A4
:104BE4000B484FF415730B4A04F086F94FF4157112
:104BF400084804F078F9084BD3E8EF1F41F00201AC
:104C0400C3E8E21F002AF7D108BD00BF33B7000094
:104C1400C4A20000E6B60000480F002030B5431CD3
:104C2400124C85B005D08442A8BF0446012CB8BFFD
:104C34000124FFF70DFE0E4B0C4DD3E90013401A6F
:104C4400B0F5000F0FD22218AA4228BF2A4600202E
:104C540052180849CDE90100009143F10003FFF720
:104C640019FE05B030BD2A46F1E700BFFFFF7F0003
:104C7400600600202147000008B5FFF7E9FD024B5C
:104C84001B68C01A08BD00BF600600204FF47F03F4
:104C9400D3F83021D3F83431072A05D1023B032B52
:104CA40002D8024AD05C70470020704756B7000013
:104CB40008B5FFF7EBFF58B1644BD3F8202A3AB993
:104CC4000D21C3F8201A0121C3F81C19C3F81C29AB
:104CD4000022D30003F57F03D3F80013013107D07A
:104CE400D3F800130132D3F80433202A0B60F0D137
:104CF400FFF7CCFF002840F0A080FFF7C7FF40B1CA
:104D0400534B544AC3F830254FF050230122C3F8C3
:104D140058254FF47F03D3F83021D3F83431072AD0
:104D240009D1023B032B06D84B4AD35C1BB10022AA
:104D34004A4BC3F84C25FFF7A9FF50B14FF050235D
:104D4400D3F80024D10742BF0022C3F81421C3F8CA
:104D540018214FF47F03D3F83021D3F83431072AD4
:104D640009D14FF05023D3F80024D20744BF6FF089
:104D74000102C3F80024FFF789FF18B16522334B01
:104D8400C3F80C274FF47F03D3F83021D3F8343120
:104D9400072A16D1314BD3F82034002B11DA4FF007
:104DA40050230322C3F8182501229A60D3F8042162
:104DB400002AFBD00022C3F804210122DA60C3F8E0
:104DC40018254FF47F03D3F83021D3F83431072A60
:104DD40023D1023B032B02D8214AD35CEBB17E22C0
:104DE4001A4B1B49C3F80C27C3F83C297F231D4ADF
:104DF400C2F818310023C1F8043EC1F8083E01F599
:104E04004821C1F81031C2F82431C2F82C3102F51E
:104E1400FF1202F58052C2F8A032134AD2F88C3045
:104E240043F44063C2F88C30104A114B1168C3F844
:104E34004415D269C3F84C2508BD2922034BC3F895
:104E44000C270322C3F83C2757E700BF004000505B
:104E5400009003504400EFBE52B7000000200350FE
:104E64004EB700000020005000ED00E00080FF007D
:104E74000060005030B50468ACB1B4FA84F3012288
:104E8400C3F11F03DBB29A4024EA0202D0E8EF5FC9
:104E9400A54204D1C0E8EC2FBCF1000FF6D1EAD151
:104EA40002480B7030BD0248FCE700BF0000AD0BA8
:104EB4000200AD0B10B50368CB40DB0710D401230F
:104EC4008B40026843EA0201D0E8EF4F944204D1D8
:104ED400C0E8EC1FBCF1000FF6D1F2D1014810BDBF
:104EE4000148FCE70000AD0B0400AD0B014BC3F817
:104EF4000405704700700150014BC3F80805704762
:104F04000070015008B549B9074908484823084AC0
:104F140003F0F2FF4821064803F0E5FF40F00040AB
:104F2400C1F8800008BD00BFF7B70000C4A20000AC
:104F3400BAB7000008B549B9074908484E23084ADA
:104F440003F0DAFF4E21064803F0CDFF40F00040A5
:104F5400C1F8800008BD00BFFBB70000C4A2000078
:104F6400BAB7000008B549B9064907486023074A9B
:104F740003F0C2FF6021054803F0B5FF0023C1F828
:104F8400803008BDF7B70000C4A20000BAB7000023
:104F940008B549B9064907486723074A03F0ACFF37
:104FA4006721054803F09FFF0023C1F8803008BD46
:104FB400FBB70000C4A20000BAB7000001460148D4
:104FC40000F002BA4C0000204FF05023012273B5C8
:104FD400032837D8DFE800F0020D202B0221C3F8A4
:104FE4000813DA600022C3F80421D3F80431002442
:104FF40009E0C3F808235A600022C3F80021D3F85B
:1050040000310DF1070401238DF80730032878D807
:10501400DFE800F0223C556D4FF40071C3F808132B
:105024005A620022C3F82421D3F82431DFE74FF475
:105034008071C3F80813DA610022C3F82021D3F881
:105044002031D4E740494148DC23414A03F054FF6E
:10505400DC213F4803F047FF42F210754FF0502621
:10506400D6F8183403F48033002C5DD0D6F8182415
:1050740002F003022270002B41D09DF807000128A2
:105084003DD104F077FB013DEAD138E042F21075DE
:105094004FF05026D6F80C3403F48033002C3BD068
:1050A400D6F80C2402F00102227043B39DF80700E5
:1050B400012824D104F05EFB013DEBD11FE042F254
:1050C40010754FF05026D6F85C3403F480333CB3AB
:1050D400D6F85C2402F00102227083B19DF8070027
:1050E40001280CD104F046FB013DECD107E042F26B
:1050F40010754FF05026D6F85434DB0318D402B0A0
:1051040070BD114911484FF47473124A03F0F4FE50
:105114004FF474710F489DE7002BF0D00120C9E7CC
:10512400002BECD00120DDE7002BE8D00120A8E71C
:105134002CB9012004F01EFB013DDCD1DFE79DF812
:1051440007000128F6D0DAE7D9A50000C4A20000C0
:10515400FFB700003CB80000044B1A7922B90122C1
:1051640018601A710248704702487047540F0020B3
:105174000000AD0B0C00AD0B08B5114B1A795AB9F0
:10518400104911484FF49873104A03F0B5FE4FF4D8
:1051940098710E4803F0A7FE1B6833B10520FDF794
:1051A4008FFD10B90520FDF769FD4FF05023012252
:1051B400C3F81825C3F81425C3F8802508BD00BF1B
:1051C400540F002070B80000C4A20000FFB7000014
:1051D40038B53E4C23795BB93D4940F27F133D4AD3
:1051E4003D4803F089FE40F27F113A4803F07BFE0C
:1051F40003284FD8DFE800F018585D0218224FF456
:1052040090734FF48071002003F1502318601D68DF
:10521400012502F1502215602268002A4FD04FF078
:105224005023C3F804132AE04FF05023D3F8181482
:10523400D3F81824C90312D502F00303022B05D0B6
:10524400012B02D00020FFF7BFFE01234FF05022B4
:105254000221C2F8183508224FF48273D3E7D3F839
:105264001424D207F1D5D3F81C2402F00302013A26
:10527400012AE7D822681AB10222C3F8042338BDF0
:10528400D3F80421002AFBD00022C3F80421D3F868
:105294000431F4E7114940F2C3130E4A0E4803F0F7
:1052A4002BFE40F2C311A0E700224FF480730121CA
:1052B400A9E720224FF492734FF40071A3E71A6810
:1052C400002AFCD018601B68D9E700BF540F0020E7
:1052D40070B80000FFB70000C4A20000D9A5000008
:1052E40008B5094B1B795BB90849094840F2DD133D
:1052F400084A03F001FE40F2DD11064803F0F3FD15
:10530400BDE80840FFF760BE540F002070B80000ED
:10531400C4A20000FFB700004FF0502310B5D3F82B
:10532400002152B10020C3F80001D3F8002101226A
:10533400C3F80823234B1B6898474FF05023D3F836
:10534400042182B10022C3F80421D3F80421D3F844
:105354001824D3F81824022102F00302012A28D1C8
:10536400C3F818159A604FF05023D3F8202162B186
:105374000022C3F82021D3F820214FF48072C3F80F
:105384000823104B05201B6898474FF05023D3F88F
:105394002421AAB10022C3F82421D3F824214FF4F4
:1053A4000072C3F80823074B0620BDE810401B68B1
:1053B4001847C3F80813034B01201B689847D2E72A
:1053C40010BD00BF540F00200079024B03EB001006
:1053D400FFF750BD540000200123027900688B4080
:1053E400C0F80835024800EB0210FFF763BD00BFA8
:1053F40054000020034A4309D35C00F01F00184402
:10540400C0B27047B7B9000008B50268014610463B
:1054140004F0BDF958B910494FF46C730F4A1048A1
:1054240003F06AFD4FF46C710C4803F05CFD02F06C
:105434001F0352090B600BD0012A0BD0094940F21B
:10544400B933064A064803F057FD40F2B931EBE799
:10545400054808BD0548FCE76BB3000038B30000FD
:10546400C4A20000D9A5000000258450002884505F
:10547400072808B50BD90849084840F2AA33084A56
:1054840003F03AFD40F2AA31054803F02CFD8000F8
:1054940000F5807008BD00BFC3B80000C4A20000BE
:1054A4008EB8000070B50546FFF7A4FF0C4C083019
:1054B40034F810300E46DA0508D5C3F3432304EB61
:1054C400C302284654F8333052689847A3682BB176
:1054D40031462846E268BDE87040184770BD00BFF9
:1054E4006400002008B5FFF785FF034B083033F84C
:1054F4001000400B08BD00BF6400002008B5FFF792
:1055040079FF034B083033F81000C0F3400008BDA6
:105514006400002008B5FFF76DFF044B083033F832
:10552400100010F01C0018BF012008BD640000200A
:1055340008B5FFF75FFF034B083033F81000C0F3E2
:10554400401008BD64000020034611F0010010B5AE
:10555400CCB20BD1A207C4F340000DD5074A106AA0
:1055640058601062003818BF012005E004490A6A37
:105574001A600A62002AEDD010BD00BF00288450D2
:105584000025845010B5FFF735FF184A083032F86B
:105594001030D9051DD5C3F3432123F4F85322F861
:1055A4001030002002F10E0434F8023F13F4807F1F
:1055B40003D0C3F3432399420BD001303028F3D1F5
:1055C40000230B4842F83130FFF774FC094B984232
:1055D40000D110BD084909484FF4DC73084A03F0B0
:1055E4008BFC4FF4DC71064803F07DFC6400002062
:1055F400DC0000200000AD0B2AB40000C4A20000AF
:10560400CDB800002DE9F843002407460E46254690
:105614004FF00108A146B5420DD1124BD3F87C21BD
:1056240032B10022C3F87C21D3F87C3144F0004429
:105634002046BDE8F883E8B2FFF71AFFA0F58072B0
:10564400920808FA02F2174209D000F1A04303F5C8
:105654005043196819B1C3F800901B68144301350D
:10566400D9E700BF00D00050F7B506460846FFF75B
:10567400C1FE1A4F00F1080537F815300C46DB0758
:105684002AD5304604F0FCF82046FFF751FF58B104
:105694002046FFF727FF0022316800B201EB8003A8
:1056A400C3F81025C3F810252046FFF76BFF00232D
:1056B40001A827F815300194FFF7A6FE019B00EB23
:1056C4008300D0F80022064B134043F00203C0F8D5
:1056D4000032044803B0F0BD0348FBE76400002037
:1056E400F0F0FCFF0000AD0B0400AD0B2DE9F0431E
:1056F4001646804685B00846FFF77CFE37680D469F
:105704000446E7B1084604F0B0F808BB3B46CDE9CF
:1057140000008DF80E008DF80F000DF10F020DF151
:105724000E01284604F045F8474A04F1080132F80E
:10573400113023F0020343F0010322F8113073689F
:105744007BB328461F785968FFF7D8FE10B1E9B13A
:105754003E4829E03C4A04F1080032F8103023F0B6
:105764002003DB04DB0C22F8103079B1032FEFD8CF
:105774007168D1F804E0D8F800109EF800C001EB7D
:105784008C01A7B9C1F81075C1F810752E4A04F13F
:10579400080132F8113023F01C0343EA870322F88E
:1057A4001130B3683BBB2A4805B0BDE8F083D1F89B
:1057B40010E543EA4C332EF0030EC1F810E5D8F897
:1057C400001043F0200301EB8C0EDEF8101522F8D4
:1057D400103021F44F3121F44071CEF81015290214
:1057E400DEF8108501F47C5141EA074141EA0801E1
:1057F400CEF81015CAE72846D3E90067FFF7C2FEC2
:10580400002ED0D0104DD5E90023964203D19F42FB
:1058140001D1002209E00F480DF10F01FFF72AFB27
:105824000B4B9842C0D19DF80F2005EBC2030834FE
:105834005F6035F8143045F8326043EA422343F49C
:10584400807325F81430AEE7640000200400AD0B2B
:105854000000AD0BDC0000202DE9FF410C46804622
:10586400204611461D46FFF7C5FD064621B32046D6
:10587400FFF744FE18B92046FFF75AFE10BB204636
:10588400FFF748FE10B14B78012B1BD001238DF894
:105894000F3000234A1CCDE9001320468B1C0DF168
:1058A4000F0103F086FF294A06F1080132F811308E
:1058B40043F0030322F81130002D44D02046FFF7B3
:1058C4001DFE18B9224804B0BDE8F081002295F805
:1058D40000C0D8F800301D4F03EB8C03C3F810252B
:1058E400C3F8102506F1080237F812104FEA8C0E9F
:1058F40021F02001C904C90C27F812106E7816B3E0
:10590400D8F80000AD787044D0F81035360423F48C
:10591400991323F4F853C0F81035230203F47C538D
:1059240006F440362D05D0F810E5334305F4801510
:105934002B4341EA4C3143EA0E0341F02001C0F805
:10594400103527F812100348BDE700BF640000209B
:105954000400AD0B0000AD0B014BC3E9021270470C
:105964006400002010B514465AB90E490E4840F29E
:105974000D330E4A03F0C0FA40F20D310B4803F028
:10598400B2FA0846FFF7D4FD50B10846FFF732FDDE
:10599400074B083033F8103006485B0B237010BDFA
:1059A4000548FCE76BB90000C4A20000CDB80000B4
:1059B400640000200000AD0B0400AD0B2DE9F041A4
:1059C4001F4B026806469A420BD01E491E484FF4EC
:1059D40048731E4A03F090FA4FF448711B4803F0D1
:1059E40082FA1B4D95F880403CBBA04660222146BC
:1059F40005F1100004F051F836682F6FA7420FD15B
:105A0400002346F30730C6F87C31D6F87C31FDF725
:105A140035F901230F4885F88030AB67BDE8F08184
:105A2400E0B2FFF725FDA0F580739B081F2B04BF90
:105A340046F8008033580134E0E70748EEE700BF3A
:105A440000D0005075B90000C4A20000CDB8000019
:105A5400640000200000AD0B0C00AD0B034B93F869
:105A64008000003818BF0120704700BF6400002088
:105A74000148FFF71FBA00BFD80000200148FFF714
:105A8400F9B900BFD80000202DE9F34105460846C6
:105A94000C461646FFF73EFD58B9344940F2FA3336
:105AA400334A344803F028FA40F2FA31304803F01C
:105AB4001AFA2B680846D3F80423002AA4BF4FF02F
:105AC4000042C3F80423FFF733FD18B30846FFF779
:105AD40015FD0746F0B90846FFF704FD0446FFF735
