:1000000000B10020852B010091AB0200712B010093
:10001000712B0100712B0100712B01000000000009
:100020000000000000000000000000005D2D010045
:10003000712B010000000000292D0100712B01002F
:10004000352F01004FDE0200352F0100352F010052
:10005000352F0100352F0100352F0100352F01000C
:100060001FDE0200352F0100352F010039DE0200AE
:10007000352F0100352F0100352F0100352F0100EC
:10008000352F0100352F0100352F0100352F0100DC
:10009000352F0100352F0100352F0100352F0100CC
:1000A000352F0100352F0100352F0100352F0100BC
:1000B000352F0100352F0100352F0100352F0100AC
:1000C000352F0100352F0100352F0100352F01009C
:1000D000352F0100352F0100352F0100352F01008C
:1000E000352F0100352F0100352F0100352F01007C
:1000F000352F0100352F0100352F0100352F01006C
:100100002DE9F00791E8F807B2E802105B1854EB0C
:100110000C04B2E802104D4156EB0C06B2E8021096
:100120004F4158EB0C08B2E8021059EB01095AEBA9
:100130000C0A80E8F80780410130BDE8F0077047FD
:100140002DE9F00791E8F807B2E802105B1A74EBAA
:100150000C04B2E802108D4176EB0C06B2E80210F6
:100160008F4178EB0C08B2E8021079EB01097AEBC9
:100170000C0A80E8F80780414042BDE8F00770476C
:100180002DE9F007524290E87800B1E88007174067
:10019000DB1918EA020854EB080419EA020955EBC6
:1001A00009051AEA020A56EB0A0678C090E87800B8
:1001B000B1E8800717407B4118EA020854EB0804B5
:1001C00019EA020955EB09051AEA020A56EB0A0672
:1001D00078C080410130BDE8F00770472DE9F00795
:1001E000524290E87800B1E880071740DB1B18EA1C
:1001F000020874EB080419EA020975EB09051AEA0A
:10020000020A76EB0A0678C090E87800B1E8800729
:100210001740BB4118EA020874EB080419EA020906
:1002200075EB09051AEA020A76EB0A0678C08041E6
:100230004042BDE8F00770472DE9F00152424FF00F
:10024000040890E8300091E8C000A31B1340E41AB2
:10025000F618EB1B1340ED1AFF1830C0C0C1B8F1FF
:100260000108EED1BDE8F001704700BF00B592E88B
:10027000DC072DE9DC07B1E8805702B4A7FB025187
:100280000A95A8FB020BE7FB6310E9FB62B00B9138
:10029000A8FB0351EAFB6201E7FB64B5E7FB6605D7
:1002A000E8FB6615CDF830B0A9FB03B6EAFB631690
:1002B000ECFB6356E8FB640BE9FB641BEAFB645B45
:1002C000ECFB646B0D90ACFB0230059CEEFB6250C6
:1002D000E9FB6460EAFB64B0E7FB6431E8FB64516E
:1002E000069CE8FB6461E9FB64B1EAFB64010E93E0
:1002F000A7FB0432079CE7FB6462E8FB64B2E9FBFE
:100300006402EAFB6412049CE9FB6453EAFB646345
:10031000089CE7FB64B3E8FB6403E9FB6413EAFBB6
:1003200064230F955DF8049B99E80006DDF80080D2
:10033000A9FB0854EAFB68B4DDF81080ECFB680404
:10034000EEFB6814E9FB6824EAFB6834DDF80480FE
:10035000EEFB6865E9FB68B5EAFB6805DDF814802B
:10036000ECFB6815EEFB6825E9FB6835EAFB6845A0
:100370000F96DDF80880AEFB0876E9FB6806EAFB1D
:100380006816DDF81880ECFB6826EEFB6836E9FBA2
:100390006846EAFB6856DDF80C80ECFB68B7EEFBBC
:1003A0006807E9FB6817EAFB6827DDF81C80ECFBAF
:1003B0006837EEFB6847E9FB6857EAFB686708B0F7
:1003C00000BD00BF2DE9F14F87B0FFF74FFFDDF80B
:1003D0001C8008F1200888E8FF00FFBC87E87F0840
:1003E000BDE8F08F00B591E89857A3FB0352019543
:1003F000A3FB0401E3FB6420E3FB67100292A3FB71
:100400000752E3FB6802E4FB6415E3FB6805E3FBCA
:1004100069250391A4FB07B6E3FB6926E3FB6A5653
:10042000E4FB670BE4FB682BE3FB6A5BE3FB6C6BB1
:100430000490A4FB0810E4FB6950E3FB6C60E3FB51
:100440006EB0E7FB6721E4FB6951E4FB6A61E3FB03
:100450006EB1E4FB6E010592A7FB0832E4FB6A6211
:10046000E4FB6CB2E4FB6E02E7FB6E12E7FB685341
:10047000E7FB6963E4FB6CB3E7FB6C03E7FB6E131C
:10048000E8FB6E230695A7FB0954E7FB6AB4E7FB7C
:100490006C04E8FB6C14E8FB6E24E9FB6E34E8FBAB
:1004A0006865E7FB6AB5E8FB6A05E8FB6C15E9FBE4
:1004B0006C25E9FB6E35EAFB6E450796A8FB0976CD
:1004C000E8FB6A06E9FB6A16E9FB6C26EAFB6C3678
:1004D000EAFB6E46ECFB6E56E8FB69B7E9FB690781
:1004E000E9FB6A17EAFB6A27EAFB6C37ECFB6C470F
:1004F000ECFB6E57EEFB6E6700BD00BF2DE9F14FC0
:1005000087B0FFF76FFFDDF81C8008F1200888E84E
:10051000FF00FFBC87E87F08BDE8F08F30B44FF0E4
:10052000000310F8014B11F8015B013A84EA05045D
:1005300043EA0403F5D1A3F101034FEAD37030BCC1
:10054000704700BF4FF0000310F8012B013943EA58
:100550000203F9D1A3F101034FEAD370704700BF42
:1005600030B411F8014B12F8015B6C4000F8014BFC
:10057000013BF6D130BC70472DE9F00791E8F80750
:10058000B2E802105B1854EB0C04B2E802104D41C3
:1005900056EB0C06B2E802104F4158EB0C08B2E8DB
:1005A000021059EB01095AEB0C0A8941B3F1FF33F0
:1005B00074F1FF3475F1FF3576F1000677F100072D
:1005C00078F1000879F101097AF1FF3A51F100015F
:1005D0005B184C414D4156F1000657F1000758F1A8
:1005E000000859EBD1795AEB010A80E8F807BDE819
:1005F000F00770472DE9F00791E8F807B2E802101C
:100600005B1A74EB0C04B2E802108D4176EB0C0619
:10061000B2E802108F4178EB0C08B2E8021079EBD7
:1006200001097AEB0C0A89415B184C414D4156F1A6
:10063000000657F1000758F1000859EBD1795AEB41
:10064000010A80E8F807BDE8F007704718EB0408D6
:1006500059EB05095AEB060A5BEB070B5FF0000C40
:100660004CF1000C18EB050859EB06095AEB070A88
:100670005BEB070B50EB0C005FF0000C51EB0C0137
:1006800052EB0C0263414CF1000CB8EB070879F116
:1006900000097AF1000A7BEB040BA841B141A241A9
:1006A000B3416CF1000CBBEB050BB041B941AA4161
:1006B000BB416CF1000C4CF001068CF0020718EB0A
:1006C000060859EB6C095AEB6C0A7BEB6C0B70EB70
:1006D0006C0471EB6C0572EB670653EB6C076CEB0B
:1006E0006C0C18EB0C0059EB0C015AEB0C025BF193
:1006F000000354F1000455F1000556EBDC7657EB8E
:100700000C0770472DE9F14F87B0FFF7AFFDDDF81B
:100710001080DDF81490DDF818A0FFF797FFBDE812
:10072000000FFFF793FF03B05DF8048B88E8FF002C
:10073000BDE8F08F2DE9F14F87B0FFF753FEDDF8EC
:100740001080DDF81490DDF818A0FFF77FFFBDE8FA
:10075000000FFFF77BFF03B05DF8048B88E8FF0014
:10076000BDE8F08F074B1B78002B4FF00003836030
:100770000360054B436014BF02220122FF23C271B4
:1007800003727047700F002010010800064B074AE3
:100790009B7802604FF40E728280C371082200239E
:1007A00082710372704700BF700F00208FED000050
:1007B000F8B5C41D002824F00704054614BF2046E0
:1007C000002000F025FB071E02DA6FF00B00F8BDD9
:1007D0000DB9FC42F9D42D4E317AF079B37A727AA0
:1007E000033103300BF033FE0028EEDBB178F378F1
:1007F00027440337002D194427F0030700FB01F1BC
:1008000014BF3846002000F08FFC07440DB9002FBC
:10081000DBDB01203C4600F0F1FA90B1F17A81B1C6
:10082000FC1D002D24F0070414BF204600202523C2
:10083000282202F0D7F90028C7DB04440DB9002CA8
:10084000C3DBB37BABB1012000F0D8FA88B1F37AF7
:100850007BB10734002D24F0070414BF204600208C
:10086000B17B05F0FBF90028AFDB04440DB9002C87
:10087000ABDBB36A1BB135B1B4620020A7E7002D32
:10088000FBD12046A3E72834FBD59EE7700F00205C
:100890001FB572B6184BDD6AE5B9BFF34F8F174924
:1008A000174BCA6802F4E0621343CB60BFF34F8F6B
:1008B00000BFFDE7B2FBF6F2DCB20133002AF9D14A
:1008C00004F110036B4403F80C2C0A2234B901A87C
:1008D000A847E2E7024600230A26EDE7631E04AEBE
:1008E000DCB256FA83F3B0FBF2F602FB16003030AE
:1008F00003F80C0C3046E9E7700F002000ED00E033
:100900000400FA0507B50C4B9A7A8DF801205A7A43
:100910008DF8002068461A7ADB79ADF80420ADF82E
:10092000023003F05BFD18B1D9210320FFF7B0FFBF
:1009300003B05DF804FB00BF700F002038B504461B
:1009400070B30AF0A7FB10B94FF0FF3038BD0EF0BE
:1009500039FBB0F5FA7FF7D8144D1548EC62002446
:1009600000F0C6F926222146A81C85F830402C70DC
:10097000AC620AF06FFF0123AB701B23EB7140F2F6
:100980001B332B8140F202336B810823AB73EFF3EF
:10099000108572B600F038FC2DB962B62846D5E74E
:1009A0006FF01500D2E72046D0E700BF700F00209F
:1009B0000509000038B51446002844D1234D95F8A8
:1009C0003030032B3CD071B112B96FF0150038BD37
:1009D0000139062937D8DFE801F004361536253607
:1009E0002E001378AB700020FFF7E2FE0028B7BF9F
:1009F0000123022385F830306FF00B00A8BF85F883
:100A00003030E4E79378002BDFD0D378002BDCD0B4
:100A100013781A2BD9D953781A2BD6D91368C5F85D
:100A20000730E0E7012000F0E9F9237808B1012B55
:100A3000CBD9EB72D7E71388FF2BC6D8AB73D2E7BD
:100A40004FF0FF30C3E76FF02C00C0E7700F0020BD
:100A5000F8B50D46064630B329B311F0070422D18C
:100A6000124F97F83030012B02D16FF00B00F8BD18
:100A7000032B02D14FF0FF30F9E700F08FF8002888
:100A8000F8D02846FFF794FE0028EEDB0EF0D8F9E8
:100A90003046B96A03F044FDFFF734FF032387F8BB
:100AA00030302046E3E76FF01500E0E7700F0020DC
:100AB00010B5074C94F83030032B03D103F04CFDF4
:100AC00004F066FC0BF019FD002084F8300010BD26
:100AD000700F002050B1074B03F1140253F8041BB0
:100AE00040F8041B9342F9D1002070476FF01500C5
:100AF000704700BF6442030010B5094B93F83040C3
:100B00005CB903F0F1FC0749012000F06FF92046C1
:100B1000054900F06BF9204610BD4FF0FF30FBE7B0
:100B2000700F0020650700008D07000010B5054B11
:100B300093F830401CB903F0A1FC204610BD4FF0E3
:100B4000FF30FBE7700F002010B5054B93F83040E5
:100B50001CB90CF0ECFF204610BD4FF0FF30FBE756
:100B6000700F002010B5054B93F830401CB90CF005
:100B7000E1FF204610BD4FF0FF30FBE7700F002073
:100B8000024B02681A600020704700BFA40F0020CB
:100B9000014B1B68184700BFA40F0020024B1868C8
:100BA000003818BF01207047A40F00202DE9F8433A
:100BB0001C4E044600F104081A48C6F8008004F0F0
:100BC000FFFB0228054606D1164920460AF0E7FE3B
:100BD0002846BDE8F88304281CD1314620460AF097
:100BE00043FFB0F5817F03D372210820FFF750FE49
:100BF0000028E1D0277894F80290384600F028F8D1
:100C00000028D9D03E2FE3D1484600F061F80028F3
:100C1000DED1D1E70828DBD1024920460AF0EEFEFA
:100C2000D6E700BFA80F0020074B4FF0FF3141F679
:100C3000FF72C3E9001205490022C1E900221F2109
:100C4000C3E90212704700BFC0040020AC100020AE
:100C50003F280CD801380B4BC0F3421200F01F00A4
:100C600053F8223023FA00F000F001007047FF280B
:100C700006D04038C0F34212034B00F01F00EFE7EC
:100C800001207047C0040020AC1000200146074B33
:100C9000006849681A4603C240F48C221A6041F089
:100CA000107242F4FF625A60704700BFC004002017
:100CB0000246024B0068516803C37047AC10002025
:100CC0000246024B0068516803C37047C804002005
:100CD0000138064BC0F3421203EB820300F01F0001
:100CE0009B6823FA00F000F001007047C004002068
:100CF000014B1860704700BFB410002010B5FFF71B
:100D000093FF0CF0E0FB034B1B68044603B19847CC
:100D1000204610BDB41000200B880288F0B5C3F344
:100D20000E049EB204F11403C57CC35A02352A4452
:100D30002B4497B213FA82F3013B4288B3FBF7F3DB
:100D400013FB07439BB29A42044A93BF22EA06036D
:100D5000324013439BB20B80F0BD00BF0080FFFF09
:100D60004A1E062A08B50346084604D84FF4D17136
:100D70001520FFF78DFD094A914202D940F2A311D7
:100D8000F6E711B903B1196008BD2BB11B68002249
:100D9000C3E901211A1D1A600430F5E7FAFFFF7F4D
:100DA00010B5114B00EB41041A786389B3FBF2F3E1
:100DB00003FB0223013A1A44B2F5706F027928BF8F
:100DC00000231A448378B2FBF3F0194403FB10208C
:100DD000091AB1FBF3F003FB101313446FEA43430A
:100DE0006FEA5343638110BDB8100020024B03EB40
:100DF00080035960704700BFB8100020034B03EB1D
:100E000080035868003818BF01207047B8100020D0
:100E10002DE9F04F10F0070A85B0054604D040F2E6
:100E200061111720FFF734FD554F07F10C06B1464D
:100E30000446B0464FF0010B57F8043B8DF80BA069
:100E40003BB101A898479DF80A30082B01D9E82149
:100E5000E7E79DF80B1081BB05B13160B94506F19C
:100E60000406E9D12DB3DFF81CE100238EF8003031
:100E70001E46022258F82200013A60B190F804A000
:100E80008178BAF1FF0F66D14FF000078E420771EB
:100E90003CBFCEB20123511CECD10BB18EF80060E7
:100EA000022640F6FF6A58F82670002F65D1013EF1
:100EB000F9D2601B05B0BDE8F08F9DF80AC0BCF107
:100EC000020FE64601F1050238BF4FF0020E0EF1A7
:100ED000FF3004EB42040444CEF100002040BDF892
:100EE00008406444013CCCF1000C04EA0C04B4F565
:100EF000803F4FEA420301D3F82192E775B1C31A4C
:100F0000336099701C8083F803B09DF80C201A712F
:100F1000019A1A814FEA124CA3F806C004FB01049F
:100F20009CE758F82C90B9F1000F06D099F804B05E
:100F3000D34504BF99F802904F440CF1FF3CBCF13B
:100F4000000FEEDA3944FF29A0D90BB18EF800600A
:100F500040F2271165E794460027F0E707EB4103CD
:100F60003846A3F80AA0FFF71BFF09F10109BB7877
:100F70005FFA89F18B42F1D899E74FF00009F6E763
:100F8000BC100020B8100020F8B54FF6FF730380A6
:100F9000184B03EB810305461869B8B186780379CD
:100FA000B3FBF6F206FB1233DBB219460A1D00EB67
:100FB0004202B2F902705488002F09DB0131B1FB03
:100FC000F6F206FB1211C9B28B42EFD10020F8BD38
:100FD000FF29FBD0C4F30E03C4782B8024B94FF44F
:100FE000D5711720FFF754FC5380BDE8F8400BF093
:100FF0000DBA00BFB81000201D4B03EB810370B584
:101000001C69054644B3030404D54FF4DC71172072
:10101000FFF73EFC014620460BF0DAF9FF280146B7
:1010200004D02046BDE870400BF0F0B9A078B5FBC5
:10103000F0F300FB1353DBB219460A1D04EB420622
:10104000B6F90260002E09DB0131B1FBF0F200FBC2
:101050001211C9B28B42F0D1002070BDFF29FBD024
:101060008B4204EB42021CBF0023E3705580D8E79B
:10107000B8100020094B03EB810310B51C69014631
:1010800020460BF0A5F9FF28014604D02046BDE814
:1010900010400BF0BBB9002010BD00BFB8100020FD
:1010A000F8B5104B03EB810307461C690146204647
:1010B0000BF08EF9FF28054611D0E688238953EA04
:1010C000064606D0014620460BF0A0F901463846F8
:1010D000B04720462946FFF763FE0020F8BD0520F3
:1010E000FCE700BFB810002038B50E4B827903EB47
:1010F00082030446186908B9052038BD8278E17971
:101100009142F9D24B1CE37100EB41035D89B3F9C5
:101110000A30002BF3DBA5800BF078F9206000206B
:10112000EBE700BFB810002070B5044610F00300D4
:101130000E4603D04F211820FFF7AAFBFFF710FE41
:10114000054624B1034831460460FFF709FE2846EE
:1011500070BD00BFD41000202DE9F14FDFF870B052
:101160009DF828A09DF82C901E46DBF8003007461D
:101170000D4690461BB961211820FFF789FB5246A6
:10118000092140460AF0AAFF4A4684B209213046A6
:101190000AF0A4FF14FA80F1DBF800000BF0EDF880
:1011A000386018B9286001B0BDE8F08F04442C60A5
:1011B00038685346414609220AF049FF28684B46E1
:1011C0000922314601B0BDE8F04F0AF040BF00BF30
:1011D000D410002070B50E4604460AF092FF054672
:1011E00030460AF08EFF044B2A1821461868BDE8E5
:1011F00070400BF0E6B800BFD4100020014B186817
:101200000BF0AFB8D4100020134B012200214FF097
:10121000FF309A60C3F80012C3F80803C3F8001542
:10122000C3F804259A60C3F80803C3F80015C3F88F
:1012300004250A490A4A03F580334FF40040C3F8F5
:101240000825C1F88000BFF34F8FBFF36F8FC1F83F
:101250008001C3F80825704700F0004000E100E07D
:101260000000F63F0A461E2302F8033B0448C36809
:10127000C1F803300369536043699360704700BF4E
:10128000D8100020024B5A8C02435A845B6A1847DC
:10129000D8100020014B00215B6A1847D8100020AD
:1012A00010B5154C06F0F6F905F0A6FD208DFFF7F8
:1012B000F1FF237E63B12246104952F80C3BE360F4
:1012C0006368536004F11900A36893600DF0C8F8D7
:1012D0000B4B228D93E8030004F04AFD236B188822
:1012E00004F070FCA36B94F8341094F83500984720
:1012F000002384F83C3010BDD81000206512000097
:1013000004110020034B93F83C300BB1FFF7C8BF2A
:10131000704700BFD810002008B5094B93F83C2057
:10132000022A04D040F253212720FFF7B1FADA7ADB
:1013300042F00102DA72BDE80840FFF7B1BF00BF1A
:10134000D810002010B50E4C226C137803F0030364
:10135000032B04D1D378022B01D1002010BD606C87
:101360000AF062FF0028F9D1236C1B7803F0030315
:10137000032BF2D003F012FA80F00100C0B2EDE7C7
:10138000D810002037B55E4C256B95F894200023CB
:101390008DF8053094F848300AB10433DBB295F883
:1013A000681028B9FF2B03D195F869308B4202D021
:1013B000FF2006F00FF895F88A30032B00F2978093
:1013C000DFE803F002337A8D94F84930ADF8063047
:1013D0004C48A5F8583003F0BBF950B1216C4FF4DC
:1013E0008070FFF74FFF012385F8853084F84A307D
:1013F0001DE0606C0DF105020DF106010AF0A9FE79
:10140000206490B195F8D1307BB99DF805302BB9A7
:1014100003808370206C01210CF057FFBDF806108B
:10142000206C0CF0D0FF0123E0E7374B236495F8E4
:101430008B30216CDB0003F008020B7803F0F30320
:10144000134395F88C20920002F00402134323F01A
:1014500010030B70FFF776FF0028206C027814BF92
:10146000102300231343037095F89330002B41D0D1
:101470004378002B3ED0206F06F0ACF9012384F8AE
:101480009030D5E93C23216C206FC4E9222305F07C
:1014900069FC95F86910012006F0F8F9226C1188B2
:1014A000A4F8A1109178194A012384F8A030917012
:1014B00084F83C3003B030BDB5F85830606CADF8FE
:1014C00006300DF105020DF106010AF042FE20641E
:1014D0000028A8D140F2F3212720FFF7D9F90948C5
:1014E00003F036F900289ED140F2FD21F4E740F2E6
:1014F0000B31F1E706F06EF905F07EFCC9E700BF9D
:10150000D81000201811002023110020791100208C
:101510002DE9F7434C4C94F83C30256B012B0646E3
:101520000F4604D040F2A4412720FFF7B1F995F807
:1015300084302BB1002185F884100420FFF7A2FE2F
:10154000216C0B7803F00303032B05D195F88A3047
:1015500013B90220FFF796FE226C137803F0030301
:10156000032B03D05378002B5DD1012385F88A30FB
:1015700095F89430B3B1D5E93E01236B94F84890C7
:10158000C4E922014FF0000893F8690084F89080C4
:101590000AF0B5FF2D49CDF8008003464A460120E8
:1015A00005F09AFB002E40D1002F3ED0D4F8A43095
:1015B00030469847002838D094F83430ABBB256BC0
:1015C000D4F8AC30C4F8A83095F8943094F84800BA
:1015D00083BBFF2895F8691003D195F868308B42DA
:1015E00001D005F0F7FE95F8943033B3206F06F084
:1015F000F1F8002384F89030D5E93E23216FD4F828
:10160000A800C4E9222305F0ADFB002006F0F4F8A1
:1016100095F86810002006F039F9022384F83C3070
:1016200003B0BDE8F0830223A0E703B0BDE8F043B8
:10163000FFF736BE0430C0B2CBE7D4F8A80006F0FE
:10164000C9F805F0D9FBE0E7D810002050110020C0
:1016500010B5064B93F83C2002F0FF0422B91C762B
:1016600004F07EFB204610BD0C24FBE7D8100020C0
:101670000B4B0C4A70B506460D461A60FFF7E8FFA3
:1016800018B1E1212720FFF703F9074C012104F1EC
:101690004B000CF01AFEC4F8AC60256770BD00BFAB
:1016A00010050020A41C0000D8100020024B0122CD
:1016B00083F8B020704700BFD8100020F0B5754DFA
:1016C00085B002AC84E8030095F83C100A9F01F055
:1016D000FF0611B90AB103B127B940F26F112720F3
:1016E000FFF7D6F894E8030005F12C0C8CE8030012
:1016F0002C6B6A62C5F8A430AF6385F8B06085F8DA
:10170000346085F8B16085F8356085F8A06085F8AB
:101710004A606E842E8505F089FE05F06DFB94F914
:101720006C0005F01FFF606A06F046F8E06905F0FE
:101730001FFF94F8A40005F041FF94F86820564B71
:1017400033F8121030464FF47A7301F5FA71B1FB99
:10175000F3F16E3105F08AFF504B186806F032F84D
:1017600023696B646369C5F8B43094F8773073B952
:10177000226F62B1B4F8BE10B4F888308B4206D143
:10178000B4F874100B44A4F8BE3001231360444E27
:1017900004F5807304F5887718685968324603C2E7
:1017A0000833BB421646F7D1D4F810313D4AC5F88C
:1017B0009130D4F8143153602B6B93F88E2093F84A
:1017C0006860253A012A03D993F88F20252A5CD135
:1017D00093F8F2312BB1012E03D0012B0CBF01265F
:1017E000022604F13007314638460CF0CBFE314674
:1017F0000CF016FCA38F94F86910834228BF0346AF
:10180000384685F849300CF0A6FE94F8691094F833
:101810009470B4F84460042908BF03210CF000FC64
:101820000FB9043080B2B04228BF304694F89330EC
:10183000C0B285F8B80085F848008BB1012385F85F
:101840009030D4E93C2394F86800C5E922230AF0DB
:1018500056FE0346002012490090FB2205F03CFA98
:101860000120FFF78FFD00232B606B60AB60B4F8A5
:1018700088306B8023882B8094F8A4302B71A36F61
:101880000BB101221A6005B0F0BD032E08BF04267B
:10189000A7E700BFD810002020ED020010050020AF
:1018A000501100206911002008B5094B93F83C2025
:1018B0001AB9BDE80840FFF7F3BC93F83C30012BA0
:1018C00004D040F231212720FEF7E2FF08BD00BF1F
:1018D000D8100020014B1876704700BFD8100020A8
:1018E0002DE9F3411F4D82072C6B06460F4624D588
:1018F000D5F8BC3023B940F295412720FEF7C8FF48
:10190000B5F8C020D5F8A8101846033291F8018028
:1019100009F028FF0DF1020201A9C5F8A800D5F8C9
:10192000B4000AF014FD01980AF0FBFC01223860B3
:101930004146D5F8B4000AF0C1FCF3070ED5D4E94E
:101940003E32013342F10002C4E93E3294F88C3059
:10195000012B0CBF0023012384F88C3002B0BDE8BA
:10196000F08100BFD81000202DE9FF47AE4C0023C6
:10197000CDE9023394F83C30D4F830A0022B07466E
:10198000884604D04FF4A3612720FEF781FF238D02
:10199000580606D44020FFF77DFC238D43F040031A
:1019A00023859AF89430002F00F02E81ABB105F01A
:1019B0003BFA90B9D4F8A8305A7872B11B789AF8EB
:1019C0008C20C3F3C0039A4207D1012384F8353039
:1019D000FFF766FC04B0BDE8F087D4F8A83059786A
:1019E000A4F8C01009B3D4F8B4000AF03EFCC4F85F
:1019F000BC00238D9AF88B2043F400732385D4F820
:101A0000A8301B78C3F380039A4200F0BC80256B9A
:101A100095F88A30A3B3022B11D1606C02A90AF0A9
:101A2000BBFB28B940F20E41AEE7C4F8BC10E0E7BA
:101A3000D5E93C32013342F10002C5E93C3295F868
:101A40008530002685F88A6093B185F8856002F0BC
:101A50008FFE10B940F2254196E731460820FFF786
:101A600011FCD5E93C32013342F10002C5E93C32B8
:101A700095F88B30012B0CBF0023012385F88B30A8
:101A8000238D43F4006323854FF00009D4F8A81098
:101A90009AF88C200D78C5F3C0039A4240F0A680D6
:101AA00005F00305032D266B6FD0002D78D196F835
:101AB0008C30013B18BF012386F88C30D4F8A83055
:101AC0005B7833B1D6E93E32013342F10002C6E918
:101AD0003E329AF893308BB1012384F89030DAE9E2
:101AE0003C239AF86800C4E922230AF008FD034663
:101AF00000204E490090FB2205F0EEF8B8F1000FEF
:101B000000F0988005F0E2FE4FF001081DB103A936
:101B10000220FFF7E5FEB9F1000F04D0B4F8093058
:101B20000133A4F80930002F00F0B680B4F8053076
:101B30000133A4F80530002384F8B1303C4804F0A8
:101B40002FF8029830B10AF0ECFB216B00220272F0
:101B500003F086FC039B33B1216B00221A720C2226
:101B6000039803F04BFCB8F1000F7FF431AF238DE5
:101B70001B063FF52FAF8020FFF78CFB238D43F032
:101B80008003238526E7B94680E7238D012043F4AF
:101B9000805386F8840023850025FFF773FB86E7D2
:101BA0004D78002D83D0238D96F8945043F48053C4
:101BB000238505F0C5FB042894F8B83006D1002D24
:101BC00014BF1B221F22934228BF1346D4F8A8201B
:101BD00052789A420CD8D4F8BC50002D3FF479AF1B
:101BE00094F8B03073B12020FFF754FB002570E764
:101BF00094F83430012043F0100384F8343006F0B8
:101C00007DFEF3E73D4652E70BB105F049F994F844
:101C1000B130013384F8B130238D002543F4806363
:101C20002385A94655E700BFD81000205011002099
:101C30000411002094F8B130012B3FF663AFD4F8C3
:101C4000A4300120984700283FF45CAF94F834306A
:101C5000002B7FF457AF94F8A130D906C3F30012DC
:101C600002D5FFF76FFB0246D4F8AC30D4F8BC10B5
:101C70001B78C3F3001329B9B4F8C01013B1B1FA3B
:101C800081F35B09608C00287FF43CAF13433FF481
:101C900039AFFFF777FB39E7B4F807300133A4F821
:101CA00007304BE7191300006919000011150000F7
:101CB00005130000024B1B68002283F87820704750
:101CC0009C11002008B503F047F9014B187008BDBE
:101CD000D0040020024B1868743000F0E5BF00BF4C
:101CE0009C11002038B50F4CFFF7F4FF256800F079
:101CF00099FF23686867586F20B940F2EF4132209E
:101D0000FEF7C6FD00F0BCFF10B940F2F141F6E766
:101D100005F060FD002005F06FFD2368042283F8C4
:101D2000782038BD9C11002070B52E4C23680646E3
:101D3000586F00F0A5FF054620B941F2B5313220B9
:101D4000FEF7A6FD236893F8543013B941F2BB3176
:101D5000F5E77EB10CF093FA38B1236893F8782058
:101D6000022A0FD841F23B31E9E728460CF09FFAEE
:101D70000028F2D1236893F87820022A19D841F27A
:101D80009B31DCE793F87820082A02D941F23C31F4
:101D9000D5E793F87830626803F180431269033B1A
:101DA000284652F8233098470C2814D941F2CE31F6
:101DB000C5E793F87820082A02D941F29C31BEE7A2
:101DC00093F87830626803F180435269033B52F81C
:101DD00023309847E8E76368DB68BDE8704053F854
:101DE000203018479C11002008B5074B93F90020BC
:101DF0007F2A04D14FF462713220FEF749FD027050
:101E00007F221A7008BD00BFD004002030B50478CE
:101E10008FB004F00F04224604A90AF050FEFFF729
:101E200051FF042C34D11C4D059B2C68197894F873
:101E30007D2091422CD1597894F87E20914227D16F
:101E4000997894F87F20914222D1D97894F8802013
:101E500091421DD1197994F88120914218D15A7973
:101E600094F882309A4213D19DF8212094F883305F
:101E70009A420DD10DF10F00FFF7B6FF9DF90F301B
:101E800000932A7A2B7B04A904F174000AF008FE5F
:101E900003200FB030BD00BF9C11002010B50F4AC9
:101EA000136893F87810022904D841F2BB4132201C
:101EB000FEF7EEFC93F87810082902D941F2BC41F4
:101EC000F5E793F87830526803F180439268033B5A
:101ED000BDE8104052F82330184700BF9C11002085
:101EE00010B5054C637A2BB105F0B6FC04F09CFEEE
:101EF0000023637210BD00BF9C11002010B5074C79
:101F0000FFF7EEFF2368012283F87820FFF7E2FE57
:101F10002068BDE810400BF04AB800BF9C110020BB
:101F200010B500B919B9BDE81040FFF7E7BF0F4A77
:101F3000136893F87810082904D841F28B413220B5
:101F4000FEF7A6FC93F878100C2902D941F28C41D7
:101F5000F5E793F87830526803F180435268093B03
:101F6000BDE8104052F82330184700BF9C110020F4
:101F700038B5314CFFF7AEFE256800F053FE2368FC
:101F80006867586F20B940F24C413220FEF780FC60
:101F900000F076FE054610B940F24E41F5E72368A1
:101FA00093F890306BB123681A6D93F89110C3F8D1
:101FB000042193F854200A4383F85420002283F824
:101FC0009020206890F878305BB190F87830012B41
:101FD00007D000210AF0D8FE18B9BDE83840FFF755
:101FE0008DBF2368154A93F87C30D05C05F0E6FA83
:101FF0000121252005F0EEF9284605F0EBFB012133
:10200000084605F0E1FAE81C02F060FE607220B1BB
:1020100004F0F0FD402005F013FC226800230821A5
:10202000E372A3722373A2F87A30032382F8791043
:1020300082F87830217238BD9C11002026ED020014
:1020400070B5394C236893F87830012B054604D9D4
:1020500040F6E2013220FEF71BFC05F0E7F905F03F
:10206000FBFB04F0E1FD314805F0ACFB304805F026
:10207000A3FB304805F07CFA6B7A43B120686030EE
:102080000BF017FF23689B6E0BB101221A602B7AAD
:10209000032B02D140F61311DCE72068B3B903210A
:1020A00090F87C2090F84A500E460132B2FBF6F3CD
:1020B00003EB4303D31ADAB245FA03F3DB0703D485
:1020C000013911F0FF01F0D180F87C2090F958001F
:1020D00005F048FAFFF74CFF256895F8483013B330
:1020E000D5E922126FF000439A4208BFB1F1FF3FD9
:1020F00019D00DF0C9F8D5E92223904271EB030302
:1021000011D3012002F0F4FD68B1256802F0C0FD92
:1021100004460DF0B9F8084BA4FB03341B1844EB3C
:102120000104C5E9223470BD9C1100208005002007
:1021300055555500D6BE898E40420F002DE9F0411D
:10214000564D064628692F68002303704370884661
:1021500005F040FB032E3CD12A69137823F00F03CE
:1021600043F0030313700C23537007F17D012869BA
:102170000CF067F897F8831028690CF076F82B6854
:1021800093F8482093F8417003F142047AB193F830
:102190005420520771D593F84C20002A6DD093F843
:1021A0004D0002F013FE00281CBF044601272869D9
:1021B00021460CF038F8286939460CF049F8384BBC
:1021C000D3F80431002B5BD040F22F613220FEF7B0
:1021D0005FFB052EC9D12C692868237823F02F03D3
:1021E00043EA4811222241F0050121706270036D1B
:1021F000DB69C4F80F30036D5A6AE274110A120CDD
:10220000217562759A69998D40F2E24CB1FBFCF13F
:10221000A175996AB2FBFCF2B1FBFCF16276E17543
:10222000C2F30722C1F307212176A2761A8CE27647
:10223000120A22775A8C6277120AA277D3F8972073
:10224000C4F81F2093F89B3084F82330036D93F873
:10225000A23094F8242003F01F0322F01F0213433E
:1022600084F8243002F0C0F994F8243003F01F03FE
:1022700043EA401384F8243077E793F8790090E735
:10228000052E08D12B6821681A6DC2F80A10A188A2
:10229000D1811B6D5F72BDE8F08100BF9C110020F1
:1022A0000010004010B50B4C00210320FFF746FF43
:1022B000206803210AF068FD18B9BDE81040FFF757
:1022C0001DBE0121084605F0E1FA2368092283F8C2
:1022D000782010BD9C11002038B5174D2B68586F21
:1022E00000F0CEFC044620B940F25B513220FEF7EC
:1022F000CFFA28680A2380F87830002100F0B8FE71
:102300002B681A6D237892F8964004EA531404F06F
:10231000010421460520FFF711FF286804210AF077
:1023200033FD18B9BDE83840FFF7E8BD2B681B6DD9
:1023300083F8964038BD00BF9C1100202DE9F04F76
:102340007D4C95B00546FFF7BDFC236893F85430EB
:1023500013F0060F04D00122962100200CF08DFD11
:102360002E7806F00F06284632460AA90AF0A7FB87
:102370000B9D75B39DF83920012A58D16B7903F074
:10238000C003A3F1400CDCF1000343EB0C03627AC1
:102390005AB153B125680BF0DAFD236885F879004E
:1023A00093F8793023720123A372236893F879009C
:1023B00008283ED10B999DF839000CF036FC2268B4
:1023C0000B99054679329DF8390002F09DFB0028F3
:1023D00041D0216891F8543013F0030207D0062E43
:1023E00091F84B2046D8002A0CBF2A46012202F061
:1023F000010213F0040381F87A2007D0062E91F829
:102400004C3039D8002B0CBF2B46012303F00103BD
:1024100081F87B300B9B0BB39DF8392081F883202A
:102420001A68C1F87D209B88A1F8813016E000234E
:10243000ADE708AA0DF11F0102F030FC20B940F60B
:10244000A2313220FEF724FA9DF81F0008A90CF0F3
:10245000ECFB0546BDE72368A3F87A00062E00F2E0
:10246000D880DFE816F06B00F7000B00D600D6002E
:10247000D60029000022BAE70023C7E705F00AF9D1
:10248000256895F854309F0701D1032533E095F86E
:102490007A30002BF9D008A8FFF7A6FC9DF9203070
:1024A0000293237A0193FF230093022205F1420352
:1024B0000AA905F174003BE0256895F87A30002BF5
:1024C00000F0A78095F854309E071AD508A8FFF7AA
:1024D0008BFC9DF920300293237A0193FF23009314
:1024E00005F1740005F1420306220AA90AF0C8FAB0
:1024F000002323730925FFF7F3FC284615B0BDE838
:10250000F08FD80740F18580590701D505F0C2F852
:1025100008A8FFF769FC9DF9203020680293237A10
:102520000193FF230093062200F142030AA97430AD
:102530000AF0A6FAA9E700BF9C110020236893F8CF
:10254000542052073CD593F87B20002A38D00B9AB0
:1025500093F85A10107888425ED1507893F85B1047
:10256000884259D1907893F85C10884254D1D07841
:1025700093F85D1088424FD1107993F85E1088422D
:102580004AD1517993F85F20914245D19DF8392085
:1025900093F85910A2EB010CDCF1000242EB0C02A3
:1025A00093F85610012953D0002A51D193F84D20A9
:1025B000082A03D093F87930934249D005F06AF89D
:1025C000256895F87A30002B40D095F854309F0755
:1025D00024D508A8FFF708FC9DF920300293237A40
:1025E0000193FF23009305F1740005F142030022DB
:1025F0000AA90AF045FA012323730925236893F8F1
:102600007B20002A7FF477AF93F87A30002B7FF499
:1026100072AF05F03FF838E70022C1E7DE0715D5B5
:102620005D0701D505F036F808A8FFF7DDFB9DF939
:10263000203020680293237A0193FF230093002225
:1026400000F142030AA974300AF01AFA0325D5E70B
:102650000A25D3E722689DF83A1092F87A3005935C
:1026600092F8483092F87BB0012983F0010A40F0DB
:10267000AB800C994F7907F0C007A7F140004742A3
:10268000474192F85410490740F1A08092F84C104D
:10269000002900F09B8092F84D50082D00F09980A1
:1026A000284602F00FFA002818BF8246002F00F0DB
:1026B00092800C99284602F04FFB0646216891F85B
:1026C0004100002E00F0898040F0020991F854206A
:1026D000530752D50B9A91F85A5092F800C0AC4566
:1026E0007DD192F801C091F85B50AC4577D192F85A
:1026F00002C091F85C50AC4571D192F803C091F8DA
:102700005D50AC456BD192F804C091F85E50AC4579
:1027100065D1557991F85F20954260D19DF8395087
:1027200091F85920A5EB020CDCF1000545EB0C05F6
:1027300091F87920082A54D091F84D80A8EB020234
:10274000D2F1000848EB0208002E4DD1BAF1000F7B
:102750004CD00C9B9DF83A2042310BF0B4FBBBF1FE
:10276000000F08D0236893F85630012B57D013B9C7
:1027700055EA080353D104F08DFF236893F85430D1
:102780009B073FF482AE04F085FF059B002B3FF4CE
:102790007CAE20680C9B9DF83A2000F1420190F835
:1027A00041000BF090FB08B925680EB308A8FFF7AD
:1027B0001BFB9DF9203020680293237A0122CDE98A
:1027C000009300F14203B1E600275AE792F87950EE
:1027D00063E7002672E73E4670E7814676E700250C
:1027E000A6E74FF00008AFE70120B8E73046B6E7AC
:1027F00095F85530023B012B3FF647AE002F3FF4D2
:1028000044AE08A8FFF7F0FA9DF920300293237A2E
:102810000193FE230093012205F1420348E60028BC
:10282000A9D00A2567E600BF13B5404CFFF758FB57
:10283000236800225A721A6D1188598140F2E240D1
:102840009169B1FBF0F11984118C528C9A844FF488
:102850007F42DA844FF6FF7259841A8569462069EF
:102860000BF0E8FC216891F8483001F11402E3B163
:1028700023691B785B0618D59DF8053003F0C0036B
:10288000402B12D10098BDF8043048619380207A23
:10289000082801F10E0239D00D3102F0FFF938B9E4
:1028A00041F204413220FDF7F3FF00234B61EDE7D5
:1028B00023685A7B42F002025A73D3F87D20C3F892
:1028C0001A20B3F88120DA83236893F95810186D21
:1028D00002F026FB206816490BF0B9FD2068154967
:1028E000036D1A88A0F8332093F8963080F83530BD
:1028F0002A300BF0B5FD2068022100F0B9FBFFF78C
:10290000E9F902B0BDE81040FFF7D4B991F883307F
:102910004B73D1F87D30C1F80E30B1F8813093801F
:102920000023C1F81A30CB83CEE700BF9C110020F2
:1029300081C500001FC50000036D10B5044623B912
:1029400040F257313220FDF7A3FF022242721B886A
:102950004381FF2380F827304FF6FF730385034937
:102960000BF075FD0023236510BD00BF81C500007D
:10297000F8B5184F0E46386101210020FEF73CFBE8
:10298000054620B940F67F013220FDF781FF4FF464
:102990008872002108F05EFF01210846FEF72CFB3B
:1029A000044620B14FF48872002108F053FF7B6881
:1029B00013B940F68901E7E7304609F071FE284671
:1029C0000AF0A3F924B12046BDE8F8400AF09DB909
:1029D000F8BD00BF9C110020014B024A5A607047AD
:1029E0009C11002068050020026810B522B940F64D
:1029F00053113220FDF74CFF034B1A605B68BDE8B2
:102A000010401B68184700BF9C11002038B590F893
:102A10004030054613F0FD0F14BF0120002085F85B
:102A2000410005F1420101F0DFFE95F84030023B24
:102A3000DBB2012B94BF0123002385F8483015D861
:102A400002F026F904460CF01FFC094BA4FB0334EA
:102A50001B1844EB0104C5E92234002002F048F9B8
:102A600020B940F6F6113220FDF712FF38BD00BF45
:102A700040420F00014936300BF0ECBC41C500006C
:102A800010B5074C0146206809F02EFDEFF31082C7
:102A900072B623790133DBB2237102B962B610BD7D
:102AA000B01100202DE9F0474C4D04689DF82080BE
:102AB0009DF824901F462B790E4600219246016016
:102AC00073B92868A4F1080109F00EFD2B790133D0
:102AD000DBB22B71AB68002B7CD140F2A1114AE034
:102AE0001A2204F1090008F0B5FE0123A372BAF11D
:102AF000060F3ED8DFE80AF00421273D313D2B00C8
:102B0000E37A23F0130343F01303E3729DF92830B3
:102B1000237601232375FF23A375B9F1080F4FF026
:102B20007F03E37504F10E0248D004F10D0148461D
:102B300002F0B4F810BBB9211DE0E37A23F01503CD
:102B400043F01503E1E7E37A43F01003DDE7E37AAE
:102B500023F0120343F01203D7E79DF82C30E27AFA
:102B600043F01A0322F01B0203F01B031A43E27224
:102B7000CCE740F219413320FDF78AFE637B43F036
:102B800002036373E37A5B0721D5A8F10202012AED
:102B90008BBFB2683A681168E26188BFE16104F1F5
:102BA0001C0394BFBA8892889A8084F81B80002303
:102BB00023720B4920460BF04DFC8BE7737C63734B
:102BC00073681968C4F80E109B889380DAE7FF23B6
:102BD000E376ECE70023AB60BDE8F087B01100209E
:102BE0002FC90000233270B592B205460C461E462E
:102BF00009F042FC35B1044A002315601473567382
:102C00001471936070BD00BFB011002010B5044C6A
:102C1000206809F053FC0023A360237B237110BDBF
:102C2000B011002070B5154DAE6826B140F23F11CD
:102C30003320FDF72DFE286809F046FC0446A86005
:102C400010B94FF4A171F3E72B79013BDBB22B7183
:102C500000F1080523223146284608F0FBFD7F23BA
:102C6000E377FF23A377637584F82330E37C0122A5
:102C700062F34613E374284670BD00BFB011002014
:102C800008B5084B9B681BB93D213320FDF700FEBA
:102C900003F10802904202D04FF4AA71F5E703F164
:102CA0002B0008BDB011002010B5064CA16841B141
:102CB000206809F019FC23790133DBB2237100236A
:102CC000A36010BDB01100202DE9F04F8FB0044675
:102CD0001F46BDF86080069289460CF0D5FAD4F8FC
:102CE000C430039020460493059109F02CFF069B05
:102CF0008346002F00F05181002B00F0C180074671
:102D0000039B13F5FA65059B43F1000600F08AFC6E
:102D10008246514604F1D800079000F059FCD4F8DF
:102D2000041111B107980AF06AF8BBF1000F18D02E
:102D3000D4F8E0B0BAF1000F16D0DAE90031DAF8D1
:102D40000800C01841F10001CDE900565A460AF0CA
:102D5000A0F98345824607D240F269312120FDF770
:102D600097FDD4F8C0B0E5E7D4F8C03003F2CF70D7
:102D70001AEB05058244BAFBF3FA03FB0AFA46F1A3
:102D80000006B5EB0A0366F10002C4E93632B8F179
:102D9000000F6CD14FF0FF326FF00043C4E92823DD
:102DA000012004F0D5FED4E928130793079A4B1BA2
:102DB00000F523404FF47A7800F1A100B0FBF8F061
:102DC00000F2652862EB0600012B70F100024FF063
:102DD0000002C0F2DB80DDF810C09C45824100DBC0
:102DE0000493DDF810A0D4F8C400069B824528BFE8
:102DF0008246C4F8CCA02BB1D4E93623C4E92A56C4
:102E0000C4E92E234FF0000BC4E92C56C4F8C88047
:102E10002A4689F809B033462046049109F09CFE01
:102E2000C9F8048089F80800002F00F0B180012360
:102E300089F80030DDE90331059AC81A079B63EB76
:102E40000203012873F1000206DB664981427BEB35
:102E50000303ACBF83468B46ABEB0801C9F81010E7
:102E6000C24534BF002001200FB0BDE8F08F42F210
:102E7000107329463246E8FB0312C4E928128FE793
:102E8000002800F08D80D4E928126FF000439A42A8
:102E900008BFB1F1FF3F75D0012004F059FE069B39
:102EA0008DF82030039B13F59A72059B00F52340A3
:102EB00043F10003CDE90C234FF47A750223A130CE
:102EC000B0FBF5F000F2652508A80995ADF82830AB
:102ED00006F0DCFF074610B940F295413EE7D4E921
:102EE00028320C99059E5B1A0D9962EB01025B1B5F
:102EF00062F10002002A049B039DB8BF00230493E3
:102F00004EE701208DF820B004F022FE00F52340AA
:102F10004FF47A73A130B0FBF3F000F26520099012
:102F2000D4E93603D4F8C050D4F8B0108DF829B0E5
:102F30000A1AB2FBF5F26A43121843F10003204665
:102F4000CDE90C2309F008FE29468DF8280008A8D1
:102F50000BF035F8DDE90C5641E0D4E92A23204690
:102F6000079109F0E1FD079900FB08F818EB0A004A
:102F700041F10001C4E936012A463346204609F0F2
:102F8000D3FD0DE7039D059E074609E7049228E758
:102F9000C9E9045689F8007062E7002B7FF4B0AEEF
:102FA000D4E936A1D4F8C080039BA3EB0A051AEB41
:102FB0000803B5FBF8F508FB05F541F10006ED182F
:102FC0004FF0000B46F10006002FC6D0039BEB1A12
:102FD000B3F59A7F95D218EB050546F100065F46DA
:102FE000DEE600BF0040420F70B504460D4690F883
:102FF000003103F0FF0623B14FF427712120FDF7C4
:1030000047FC11B940F29D21F8E701460C4806F053
:10301000E3FE202884F8980010D0C4F8045195F8F5
:10302000D83103F0FF0113B140F2A621E6E784F89E
:103030000811204609F088FF012070BD3046FCE7EA
:1030400069CE000038B504460D460146074806F033
:10305000C3FE202884F8980005D02046294609F0B0
:1030600073FF012038BD0020FCE700BF69CE0000DF
:1030700001292DE9F341044604D902294CD040F638
:10308000090120E0D0E92A6704F060F940F23965CF
:10309000D4F80481751947F100062D1846F1000691
:1030A000D8F8187000F0B8FA04F1D80383420DD0B4
:1030B000CDE900563A46D8E96C0109F0EAFF8742AB
:1030C00005D240F27D312120FDF7E2FB0020254BA7
:1030D0001A68D4F80431824297BF40F2E2419A69FB
:1030E000B0FBF1F201FB120294BF821A80189A62BF
:1030F00041F66A029A859A6A41F66901821A8A4201
:1031000002D940F29A71DEE7401946F10006C3E9A0
:103110006C0602B0BDE8F081D0F8043113B940F27A
:10312000A571D0E7002540F2011283F8D851A3F829
:103130006820FF2683F86A60D0F804012946303001
:1031400002F0ACF9D4F8040109F07BFFC4F8045193
:1031500084F8086104F0F0FA02B0BDE8F04106F02E
:10316000F3BC00BFC0110020F7B51E4E0123337021
:103170000027CDE900776846FDF7B6FF0546C8B1E0
:103180000023337003B0F0BD90F8D90107F062FD61
:1031900094F8D90184F8D85106F04AFE10B94FF4DA
:1031A000D7711BE0202384F8D93104F5D87000F0E2
:1031B000F3F9DEE7009B002BDDD093F8D821002A3D
:1031C000D9D018884FF6FF739842D9D02946FDF719
:1031D00051FF04460028D7D140F2BF113520FDF73A
:1031E00057FB00BFC411002038B50C4B90F8682085
:1031F000054690F8690033F8124004F0A9FC04F287
:103200009D7404444FF47A712846B4FBF1F1BDE893
:10321000384001F5B4710BF0F9B900BF2AED020096
:103220002DE9F843054691F88E800C4616461F4658
:103230001BB10121204603F05BFC94F8D831032B2D
:103240003DD8DFE803F00239333926B940F22321B3
:103250003520FDF71DFB012384F8D8312046FFF708
:10326000C3FF4FF00009D4E96C3219EB030342F1BC
:103270000002C4E96C32C5E9043200232B7094F8D3
:103280008E600B3EF3B21A2B9FBF3A4EDE40F643E0
:1032900006F0010688BF0126204686F001060BF0E5
:1032A000A4FD00B176B100232B7211E00323D4F802
:1032B000E09184F8D831D6E7D4F81890D3E740F2FB
:1032C0005D21C5E794F8D831012BDAB22BD12A72EF
:1032D00000236B7204F130000BF03BF96860002FA3
:1032E00046D0A8F10D08B8F1010F41D9494628464A
:1032F0000AF065FE1FFA80F820460BF076FD0746BF
:10330000D6B9804518D32E72D4E96C3109FB00F28E
:103310009B1841F10001C5E90431B9F1000F04D156
:1033200040F2A72194E70223BEE7494628460AF067
:1033300046FE38441FFA80F84146204603F0D8FB89
:10334000D5E90423C4E96C23236F8BB1B4F8BE1014
:10335000B4F888305B1A1BB2002B09DDB4F8742076
:103360001344013BB3FBF2F313FB0213A4F8BE308A
:10337000BDE8F883050000042DE9B841044618B9FA
:10338000F4213520FDF784FA07295AD8DFE801F047
:103390000442423E59484F5690F8D8310BB9FC21AF
:1033A000EFE703F0E5FA00284ED0DFF8A080A5692A
:1033B00098F801301BB9236B9D4228BF1D4604F1CC
:1033C00030000BF0C6F800F16707022007F0C6FADC
:1033D000ED1B25EAE575854228BF054602212846F2
:1033E00007F010FB00B92F444FF4B1723946204664
:1033F0000BF000F9C8F80400A06907F061FA08B9F9
:10340000EE21BEE7BDE8B8410BF0B3BCBDE8B84162
:1034100004F064BABDE8B8410122002109F0EABD18
:10342000012005F06BFABDE8B84109F076B890F8D4
:10343000D831042B08D04FF49171A2E740F2271144
:103440009FE740F22B119CE7BDE8B881C411002032
:10345000024B0022C3E90022FFF786BEC411002000
:10346000014B5870704700BFC411002038B50446A6
:1034700020B940F291113520FDF70AFA90F8D831C1
:1034800003F0FF0513B14FF4C971F4E790F8D93197
:10349000202B02D040F29311EDE70146044806F0DC
:1034A0009BFC84F8D901202814BF28460D2038BD84
:1034B0007933000008B503F049FF054B5A68824292
:1034C0002ABF1878002080F0010000F0010008BD3C
:1034D000C411002010B50446042936D8DFE801F0F5
:1034E000031A161E31001B4B1B7803F0FF026BB949
:1034F000012109F07FFDB4F888300133A4F8883049
:1035000004F01AF9BDE8104006F01EBB042384F84D
:10351000D831F5E7032384F8D83110BD8369C0F8AA
:10352000E031D0F8FC318362B0F8F8318385D0F80F
:1035300000328361D0F804320362FFF755FE0223A4
:10354000E9E7BDE81040FFF74FBE40F23D313520BE
:10355000FDF79EF9C4110020014B00221A6070474C
:10356000CC11002008B5044B186810B9FFF7F4FF20
:1035700008BD0C20FCE700BFCC110020C3693BB99B
:1035800083692BB9034B1B681B1A5842584170477B
:1035900001207047CC11002010B5D0E906436BB173
:1035A000D0E902211144DA689C610A44DA60826938
:1035B0003AB1D3610023C0E9063310BD034A146059
:1035C000F5E7002BF6D0DA60F4E700BFCC1100205D
:1035D00008B5C16191B90F4A1368836103B1D8611D
:1035E0001060C2690023C3609AB1D3687BB181685F
:1035F0008B420AD22D213720FDF74AF98B69886169
:103600008361002BEDD0D861EBE75B1AC360002328
:10361000D36008BDCC110020014B1868704700BF73
:10362000CC110020034B1B68002003B970471846DB
:103630009B69FAE7CC1100200B4B00221B6830B5C8
:1036400004464FF0FF35104623B911B9002808BFD2
:10365000104630BDDA68A24203D3AA423CBF1546E9
:1036600018461A469B69EFE7CC11002038B5036A6B
:103670001BB182689C68A24203D2CD213720FDF79E
:1036800007F9C1698569D9619D6141B18B6199690A
:1036900041B1CB61C1680A44121BDA6038BD0249EE
:1036A0000B60F4E7D960F9E7CC110020F8B5264BA0
:1036B0000446084600211D680B466DB95BB198426F
:1036C00025D3B0FBF3F1013C03FB01F51C44B4FB33
:1036D000F3F48C420ED9F8BD2E690BB19E4207D28D
:1036E00026B94FF496713720FDF7D2F8A98A3346F0
:1036F000AD69E2E7B5FBF3F603FB165626B9B5FB59
:10370000F2F602FB1656DEB10139ED1AE1E7451E6D
:103710001D44B3FBF4F4B5FBF0F5AC42DBD3B3FBD3
:10372000F5F605FB16374FB9B6FBF2F702FB176744
:1037300027B9B6FBF1F701FB17671FB10135ECE7BD
:103740002846C8E73046C6E7CC11002010B504462D
:1037500009F0BAFC08B9002010BDE04309F0B4FC40
:103760000028F8D0E31683EAA4635A1E1A42F2D066
:1037700020460AF08AFF1828EDD8A3B2B3EB144F05
:1037800004D184EA142313F0FF1FE4D0034B6340F9
:103790005A1E1A4214BF01200020DDE7D6BE898ED2
:1037A000F0B5070CA7F5AA42144B543A012A03EAD4
:1037B00090231FD927F4004042F6AA22801A18BF8E
:1037C00001200022162116461F2487EA060562EA18
:1037D0000505013510D0DD03ADB245EA5606E50317
:1037E000ADB2013945EA52024FEA53034FEA54049D
:1037F000EBD1F0BD0020E4E70020FAE7E0FF3F0056
:1038000010B50446084809F06DF82046074909F04C
:1038100084FA204608F0BEFF20B12046FFF7F6F8F4
:10382000002010BD1220FCE7D4110020DC11002084
:103830002DE9FF410678012E074640F0878031468A
:103840000020FDF717FC054620B940F6C561392078
:10385000FDF71EF8BB88002B72D108F016FF002878
:1038600070D195F80031002B6ED12846FFF7C8FFC4
:103870000446002860D131463046DFF83C81FDF730
:10388000F9FB98F8183006461BB110B940F6E16113
:10389000DDE7D8F814200392002B45D096F80031CC
:1038A000002B41D07B88002B3ED198F80430009348
:1038B000D8F8102098F8061003AB304608F0E2FF65
:1038C00090B3304609F053FA06F14003074605F17C
:1038D00040026C3653F8041B42F8041BB342F9D182
:1038E0002846FFF78DFF024610B140F60371AEE7A0
:1038F0000C2F07D101462846FFF7A4FBE0B940F69C
:103900000771A4E717B140F60C71A0E798F80530ED
:10391000296D43F0040385F854302846FFF764FB13
:1039200050B940F60E7192E7BA8879882846FFF7B9
:1039300089FB002808BF0724204604B0BDE8F081B9
:103940001124F9E73A24F7E70C24F5E701210020D8
:10395000FDF790FB054610B940F6217177E709F0B5
:103960007DF904460028E7D195F8543095F8902069
:1039700022B195F89120134385F89000053B012B67
:10398000DAD82B6D13B940F6317160E70121084692
:10399000FDF770FB294606464FF4887207F0E2FEF9
:1039A0000423316D86F854303046FFF71DFB0028A4
:1039B000C2D140F636714AE7D0110020304BF0B545
:1039C0001A88B0F85C70B0F85A605D88974228BFDA
:1039D0001746964228BF16461B2E85B00C462ED0A1
:1039E000B5F5A47F2DD040F648039D4201A928BF1C
:1039F0001D4609F02BFCBDF80A309F4228BF1F4628
:103A0000BDF80C30E780AB4228BF2B462381BDF8C0
:103A100006309E4228BF1E46BDF8083066809D4293
:103A200028BF1D46A580FF232370E3881B3B9BB264
:103A3000E02B08D940F2F7513920FCF729FF1B2F62
:103A4000CED105B0F0BD63881B3B9BB2E02B02D901
:103A500040F2F951F0E72389A3F5A4739BB2B3F5C3
:103A6000E06F02D940F2FB51E6E7A388A3F5A47307
:103A70009BB2B3F5E06FE4D940F2FD51DCE700BF43
:103A8000D011002070B5154D0AF01CFA01F026F88F
:103A900000F092FD0AF0BCFC01F080FA02F0F0F8B0
:103AA00001F0A4FA2A460E4B42F8043B0D4B0E4996
:103AB000196000241B219980DC821C835C745C8269
:103AC0000A4B2C771868197968600833117193E8EC
:103AD000070005F10C0686E8070070BDD011002034
:103AE0001B0048011C16002003021B0030ED0200E1
:103AF000044B41F64C52C3E902221B221A74FFF711
:103B0000C1BF00BF1C160020014B93F92200704773
:103B1000D0110020034B5A8802801B78837000204C
:103B2000704700BF1C16002013B583781A2B04467B
:103B300009D8042B05D9012202FA03F3114A1342D2
:103B400005D1122017E0292B01D03B2BF9D1208879
:103B5000B0F5706FF5D269460AF003FA68B9019BB7
:103B600093F8282102F0FF004AB9A27883F82921AE
:103B7000FF2283F8282102B010BD0220FBE70C20B1
:103B8000F9E700BF200038040188A1F11B039BB2B4
:103B9000E02B0CD84288A2F5A4739BB244F24810E3
:103BA000834204D8034B002019805A8070471220AA
:103BB000704700BFD0110020034B1A885B88028039
:103BC00043800020704700BFD011002038B5047832
:103BD0004278857804F0010352EA030104F00204FC
:103BE00001D1112038BDBCB9002DFAD0002B08BF7F
:103BF000144601E000242546204609F0EEFA00288C
:103C0000EFD0284609F0E9FA0028EAD0054B002059
:103C10009C74DD749882E5E7002BEBD114461D46B9
:103C2000EAE700BF1C16002013B5008869460AF0B9
:103C300098F918B10224204602B010BD019809F08D
:103C400079FA0028F6D0019890F83A310BB13A246D
:103C5000F1E790F8DC3003F0FF04002BF7D190F887
:103C6000D3309B0703D1FF2380F83A31E3E70249C1
:103C7000D4300AF0F5FBDEE7B9EB0000F8B50378C5
:103C8000032B044602D912252846F8BD4378032B9E
:103C9000F9D8467E0EB11125F6E78378012BF2D1D3
:103CA00000F080FCC307F6D5A27812F0010514D00D
:103CB000E178A568236901294AD83D49A3F25370E8
:103CC000884247D86FF41C7CA5F6C4106144884232
:103CD00040D89D4234BF12250025900712D5E078C8
:103CE000A3682169012837D83248814236D8A3F623
:103CF000C41CA0F6C410844530D88B4234BF1223B4
:103D000000231D43510712D5E178A26823690129D8
:103D100026D82949A3F6C410884223D8A2F6C41095
:103D200088421FD89A4238BF12263543EDB2002D83
:103D3000AAD1237E013B062BA5D801212846FDF7F9
:103D400099F9064680B940F6C6513920FCF7A0FD26
:103D50001225C2E73025C0E71223D2E73023D0E78F
:103D60001226E2E73026E0E7A03008F0D0FF18B1D5
:103D700096F854309A0718D1E278A178A068B4F880
:103D800000C0267E012A1ABFB2FA82F2520902222C
:103D9000CB0748BF2769094BC3E9040719715A715A
:103DA000A3F806C01E7219736EE70C256CE700BFFE
:103DB0003CF670028FFD7002CBF37002D011002030
:103DC00000B589B043798DF8043083798DF80530DA
:103DD00001238DF8063003788DF80730B0F80130F4
:103DE00040F271214B430393B0F803204A430C493E
:103DF0000592097A8DF81C1000218DF81D100949D3
:103E0000A2F6C4128A4209D8A3F6C4138B4205D87D
:103E100001A8FFF733FF09B05DF804FB3020FAE793
:103E2000D01100203C369C002DE9F04F437A9907D1
:103E300044BF43F001034372447A62078BB00546E6
:103E400004D1122738460BB0BDE8F08F14F0F80FFC
:103E5000F7D1022CF5D000F0A5FB34EA000340F0C6
:103E6000B78195F84870002F40F0B281012CE8D15D
:103E7000AB69AF4AA3F25371914200F2A781EA689D
:103E80009342DED8B5F842300193AB8F00932A8E6F
:103E9000EB8E698DA88C09F0ADF9002800F09681B1
:103EA0002B789A1E022A40F29381012BC9D813B9AC
:103EB000AB78012BC5D86B78032BC2D895F8493065
:103EC000013B062BBDD8DFF86CA201210020FDF7D5
:103ED000D1F89AF81830064673B901210846FDF763
:103EE000C9F8002818BF064606F1A00008F00FFF29
:103EF0008046D8B10C27A5E7A03008F008FF0028BD
:103F0000EBD0D6E928126FF000439A4208BFB1F116
:103F1000FF3FE2D16B7A0093EA68697805F11803F4
:103F2000304608F0AFFC80460028D6D0304608F076
:103F3000B2FB08B13A2785E7304608F0A6FB814678
:103F40000028F7D101460DF11600FDF71DF80446D3
:103F5000002800F03981784BBDF816B0186807903A
:103F600049461B79DFF8D4918DF82030204600F0C7
:103F700089FF734BC4F8E8312046D9F80830A4F81B
:103F800000B040F8303F09F050F8039000F004FB17
:103F9000039B63876B4B99F810201B6884F83820CB
:103FA00010F0200F0FBF1B21B9F80410B9F8020060
:103FB000A4F85A0008BFA4F85A10A4F85C101BB16A
:103FC00094F96C1058469847B9F80430B9F80220B3
:103FD00099F80110019199F8001000910333033210
:103FE0009BB292B204F1140104F11000FDF7B4F891
:103FF000236923B941F243113920FCF749FC636975
:1040000013B941F24411F7E709F06EF8E06101F0ED
:10401000BDFA20F07F40606295F84A3005EB43031B
:1040200040F2E24B598D988C5A460BFB01F10BFB89
:1040300000F0FFF73BFBA4F8C4B1A061C4F8C001D5
:1040400095F84A30D9F80C1005EB430320461A8E38
:10405000DB8E2284638408F0E5FF07A904F1960053
:104060000AF039F8FF2384F8EC31DAF8243023B170
:10407000012204F595712046984799F812A099F805
:1040800013B0B9F81490BAF1000F40F0EF8000F0CF
:1040900089FA8246BBF1000F40F0E48000F082FA1A
:1040A0008346BAF1000F21D1092701F06FFA0C23E2
:1040B000B0FBF3F202FB1300C0B2431DDBB2082BCE
:1040C0009ABF0D3084F8A20084F8A2300121204666
:1040D00000F0D8FE002F40F0C3802046FFF7C6F95D
:1040E000B8F1000F0FD0A0B10746ACE00028DBD03C
:1040F00006A920468DF818A08DF819B0ADF81A90D1
:1041000009F0B2FFD1E70028EED16978304608F017
:1041100073FB05F1030AAA7829785346304608F064
:1041200018FB002856D1B8F1000F4BD11220DBE765
:104130003CF67002D0110020794203001C160020CA
:10414000EC11002090050020DDF81C904C4566D055
:10415000BBF1000018BF012099F8022009F1030308
:10416000514609F0B0FE002859D099F80920607A2C
:1041700009F10A0304F10A0109F0A5FE00284ED056
:104180000B2760E0EB6808936B7A8DF81C80DB07E7
:1041900044BFAB69099307A948BF0123304648BF14
:1041A0008DF81C3008F0B9FD95F84910304608F03C
:1041B000CDFA21463046FEF717FF00287FF442AEC5
:1041C000072740E012273EE00D273BE6302739E67F
:1041D000112737E6B8F1000F02D13046FEF716FC82
:1041E000AA7829785346304608F013FBB8F1000F3F
:1041F00002D1042386F854303465AB7813F0FD0FF8
:10420000524614BF01210021304608F01DFB2B78D7
:1042100053B995F802B0CDE907330BF0FD0B07A8B1
:10422000FCF762FF00288FD00121304608F027FB01
:10423000B8F1000FA6D00421304608F0B4FA0028E7
:104240007FF400AE0C27208800F042FA208800217D
:10425000FCF726FF00283FF4F5AD41F20A41CBE61A
:10426000384641E700283FF41FAF41E7BBF1000F9C
:104270007FF43EAF12E700BF10B54379032B94B033
:1042800056D823F002038DF80630D0F80630CDF86A
:1042900007304389ADF80B3002798DF804200123F3
:1042A0008DF80D30027B03888DF8052040F27122D5
:1042B0005343049341884A430792847B417B41EAFC
:1042C0000421ADF82810047CC17B41EA0421ADF83B
:1042D0002E10847C417C41EA0421ADF83410047D29
:1042E000C17C41EA0421ADF83A10417D847D41EA68
:1042F0000421ADF84010C17D007E41EA0021ADF8F7
:10430000461000218DF84C100B488DF84E100B49CB
:10431000007A8DF84D00A2F6C4128A420AD8A3F69C
:10432000C4138B4206D801A8FFF77EFD14B010BD60
:104330001220FBE73020F9E7D01100203C369C002A
:1043400038B501210020FCF795FE054620B941F261
:104350003C413920FCF79CFAA03008F0D8FC1E4BF9
:104360001B7E5BB3F0B195F85430053B012B19D897
:10437000284608F0FCFC044610B141F24741E8E74A
:104380002846FEF7D9FA95F8543023F0040385F84F
:104390005430224621462846FEF754FE80B941F2A9
:1043A0004C41D6E701210846FCF764FE054610B9EA
:1043B00041F25341CDE7A03008F0A9FC10B90C241C
:1043C000204638BD284608F0D2FC04460028F7D124
:1043D0002846FEF7B1FAF3E7D01100200278034631
:1043E00072B1427862B142881A2A09D982881A2A9F
:1043F00006D9044A006810609B88938000207047AB
:10440000122070471C160020024B02689A600020A0
:10441000704700BF1C160020024B0268DA600020C3
:10442000704700BF1C1600200378A3F10A02112A6E
:104430009DBF024A00201374122070471C160020F2
:104440000378FF2B15D14378FF2B12D18378FF2BF4
:104450000FD1C378FF2B0CD1037923F0E0021F2A80
:1044600007D113F0E00F04D0034A5B091372002058
:1044700070471220704700BFD011002008B50520FA
:1044800000F07CF80AF0ADFC014B024A5A6208BD0C
:10449000D0110020BD39000008B5FFF75DF8FEF728
:1044A000D7FFFFF731FBBDE8084001460148FEF7A2
:1044B0005FBA00BFF811002008B5FEF78DFAFFF7CC
:1044C000EBFF09F0FDFC074800F58471FDF7D0F81B
:1044D000002007F0A3FF0AF082FCBDE8084000F0CE
:1044E00067BF00BFF811002010B5094C094904F559
:1044F000037009F02BFB04F50470074909F026FB53
:1045000004F505700549BDE8104009F01FBB00BF68
:10451000F81100209C050020A4050020940500202F
:1045200038B5094C0D4600F01FFFD4F80C02C4F852
:10453000045109F003FBFFF7DBFA01F03FF8012318
:1045400084F8183238BD00BFF8110020014B93F8F1
:1045500018027047F811002010B5074CD4F810026B
:1045600009F0ECFAD4F8140209F0E8FAFFF78AFA35
:10457000002384F8183210BDF8110020C208054944
:10458000012300F0070003FA00F08B5C1843885405
:10459000704700BFD8040020014BD3E900017047E9
:1045A000D8040020034B1868C0F30020400040F0FE
:1045B00001007047D804002008B50AF003FD084A3E
:1045C000002332F82310814205D302EB83039B784A
:1045D000044A137008BD01330C2BF2D10023F7E716
:1045E00044ED020011140020024B1878072828BF60
:1045F000072070471114002010B544682388A4F8E0
:10460000783194F8683084F87711012B06D0022BAA
:1046100004D040F217310620FCF73AF984F87A31D9
:1046200094F86930012B01D0022BF2D184F87B3150
:10463000044904F5B77009F013FF002384F83431FE
:1046400010BD00BFB9DB0000406808490388A0F82E
:104650006A3190F8603080F86C3190F8613080F801
:104660006D3100F2611009F0F5BE00BFCFDB000034
:1046700030B505680446084651B115B12179994213
:1046800015D1FF216171237122600023637130BD58
:10469000002DFCD0FF23637123792160012205499D
:1046A00002FA03F3C1F8083560711046EFE7002005
:1046B000EDE700BF00F00140044B002283F8222008
:1046C0004FF6FF729A84DA841A857047121400201C
:1046D000054B9A8C824201BF002283F822204FF6BC
:1046E000FF729A84704700BF12140020014BD884D7
:1046F000704700BF12140020094A0346908C4FF601
:10470000FF71884206D192F82210012905D01A6063
:10471000012070470020186070470020704700BFDC
:1047200012140020064B93F82220012A1FBF0120FB
:10473000DA8C83F822009A8408BF0020704700BFFB
:1047400012140020014B1885704700BF121400207E
:10475000064B0246198D988C884205D193F82200A9
:1047600018B1136001207047002070471214002018
:10477000094B998C1A8D914201D0002070474FF659
:10478000FF729A8493F82220002AF6D0002283F840
:1047900022200120704700BF12140020054B998C85
:1047A0001A8D914203BF93F82200B0FA80F04009BD
:1047B000012070471214002050B90A4A1346012004
:1047C00003F8010B0868C2F801008A889A807047D4
:1047D000012805D1034B0A689A608A88D8719A81AA
:1047E000704700BF3C14002048B90A4B187880B1CC
:1047F000D3F80120B3F805300A608B807047012898
:1048000006D1044BD87920B19A680A609B89F4E7F5
:10481000002070473C14002020B9054B187800F0A8
:104820000100704701280ABF014B0020D879F6E744
:104830003C140020F7B500228B888DF80600ADF8F7
:10484000043008680C4B8DF80720019D1C78014648
:1048500003F5AC73D0B2844201D8082009E0D3E953
:104860000076AE4208BF8F4203F1080302F1010255
:10487000F0D103B0F0BD00BF5014002030B5094B9B
:1048800001465C78002203F58173D0B2844201D8DE
:10489000082005E013F8015B8D4202F10102F4D11A
:1048A00030BD00BF50140020F8B52E4C6278013A9C
:1048B000D2B22318824293F80251627032D01301AF
:1048C00001019E1C8F1C2644274406F1100C56F84B
:1048D00004EB47F804EB6645F9D182338231234477
:1048E000214403F1100653F8047B41F8047BB342E2
:1048F000F9D1A618211896F8023181F802314FF447
:104900008577062313FB027213FB0070A318A258CD
:10491000225004EB000C9B88ACF8043096F83A3136
:1049200081F83A312846FFF7A9FF082818D12378E3
:10493000013BDBB29D42237012D02B3304EBC30347
:1049400093E8030005F12B0204EBC20282E80300A6
:104950002078FFF793FF08281CBF241884F8025121
:10496000F8BD00BF50140020F0B5254D95F89841D2
:1049700089B0224605F29911684606F0F3FE2146F9
:10498000684609F0BEFA0446B8B300EB4001C9B26C
:1049900002A8FCF7FDF8601E95F8A161C0B20124E1
:1049A00095F8982105E0731CB3FBF2F102FB11337B
:1049B000DEB206F120030DEB030111F8203C002BC1
:1049C000F1D100EB400220326A4406EB46032B444F
:1049D00012F8187C83F8A27112F8177C12F8162CC2
:1049E00083F8A37183F8A42101F8204C0138AB1996
:1049F000C0B2FF2883F89941D2D109B0F0BD00BF01
:104A00005014002070B5064688B00C46002A4FD0DE
:104A10002A4A92F8A131D01890F8991121B94FF48F
:104A200080712820FBF734FF03EB4301114401336D
:104A300091F8A251E57091F8A35191F8A411617118
:104A40000021257180F8991192F89811B3FBF1F0CB
:104A500001FB103382F8A13192F8C23123B9184911
:104A600002F5DD7009F0F9FC657905F03F0545F0C8
:104A7000400565710D220021684606F0EBFEE378E3
:104A80008DF80F3023798DF80E3004AA042369467F
:104A900030468DF80D5006F033FC9DF81F30237022
:104AA0009DF81E3063709DF81D30A37008B070BD76
:104AB00003216018FCF76CF8D6E700BF5014002003
:104AC00069490000044B5A78824286BF1B1893F84C
:104AD00042010020704700BF50140020064B002206
:104AE0004FF461711A8083F8C32183F8C421A3F8BD
:104AF000C61183F8C221704750140020014B83F87F
:104B0000C40170475014002010B51446FFF792FE00
:104B1000082803D1012000F0010010BDFFF7AEFE10
:104B2000064B5A788242F5D904B12070184490F8A7
:104B30003A31012BEED090F84A01ECE750140020F6
:104B40002DE9F0478246894617469846FFF772FEE0
:104B500008280546064603D0FFF790FE082863D1D3
:104B6000334C6378072B61D8082D18D12678731C35
:104B7000072E237003D96B212820FBF789FE06F14D
:104B80002B03DAB2D9F8000044F8320004EBC2017A
:104B900004EBC303B9F804208A8083F806A0657883
:104BA0006B1C290163704B1C07F11002234412F89F
:104BB000010D03F8010FBA42F9D1813108F1100358
:104BC000214413F8012D01F8012F9845F9D1102146
:104BD000404609F0E8F92544102185F8420138469D
:104BE00009F0E1F985F80261667885F84A01002349
:104BF00085F83A3131460F4809F083F931460546C8
:104C00000D4809F07EF9012D03D8002818BF0135A1
:104C1000EDB284F898510025284684F8A151FFF799
:104C2000A3FE2846BDE8F0871220FBE70720F9E73E
:104C300050140020921500209A15002010B5064B44
:104C40005878013840B2002800DA10BDC4B22046BE
:104C5000FFF72AFE601EF5E750140020014B83F891
:104C6000C301704750140020014B93F8C3017047F3
:104C700050140020431E9BB24AF2B71293429DBFCC
:104C8000024BA3F8C60101200020704750140020F9
:104C9000014BB3F8C60170475014002030B50A4BE1
:104CA0005C7884420ED9184490F802012B3003EB53
:104CB000C004A5790D7053F830001060A38893806C
:104CC000012030BD0020FCE75014002002460748B8
:104CD00010B590F8C34124B1417821B1023001F000
:104CE00071FF204610BD0C46FBE700BF50140020AA
:104CF000F8B5184C064648B3617804F5A17009F080
:104D000000F994F898510746294604F2991009F0E1
:104D1000F8F82D1AEDB2AF421AD8002506270FE099
:104D2000E21892F8422152B907FB034104EB031346
:104D3000324601F5857103F18200FFF763FE01350C
:104D40006278EBB29A42EBD80120F8BD0546E5E760
:104D50000020FAE750140020F0B51B4E7378834210
:104D600089B007460D462CD9331893F8424144BB0D
:104D70000D222146684606F06DFDEB788DF80F3068
:104D80002B798DF80E3006EB07106B798DF80D300E
:104D900004AA04236946823006F0B2FA2A789DF804
:104DA0001F309A420AD16A789DF81E309A4205D186
:104DB000AC789DF81D00231A5C425C41204609B086
:104DC000F0BD0020FBE700BF50140020074B5A78CD
:104DD000824209D91A1892F842212AB9062202FB06
:104DE000003000F585707047002070475014002097
:104DF000F8B50E46074606213046154609F0D3F8A9
:104E0000044640B10A482946427800F59D7006F0F4
:104E100021FD2046F8BD3146384609F08EF80828B5
:104E20001FBF034BC018012480F83A51F1E700BFBF
:104E30005014002030B50024A0F84240B0F846409D
:104E400042F210754C43B4FBF2F4A0F84640541EF5
:104E500005FB0343B3FBF2F3A0F84430084BB3FB6C
:104E6000F2F30133A0F84A30838F05FB0344436B10
:104E7000B4FBF2F459438463B1FBF2F2426330BDF8
:104E8000005A620270B504460D4649BB4FF40E72DB
:104E900006F0E0FC012384F896306FF0360384F8C6
:104EA000E330042384F8E4306FF03B0384F8E5300A
:104EB0006F2384F8E6306FF03F0384F8E7302B234C
:104EC00084F8E230FE2384F81E317F2384F88D308D
:104ED000202384F8E85084F8E95084F8D93170BD73
:104EE000012912D182690D4B1344B3FBF2F3C0F8D0
:104EF000B83040F6B833A0F8BC30438C114604F10A
:104F00008000BDE87040FFF795BF0229E7D1B0F8F7
:104F10000632D0F800228169F1E700BF7FC3C901E2
:104F2000034B80F86C101B680BB100881847704762
:104F3000AC050020074B93F900301844142804DC1A
:104F400010F17F0F03DB40B27047142070476FF001
:104F50007E0070471816002007B57F230DF107006B
:104F60008DF8073002F086FC9DF9073068B10A4AD7
:104F70005078404243FA80F0142808DC10F17F0F8B
:104F800007DB40B203B05DF804FB1846FAE71420D3
:104F9000F8E76FF07E00F5E718160020024B0022BC
:104FA0001A705A70704700BF18160020054B1B7806
:104FB00033B9054B1A681B790260037101207047F1
:104FC000002070471A160020E0040020054BFF2245
:104FD0001A70054A016811600179117100221A7076
:104FE000704700BF1A160020E004002007B5064BEA
:104FF000186800901B798DF804306846FFF7E6FFCB
:1050000003B05DF804FB00BF79420300034640781B
:1050100048B1DB783A2B05D8034AD35C1B1A5842B7
:10502000584170470120704774ED02003A2908B5D5
:10503000C17003D8064B5B5C437008BDFF2904D0E8
:105040004FF489612A20FBF723FC0123F4E700BF1A
:1050500074ED02002DE9F04385B0894602A914469B
:10506000984608F07EFF054690BB039E2CB90120B0
:1050700086F8950005B0BDE8F083376921463846CB
:1050800007F006F801460028F4D0134B5B88A342D2
:1050900020D301AA384607F03EF996F895300198DA
:1050A000002B0CBF4946022109F00FF90198414637
:1050B0002246033006F056FB2146384607F02DF80D
:1050C00018B97A212B20FBF7E3FB86F89550D1E73E
:1050D0000120CFE72846CDE71C160020024B987D23
:1050E000C04300F0010070471C160020034B987D60
:1050F00080F00200C0F34000704700BF1C16002083
:1051000083230B70014B1B78CB707047381600203F
:105110007FB505460C4621B94FF48B711020FBF783
:10512000B7FB03888B8000234B724669304607F03B
:10513000E4F8014610B940F21F11EFE701AA30462A
:1051400007F0E9F8E08010B94FF49271E6E7FB2828
:1051500002D94FF49371E1E7019809F0BEF80128F4
:1051600001D0022805D12072206828B940F23D11F3
:10517000D4E74FF49B71D1E70199E288033106F03F
:10518000F1FA304607F0CFF810B94FF4A171C5E736
:105190000021304607F025F810B940F24711BDE76D
:1051A0000A4BDA7D82B11A8B2888013A02A91A8348
:1051B00008F0D7FE10B14FF4A871AFE7039AB2F828
:1051C000A6300133A2F8A63004B070BD1C16002032
:1051D0002DE9F74306460D464FF0050800274FF02E
:1051E00003092B693BB11B7A2BB12C699CB90020B8
:1051F00003B0BDE8F0836C68237A012BF7D0EFF39E
:10520000108372B66A6812686A6003B962B6237A5C
:10521000002BE6D02C61237ADBB284F80880013BB6
:105220000B2B66D8DFE803F0620620345F653D652E
:1052300065656552636823B94FF4EE711020FBF782
:1052400027FB2046314698470420EFF3108372B6BF
:10525000227A052AD1B201D0002953D127722F61B9
:10526000002B4BD162B649E0636813B940F2E511F7
:10527000E4E73146204698470346C3F30723012B52
:10528000ADF80400C0B237D0022BDED12F6135E07B
:10529000636813B940F2EF11D0E720469847002029
:1052A000D3E763680BB9DB21C8E70D223270198898
:1052B000A6F80310012200241869B2707271B4714B
:1052C000214606F08EFF2C61042091E7606810B93A
:1052D00040F21A21B2E70E4B31461B689847002373
:1052E0002B61022084E740F22321A7E740F2262128
:1052F000A4E740F22921A1E784F8089000283FF4B0
:1053000070AF75E7002B7FF46CAF62B669E700BF42
:10531000B005002070B5134C1426231D3246002121
:10532000184606F097FA0346012525740021043338
:10533000324604F11800C4E9013306F08BFA84F810
:10534000245004F11C03C4E906330023E362236301
:1053500084F83430C4F83530C4F8393084F83D303E
:1053600070BD00BF3816002010B5084C2378FF2B05
:1053700004D04FF4B7711020FBF78AFA06F008F852
:105380002070BDE81040FFF7C5BF00BFE504002056
:1053900010B5034C207806F017F8FF23237010BDDA
:1053A000E5040020014B187806F01EB8E504002043
:1053B000014B024A1A607047B005002011510000ED
:1053C00038B50B4D05F118010446FFF701FF70B920
:1053D000AB681B7A0C2B04D1064BDA7D0AB11B8B10
:1053E0002BB120460449BDE83840FFF7F1BE38BD77
:1053F000381600201C1600203C16002010B513465D
:10540000027A22B140F2C9211020FBF741FA0A4684
:10541000BDE810400146014808F0FCBF3C160020E2
:10542000044890F834301BB903492C3009F00FB808
:10543000704700BF3816002007E400000346064806
:1054400090F83E203AB190F83D2022B900F8353B63
:10545000024908F0FCBF70473816002001510000D7
:1054600010B50A46037A23B140F2D1211020FBF790
:105470000FFA0146BDE810400148072308F0CABFF3
:10548000501600201346027A0AB1037270470A468A
:105490000146014808F0BEBF3C1600201B234FF018
:1054A0001B128384038482618382C260038539B9BD
:1054B0004FF4A473034AC3844384C261C38202616C
:1054C000704700BF480148010346F0B4B3F85420C8
:1054D000B3F84840B3F84460DF8FB3F842509442C9
:1054E00028BF14460846B3F84C20B3F85610DC87A2
:1054F0008A4228BF0A46B3F84610A3F842209142D8
:1055000038BF1146A64238BF2646A742A3F84460DA
:10551000A3F846101FD1AA1A18BF0122B3F84A50A7
:10552000B3F85040B3F852709E8FB3F84010A542C4
:1055300028BF2546B3F84E409D87BC4228BF3C4655
:10554000AE42A3F8404002D1A14200D12AB1F0BC42
:10555000034908F085BF0122E0E7F0BC704700BFB7
:1055600067E400000B8BA2F80B304B8BA2F80D30D8
:105570008B8BA2F80F30CB8BA2F809000249A2F85E
:105580001130104608F066BFB7E40000094AD2E9BE
:105590000003434083EAB01181EA43214FEAF34319
:1055A0005360054B116058434FEAF06000EB8000F8
:1055B000704700BFE8040020BB79379E10B50A4C45
:1055C00009480821FBF7E4FAD4E900231343F7D094
:1055D000064CFFF7DBFF2060FFF7D8FF2368606011
:1055E0000343F6D010BD00BFE80400207816002069
:1055F000174B184A9A60184ADA62184A1A61184A10
:105600005A61184A9A61184A1A63184A5A62184A23
:10561000DA64184A9A64184A9A63184B184A9A60CE
:10562000184A1A62184A5A60184A1A60184A9A6246
:10563000184ADA62184ADA60184A9A61184A1A63F4
:10564000184A9A64184ADA64184A5A62704700BFC6
:10565000B4050020BDE7000035EA0000FFE90000C6
:10566000C3E9000039590000015B0000E95900005E
:105670003FEB00005BEB00009D590000A0060020FE
:10568000DFE70000FFEA0000F3E700002DE800007C
:1056900093EA000051EA0000B5EA000075EA000054
:1056A000D7EB000083EB000079EB000019EB000062
:1056B000054B064A1A65064A5A65064B064A1A659C
:1056C000064A5A65704700BFB4050020D3E80000C1
:1056D00061E80000A006002047E8000081E9000022
:1056E000054B064A9A65064ADA65064B064A9A65EC
:1056F000064A1A66704700BFB405002007DD0000A7
:10570000D7DD0000A006002053DC000039DE0000D9
:1057100070B50C46252A00F2CC80DFE802F0133782
:10572000404BCACA4A6264694A4A6DCACACACA7840
:105730004A4A929298CAA0CACACACACACACACACA95
:10574000CAB3BCC3416840F2E240D1F80032B1F8BC
:10575000F821B2FBF0F22271D1F8FC21B3FBF0F397
:10576000B2FBF0F2E3716271C3F30723C2F30722C5
:10577000A2712372B1F8043263721B0AA37220462D
:10578000B1F80612BDE8704008F0ABBD4368D3F82D
:10579000E81120460131BDE8704008F0A6BD02784E
:1057A0004368012A02D193F8203101E093F82931AE
:1057B000237170BD4568204605F50B7108F09CFD0E
:1057C00005F50D71204608F0A1FD05F50371204691
:1057D00008F09FFD05F588712046BDE8704008F08F
:1057E0009FBD4368DFE7BDE87040084600F03EB962
:1057F000BDE8704000F04CB90E230B7159234B717A
:1058000000238B719A23CB7110230B72D1E703789D
:10581000456873B995F820315BB195F81D112046A4
:1058200008F0C9FD95F81C112046BDE8704008F04D
:10583000C6BD95F81B11204608F0BDFD95F81A115C
:10584000F2E741682046BDE8704008F06CBF43684D
:1058500093F836210A7193F837314B71A9E74568FF
:1058600095F8F30108F02EFA0146204608F09DFD58
:1058700095F8F20108F026FA01462046BDE870408E
:1058800008F091BD0D4B1B68002B92D002462320DF
:10589000BDE870401847094B1B68002B89D00246B1
:1058A0002420F5E7054B1B68002B82D002462520FB
:1058B000EEE740F2FE315120FAF7EAFF8C070020B4
:1058C0003A289ABF024B53F820000020704700BFCF
:1058D000B40500203A289ABF024B53F8200000205C
:1058E000704700BFA0060020F7B545682E69044642
:1058F0004FF6FF770DF102010DF101023046ADF8D0
:10590000027006F026FC01A9304606F045FC40B1C5
:10591000019806F006FD616800220272FFF7A0FD03
:10592000E8E7044905F1A80003B0BDE8F04008F03D
:1059300091BD00BF57E7000038B5436893F88E204B
:105940001B2A044624D1002283F8D12083F8CC20DE
:1059500083F83622436893F8D2101D8803F5D1707E
:1059600069B10C4983F8D220A3F8AC5183F8AB217C
:1059700008F06DFD6368002083F88E0038BD0122B9
:1059800083F8AB11A3F8AC51034983F8AE21EFE7DC
:105990000220F3E7AFE90000A1E9000010B542687A
:1059A00092F88F00E0B94C680E4B8968A2F8CE00DF
:1059B0002340C2F8E23021F41E51C3F3076343F0E1
:1059C000080321F01001090482F8E5300123090CD5
:1059D00082F8D0300423C2F8E61082F88F3010BD70
:1059E0000120FCE72FC904F738B5436893F88E20EF
:1059F000042A32D14D681B4A8C682A40C3F8E22041
:105A000024F41E54C2F3076242F0080224F010048A
:105A100083F8E52024040022240C83F88E204068BB
:105A2000C3F8E64083F8CC2080F83B2193F884014A
:105A300000F0FF0498B91A88A3F8862183F88541FD
:105A40004A68C3F888218A68C3F88C21064903F59F
:105A5000BE7008F0FCFC204638BD0124FBE714466C
:105A6000F9E700BF2FC904F7DDEA000010B50446CE
:105A7000FEF792FD21F41E51044B21F010010904A0
:105A80000340090C6360A16010BD00BF2FC904F77B
:105A900037B50C464568FEF77FFD0A4B95F8E220C6
:105AA00021F41E5121F01001034009040093090C58
:105AB00013408DF8003001916B4603CB6060A1600C
:105AC00003B030BD2FC904F7DB0410B5144604D56C
:105AD000037D13B10023436310BD436B0133436364
